:020000040800F2
:10000000B8170020B101000873250008152000086A
:1000100071250008B90400086D2B000800000000DD
:10002000000000000000000000000000772500082C
:10003000150600080000000075250008532600087A
:10004000CB010008CB010008CB010008CB01000860
:10005000CB010008CB010008CB010008CB01000850
:10006000CB010008CB010008CB010008CB01000840
:10007000CB010008CB010008CB010008CB01000830
:10008000CB010008CB0100084D0300080000000070
:10009000000000000000000000000000CB0100088C
:1000A000CB010008CB010008CB010008CB01000800
:1000B000CB01000801270008CB010008CB01000894
:1000C000CB010008CB010008CB010008CB010008E0
:1000D000CB010008E92A0008152B000800000000E9
:1000E000CB010008CB010008CB0100080000000094
:1000F000000000000000000000000000CB0100082C
:1001000000000000CB010008CB010008CB01000873
:1001100000000000000000000000000000000000DF
:1001200065050008CB010008CB010008CB010008E1
:10013000CB010008000000000000000000000000EB
:10014000000000000000000000000000CB010008DB
:10015000CB010008CB010008CB010008212B0008CF
:10016000CB010008CB0100080000000000000000E7
:10017000000000000000000000000000000000007F
:1001800000000000CB01000800000000000000009B
:10019000CB010008CB010008DFF810D000F07CF89C
:1001A00000480047FD2B0008AFF30080B81700207F
:1001B0000648804706480047FEE7FEE7FEE7FEE701
:1001C000FEE7FEE7FEE7FEE7FEE7FEE7E5260008BE
:1001D000990100082DE9F05F0546002092469B46F4
:1001E00088460646814640241BE02846414647464D
:1001F000224600F041F853465A46C01A914110D3A6
:1002000011461846224600F028F82D1A67EB01081F
:100210004F4622460120002100F01FF817EB00098D
:100220004E41201EA4F10104DFDC484631462A4637
:100230004346BDE8F09FD2B201E000F8012B491E11
:10024000FBD270470022F6E710B513460A46044673
:100250001946FFF7F0FF204610BD202A04DB203AA4
:1002600000FA02F1002070479140C2F1200320FA09
:1002700003F3194390407047202A04DB203A21FA07
:1002800002F00021704721FA02F3D040C2F12002AF
:100290009140084319467047064C074D06E0E06858
:1002A00040F0010394E8070098471034AC42F6D3BD
:1002B000FFF776FFC82C0008E82C000810B50146AF
:1002C000806B026C12F0500F05D0026CD20626D55E
:1002D00000F0D3FA10BD016C41F4007101640168B3
:1002E0008A6812F0405F17D1027EAAB9CA6A12F476
:1002F000700F02D08A6852050ED44A6822F020029C
:100300004A60016C21F480710164016CC90403D45A
:10031000016C41F00101016400F0A8FA10BD806B8E
:10032000C26CBDE810400846104710B5806B4021F4
:100330000164416C41F00401416400F09EFA10BD7B
:1003400010B5806B00F098FA10BD0000014800F075
:1003500095BA0000B4000020464910B54A6822F45E
:1003600040324A604A6843681A434A6001684A68F2
:1003700022F480724A6001684A68036942EA0322F3
:100380004A6001684A6822F040724A6001684A681F
:1003900083681A434A6001688A6822F400628A60AE
:1003A00001688A68C3681A438A60816A6FF0706264
:1003B000D14201688A6822F070628A6001688A68A6
:1003C0000CD0836A1A438A6001688A6822F040521E
:1003D0008A6001688A68C36A1A4301E022F04052C9
:1003E0008A6001688A6822F002028A6001688A686D
:1003F000037E42EA43028A6090F8201000290168D7
:100400004A680FD042F400624A6001684A6822F4E8
:1004100060424A6001684A68174C436A04EB433300
:100420001A4301E022F400624A600168CA6A22F4B9
:100430007002CA620168CA6A838B104C04EB0353D2
:100440001A43CA6201688A6822F400728A600168ED
:100450008A6890F8303042EA43228A6001688A68EC
:1004600022F480628A6001688A68406942EA8020DA
:10047000886010BD0023014000E0FFFF0000F0FF96
:1004800010B50124084801F0D5F928B9052207491B
:10049000074800F013FB08B1002010BD05490020FB
:1004A0000870204610BD00005C0100209C02002066
:1004B000B400002050000020FEE730B501240023E6
:1004C00002E0C55CCD545B1C9342FADB204630BD94
:1004D00010B50123002202E0845C8C54521CC478C5
:1004E000A41C9442F8DC407C8854002000E088542E
:1004F000521C122AFBDB184610BD000030B518490B
:100500000446164A087801231454401CC4B20C70E7
:1005100015780020552D01D0087030BD0B2C01D26C
:10052000022030BD5478512C04D0522C08D0532CCA
:1005300011D10BE052F8024F8C625268CA620AE095
:1005400052F8024F0C6352684A6304E052F8024FBB
:100550008C635268CA630870184630BDB802002028
:1005600070000020014800F03BBB0000FC000020B0
:1005700001681823CAB2103AB2FBF3F2054B6FF3CD
:100580000901032A9B5CC36500D9091D81650846E2
:1005900070470000A02C000810B5014600208B69B0
:1005A0008A6A4FF0C07453B1B3F5005F15D072B1D1
:1005B000012A0CD0022A0AD0032A09D104E01AB178
:1005C000012A06D0022A03D1C96AC90100D5012037
:1005D00010BDC96AA142FAD010BD002AF7D0012A85
:1005E000F2D0022AF3D0032AF3D010BD30B504684C
:1005F000256825F480252560046863608368402BA6
:10060000036803D099600068C26030BD9A600068DA
:10061000C16030BD704700000B4B00204FF40072EA
:10062000A0F1640100EE101A03EB8001401CB8EE4B
:10063000C00A904281ED000AF2DB04499FED040AF2
:10064000014800F035B80000B4030020B40B0020CE
:10065000000048420D4C4FF40055A6146F004FF4B3
:1006600000482946204600F009FD3146204600F0AA
:1006700005FD3946204600F001FD4146204600F0C8
:10068000FDFC642000F01EFCEBE70000000C0240C3
:1006900010B5C27800230221921C04E0445C491C7E
:1006A00023449BB2C9B28A42F8D8D843C0B210BD25
:1006B00010B500230BE000BF00EB8304D4ED000A6B
:1006C00001EB83045B1C70EE800AC4ED000A9342C8
:1006D000F2D310BD70B50A4801F04EFF04000DD0F2
:1006E000642000F0EFFB0648C01E01F045FF10EA51
:1006F000040502D00A2000F0E5FB284670BD00008A
:10070000AB2C00087047000078B50024009490F8E6
:100710003C20012A19D0012280F83C200A680723D6
:100720000568092A13D9EE680A3A02EB420293409F
:100730009E43EE600B788A680A3B03EB43039A40C2
:100740000368DD682A43DA6010E0022078BD2E6974
:1007500002EB420293409E432E610B788A6803EBC2
:1007600043039A4003681D692A431A614A681F239C
:10077000072A13D205686E6B521E02EB8202934069
:100780009E436E630A8893B20A79521E02EB82027C
:1007900093400268556B2B43536327E005680D2A8D
:1007A00012D22E6BD21F02EB820293409E432E6325
:1007B0000B790A88DB1F92B203EB83039A4003682C
:1007C0001D6B2A431A6311E0EE6A0D3A02EB8202B6
:1007D00093409E43EE620B790A880D3B92B203EB85
:1007E00083039A400368DD6A2A43DA621B4B05687B
:1007F000194A9D420AD10D68122D07D1556825F47A
:1008000000055560556845F48005556005689D42B2
:100810001DD1134D0B68AB4201D0112B17D153687A
:1008200023F480035360536843F400035360096862
:10083000A9420CD10B490C4A0968B1FBF2F101EB5A
:100840008101490000E0491E00910029FBD180F898
:100850003C40002078BD0000002301400020014002
:1008600012000010B000002040420F00014901209A
:1008700008707047500000207047704770B50446FC
:10088000006801684268C1F34001C2F3401251B3ED
:100890004AB3216CC90603D4216C41F40071216470
:1008A000816811F0405F17D1217EA9B9C16A11F4A6
:1008B000700F02D0816849050ED4416821F02001F3
:1008C0004160206C20F480702064206CC00403D44C
:1008D000206C40F0010020642046FFF7C7FF21682C
:1008E0006FF012000860206801684268C1F380015F
:1008F000C2F3C01289B382B3216CC90603D4216C40
:1009000041F400512164816811F4401F1ED1816BB4
:1009100011F4401F02D08168490517D44168490588
:1009200014D4816811F0405F10D1217E71B9416803
:1009300021F080014160206C20F480502064206C04
:10094000C00503D4206C40F0010020642046FFF76E
:10095000D9FE21686FF00C000860206801684268C9
:1009600011F0010FC2F380120ED06AB10068C00707
:100970000AD0206C40F480302064204600F046F815
:1009800021686FF001000860206801684268C1F3C7
:100990004011C2F3806200290DD0002A0BD0616C97
:1009A00041F0020161646FF0200505602046FFF709
:1009B00064FF2068056070BD70B504004FF000054D
:1009C00003D0206C002610B107E0012070BD204646
:1009D00000F01EF8666484F83C60206CC00610D4F9
:1009E000206C20F4885040F0020020642046FFF77D
:1009F000B3FC6664206C20F0020040F0010020642B
:100A000000E0012584F83C60284670BD7047000076
:100A100070B586B0064614216846FFF713FC2249DC
:100A2000306888423DD121480025016841F4807139
:100A30000160006800F4807005901C48143801685B
:100A400041F0010101600068694600F00100059075
:100A50006A2000900320CDE90105154800F044FA12
:100A6000154C1448C4E900050015A560C4E90350FD
:100A7000400060618000A0614011E0614002C4E973
:100A80000805204600F07CF908B1FFF7E3FDB463E8
:100A9000002211461220A66300F06AFB122000F02B
:100AA00059FB06B070BD00000020014044380240F0
:100AB0000000024010640240FC000020F8B50E4621
:100AC00000210446009190F83C00012807D0012045
:100AD00084F83C0020688368DB0702D011E0022024
:100AE000F8BD836843F0010383602D482D4B0068F7
:100AF000B0FBF3F000EB400000E0401E0090002847
:100B0000FBD120688368DB0748D0236C40F2016585
:100B1000AB4343F4807323644068400505D5206CE3
:100B200020F4005040F480502064206CC00404D5B0
:100B3000606C20F00600606400E0616484F83C10A2
:100B4000A16B1A48184DC863A16B19480864A16BC2
:100B50001848C86421686FF0220008602068416866
:100B600041F0806141602068816841F4807181605A
:100B70002168134632464C31A06B00F06BF968686F
:100B8000C006206802D00C49884207D1816811F064
:100B9000405F03D1816841F0804181600020F8BD51
:100BA000B000002040420F0000230140BD020008B9
:100BB000410300082B0300080020014090F8351085
:100BC000022903D08021416501207047052180F86A
:100BD00035100068016821F00101016000207047B4
:100BE0002DE9F84304464FF00009CDF80090634822
:100BF0004FF41651A56D0068B0FBF1F72E6894F81C
:100C00005C10082000FA01F131420FD021680A6817
:100C100052070BD50A6822F004020A6094F85C10AF
:100C20008840A860606D40F00100606594F85C1039
:100C30004FF0010808FA01F0304208D021684969F4
:100C4000090604D5A860606D40F00200606594F864
:100C50005C1004208840304208D021680968890768
:100C600004D5A860606D40F00400606594F85C10E5
:100C700010208840304218D021680968090714D52F
:100C8000A86020680168490304D50068000308D5FE
:100C9000A16C07E00168C90503D4016821F00801CF
:100CA0000160216C09B12046884794F85C1020202F
:100CB0008840304231D021680968C9062DD5A86026
:100CC00094F8350005282068016806D0490347D507
:100CD000006800031DD4616C1CE021F01601016066
:100CE0002068416921F080014161206C08B9A06C45
:100CF00020B12068016821F00801016094F85C10BF
:100D00003F208840A86084F8349084F83580216DB5
:100D10001FE0E16B09B120468847606D00282BD0A9
:100D2000606DC00714D0052084F835002068016884
:100D300021F0010101600098401C0090B84203D8E6
:100D400020680068C007F6D184F8349084F83580B4
:100D5000E16C002910D001B02046BDE8F0430847FF
:100D60000168C905D5D4016821F01001016084F83B
:100D7000349084F83580CCE7BDE8F883B0000020DB
:100D80002DE9F041044600F085F906465CB10025E6
:100D900084F83450022084F835002068016821F07E
:100DA000010101600DE00120BDE8F08100F072F961
:100DB000801B052805D920206065032084F83500B4
:100DC000F2E720680068C007F0D122681168204867
:100DD0000140D4E901031843D4E9033633431843EF
:100DE00063691843A3691843E3691843236A1843E6
:100DF0000843616A042903D1D4E90B13194308435A
:100E0000106020684069666A20F0070130460E4392
:100E1000012704280CD1A06A0643E06A40B12046AD
:100E2000FFF7BAFB20B14020606584F83570BAE75F
:100E3000206846612046FFF79BFB94F85C203F2129
:100E400091408160656584F835700020ACE7000052
:100E50003F8010F02DE9F0410446866D90F8340093
:100E6000002501280DD0012084F8340094F8357055
:100E70000020012F07D084F8340002252846BDE861
:100E8000F0810220FBE7022784F835706065204678
:100E9000FFF7ACFB94F85C103F208840B0602068FE
:100EA000016841F016010160206C20B120680168E2
:100EB00041F0080101602068016841F00101016012
:100EC000DCE7000070B5044600F0E4F80546601C5D
:100ED00002D004480078044400F0DCF8401BA04233
:100EE000FAD370BD440000202DE9F84F00224FF0E6
:100EF000010803254FF00F0E0B6808FA02F4234097
:100F0000A34271D14E68012E05D0022E03D0112EBE
:100F100001D0122E15D18668570005FA07FC26EA83
:100F20000C06D1F80CC00CFA07FC4CEA060CC0F811
:100F300008C04668A6430C79C4F3001494403443B7
:100F40004460C668570005FA07FC8C6826EA0C0660
:100F5000BC403443C4604C68022C01D0122C13D125
:100F6000D40800EB8404A346D4F8209054074FEA39
:100F7000D46A0EFA0AF629EA06090E6906FA0AF692
:100F800046EA0906CBF8206004680E7924EA0C04CE
:100F900006F00306BE40264306604C68E40056D5C2
:100FA0002E4C266846F480462660246822F003060C
:100FB00004F4804400942A4C3444A446D4F80848ED
:100FC0009607370F0EFA07F6B443264EB04201D10A
:100FD000002615E0244EB04201D1012610E0234E38
:100FE000B04202D102260BE031E0214EB04201D1E5
:100FF000032605E01F4EB04201D1042600E007267B
:10100000BE402643CCF808681B4E34684F689C43AA
:10101000FF0300D51C433460174E361D34684F68FB
:101020009C43BF0300D51C433460134E083634681C
:101030004F689C43FF0200D51C4334600E4E0C36B3
:1010400034684F689C43BF0200D51C433460521C77
:10105000102AFFF451AFBDE8F88F00004438024079
:10106000003001400000024000040240000802403D
:10107000000C024000100240003C0140426931EA8D
:10108000020200D10904816170470AB18161704791
:101090000904FBE701488068704700004400002015
:1010A0000248816802781144816070474400002042
:1010B0000B4810B5016841F400710160016841F40A
:1010C00080610160016841F480710160032000F0DB
:1010D0006FF80F2000F006F800F024F8002010BD93
:1010E000003C024070B50D4D04464FF47A712878EB
:1010F000B1FBF0F00A490968B1FBF0F000F002FB27
:1011000048B9102C07D200222146501E00F030F8BA
:1011100000206C6070BD012070BD00004400002004
:10112000B00000200A4808B5016841F48041016020
:10113000006800F4804000900548001F016841F0FD
:1011400080510160006800F08050009008BD0000F0
:1011500044380240002809DB00F01F0201219140C1
:101160004009800000F1E020C0F800117047000045
:10117000F0B40E4B1B680C46C3F30223C3F1070502
:10118000042D00D90425191D072901D2002300E0F0
:10119000DB1E012606FA05F1491E214099409E40BA
:1011A000761E16403143F0BC01F0EABC0CED00E0C5
:1011B000064900F0070208684FF6FF03184040EAAE
:1011C0000220034A10430860704700000CED00E065
:1011D0000000FA052DE9F0470E46050065D0DFF85E
:1011E0001481D8F80000F7B200F00F00B04207D227
:1011F00088F80070D8F8000000F00F00B04254D119
:1012000028683D4C810712D5400703D5206840F47B
:10121000E05020602878000703D5206840F4604043
:1012200020602068A96820F0F0000843206028783A
:10123000C0072DD0304968680839012812D002282B
:1012400013D0032811D00968890700292DDA2168F5
:1012500021F0030101432160FFF71CFF814641F2A9
:10126000883A0EE009688903EFE709688901ECE72D
:10127000FFF710FFA0EB0901514502D90320BDE89B
:10128000F0872068696800F00C00B0EB810FEFD1A7
:10129000D8F80010404601F00F01B14207D907709D
:1012A000006800F00F00B04201D00120E7E7287885
:1012B000400705D52068E96820F4E0500843206025
:1012C0002878000706D52068296920F4604040EAA4
:1012D000C100206000F038F82168084AC1F303110A
:1012E000515CC8400649086006480068FFF7FAFEEE
:1012F0000020C4E7003C024008380240AE2C000841
:10130000B000002048000020044805490068096832
:10131000044AC1F38221515CC8407047B0000020EC
:1013200008380240BE2C00080448054900680968D6
:10133000044AC1F34231515CC8407047B0000020FC
:1013400008380240BE2C0008154810B5006810F09F
:101350000C02144813D04110042A0FD0082A0ED1D1
:101360000F4C241F2268236802F03F025B0207D55E
:101370002068C0F38810A0FB010106E0084610BDFC
:101380002168C1F38811A1FB00010023FEF722FFB1
:101390002168C1F30141491C4900B0FBF1F010BDC7
:1013A000083802400024F4002DE9F84F04006ED004
:1013B0002078DFF83C93C007A9F104054AD009F171
:1013C00004000168C1F38101012908D00068C0F35D
:1013D000810002280AD1D9F80000400206D5286809
:1013E000800337D560680028E1D033E06068B0F54D
:1013F000803F10D0B0F5A02F286810D020F48030A6
:101400002860286820F4802028606068A8B1FFF771
:1014100041FE06460DE0286840F48030F4E740F4D1
:1014200080202860F7E700BFFFF734FE801B6428A8
:1014300073D828688003F7D50CE0FFF72BFE06462B
:1014400005E000BFFFF726FE801B6428F0D828685F
:101450008003F7D42078DFF89C8280074FF0000AE1
:101460003ED5A348001D016811F00C0F08D000689C
:10147000C0F3810002280BD1D9F80000400207D444
:101480002868800716D5E068012800D112E02BE11A
:10149000E068B8B10120C8F80000FFF7FBFD064680
:1014A00005E000BFFFF7F6FD801B0228C0D82868C2
:1014B0008007F7D52868216920F0F80040EAC100CC
:1014C00028600DE0C8F800A0FFF7E4FD064604E040
:1014D000FFF7E0FD801B02281FD828688007F7D49B
:1014E0002078000722D5824E83486169703671B139
:1014F00001210160FFF7CEFD074604E0FFF7CAFDBA
:10150000C01B022809D830688007F7D50EE0C0F864
:1015100000A0FFF7BFFD074605E082E0FFF7BAFD38
:10152000C01B02287DD830688007F7D42078400798
:1015300068D5DFF8BCB100270BF13C0BDBF80000ED
:10154000C0000BD4DBF8001041F08051CBF8001044
:10155000DBF80000012700F080500090674E3068F3
:10156000C00510D4306840F480703060FFF792FD01
:10157000009005E0FFF78EFD0099401A022850D830
:101580003068C005F6D55A4EA0686C3601280FD0D9
:101590000528306810D020F001003060306820F05D
:1015A00004003060A068B8B1FFF774FD00900FE050
:1015B000306840F00100F4E740F004003060F7E7E5
:1015C000FFF768FD0099411A41F28830814266D8E0
:1015D00030688007F4D50EE0FFF75CFD009007E06F
:1015E000FFF758FD0099411A41F28830814256D8E0
:1015F00030688007F4D42FB1DBF8001021F080515F
:10160000CBF80010A069C8B33949091D0968C1F3B6
:10161000810102294AD00228504607D0C8F860004C
:1016200000E03CE0FFF736FD04463BE04746C8F8E3
:101630006000FFF72FFD064605E000BFFFF72AFD1B
:10164000801B02282BD828688001F7D4D4E9070131
:101650000843A16A2A4A490802EB0141626A41EA49
:101660008211084394F82C1040EA0161C9F8001077
:1016700001203866FFF70EFD044606E036E000BFA5
:10168000FFF708FD001B022809D828688001F7D55C
:101690002CE000BFFFF7FEFC001B022802D903204C
:1016A000BDE8F88F28688001F4D41FE00128F7D046
:1016B000D9F80000E26900F48001914214D1226A55
:1016C00000F03F0191420FD147F6C071626A0140BC
:1016D000914209D1A26A00F44031914204D1E16AF9
:1016E00000F07060884201D00120D9E70020D7E7E0
:1016F0000438024000004742800E4742007000401C
:101700000000FFFF10B5401EB0F1807F01D3012023
:1017100010BD4FF0E02460610F21601701F030FA36
:101720000020A06107202061002010BD7047704795
:1017300070B590F83C20012A2CD0012480F83C4060
:10174000022280F83D2003685A689D6822F07006E6
:101750000A6832435A60104B02689A420ED0B2F1C6
:10176000804F0BD00D4B9A4208D00D4B9A4205D0BA
:101770000C4B9A4202D00C4B9A4204D1496825F096
:1017800080031943916080F83D40002180F83C10AF
:10179000084670BD022070BD0000014000040040FA
:1017A00000080040000C00400040014010B504005B
:1017B00003D094F83D0010B107E0012010BD0020D7
:1017C00084F83C00204600F00DF8022084F83D002B
:1017D000211D206800F09AFF012084F83D000020C0
:1017E00010BD000008B501681048B1F1804F14D059
:1017F0000F4A914219D1016841F00201016000686D
:10180000002200F0020000900A211D20FFF7B0FC2A
:10181000BDE808401D20FFF79DBC016841F00101B3
:101820000160006800F00100009008BD40380240EF
:1018300000040040022180F83D1001688A6802F02F
:101840000702062A03D00A6842F001020A60012159
:1018500080F83D10002070470168CA6842F001021C
:10186000CA600068816801F00701062903D0016899
:1018700041F0010101600020704770B5044690F806
:101880003C00012817D0012584F83C50022084F840
:101890003D002068826822F0770222F47F42826055
:1018A0000868502830D00DDC20284DD005DC98B3D6
:1018B00010283BD148E0022070BD302844D0402899
:1018C00034D139E0602828D0702806D0B0F5805F88
:1018D0002CD0B0F5005F29D10AE0CB68D1E9012115
:1018E000206800F05FFF2068816841F0770109E01F
:1018F000CB68D1E90121206800F054FF206881689D
:1019000041F48041816011E0CA684968206800F0B4
:101910005BFF5021206807E016E0CA68496820682C
:1019200000F063FF6021206800F046FF84F83D501E
:10193000002084F83C0070BDCA684968206800F047
:1019400043FF40212068EFE7226801461046EBE79D
:10195000704770B50446006801694FF00005C9433F
:10196000890715D4C168C943890711D4E91E0161EB
:1019700001202077206880698007204602D0FFF789
:10198000E7FF04E000F098F8204600F096F825778D
:1019900020680169C943490717D4C168C943490789
:1019A00013D46FF004010161022020772068806960
:1019B00010F4407F204602D0FFF7CAFF04E000F099
:1019C0007BF8204600F079F8257720680169C94343
:1019D000090716D4C168C943090712D46FF008017A
:1019E0000161042020772068C0698007204602D06A
:1019F000FFF7AEFF04E000F05FF8204600F05DF86E
:101A0000257720680169C943C90617D4C168C9434D
:101A1000C90613D46FF010010161082020772068F7
:101A2000C06910F4407F204602D0FFF791FF04E028
:101A300000F042F8204600F040F825772068016960
:101A4000C943C90708D1C168C943C90704D1891E60
:101A50000161204600F032F820680169C943090697
:101A600009D4C168C943090605D46FF0800101613A
:101A70002046FFF75BFE20680169C943490609D487
:101A8000C168C943490605D46FF040010161204691
:101A900000F028F820680169C94389060BD4C168A1
:101AA000C943890607D46FF0200101612046BDE8D3
:101AB0007040FFF73CBE70BD70477047074900B5E6
:101AC000884209D100F0A4FE0549C868401CC860DE
:101AD000642801D10020C86000BD00009C010020E6
:101AE0005C0000207047000010B5064C207AFEF71D
:101AF00005FD607204F10801BDE8104001220248B2
:101B000000F0EAB95C000020DC0100202DE9F003C0
:101B100035484378C3718478344A4FF00108002176
:101B200034B9552B10D081704171C1701170517052
:101B30008478ECB345794FF00209022D13D0032DC0
:101B400013D0042D1AD01FE0C478641CE4B2C47012
:101B5000022CEDD1C17080F8028080F805805524F8
:101B600014705470E4E793700EE0D370DC1E0371C0
:101B7000052C09D380F80490D17004E05C1E137129
:101B8000362C01D31171817004798679A446E41E44
:101B9000A64208DA042D06D99719761CF6B27B7195
:101BA0008671A64215D0F6B2A64203D116B100E066
:101BB0000FE053740CF1020C65450AD102783AB972
:101BC00080F8008041718170C17080F8049081714B
:101BD000817041790122491C4171BDE8F00302493D
:101BE0000348491C00F078B95C000020A6020020E0
:101BF0005C020020C16B82B0090709D5006801684A
:101C00004068009001220349034802B000F064B923
:101C100002B0704764000020DC01002070B502684B
:101C200004461068D168536910F00F0F52D003F0CA
:101C3000010501F490762E435FD0C20705D0CA0596
:101C400003D5E26B42F00102E263420705D5DA07F1
:101C500003D0E26B42F00202E263820705D5DA07A5
:101C600003D0E26B42F00402E263020707D501F001
:101C700020022A4303D0E26B42F00802E263E26BE7
:101C8000002A33D0800604D5880602D5204600F00D
:101C9000E7FD20684069E16BC0F38010090700D4BC
:101CA00028B3204600F0CEFD2068416949061AD5C8
:101CB000416921F040014161606BA0B11B490165A0
:101CC000606BFEF77BFF002810D0606B016DBDE8F4
:101CD00070400847830610D58B060ED52046BDE818
:101CE000704000F0BDBD2046FFF784FF70BD204668
:101CF000FFF780FF0020E06370BD030606D50B06EA
:101D000004D52046BDE8704000F08ABE4006F3D5F9
:101D10004806F1D5D168204621F04001D16020214C
:101D200084F8391000F075F970BD000035280008FE
:101D300070B5040004D094F83900002510B106E015
:101D4000012070BD84F83850204600F023F824208C
:101D500084F839002068C16821F40051C160204630
:101D600000F0CAFD2068016921F4904101612068FA
:101D7000416921F02A0141612068C16841F40051A4
:101D8000C160E563202084F8390084F83A0000201F
:101D900070BD0000F0B587B0044614216846FEF718
:101DA00051FA4749DFF814C123680024444A143922
:101DB000022503260727434863451FD1136843F0D4
:101DC00010031360126802F0100205920A6842F0D4
:101DD00001020A60096802AB01F00101059171027C
:101DE000CDE9001583E8D0006946FFF77DF80022B1
:101DF00003212520FFF7BCF9252036E0DFF8C8C015
:101E0000634536D12E4A121F136843F40033136022
:101E1000126802F4003205920A6842F001020A6078
:101E20000A6802F0010205920A6842F008020A609C
:101E3000096802AA01F0080105910421CDE9001505
:101E400082E8D0006946FFF74FF84020CDE9000551
:101E500002AA694682E8D0001C48FFF745F8002234
:101E600005212620FFF784F92620FFF773F907B034
:101E7000F0BD17488342FAD1106840F0200010608E
:101E8000106800F020000590086840F00400086029
:101E90000868029400F004000590C020CDE9000518
:101EA0000820CDE9036069460A48FFF71DF80022C3
:101EB00006214720FFF75CF94720D6E700100140D4
:101EC000443802400000024000440040000C024040
:101ED000001401400008024090F83A30202B22D133
:101EE000F9B1F2B190F83830012B1CD081628285B3
:101EF000C2850021C163222280F83A2080F8381080
:101F00000168CA6842F48072CA6001684A6942F096
:101F100001024A610068C16841F02001C1600020EF
:101F200070470120704702207047000010B504463A
:101F300000680749884201D1FFF7D6FD05492068AE
:101F4000884203D1BDE81040FFF7E0BD10BD00009E
:101F500000100140001401402DE9F843044690F8B8
:101F600039001F4616460D46202850D1B5B1AEB1F6
:101F700094F8380001284AD0012084F838004FF046
:101F80000008C4F83C80212084F83900FFF782F86B
:101F9000A6848146E68484F8388026E00120BDE8E6
:101FA000F883E08C401EE084A0684B46B0F5805F6B
:101FB0004FF000024FF080012046009703D000F060
:101FC00060FDE8B90DE000F05CFDC8B92888216823
:101FD000C0F308004860206908B16D1C05E0AD1C25
:101FE00003E0216815F8010B4860E08C0028D8D187
:101FF0004B46002240212046009700F042FD08B1E8
:102000000320CCE7202084F839000020C7E7022015
:10201000C5E77047FEE7000010B53220FEF752FF1B
:1020200028A000F0A5FD3220FEF74CFFFEF728FAAD
:10203000314C0028207037D030A000F099FD3220BC
:10204000FEF740FF00F082FD207000282ED035A062
:1020500000F08EFD3220FEF735FF00F04BFD2070C2
:10206000002825D038A000F083FD3220FEF72AFF9B
:1020700000F09EFA207000281CD03CA000F078FDF3
:102080003220FEF71FFFFEF725FB2070002813D03B
:102090003FA000F06DFD47A000F06AFD4FF4FA701C
:1020A000FEF710FF207810BD4DA006E056A004E01A
:1020B0005EA002E066A000E06EA000F059FDFEF711
:1020C000C9FA00003D3D3D3D546865207379737445
:1020D000656D2073746172747320746F20696E690A
:1020E0007469616C697A6520686172647761726590
:1020F0003D3D3D3D0D0A0000000000207375636307
:1021000065737320746F20696E697469616C697A94
:1021100065204144432050726F6365647572650D9C
:102120000A0000007375636365737320746F206920
:102130006E697469616C697A6520555341525436F1
:102140002049540D0A0000007375636365737320A2
:10215000746F20696E697469616C697A6520555382
:10216000415254312049540D0A00000073756363D5
:1021700065737320746F20696E697469616C697A24
:102180006520536572766F4D6F746F720D0A000093
:102190007375636365737320746F20696E69746906
:1021A000616C697A65204779726F73636F70650D32
:1021B0000A00000044657669636520706F77657278
:1021C0002D6F6E2064656C617920353030206D7321
:1021D0002C20706C6561736520776169740D0A004D
:1021E0004661696C656420746F20696E6974696109
:1021F0006C697A65204144432E2050726F63656498
:102200007572650D0A0000004661696C6564207492
:102210006F20696E697469616C697A6520555341F4
:102220005254362049540D0A000000004661696C82
:10223000656420746F20696E697469616C697A6580
:10224000205553415254312049540D0A00000000DA
:102250004661696C656420746F20696E6974696198
:102260006C697A6520536572766F4D6F746F720D6D
:102270000A0000004661696C656420746F20696E15
:10228000697469616C697A65204779726F73636FED
:1022900070650D0A000000007FB500212B480091F9
:1022A00001910291284A0391026001244FF4803287
:1022B0000461C0E90121017680F820401203C26266
:1022C0000525C5614FF0C062C160C0E9094280F8D0
:1022D00030404461FEF770FB08B1FEF7BBF9009493
:1022E00001940324694619480294FEF70DFA08B1D7
:1022F000FEF7B0F90220CDE9004069461348FEF729
:1023000003FA08B1FEF7A6F9CDE9005469460F4873
:10231000FEF7FAF908B1FEF79DF9062000900420B7
:10232000019069460948FEF7EFF908B1FEF792F906
:102330001120CDE9000569460448FEF7E5F90028BB
:1023400001D0FEF787F97FBD00200140B4000020D6
:10235000094808B5016841F4800101600068002265
:1023600000F48000009002213820FEF701FFBDE854
:1023700008403820FEF7EEBE3038024070B586B017
:1023800014216846FDF75EFF1A480024016841F0F9
:1023900004010160016801F004010591016841F048
:1023A00080010160016801F080010591016841F040
:1023B00001010160016801F001010591016841F02E
:1023C0000801016000680C4E00F008004FF47045F1
:1023D0000590002229463046FEF757FE0120009561
:1023E000CDE90104694630460394FEF77DFD06B051
:1023F00070BD000030380240000C024010B586B0BD
:1024000000241748009401940294039404944FF01C
:1024100080410594016040F2E731C0E901140421D4
:10242000C0E903148461FFF7C1F908B1FEF712F99E
:102430004FF48050009069460948FFF71EFA08B132
:10244000FEF708F92020CDE9040404A90448FFF7A9
:102450006FF9002801D0FEF7FDF806B010BD0000AE
:102460005C01002010B586B0002416480094019449
:1024700002940394049412490594016042F20F718E
:10248000C0E90114C0E903148461FFF78FF908B1B2
:10249000FEF7E0F84FF48050009069460948FFF7D6
:1024A000ECF908B1FEF7D6F8049404A905480594A0
:1024B000FFF73EF9002801D0FEF7CCF806B010BDBA
:1024C000000400409C0100200C4810B50A4901603E
:1024D0004FF416514160002181600C22C160C0E9B7
:1024E00004128161C161FFF723FC002803D0BDE81D
:1024F0001040FEF7AFB810BD00100140DC01002015
:102500000C4810B50A4901604FF4E13141600021E7
:1025100081600C22C160C0E904128161C161FFF7D2
:1025200007FC002803D0BDE81040FEF793B810BDAB
:10253000004400401C0200200C4810B50A4901600C
:102540004FF4E1314160002181600C22C160C0E99B
:1025500004128161C161FFF7EBFB002803D0BDE8E5
:102560001040FEF777B810BD001401405C02002057
:10257000FEE7FEE7704770472DE9F04101250A4F5D
:10258000064600240849305D7870FF230122491C6B
:102590000648FFF7E1FC00B10025641C032CF1DBC9
:1025A0002846BDE8F081000070000020DC0100201A
:1025B00070B5012500244FF496763246002120465E
:1025C00000F01AF83220FEF77DFC641CE4B2062C01
:1025D000F3D93220FEF776FC06496FF00100096856
:1025E00008610448FFF738F908B1002070BD28469B
:1025F00070BD00009C01002000B58BB055238DF804
:1026000000308DF801308DF8020007208DF80300AE
:1026100001208DF804008DF80510080A8DF80600D9
:10262000100A8DF807208DF80800122205A96846C7
:10263000FDF743FF05A8FEF72BF88DF8110005A95B
:102640006846FDF745FF122105A800F06FFA0BB0B0
:1026500000BDFEF725BD000030B593B030216846BF
:10266000FDF7F0FD14210CA8FDF7ECFD1B4800243C
:10267000016841F080510160006800F080501190C5
:102680001748016841F4404101600068022500F4E8
:102690004040119001200390102000950695049071
:1026A000CDE907404FF4C870099004200A90082033
:1026B0000B906846FEF778FE60B90F20CDE90C0557
:1026C000E802CDE90E4003210CA81094FEF782FD2C
:1026D000002801D0FDF7BEFF13B030BD40380240E6
:1026E000007000400548016841F470010160034931
:1026F0004FF00060803908607047000088ED00E00E
:102700000148FFF726B900009C010020F0B50268DF
:102710001D4B1E4C9F031E4D1E4E984207D0B842C3
:1027200005D0A04203D0A84201D0B04204D122F08B
:10273000700C4A6842EA0C02984210D0B8420ED09F
:10274000A0420CD0A8420AD0B04208D0124CA042FD
:1027500005D0124CA04202D0114CA04203D122F469
:102760004074CA6822434C6922F08002224302600E
:102770008A68C2620A688262984201D1096901636B
:1027800001214161F0BD0000000001400004004053
:1027900000080040000C004000400140004401409F
:1027A0000048014010B5846842EA032224F47F44C3
:1027B0000A432243826010BD826822F070020A43FD
:1027C00042F007018160704710B5036A046A24F083
:1027D00001040462846924F0F00444EA021423F042
:1027E0000A020A438461026210BD10B5036A23F035
:1027F000100303628369046A23F4704343EA0232DC
:1028000024F0A00343EA01118261016210BD0000BF
:10281000064900208870C87002220A7148718871C8
:10282000C871034908704870704700005C000020C0
:10283000A602002010B5806B0021C185C184FFF77E
:10284000D9F910BD0168CA6822F49072CA600168A3
:102850004A6922F001024A61202180F83A1070474B
:1028600010B590F83A10222901D0022010BD8168DD
:10287000B1F5805F11D00169002901681FD0496856
:1028800001F07F03816A4A1C82620B70C18D491E70
:102890000904090CC18518D02BE00269816A002A5D
:1028A0000268526805D0D2B20A80816A491C8162EE
:1028B000ECE7C2F308020A80816A891CF7E74A68DC
:1028C000816A4B1C83620A70E0E70168CA6822F0E3
:1028D0002002CA600168CA6822F48072CA60016876
:1028E0004A6922F001024A61202180F83A10FFF77C
:1028F0001DFB002010BD00002DE9F04104460068DA
:102900000169E26821F44051114301612169A06825
:10291000E26908436169114308432168CA6849F2C2
:102920000C639A430243CA6020684169A26921F49A
:10293000407111434161E069192764253226B0F5E1
:10294000004F354A354920684FF0000806D08842CC
:1029500001D0904236D1FEF7E7FC35E0884201D045
:10296000904202D1FEF7E0FC01E0FEF7CDFC616889
:102970004A18A0FB070148EB0803FDF72BFC0146B2
:10298000B0FBF5F00201B1FBF5F06FF0180358430E
:1029900001EB800006EBC000B0FBF5F000F0F800A2
:1029A00002EB4002B1FBF5F0584301EB800006EB6F
:1029B000C000B0FBF5F000F007002168104488600B
:1029C000BDE8F081FEF7A0FC61688B0F8A00A0FBD8
:1029D0000701FDF7FFFB0146B0FBF5F06FF01802B1
:1029E000504301EB800006EB0010B0FBF5F000F067
:1029F000F002B1FBF5F002EB0012B1FBF5F06FF065
:102A00001803584301EB800006EB0010B0FBF5F013
:102A100000F00F00D1E70000001401400010014059
:102A200090F83910212901D0022070478168B1F552
:102A3000805F016A0BD04A1C02620268097851600B
:102A4000C18C491E0904090CC1840ED017E0098805
:102A50000268C1F30801516001690029016A02D0CE
:102A6000491C0162ECE7891CFBE70168CA6822F097
:102A70008002CA600068C16841F04001C160002066
:102A800070472DE9F041984617460E460446069DCC
:102A90001DE0681C1BD02DB1FEF7FCFAA0EB08006E
:102AA000A84214D92068C16821F4D071C16020689F
:102AB000416921F001014161202084F8390084F846
:102AC0003A00002084F838000320BDE8F081206837
:102AD000006836EA000004D00020B842D9D00020B7
:102AE000F3E70120F9E700000148FFF797B800007D
:102AF000DC01002010B50124224604490448FFF7F8
:102B0000EBF908B1002010BD204610BD6400002084
:102B1000DC0100200148FFF781B800001C02002002
:102B20000148FFF77BB800005C02002010B50A46A0
:102B30000146012464230448FFF70EFA08B100207F
:102B400010BD204610BD00005C02002010B501241D
:102B5000224604490448FFF7BFF908B1002010BD20
:102B6000204610BD5D0000205C020020FEE7000052
:102B7000014A024900F023B8E12B00086C00002054
:102B80000907090E002804DB00F1E02080F800149A
:102B9000704700F00F0000F1E02080F8141D70472E
:102BA00002E008C8121F08C1002AFAD17047704716
:102BB000002001E001C1121F002AFBD170472DE95E
:102BC000F04116460F460446002503E03946B0475B
:102BD000641C6D1C20780028F8D12846BDE8F081DF
:102BE00005490968C90105D54FF060410A68002A06
:102BF000FCD0087070470000FCED00E0FEF758FACA
:102C0000FFF72AFDFFF7BAFBFFF7A2FBFFF744FB34
:102C1000FFF75AFCFFF774FCFFF78EFCFFF7EEFBA3
:102C2000FFF720FCFFF7F8F90649087028B106A065
:102C3000FFF79EFFFDF7F0FCFCE70EA0FFF798FF03
:102C4000FDF708FD00000020737563636573732052
:102C5000746F20696E697469616C697A6520486176
:102C60007264776172652050726F63656475726516
:102C70000D0A00004661696C656420746F20696EFE
:102C8000697469616C697A65204861726477617200
:102C9000652050726F6365647572650D0A000000EF
:102CA0000006101600061016FFAA52FFAA670000C1
:102CB00000000000000001020304060708090000EC
:102CC0000000010203040000E82C000800000020BE
:102CD000B4000000A02B00089C2D0008B4000020C8
:102CE00004170000B02B00080100000000000000E5
:102CF00000000000000000000000000000000000D4
:102D000000000000000000000000000000000000C3
:102D100000000000000000000000000000000000B3
:102D200000000000000000000000000001000000A2
:102D30001000000000000000000000000000000083
:102D40000000000000000000020000000001000080
:102D50000000000000000000000000000000000073
:102D60000000000000000000000000000000000063
:102D70000000000000000000000000000000000053
:102D80000000000000000000000000000000000043
:0C2D900000000000000000000024F4001F
:040000050800019955
:00000001FF
