:020000040800F2
:10000000F0060020B10100085F2500080522000865
:100010005D2500080D0A00082929000800000000DD
:100020000000000000000000000000006325000840
:100030001D0B000800000000612500086525000870
:10004000CB010008CB010008CB010008CB01000860
:10005000CB010008CB010008CB010008CB01000850
:10006000CB010008CB010008CB010008CB01000840
:10007000CB010008CB010008CB010008CB01000830
:10008000CB010008CB010008B10800080000000007
:10009000000000000000000000000000CB0100088C
:1000A000CB010008CB010008CB010008CB01000800
:1000B000CB010008CB010008CB010008CB010008F0
:1000C000CB010008CB010008CB010008CB010008E0
:1000D000CB010008C5280008F12800080000000036
:1000E000CB010008CB010008CB0100080000000094
:1000F000000000000000000000000000CB0100082C
:1001000000000000CB010008CB010008CB01000873
:1001100000000000000000000000000000000000DF
:100120006D0A0008CB010008CB010008CB010008D4
:10013000CB010008000000000000000000000000EB
:10014000000000000000000000000000CB010008DB
:10015000CB010008CB010008CB010008FD280008F6
:10016000CB010008CB0100080000000000000000E7
:10017000000000000000000000000000000000007F
:1001800000000000CB01000800000000000000009B
:10019000CB010008CB010008DFF810D000F05EFAB8
:1001A0000048004731320008AFF30080F00600201D
:1001B0000648804706480047FEE7FEE7FEE7FEE701
:1001C000FEE7FEE7FEE7FEE7FEE7FEE7F5250008AF
:1001D000990100082DE9F05F0546002092469B46F4
:1001E00088460646814640241BE02846414647464D
:1001F000224600F06AF853465A46C01A914110D37D
:1002000011461846224600F051F82D1A67EB0108F6
:100210004F4622460120002100F048F817EB000964
:100220004E41201EA4F10104DFDC484631462A4637
:100230004346BDE8F09FD2B201E000F8012B491E11
:10024000FBD270470022F6E710B513460A46044673
:100250001946FFF7F0FF204610BD00F0004230F0D5
:1002600000400AD0C10D01F56071C0F3160042EAEA
:100270000151C208400711437047002001467047F2
:1002800030B50B46014600202022012409E021FA66
:1002900002F59D4205D303FA02F5491B04FA02F563
:1002A0002844151EA2F10102F1DC30BD202A04DB36
:1002B000203A00FA02F1002070479140C2F1200379
:1002C00020FA03F3194390407047202A04DB203AB8
:1002D00021FA02F00021704721FA02F3D040C2F166
:1002E000200291400843194670472DE9FE4F804691
:1002F00081EA0300C00F0C46009021F0004123F07A
:100300000045B8EB0200A94105D24046214690467F
:100310001C460B46024623F00040104347D0270DF1
:10032000C7F30A00C3F30A510290401A0190402813
:100330006BDAC3F3130040F4801B0098924620B19F
:100340000023D2EB030A63EB0B0B01985946C0F173
:1003500040025046FFF7AAFF06460D465046594652
:10036000019A00F08DF910EB08006141002487EA42
:10037000115284EAE7731A4340D0009A62B3019A9B
:10038000012A4FEA075215DC001B61EB02014FF016
:10039000004202EA0752CDE90042001C41F58011FB
:1003A00032462B4600F08DF903B0BDE8F08F404691
:1003B0002146F9E7001B61EB0201001C41F58013A7
:1003C00000185B412018A2F5001747EB030140EA33
:1003D000D570B6196D4111E06D084FEA360645EA51
:1003E000C0754FEA0752001B61EB0201001C41F58A
:1003F000801149084FEA30000019514132462B461E
:1004000003B0BDE8F04F00F04DB900980122400064
:100410000023D0EB020263EBE073009821464FEA21
:10042000E074B8EB000061EB0401E9E783F00043FE
:100430005BE781F0004158E72DE9FE4F81EA0304B4
:1004400004F0004421F0004100944FF0000B23F031
:10045000004350EA01045ED052EA03045BD0C3F3C8
:100460000A54C1F30A552C44A4F2F3340194A0FBBE
:100470000254C1F3130141F48011C3F3130343F495
:10048000801301FB024400FB034E840A970A44EAEE
:10049000815447EA8357A4FB076802958D0A05FB40
:1004A00007854FEA932C04FB0C542705029D4FEA65
:1004B000065847EA1637B5EB08056EEB070C870EB2
:1004C000920E47EA811742EA8312A7FB0201B6EBBC
:1004D0000B0164EB00042B0D43EA0C335E1844EB74
:1004E0001C50DA465146E7FB0201C5F313044FEAFC
:1004F0000B3343EA14534FEA0432019C43EA0603E8
:10050000A4F10C040294009CCDE900B400F0D9F8E9
:1005100003B0BDE8F08F00200146F9E72DE9F04D6A
:1005200081EA030404F0004B21F0004514464FF02B
:10053000000A23F0004150EA050220D054EA0102EB
:100540001DD0C5F30A570246C5F31303C1F31300C8
:10055000C1F30A5640F4801543F48013A7EB060854
:10056000101BD64608F2FD3873EB050002D308F1E4
:10057000010801E092185B41B8F1000F03DA002096
:100580000146BDE8F08D00204FF4801106468446F8
:100590000EE0171B73EB050705D3121B63EB050376
:1005A00006434CEA010C49084FEA300092185B41BF
:1005B00050EA0107EDD152EA030012D082EA0400AA
:1005C00083EA0501084305D0101BAB4106D2012286
:1005D000002306E000224FF0004302E06FF001022A
:1005E00053101AEB06004CEB085110EB0A0041EBDC
:1005F0000B01BDE8F04D00F055B8C1F30A52C1F34C
:10060000130140F2FF3341F480119A4202DA0020D4
:100610000146704740F233439A42A2F2334202DC71
:100620005242FFF752BEFFF741BE000030B5041E34
:1006300071F1000404DB4FF00044404264EB01011F
:10064000141E73F1000405DB1C464FF000435242B8
:1006500063EB0403994208BF904230BD064C074D3E
:1006600006E0E06840F0010394E807009847103482
:10067000AC42F6D3FFF794FD8C330008AC3300088E
:10068000202A06DBCB17203A41FA02F043EAE07356
:1006900006E041FA02F3D040C2F120029140084343
:1006A0001946704710B5141E73F1000408DA401C97
:1006B00041F1000192185B411A4301D120F0010081
:1006C00010BD2DE9F04D92469B4611B1B1FA81F271
:1006D00002E0B0FA80F220329046FFF7E7FD0446D0
:1006E0000F4640EA0A0041EA0B0153465A460843C6
:1006F00013D0114653EA010019D0C8F14002504608
:10070000FFF7E3FD05460E46504659464246FFF7C1
:10071000CDFD084305D0012004E020463946BDE860
:10072000F08D0020054346EAE0762C4337430A98D3
:100730006305E40AA0EB08000022FD0A44EA4754DE
:100740000A3002D500200146E9E701051019694188
:10075000DDE9084500196941BDE8F04DA2E710B593
:100760000146806B026C12F0500F05D0026CD2066D
:1007700026D500F0AEFA10BD016C41F400710164A1
:1007800001688A6812F0405F17D1027EAAB9CA6A6E
:1007900012F4700F02D08A6852050ED44A6822F013
:1007A00020024A60016C21F480710164016CC9046B
:1007B00003D4016C41F00101016400F083FA10BD23
:1007C000806BC26CBDE810400846104710B5806BC6
:1007D00040210164416C41F00401416400F079FA68
:1007E00010BD10B5806B00F073FA10BD70B5012517
:1007F000174800F0E1FB0121154800F08BFB154C78
:10080000154829032278EAB1012200F01AFF04F109
:100810000800028840F6E4414A4340F6FF71B2FB0B
:10082000F1F26280428840F6E4435A43B2FBF1F2AF
:10083000A28080885843B0FBF1F0E0800020207057
:10084000284670BD002200F0FCFE0225F8E70000FB
:100850007C00002020000020000C0240054A0121FD
:10086000528800EE102AB8EE400A80ED000A0846D1
:100870007047000020000020054A0121928800EE08
:10088000102AB8EE400A80ED000A084670470000C2
:1008900020000020054A0121D28800EE102AB8EE7F
:1008A000400A80ED000A0846704700002000002042
:1008B000014800F00FBA00007C000020464910B546
:1008C0004A6822F440324A604A6843681A434A60E0
:1008D00001684A6822F480724A6001684A680369C4
:1008E00042EA03224A6001684A6822F040724A6084
:1008F00001684A6883681A434A6001688A6822F47A
:1009000000628A6001688A68C3681A438A60816AE3
:100910006FF07062D14201688A6822F070628A606A
:1009200001688A680CD0836A1A438A6001688A6801
:1009300022F040528A6001688A68C36A1A4301E063
:1009400022F040528A6001688A6822F002028A60BE
:1009500001688A68037E42EA43028A6090F82010A8
:10096000002901684A680FD042F400624A600168B9
:100970004A6822F460424A6001684A68174C436A38
:1009800004EB43331A4301E022F400624A60016839
:10099000CA6A22F47002CA620168CA6A838B104C68
:1009A00004EB03531A43CA6201688A6822F4007296
:1009B0008A6001688A6890F8303042EA43228A608F
:1009C00001688A6822F480628A6001688A684069E6
:1009D00042EA8020886010BD0023014000E0FFFF54
:1009E0000000F0FF10B5012403220649064800F07C
:1009F00041FB00284FF0000003D10249083908707C
:100A0000204610BD280000207C000020FEE70000EA
:100A1000154A10B513491378C8545B1CD8B210702E
:100A20000C780023552C1AD10B2819D3487851285B
:100A300004D0522808D0532811D10BE051F8020FEE
:100A400090624868D0620AE051F8020F106348686B
:100A5000506304E051F8020F90634868D06313704C
:100A600010BD0000F601002038000020014800F011
:100A700093BB0000C400002001681823CAB2103ADA
:100A8000B2FBF3F2054B6FF30901032A9B5CC365CC
:100A900000D9091D81650846704700001833000819
:100AA00010B5014600208B698A6A4FF0C07453B1BB
:100AB000B3F5005F15D072B1012A0CD0022A0AD01A
:100AC000032A09D104E01AB1012A06D0022A03D16F
:100AD000C96AC90100D5012010BDC96AA142FAD076
:100AE00010BD002AF7D0012AF2D0022AF3D0032A3F
:100AF000F3D010BD30B50468256825F48025256045
:100B0000046863608368402B036803D099600068C1
:100B1000C26030BD9A600068C16030BD704700009F
:100B20000D4C4FF40055A6146F004FF400482946B1
:100B3000204600F07FFD3146204600F07BFD39461F
:100B4000204600F077FD4146204600F073FD64200A
:100B500000F094FCEBE70000000C0240704700003E
:100B600078B50024009490F83C20012A19D0012285
:100B700080F83C200A6807230568092A13D9EE6823
:100B80000A3A02EB420293409E43EE600B788A6879
:100B90000A3B03EB43039A400368DD682A43DA60AB
:100BA00010E0022078BD2E6902EB420293409E4382
:100BB0002E610B788A6803EB43039A4003681D6932
:100BC0002A431A614A681F23072A13D205686E6BED
:100BD000521E02EB820293409E436E630A8893B2D8
:100BE0000A79521E02EB820293400268556B2B4336
:100BF000536327E005680D2A12D22E6BD21F02EB39
:100C0000820293409E432E630B790A88DB1F92B2C7
:100C100003EB83039A4003681D6B2A431A6311E0B8
:100C2000EE6A0D3A02EB820293409E43EE620B792C
:100C30000A880D3B92B203EB83039A400368DD6A96
:100C40002A43DA621B4B0568194A9D420AD10D6896
:100C5000122D07D1556825F400055560556845F4F7
:100C60008005556005689D421DD1134D0B68AB4250
:100C700001D0112B17D1536823F4800353605368BC
:100C800043F4000353600968A9420CD10B490C4A94
:100C90000968B1FBF2F101EB8101490000E0491E56
:100CA00000910029FBD180F83C40002078BD000075
:100CB0000023014000200140120000101C00002011
:100CC00040420F00014901200870704720000020B9
:100CD0007047704770B50446006801684268C1F308
:100CE0004001C2F3401251B34AB3216CC90603D488
:100CF000216C41F400712164816811F0405F17D1CB
:100D0000217EA9B9C16A11F4700F02D0816849052A
:100D10000ED4416821F020014160206C20F48070E5
:100D20002064206CC00403D4206C40F001002064D7
:100D30002046FFF7C7FF21686FF0120008602068A7
:100D400001684268C1F38001C2F3C01289B382B363
:100D5000216CC90603D4216C41F4005121648168DF
:100D600011F4401F1ED1816B11F4401F02D0816825
:100D7000490517D44168490514D4816811F0405FD2
:100D800010D1217E71B9416821F080014160206C51
:100D900020F480502064206CC00503D4206C40F007
:100DA000010020642046FFF7D9FE21686FF00C0097
:100DB000086020680168426811F0010FC2F38012D8
:100DC0000ED06AB10068C0070AD0206C40F48030B1
:100DD0002064204600F046F821686FF001000860AA
:100DE000206801684268C1F34011C2F380620029A3
:100DF0000DD0002A0BD0616C41F0020161646FF0EC
:100E0000200505602046FFF764FF2068056070BD7F
:100E100070B504004FF0000503D0206C002610B11F
:100E200007E0012070BD204600F01EF8666484F8DB
:100E30003C60206CC00610D4206C20F4885040F038
:100E4000020020642046FFF739FD6664206C20F024
:100E5000020040F00100206400E0012584F83C60BD
:100E6000284670BD7047000070B586B00646142154
:100E70006846FFF7E7F92249306888423DD12148AA
:100E80000025016841F480710160006800F4807001
:100E900005901C481438016841F0010101600068A8
:100EA000694600F0010005903A2000900320CDE94A
:100EB0000105154800F0F4FA154C1448C4E9000582
:100EC0000015A560C4E90350400060618000A06186
:100ED0004011E0614002C4E90805204600F02CFA08
:100EE00008B1FFF71DFEB463002211461220A6636D
:100EF00000F01AFC122000F009FC06B070BD0000E2
:100F000000200140443802400000024010640240CA
:100F1000C40000202DE9F041044600680D468168B8
:100F20004FF0000749050BD58068C00508D5206C37
:100F300040F02000206484F83C700120BDE8F0817E
:100F400000F084FB06460FE0681C0DD025B100F0D0
:100F50007DFB801BA84207D9206C40F00400206470
:100F600084F83C700320E9E7206800688007EBD52F
:100F700021686FF012000860206C40F4007020645B
:100F80002068816811F0405F13D1217E89B9C16A60
:100F900011F4700F02D0806840050AD4206C20F450
:100FA00080702064206CC00403D4206C40F00100E9
:100FB00020640020C2E7000018B50021009190F8DD
:100FC0003C20012A07D0012280F83C200268936867
:100FD000DB0702D011E0022018BD936843F0010343
:100FE0009360204A204B1268B2FBF3F202EB4202FC
:100FF00000E0521E0092002AFBD102689368DB07D2
:101000002DD0036C40F20164A34343F48073036466
:1010100053685B0505D5036C23F4005343F48053F8
:101020000364036CDB0404D5436C23F006034364C0
:1010300000E0416480F83C100C496FF0220313601B
:1010400049680068C90602D00949884207D1816809
:1010500011F0405F03D1816841F080418160002040
:1010600018BD00001C00002040420F00002301407A
:1010700000200140F8B50E4600210446009190F88A
:101080003C00012807D0012084F83C0020688368D8
:10109000DB0702D011E00220F8BD836843F00103B2
:1010A00083602D482D4B0068B0FBF3F000EB40004F
:1010B00000E0401E00900028FBD120688368DB0719
:1010C00048D0236C40F20165AB4343F48073236442
:1010D0004068400505D5206C20F4005040F4805055
:1010E0002064206CC00404D5606C20F006006064AD
:1010F00000E0616484F83C10A16B1A48184DC86385
:10110000A16B19480864A16B1848C86421686FF086
:10111000220008602068416841F0806141602068D9
:10112000816841F4807181602168134632464C31F8
:10113000A06B00F06BF96868C006206802D00C490B
:10114000884207D1816811F0405F03D1816841F086
:10115000804181600020F8BD1C00002040420F004B
:10116000002301405F070008E3070008CD070008DF
:101170000020014090F83510022903D080214165FC
:1011800001207047052180F835100068016821F0C2
:1011900001010160002070472DE9F84304464FF03B
:1011A0000009CDF8009063484FF41651A56D006812
:1011B000B0FBF1F72E6894F85C10082000FA01F1FA
:1011C00031420FD021680A6852070BD50A6822F015
:1011D00004020A6094F85C108840A860606D40F0DA
:1011E0000100606594F85C104FF0010808FA01F006
:1011F000304208D021684969090604D5A860606DAD
:1012000040F00200606594F85C1004208840304291
:1012100008D021680968890704D5A860606D40F08E
:101220000400606594F85C1010208840304218D0AB
:1012300021680968090714D5A86020680168490376
:1012400004D50068000308D5A16C07E00168C90552
:1012500003D4016821F008010160216C09B1204626
:10126000884794F85C1020208840304231D02168B3
:101270000968C9062DD5A86094F8350005282068AE
:10128000016806D0490347D5006800031DD4616C8E
:101290001CE021F0160101602068416921F0800105
:1012A0004161206C08B9A06C20B12068016821F070
:1012B0000801016094F85C103F208840A86084F821
:1012C000349084F83580216D1FE0E16B09B1204630
:1012D0008847606D00282BD0606DC00714D00520B2
:1012E00084F835002068016821F001010160009850
:1012F000401C0090B84203D820680068C007F6D1AF
:1013000084F8349084F83580E16C002910D001B065
:101310002046BDE8F04308470168C905D5D40168F7
:1013200021F01001016084F8349084F83580CCE716
:10133000BDE8F8831C0000202DE9F041044600F0D0
:1013400085F906465CB1002584F83450022084F803
:1013500035002068016821F0010101600DE00120E5
:10136000BDE8F08100F072F9801B052805D9202026
:101370006065032084F83500F2E720680068C00744
:10138000F0D12268116820480140D4E901031843D4
:10139000D4E903363343184363691843A3691843F8
:1013A000E3691843236A18430843616A042903D197
:1013B000D4E90B1319430843106020684069666A3A
:1013C00020F0070130460E43012704280CD1A06A03
:1013D0000643E06A40B12046FFF762FB20B140209F
:1013E000606584F83570BAE7206846612046FFF7EB
:1013F00043FB94F85C203F2191408160656584F84F
:1014000035700020ACE700003F8010F02DE9F0417E
:101410000446866D90F83400002501280DD0012087
:1014200084F8340094F835700020012F07D084F838
:10143000340002252846BDE8F0810220FBE70227A0
:1014400084F8357060652046FFF754FB94F85C1013
:101450003F208840B0602068016841F016010160BB
:10146000206C20B12068016841F00801016020680B
:10147000016841F001010160DCE7000070B504463D
:1014800000F0E4F80546601C02D0044800780444EB
:1014900000F0DCF8401BA042FAD370BD1000002021
:1014A0002DE9F84F00224FF0010803254FF00F0EF1
:1014B0000B6808FA02F42340A34271D14E68012E52
:1014C00005D0022E03D0112E01D0122E15D1866820
:1014D000570005FA07FC26EA0C06D1F80CC00CFAF6
:1014E00007FC4CEA060CC0F808C04668A6430C7915
:1014F000C4F30014944034434460C668570005FAAE
:1015000007FC8C6826EA0C06BC403443C4604C6877
:10151000022C01D0122C13D1D40800EB8404A34672
:10152000D4F8209054074FEAD46A0EFA0AF629EA52
:1015300006090E6906FA0AF646EA0906CBF82060A3
:1015400004680E7924EA0C0406F00306BE40264324
:1015500006604C68E40056D52E4C266846F480465A
:101560002660246822F0030604F4804400942A4C88
:101570003444A446D4F808489607370F0EFA07F605
:10158000B443264EB04201D1002615E0244EB042AD
:1015900001D1012610E0234EB04202D102260BE019
:1015A00031E0214EB04201D1032605E01F4EB0428A
:1015B00001D1042600E00726BE402643CCF8086887
:1015C0001B4E34684F689C43FF0300D51C433460B6
:1015D000174E361D34684F689C43BF0300D51C432B
:1015E0003460134E083634684F689C43FF0200D5C0
:1015F0001C4334600E4E0C3634684F689C43BF0267
:1016000000D51C433460521C102AFFF451AFBDE8D2
:10161000F88F0000443802400030014000000240D2
:101620000004024000080240000C0240001002408A
:10163000003C0140426931EA020200D109048161A3
:1016400070470AB1816170470904FBE7014880686F
:1016500070470000100000200248816802781144A1
:1016600081607047100000200B4810B5016841F4FC
:1016700000710160016841F480610160016841F41A
:1016800080710160032000F06FF80F2000F006F871
:1016900000F024F8002010BD003C024070B50D4D54
:1016A00004464FF47A712878B1FBF0F00A490968D2
:1016B000B1FBF0F000F002FB48B9102C07D2002279
:1016C0002146501E00F030F800206C6070BD0120F3
:1016D00070BD0000100000201C0000200A4808B562
:1016E000016841F480410160006800F4804000908E
:1016F0000548001F016841F080510160006800F05A
:101700008050009008BD000044380240002809DBEA
:1017100000F01F02012191404009800000F1E0200B
:10172000C0F8001170470000F0B40E4B1B680C4667
:10173000C3F30223C3F10705042D00D90425191DA5
:10174000072901D2002300E0DB1E012606FA05F17D
:10175000491E214099409E40761E16403143F0BC00
:1017600001F0F4B80CED00E0064900F0070208684B
:101770004FF6FF03184040EA0220034A1043086076
:10178000704700000CED00E00000FA052DE9F0477D
:101790000E46050065D0DFF81481D8F80000F7B2D6
:1017A00000F00F00B04207D288F80070D8F80000AF
:1017B00000F00F00B04254D128683D4C810712D58B
:1017C000400703D5206840F4E050206028780007E7
:1017D00003D5206840F4604020602068A96820F0AC
:1017E000F000084320602878C0072DD03049686891
:1017F0000839012812D0022813D0032811D0096813
:10180000890700292DDA216821F0030101432160B5
:10181000FFF71CFF814641F2883A0EE00968890310
:10182000EFE709688901ECE7FFF710FFA0EB09017A
:10183000514502D90320BDE8F0872068696800F0AF
:101840000C00B0EB810FEFD1D8F80010404601F04A
:101850000F01B14207D90770006800F00F00B042D5
:1018600001D00120E7E72878400705D52068E9681E
:1018700020F4E050084320602878000706D520684F
:10188000296920F4604040EAC100206000F038F887
:101890002168084AC1F30311515CC8400649086039
:1018A00006480068FFF7FAFE0020C4E7003C02404B
:1018B00008380240203300081C00002014000020DB
:1018C0000448054900680968044AC1F38221515C53
:1018D000C84070471C000020083802403033000820
:1018E0000448054900680968044AC1F34231515C63
:1018F000C84070471C000020083802403033000800
:10190000154810B5006810F00C02144813D04110AF
:10191000042A0FD0082A0ED10F4C241F22682368F6
:1019200002F03F025B0207D52068C0F38810A0FBDD
:10193000010106E0084610BD2168C1F38811A1FB32
:1019400000010023FEF746FC2168C1F30141491C58
:101950004900B0FBF1F010BD083802400024F4004B
:101960002DE9F84F04006ED02078DFF83C93C007D3
:10197000A9F104054AD009F104000168C1F381010D
:10198000012908D00068C0F3810002280AD1D9F8E3
:101990000000400206D52868800337D5606800281B
:1019A000E1D033E06068B0F5803F10D0B0F5A02FF3
:1019B000286810D020F480302860286820F4802027
:1019C00028606068A8B1FFF741FE06460DE0286870
:1019D00040F48030F4E740F480202860F7E700BF4F
:1019E000FFF734FE801B642873D828688003F7D57E
:1019F0000CE0FFF72BFE064605E000BFFFF726FED2
:101A0000801B6428F0D828688003F7D42078DFF89A
:101A10009C8280074FF0000A3ED5A348001D016854
:101A200011F00C0F08D00068C0F3810002280BD120
:101A3000D9F80000400207D42868800716D5E0686E
:101A4000012800D112E02BE1E068B8B10120C8F80C
:101A50000000FFF7FBFD064605E000BFFFF7F6FDBF
:101A6000801B0228C0D828688007F7D5286821691C
:101A700020F0F80040EAC10028600DE0C8F800A09E
:101A8000FFF7E4FD064604E0FFF7E0FD801B0228B7
:101A90001FD828688007F7D42078000722D5824E07
:101AA00083486169703671B101210160FFF7CEFD95
:101AB000074604E0FFF7CAFDC01B022809D83068BA
:101AC0008007F7D50EE0C0F800A0FFF7BFFD07467E
:101AD00005E082E0FFF7BAFDC01B02287DD8306820
:101AE0008007F7D42078400768D5DFF8BCB100271D
:101AF0000BF13C0BDBF80000C0000BD4DBF800104E
:101B000041F08051CBF80010DBF80000012700F015
:101B100080500090674E3068C00510D4306840F4A3
:101B200080703060FFF792FD009005E0FFF78EFDBA
:101B30000099401A022850D83068C005F6D55A4E90
:101B4000A0686C3601280FD00528306810D020F02E
:101B500001003060306820F004003060A068B8B147
:101B6000FFF774FD00900FE0306840F00100F4E7EB
:101B700040F004003060F7E7FFF768FD0099411A74
:101B800041F28830814266D830688007F4D50EE093
:101B9000FFF75CFD009007E0FFF758FD0099411A40
:101BA00041F28830814256D830688007F4D42FB192
:101BB000DBF8001021F08051CBF80010A069C8B309
:101BC0003949091D0968C1F3810102294AD0022857
:101BD000504607D0C8F8600000E03CE0FFF736FD53
:101BE00004463BE04746C8F86000FFF72FFD064675
:101BF00005E000BFFFF72AFD801B02282BD82868CC
:101C00008001F7D4D4E907010843A16A2A4A4908A8
:101C100002EB0141626A41EA8211084394F82C10F8
:101C200040EA0161C9F8001001203866FFF70EFD97
:101C3000044606E036E000BFFFF708FD001B02285F
:101C400009D828688001F7D52CE000BFFFF7FEFC1B
:101C5000001B022802D90320BDE8F88F2868800104
:101C6000F4D41FE00128F7D0D9F80000E26900F4AD
:101C70008001914214D1226A00F03F0191420FD1BC
:101C800047F6C071626A0140914209D1A26A00F42C
:101C90004031914204D1E16A00F07060884201D085
:101CA0000120D9E70020D7E704380240000047426E
:101CB000800E4742007000400000FFFF10B5401E3C
:101CC000B0F1807F01D3012010BD4FF0E0246061AE
:101CD0000F21601700F03AFE0020A061072020616C
:101CE000002010BD064810B5C079FEF791FE0449EA
:101CF0000122BDE81040C91D024800F0E5B900000E
:101D00002E00002024010020F0B433480127334A7C
:101D10004378847800213CB14479022C19D0032CFB
:101D20001CD0042C24D029E0552B05D081704171A2
:101D3000C1701170517047E0C478641CE4B2C47083
:101D4000022C41D1C17087704771552414705470B2
:101D500014E09370FE2B11D3917007E0D370DC1E5A
:101D60000371052C0AD303240471D170817005E03E
:101D70005C1E1371232C01D81171F7E70579847962
:101D8000EE1EB4420ADA90F805C0BCF1040F05D982
:101D900002EB040C641C8CF805308471E4B2B4428C
:101DA00001D104B153744279ED1C521CD2B242717C
:101DB000AA4209D1027832B9077041718170C170AD
:101DC0000222027181718170F0BC03490122491C19
:101DD000034800F079B900002E000020E401002043
:101DE000A4010020C16B82B0090709D50068016811
:101DF0004068009001220349034802B000F064B932
:101E000002B07047350000202401002070B5026840
:101E100004461068D168536910F00F0F52D003F0D8
:101E2000010501F490762E435FD0C20705D0CA05A4
:101E300003D5E26B42F00102E263420705D5DA07FF
:101E400003D0E26B42F00202E263820705D5DA07B3
:101E500003D0E26B42F00402E263020707D501F00F
:101E600020022A4303D0E26B42F00802E263E26BF5
:101E7000002A33D0800604D5880602D5204600F01B
:101E8000DDFB20684069E16BC0F38010090700D4D6
:101E900028B3204600F0C4FB2068416949061AD5E2
:101EA000416921F040014161606BA0B11B490165AE
:101EB000606BFFF75FF9002810D0606B016DBDE823
:101EC00070400847830610D58B060ED52046BDE826
:101ED000704000F0B3BB2046FFF784FF70BD204682
:101EE000FFF780FF0020E06370BD030606D50B06F8
:101EF00004D52046BDE8704000F080BC4006F3D514
:101F00004806F1D5D168204621F04001D16020215A
:101F100084F8391000F075F970BD00001126000832
:101F200070B5040004D094F83900002510B106E023
:101F3000012070BD84F83850204600F023F824209A
:101F400084F839002068C16821F40051C16020463E
:101F500000F0C0FB2068016921F490410161206814
:101F6000416921F02A0141612068C16841F40051B2
:101F7000C160E563202084F8390084F83A0000202D
:101F800070BD0000F0B587B0044614216846FEF726
:101F900059F94749DFF814C123680024444A143929
:101FA000022503260727434863451FD1136843F0E2
:101FB00010031360126802F0100205920A6842F0E2
:101FC00001020A60096802AB01F00101059171028A
:101FD000CDE9001583E8D0006946FFF761FA0022D9
:101FE00003212520FFF7A0FB252036E0DFF8C8C03D
:101FF000634536D12E4A121F136843F40033136031
:10200000126802F4003205920A6842F001020A6086
:102010000A6802F0010205920A6842F008020A60AA
:10202000096802AA01F0080105910421CDE9001513
:1020300082E8D0006946FFF733FA4020CDE9000579
:1020400002AA694682E8D0001C48FFF729FA00225C
:1020500005212620FFF768FB2620FFF757FB07B076
:10206000F0BD17488342FAD1106840F0200010609C
:10207000106800F020000590086840F00400086037
:102080000868029400F004000590C020CDE9000526
:102090000820CDE9036069460A48FFF701FA0022EB
:1020A00006214720FFF740FB4720D6E700100140FC
:1020B000443802400000024000440040000C02404E
:1020C000001401400008024090F83A30202B22D141
:1020D000F9B1F2B190F83830012B1CD081628285C1
:1020E000C2850021C163222280F83A2080F838108E
:1020F0000168CA6842F48072CA6001684A6942F0A5
:1021000001024A610068C16841F02001C1600020FD
:1021100070470120704702207047000010B5044648
:1021200000680749884201D1FFF7DCFD05492068B6
:10213000884203D1BDE81040FFF7E6BD10BD0000A6
:1021400000100140001401402DE9F843044690F8C6
:1021500039001F4616460D46202850D1B5B1AEB104
:1021600094F8380001284AD0012084F838004FF054
:102170000008C4F83C80212084F83900FFF766FA93
:10218000A6848146E68484F8388026E00120BDE8F4
:10219000F883E08C401EE084A0684B46B0F5805F79
:1021A0004FF000024FF080012046009703D000F06E
:1021B00056FBE8B90DE000F052FBC8B92888216849
:1021C000C0F308004860206908B16D1C05E0AD1C33
:1021D00003E0216815F8010B4860E08C0028D8D195
:1021E0004B46002240212046009700F038FB08B102
:1021F0000320CCE7202084F839000020C7E7022024
:10220000C5E77047FEE7000010B5174800F08EFBE9
:10221000FEF7E8FB154C207038B115A000F086FBE6
:1022200000F072FB207028B107E01BA000F07EFBDD
:10223000FEF776FC22A000F079FB2AA000F076FBE6
:1022400000F046FB207010B92FA000F06FFB37A004
:1022500000F06CFB3EA000F069FB4FF4FA70FFF752
:102260000DF9207810BD0000383300080000002070
:102270007375636365737320746F20696E69746925
:10228000616C697A65204144432050726F636564D4
:102290007572650D0A0000004661696C6564207402
:1022A0006F20696E697469616C697A652041444385
:1022B0002E2050726F6365647572650D0A00000010
:1022C0004661696C656420746F20696E6974696128
:1022D0006C697A65205553415254362049540D0A91
:1022E000000000007375636365737320746F206969
:1022F0006E697469616C697A652055534152543630
:102300002049540D0A0000004661696C6564207420
:102310006F20696E697469616C697A6520555341F3
:102320005254312049540D0A000000007375636354
:1023300065737320746F20696E697469616C697A62
:1023400065205553415254312049540D0A00000074
:1023500044657669636520706F7765722D6F6E20B6
:1023600064656C6179202C20706C656173652077E1
:102370006169740D0A0000007FB5002120480091BA
:10238000019102911D4A0391026001244FF48032B1
:102390000461C0E90121017680F82040194A4462B5
:1023A000C0E90A210325C561C16080F8304044615D
:1023B000FEF72EFD08B1FEF7B3FB00946946104806
:1023C000CDE90145FEF7CCFB08B1FEF7A9FB0220E1
:1023D000CDE9005069460A48FEF7C2FB08B1FEF796
:1023E0009FFB1120CDE9000569460548FEF7B8FBC3
:1023F000002801D0FEF794FB7FBD000000200140C3
:102400007C0000200100000F094808B5016841F474
:10241000800101600068002200F480000090022129
:102420003820FFF781F9BDE808403820FFF76EB982
:102430003038024070B586B014216846FDF702FFBF
:102440001A480024016841F004010160016801F0AC
:1024500004010591016841F080010160016801F00B
:1024600080010591016841F001010160016801F0FE
:1024700001010591016841F00801016000680C4EFE
:1024800000F008004FF470450590002229463046C0
:10249000FFF7D7F801200095CDE9010469463046E1
:1024A0000394FEF7FDFF06B070BD00003038024017
:1024B000000C02400C4810B50A4901604FF4165157
:1024C0004160002181600C22C160C0E90412816179
:1024D000C161FFF725FD002803D0BDE81040FEF7DD
:1024E0001FBB10BD00100140240100200C4810B596
:1024F0000A4901604FF4E1314160002181600C2202
:10250000C160C0E904128161C161FFF709FD0028C3
:1025100003D0BDE81040FEF703BB10BD00440040EF
:10252000640100200C4810B50A4901604FF4E13104
:102530004160002181600C22C160C0E90412816108
:10254000C161FFF7EDFC002803D0BDE81040FEF7A5
:10255000E7BA10BD00140140A4010020FEE7FEE729
:1025600070477047FFF778B830B593B030216846B0
:10257000FDF768FE14210CA8FDF764FE1B4800243B
:10258000016841F080510160006800F080501190B6
:102590001748016841F4404101600068022500F4D9
:1025A0004040119001200390102000950695049062
:1025B000CDE907404FF4C870099004200A90082024
:1025C0000B906846FFF7CCF960B90F20CDE90C05F8
:1025D000E802CDE90E4003210CA81094FFF7D6F8CD
:1025E000002801D0FEF79CFA13B030BD40380240FD
:1025F000007000400548016841F470010160034922
:102600004FF00060803908607047000088ED00E0FE
:1026100010B5806B0021C185C184FFF7E3FB10BDBD
:102620000168CA6822F49072CA6001684A6922F09F
:1026300001024A61202180F83A10704710B590F8E5
:102640003A10222901D0022010BD8168B1F5805FC7
:1026500011D00169002901681FD0496801F07F038A
:10266000816A4A1C82620B70C18D491E0904090CE3
:10267000C18518D02BE00269816A002A026852687D
:1026800005D0D2B20A80816A491C8162ECE7C2F3AC
:1026900008020A80816A891CF7E74A68816A4B1C34
:1026A00083620A70E0E70168CA6822F02002CA600B
:1026B0000168CA6822F48072CA6001684A6922F01F
:1026C00001024A61202180F83A10FFF727FD00201F
:1026D00010BD00002DE9F041044600680169E26880
:1026E00021F44051114301612169A068E269084366
:1026F0006169114308432168CA6849F20C639A432F
:102700000243CA6020684169A26921F44071114303
:102710004161E069192764253226B0F5004F354A3A
:10272000354920684FF0000806D0884201D0904219
:1027300036D1FFF7D5F835E0884201D0904202D17A
:10274000FFF7CEF801E0FFF7BBF861684A18A0FB7D
:10275000070148EB0803FDF73DFD0146B0FBF5F02E
:102760000201B1FBF5F06FF01803584301EB800054
:1027700006EBC000B0FBF5F000F0F80002EB400201
:10278000B1FBF5F0584301EB800006EBC000B0FB55
:10279000F5F000F00700216810448860BDE8F08182
:1027A000FFF78EF861688B0F8A00A0FB0701FDF729
:1027B00011FD0146B0FBF5F06FF01802504301EB3C
:1027C000800006EB0010B0FBF5F000F0F002B1FB6A
:1027D000F5F002EB0012B1FBF5F06FF0180358436F
:1027E00001EB800006EB0010B0FBF5F000F00F00ED
:1027F000D1E70000001401400010014090F83910AA
:10280000212901D0022070478168B1F5805F016AFB
:102810000BD04A1C0262026809785160C18C491EC3
:102820000904090CC1840ED017E009880268C1F3BD
:102830000801516001690029016A02D0491C016246
:10284000ECE7891CFBE70168CA6822F08002CA60D5
:102850000068C16841F04001C160002070472DE967
:10286000F041984617460E460446069D1DE0681C3A
:102870001BD02DB1FEF7EAFEA0EB0800A84214D948
:102880002068C16821F4D071C1602068416921F0DD
:1028900001014161202084F8390084F83A000020C9
:1028A00084F838000320BDE8F0812068006836EA2B
:1028B000000004D00020B842D9D00020F3E7012066
:1028C000F9E700000148FFF7A1BA00002401002049
:1028D00010B50124224604490448FFF7F5FB08B16E
:1028E000002010BD204610BD35000020240100202E
:1028F0000148FFF78BBA0000640100200148FFF790
:1029000085BA0000A401002010B501242246044924
:102910000448FFF7D9FB08B1002010BD204610BDC8
:102920002F000020A4010020FEE700000FB4054B9B
:1029300010B503A9044A029800F0EAF810BC5DF84B
:1029400014FB000019320008780000200907090E66
:10295000002804DB00F1E02080F80014704700F04C
:102960000F0000F1E02080F8141D704702E008C855
:10297000121F08C1002AFAD170477047002001E0F9
:1029800001C1121F002AFBD1704700002DE9FF5F33
:1029900082B00021DDE90430020DDDF840B00343D0
:1029A00018D044F61050A2F2FF3242431514119889
:1029B00001281FD0A5EB0B00401C5FEA000A4FF076
:1029C00000064E4FDFF83891B046504615D5CAF193
:1029D000000413E0119801244AA3012801D16FEAF1
:1029E0000B010298119AC0E90031C0E9024206B019
:1029F000BDE8F09FCBF10000DFE704460021404A2C
:102A0000491842EB0450CDE9001012E0E00707D06E
:102A100032463B4640464946FDF70EFD8046894614
:102A200032463B4610461946FDF706FD06460F4660
:102A30006410002CEAD1DDE90401DDE90023BAF1DC
:102A4000000F06DAFDF7F8FC42464B46FDF7F4FCB2
:102A500005E0FDF763FD42464B46FDF75FFD04468A
:102A60000E460022284BFDF7E1FD03D84FF0FF3062
:102A7000014607E00022254B20463146FDF735FC94
:102A8000FDF7BBFD102409E0002C0ADB0A2200231D
:102A9000FDF7A0FB039B30321A55641E50EA010279
:102AA000F2D1641C039AC4F111031444119A012A4F
:102AB00003D0012208430DD10AE0084304D00020CE
:102AC0004FF0110B119072E7A3EB0B056D1E0DE09B
:102AD0005B4504DD4FF0000205F1010504E003DA77
:102AE0004FF00002A5F10105002AECD002981199DF
:102AF000C0E90231C0E9004579E700000000144058
:102B00000000F03F300000000000F0430000E03F14
:102B10002DE9FF4F95B09A46884606460025EEE11E
:102B2000252877D100242746F94A0121039400E0A3
:102B3000044316F8013F203B01FA03F01042F7D19D
:102B400030782A2811D06FF02F033078A0F13002AE
:102B5000092A16D8039A44F0020402EB820203EB1E
:102B600042021044761C0390EFE758F8042B0392BE
:102B7000002A03DA504244F40054039044F0020463
:102B8000761C30782E2816D116F8010F44F0040474
:102B90002A280DD06FF02F023078A0F13003092BD6
:102BA00009D807EB870302EB4303C718761CF3E74A
:102BB00058F8047B761C30786C280FD006DC4C2843
:102BC00017D068280DD06A2814D104E0742810D0DA
:102BD0007A280FD10DE044F400140AE044F4801484
:102BE00001E044F440147278824202D104F580146A
:102BF000761C761C307866280BD013DC582877D0EA
:102C000009DC002875D04528F6D04628F4D047289E
:102C10001AD193E118E0632835D0642879D065286B
:102C200012D18BE1702873D008DC6728F1D06928B5
:102C30006FD06E280DD06F2806D1ACE073282CD051
:102C4000752874D0782853D05246179990476D1C38
:102C500054E1C4F30250022809D003280DD0D8F85B
:102C6000001004280DD00D6008F1040846E1D8F8E2
:102C70000010EA17C1E90052F6E7D8F800100D80FD
:102C8000F2E70D70F0E718F8041B8DF80010002033
:102C90008DF80100EB46012003E058F804BB4FF02B
:102CA000FF3061074FF0000102D40DE009F101018E
:102CB0008946B9420FDA8145F8DB1BF80910002973
:102CC000F4D108E009F1010189468142FADB1BF8E1
:102CD00009100029F6D103985346A0EB09072146B5
:102CE0003846179A00F080FA284400EB090507E0FF
:102CF00044E008E10DE01BF8010B5246179990479C
:102D0000B9F10109F7D2534621463846179AF2E045
:102D100039E00A21C4F302524FF0000B0091022A5D
:102D200006D058F8040BC117032A09D00AE023E0A3
:102D300008F1070020F00702F2E80201904605E0E2
:102D400000B2C117042A01D140B2C117002906DA26
:102D50000A460021404261EB02012D2202E02205D9
:102D600004D52B228DF80420012203E0E20701D0D4
:102D70002022F7E7914657E00A2100E010214FF0AA
:102D8000000B00910BE010214FF0000B44F0040405
:102D90000827009103E008204FF0000B0090C4F3D7
:102DA0000252022A05D058F8040B0021032A08D049
:102DB00008E008F1070020F00702F2E8020190465F
:102DC00003E080B2042A00D1C0B24FF0000922070C
:102DD0002AD53278702A07D0DDF800C08CF0100CAC
:102DE0005CEA0B0C05D00EE040228DF80420012295
:102DF00008E050EA010306D030238DF804308DF846
:102E0000052002229146009B83F0080353EA0B033E
:102E10000AD150EA010201D1620705D530228DF8AE
:102E200004204FF001097F1E3278582A04D039A2BD
:102E30000C920CAA02920BE03BA2F9E75B46009AC7
:102E4000FDF7C8F90C9B9B5C029A521E029213700C
:102E500050EA0102F2D1029804A9081A00F1200BED
:102E6000600702D524F4803400E001275F4502DDCD
:102E7000A7EB0B0000E0002000EB0B010090039893
:102E80004944401A0390E00306D453462146179A5A
:102E9000039800F0A9F90544002706E001A852466E
:102EA000C05D179990476D1C7F1C4F45F6DBE00312
:102EB0000CD553462146179A039800F095F905441E
:102EC00004E030205246179990476D1C0099481E27
:102ED00000900029F5DC08E002980299524600783B
:102EE000491C0291179990476D1CBBF10001ABF191
:102EF000010BF1DC5BE100F065F90544761C3078EC
:102F000000287FF40DAE19B02846BDE8F08F000010
:102F100009280100303132333435363738396162AF
:102F20006364656600000000303132333435363773
:102F3000383941424344454600000000600700D450
:102F4000062708F1070020F00700F0E8022380467A
:102F500003F0004C5FEA0C0001D097A009E02005C7
:102F600001D596A005E0E00701D095A001E0AFF201
:102F70004C001390307823F0004365280CD006DC19
:102F8000452809D046281DD047287FD13BE0662838
:102F900018D067287AD136E00021112F01DB1120EB
:102FA00000E0781CCDE9000104A90CA8FFF7EEFCB5
:102FB000DDE90D010C9A4FF0000B07F101091092A9
:102FC00000914EE04FF000400097CDE9011004A9B8
:102FD0000CA8FFF7DBFCDDE90D020C9B0F994FF00D
:102FE000000B91461093009211B9791C00EB010976
:102FF000B7EB090003D4C0F1FF3B07F10109A9EBCE
:103000000700019042E0012F00DA01270021112F73
:1030100001DD112000E03846CDE9000104A90CA82B
:10302000FFF7B4FCDDE90D010C9A00914FF0000BA5
:10303000B946109221070FD4009A4A4503DA914607
:1030400001E0A9F10109B9F1010F05DD109AA9F11B
:103050000101515C3029F4D0B84202DA10F1040FBA
:1030600003DA0121CDE9011010E0002803DC8344DC
:10307000A9EB000102E0411C494500DD8946A0EBB7
:103080000B00401C01904FF000400290200705D437
:103090000198484502DB4FF0FF30019000208DF889
:1030A0004B0002980DF14B07B0F1004F25D00220E4
:1030B0000C902B200D90029800280CDA40420290D0
:1030C0002D200D9007E00A210298FDF7D9F8303144
:1030D000029007F8011D0C99481E0C900029F2DCA3
:1030E00002980028EFD1791E0D980870307800F012
:1030F000200040F0450007F8020D11A8C01BC01DBC
:1031000002901398007800B1012000EB09010198AA
:1031100001EBE071029801440398401A401E0390AD
:10312000E00306D453462146179A039800F05CF852
:1031300005441398007818B15246179990476D1CB2
:10314000E00323D553462146179A039800F04CF824
:1031500005441BE0BBF1000F07DB0098584504DD78
:103160001098179910F80B0001E01799302052467B
:10317000904701980BF1010B401E05F101050190EC
:1031800004D12E205246179990476D1CB9F10001C9
:10319000A9F10109DEDC05E017F8010B5246179989
:1031A00090476D1C0299481E02900029F4DC53469A
:1031B0002146179A03989EE62D0000002B00000080
:1031C000200000002DE9F041044600251E46174668
:1031D000880404D405E039462020B0476D1C641EE5
:1031E000F9D52846BDE8F0812DE9F04104460025D7
:1031F0001E469046C80301D5302700E020278804EA
:1032000004D505E041463846B0476D1C641EF9D52B
:103210002846BDE8F081000013B54FF6FF73012288
:1032200069460248FEF790FF00981CBD640100202B
:10323000FEF71AFAFFF798F9FFF7FCF8FFF7E4F842
:10324000FFF79AF8FFF736F9FFF750F9FFF76AF939
:10325000FEF7DAFF174C207030B317A0FFF766FBBC
:10326000FDF7C4FA207010B31248001DFDF7F6FAFE
:103270002070E0B10F480830FDF7FEFA2070B0B1C1
:103280000C480C30FDF706FB207080B16068FCF73D
:10329000E4FF41EC100B13A053EC102BFFF746FB9F
:1032A0006420FEF7EBF8DBE710A0FFF73FFBFDF72C
:1032B00037FC0000000000207375636365737320A2
:1032C000746F20696E697469616C697A6520486100
:1032D0007264776172652050726F636564757265A0
:1032E0000D0A000025660D0A000000004661696CA9
:1032F000656420746F20696E697469616C697A65B0
:103300002048617264776172652050726F636564F2
:103310007572650D0A0000000006101600061016F2
:103320000000000000000000010203040607080975
:1033300000000000010203043D3D3D3D3D3D3D3D9B
:103340003D3D3D3D5468652073797374656D207310
:10335000746172747320746F20696E697469616C32
:10336000697A652068617264776172653D3D3D3DB3
:103370003D3D3D3D3D3D3D3D3D3D3D3D3D3D3D3D7D
:103380003D3D3D3D3D3D3D3D3D0D0A00AC3300081A
:10339000000000207C0000006C2900082834000890
:1033A0007C000020740600007C2900080100000059
:1033B000000000000000000000000000010000000C
:1033C00010000000000000000024F40000000000D5
:1033D00000000000000000000000000000000200EB
:1033E00000000000000000000000000000000000DD
:1033F00000000000000000000000000000000000CD
:1034000000000000000000000000000000000000BC
:1034100000000000000000000000000000000000AC
:083420000000000000000000A4
:040000050800019955
:00000001FF
