:020000040800F2
:10000000F00C0020B1010008B1560008FF4D0008B7
:10001000AD5600089509000879610008000000004D
:10002000000000000000000000000000B7560008BB
:10003000230C000800000000B55600089B5700087C
:10004000CB010008CB010008CB010008CB01000860
:10005000CB010008CB010008CB010008CB01000850
:10006000CB010008CB010008CB010008CB01000840
:10007000CB010008CB010008CB010008CB01000830
:10008000CB010008CB0100084D070008000000006C
:10009000000000000000000000000000CB0100088C
:1000A000CB010008CB010008CB010008CB01000800
:1000B000795800088958000899580008CB010008B1
:1000C000CB010008CB010008CB010008CB010008E0
:1000D000CB01000881600008B56000080000000046
:1000E000CB010008CB010008CB0100080000000094
:1000F000000000000000000000000000CB0100082C
:1001000000000000CB010008CB010008CB01000873
:1001100000000000000000000000000000000000DF
:10012000810A0008CB010008CB010008CB010008C0
:10013000CB010008000000000000000000000000EB
:10014000000000000000000000000000CB010008DB
:10015000CB010008CB010008CB010008E9600008D2
:10016000CB010008CB0100080000000000000000E7
:10017000000000000000000000000000000000007F
:1001800000000000CB01000800000000000000009B
:10019000CB010008CB010008DFF810D000F0E0F937
:1001A0000048004715640008AFF30080F00C002001
:1001B0000648804706480047FEE7FEE7FEE7FEE701
:1001C000FEE7FEE7FEE7FEE7FEE7FEE75D58000814
:1001D000990100082DE9F05F0546002092469B46F4
:1001E00088460646814640241BE02846414647464D
:1001F000224600F036F953465A46C01A914110D3B0
:1002000011461846224600F01DF92D1A67EB010829
:100210004F4622460120002100F014F917EB000997
:100220004E41201EA4F10104DFDC484631462A4637
:100230004346BDE8F09FD2B201E000F8012B491E11
:10024000FBD270470022F6E710B513460A46044673
:100250001946FFF7F0FF204610BD2DE9FE4F8046FE
:1002600081EA0300C00F0C46009021F0004123F00A
:100270000045B8EB0200A94105D240462146904610
:100280001C460B46024623F00040104347D0270D82
:10029000C7F30A00C3F30A510290401A01904028A4
:1002A0006BDAC3F3130040F4801B0098924620B130
:1002B0000023D2EB030A63EB0B0B01985946C0F104
:1002C0004002504600F0BEF806460D4650465946DC
:1002D000019A00F0D6F810EB08006141002487EA8B
:1002E000115284EAE7731A4340D0009A62B3019A2C
:1002F000012A4FEA075215DC001B61EB02014FF0A7
:10030000004202EA0752CDE90042001C41F580118B
:1003100032462B4600F0D6F803B0BDE8F08F4046D9
:100320002146F9E7001B61EB0201001C41F5801337
:1003300000185B412018A2F5001747EB030140EAC3
:10034000D570B6196D4111E06D084FEA360645EAE1
:10035000C0754FEA0752001B61EB0201001C41F51A
:10036000801149084FEA30000019514132462B46AE
:1003700003B0BDE8F04F00F096B8009801224000AD
:100380000023D0EB020263EBE073009821464FEAB2
:10039000E074B8EB000061EB0401E9E783F000438F
:1003A0005BE781F0004158E70EB540F2334102911E
:1003B0000021CDE900110A460B4600F083F803B096
:1003C00000BD00F0004230F000400AD0C10D01F540
:1003D0006071C0F3160042EA0151C20840071143A0
:1003E000704700200146704730B5041E71F10004CB
:1003F00004DB4FF00044404264EB0101141E73F132
:10040000000405DB1C464FF00043524263EB04033B
:10041000994208BF904230BD30B50B4601460020DE
:100420002022012409E021FA02F59D4205D303FAB6
:1004300002F5491B04FA02F52844151EA2F1010237
:10044000F1DC30BD202A04DB203A00FA02F1002062
:1004500070479140C2F1200320FA03F31943904002
:100460007047202A04DB203A21FA02F0002170476D
:1004700021FA02F3D040C2F120029140084319460C
:100480007047202A06DBCB17203A41FA02F043EAF4
:10049000E07306E041FA02F3D040C2F1200291403D
:1004A00008431946704710B5141E73F1000408DAAA
:1004B000401C41F1000192185B411A4301D120F028
:1004C000010010BD2DE9F04D92469B4611B1B1FAE5
:1004D00081F202E0B0FA80F220329046FFF7B2FFDC
:1004E00004460F4640EA0A0041EA0B0153465A46C9
:1004F000084313D0114653EA010019D0C8F1400255
:100500005046FFF7AEFF05460E4650465946424656
:10051000FFF798FF084305D0012004E02046394644
:10052000BDE8F08D0020054346EAE0762C433743D2
:100530000A986305E40AA0EB08000022FD0A44EAD9
:1005400047540A3002D500200146E9E70105101999
:100550006941DDE9084500196941BDE8F04DA2E7B0
:10056000064C074D06E0E06840F0010394E8070000
:1005700098471034AC42F6D3FFF712FE246500080A
:100580004465000870B50546AC6B206C00F0500067
:1005900050BB206C40F4007020642068806800F03C
:1005A0004050E8B9207ED8B92068C06A00F47000D5
:1005B00020B12068806800F4806088B920684068B5
:1005C00020F0200021684860206C20F480702064B6
:1005D000206C00F4805018B9206C40F001002064B9
:1005E000204601F0CBF90BE0206C00F0100018B1B0
:1005F000204601F0CAF903E0A06BC16C2846884789
:1006000070BD70B50546AC6B40202064606C40F056
:1006100004006064204601F0B8F970BD70B504466E
:10062000A56B284601F0B0F970BD000010B501249B
:10063000294801F0ABFC0121274801F045FC27487F
:10064000007830B900222103254802F0C5FB0224BE
:100650003FE001221103224802F0BEFB214800883E
:1006600040F6E441484340F6FF71B0FBF1F01E490B
:1006700008801C48408840F6E441484340F6FF713A
:10068000B0FBF1F0194908801648808840F6E44133
:10069000484340F6FF71B0FBF1F01549088011485E
:1006A000C08840F6E441484340F6FF71B0FBF1F0EA
:1006B000104908800B48008940F6E441484340F661
:1006C000FF71B0FBF1F00C4908800020034908706D
:1006D0000124204610BD0000F00000207000002022
:1006E000000C024018030020660000206800002073
:1006F0006A0000206C0000206E00002001460120EE
:10070000014A12880A8070476600002001460120D5
:10071000014A12880A8070476800002001460120C3
:10072000014A12880A8070476A00002001460120B1
:10073000014A12880A8070476C000020014601209F
:10074000014A12880A8070476E00002010B50248E6
:1007500001F01CF910BD0000F000002070B5044647
:100760005B4D686820F440306860686861680843E1
:1007700068602068406820F48070216848602068C4
:100780004168206941EA002021684860206840688B
:1007900020F040702168486020684068A1680843E4
:1007A000216848602068806820F4006021688860C3
:1007B00020688068E1680843216888604549A06A2C
:1007C000884218D02068806820F0706021688860B6
:1007D00020688068A16A0843216888602068806872
:1007E00020F040502168886020688068E16A0843F2
:1007F000216888600BE02068806820F070602168C4
:1008000088602068806820F04050216888602068F7
:10081000806820F002002168886020688168207E5E
:1008200041EA4000216888602020005DF8B1606ADC
:1008300018B1606A082800D804E040F2757126A05B
:1008400005F0B4FD2068406840F40060216848600D
:100850002068406820F46040216848602068416852
:10086000606A401E41EA40302168486005E0206827
:10087000406820F40060216848602068C06A20F465
:1008800070002168C8622068C16AA08B401E41EADE
:1008900000502168C8622068806820F400702168D8
:1008A00088602068816894F8300041EA402021681F
:1008B00088602068806820F48060216888602068F3
:1008C0008168606941EA80202168886070BD00000D
:1008D000002301400100000F2E2E2F44726976651F
:1008E00072732F53544D3332463478785F48414CFD
:1008F0005F4472697665722F5372632F73746D3320
:1009000032663478785F68616C5F6164632E63007F
:1009100008B50848084B094A09490090094800F001
:100920009DF9094908700846007808B900F07AF97D
:1009300008BD0000200000201C000020180000203E
:1009400014000020100000200000002010B5012439
:10095000E01E0C49096808610A4803F079FA10B1F1
:100960000020044610BD05220749084801F0CAFBD3
:1009700010B100200446F5E7002005490870204624
:10098000F0E700009801002018030020F00000208C
:100990007000002000BFFEE770B5034601251C462D
:1009A000002002E0265C0E54401C9042FADB2846F0
:1009B00070BD70B502460B4601250021144600BFEC
:1009C00002E0605C5854491CD078801C8842F8DCF6
:1009D000507C5854481C02E000261E54401C12282B
:1009E000FADB284670BD000010B5014601201F4A01
:1009F00013781278521C1D4C22701D4AD154127863
:100A0000552A04D0002223461A70002010BD174A30
:100A100012780B2A01DA0220F8E7154A5278512A97
:100A200004D0522A0AD0532A18D10FE0114A104B91
:100A30009B1C1C6814605B6853600FE00E4A0C4BF3
:100A40009B1C1C6814605B68536007E00B4A084BF2
:100A50009B1C1C6814605B68536000BF00BF0022D1
:100A6000024B1A70012000BFD0E700008800002070
:100A7000340300208A000020920000209A00002009
:100A800010B5024801F034FC10BD00003801002010
:100A90000146087810381823B0FBF3F20848805C50
:100AA000C865032A05D908686FF30900001D886529
:100AB00003E008686FF309008865886D70470000DF
:100AC000F4640008014600208A6A8B69CBB932B110
:100AD000012A0DD0022A03D0032A10D10EE000BF54
:100AE000CB6A03F08073B3F1807F00D1012007E06F
:100AF000CB6AB3F1C07F00D1012001E000E000BF6C
:100B000034E08B69B3F5005F1AD132B1012A07D006
:100B1000022A03D0032A11D10AE000BF01200EE00F
:100B2000CB6A03F08073B3F1807F00D1012006E02F
:100B3000CB6AB3F1C07F00D1012000E000BF15E017
:100B400032B1012A05D0022A04D0032A0CD103E0D5
:100B500000BF00BF012008E0CB6A03F08073B3F14F
:100B6000807F00D1012000E000BF00BF704730B59A
:100B70000468246824F4802405682C600468636099
:100B80008468402C04D10468A2600468E16003E03A
:100B90000468A1600468E26030BD00000A469FED71
:100BA000130A80ED030A002112E002EB810393EDAA
:100BB000000A00EB810383ED000A90ED030A00EBCD
:100BC0008103D3ED000A30EE200A80ED030A491CB0
:100BD0000329EADB90ED030AF0EE080A80EE201A02
:100BE00080ED041A90ED040A704700000000000038
:100BF00010B502460020D08000BF09E031F8103067
:100C000022F81030D38832F810402344D380401C9F
:100C10000328F3DBD088032390FBF3F010811089C5
:100C200010BD704716E04FF400510B4802F09EF8DB
:100C30004FF48051084802F099F84FF4804106487B
:100C400002F094F84FF40041034802F08FF864205A
:100C500001F08CFEE7E70000000C02402DE9F047B0
:100C60002DED088B86B004460D4616461F46DDF86E
:100C700058A04FF0010800200590049003900290C6
:100C80000190FE48007888B9FD4804F0D9FAFD4883
:100C900004F0D6FAFC4804F0D3FAFC4804F0D0FA89
:100CA000FB4804F0CDFA0120F449087001A802AB1A
:100CB00003AA04A9009005A800F0BCFA8046B8F188
:100CC000010F05D0404606B0BDEC088BBDE8F087AB
:100CD000BDF8140000EE100AB8EE400ADFEDED0A90
:100CE00080EE201AB0EE418AB0EE480AE44804F0E3
:100CF0006DFADFEDE80A20EE200A10EE109A484661
:100D0000FFF75FFB41EC190BBDF8140000EE100A71
:100D1000B8EE400ADFEDDF0A80EE201AB0EE418A1D
:100D2000B0EE480AD64804F051FADFEDDA0A20EEB8
:100D3000200ABCEEC00A10EE100A1FFA80F94846DD
:100D4000FFF732FB41EC1B0B9FEDD30B53EC102B49
:100D5000FFF783FA41EC1A0B53EC192BFFF744FB16
:100D60001AD2BDF8140000EE100AB8EE400ADFED0A
:100D7000C90A80EE201AB0EE418AB0EE480AC04897
:100D800004F024FADFEDC30A20EE200ABCEEC00A0C
:100D900010EE100A80B21AE0BDF8140000EE100A3E
:100DA000B8EE400ADFEDBB0A80EE201AB0EE418AB1
:100DB000B0EE480AB24804F009FADFEDB60A20EEB8
:100DC000200ABCEEC00A10EE100A80B2401C00EEF1
:100DD000100AB8EEC00A84ED000ABDF8100000EE5B
:100DE000100AB8EE400ADFEDAB0A80EE201AB0EE32
:100DF000418AB0EE480AA34804F0E8F9DFEDA50AFD
:100E000020EE200A10EE109A4846FFF7DAFA41EC7D
:100E1000190BBDF8100000EE100AB8EE400ADFED25
:100E20009D0A80EE201AB0EE418AB0EE480A95483D
:100E300004F0CCF9DFED970A20EE200ABCEEC00AE0
:100E400010EE100A1FFA80F94846FFF7ADFA41ECA0
:100E50001B0B9FED910B53EC102BFFF7FEF941ECB0
:100E60001A0B53EC192BFFF7BFFA1AD2BDF810007A
:100E700000EE100AB8EE400ADFED860A80EE201A76
:100E8000B0EE418AB0EE480A7E4804F09FF9DFEDEB
:100E9000810A20EE200ABCEEC00A10EE100A80B2D1
:100EA0001AE0BDF8100000EE100AB8EE400ADFEDBF
:100EB000790A80EE201AB0EE418AB0EE480A7148F5
:100EC00004F084F9DFED730A20EE200ABCEEC00ABC
:100ED00010EE100A80B2401C00EE100AB8EEC00AF4
:100EE00085ED000ABDF80C0000EE100AB8EE400ACD
:100EF000DFED680A80EE201AB0EE418AB0EE480AB3
:100F0000614804F063F9DFED630A20EE200A10EE79
:100F1000109A4846FFF755FA41EC190BBDF80C0042
:100F200000EE100AB8EE400ADFED5A0A80EE201AF1
:100F3000B0EE418AB0EE480A534804F047F9DFEDBD
:100F4000550A20EE200ABCEEC00A10EE100A1FFA65
:100F500080F94846FFF728FA41EC1B0B9FED4E0B3A
:100F600053EC102BFFF779F941EC1A0B53EC192BCA
:100F7000FFF73AFA1AD2BDF80C0000EE100AB8EEEC
:100F8000400ADFED440A80EE201AB0EE418AB0EE4E
:100F9000480A3D4804F01AF9DFED3E0A20EE200A27
:100FA000BCEEC00A10EE100A80B21AE0BDF80C00C8
:100FB00000EE100AB8EE400ADFED360A80EE201A85
:100FC000B0EE418AB0EE480A2F4804F0FFF8DFED9A
:100FD000310A20EE200ABCEEC00A10EE100A80B2E0
:100FE000401C00EE100AB8EEC00A86ED000ABDF8FB
:100FF000080000EE100AB8EE400ADFED260A80EE87
:10100000201AB0EE418AB0EE480A204804F0DEF81B
:10101000DFED200A20EE200A10EE109A4846FFF776
:10102000D0F941EC190BBDF8080000EE100AB8EE3B
:10103000400ADFED180A80EE201AB0EE418AB0EEC9
:10104000480A124804F0C2F8DFED120A20EE200A26
:10105000BCEEC00A10EE100A1FFA80F94846FFF7EE
:10106000A3F941EC1B0B9FED0C0B53EC102BFFF77E
:10107000F4F841EC1A0B53EC192B11E0E9000020B5
:101080003004002048040020600400207804002080
:101090009004002000007A44000000000000E03FBF
:1010A000FFF7A2F91AD2BDF8080000EE100AB8EE58
:1010B000400A5FED080A80EE201AB0EE418AB0EED9
:1010C000480A5A4804F082F85FED0E0A20EE200A22
:1010D000BCEEC00A10EE100A80B21AE0BDF808009B
:1010E00000EE100AB8EE400A5FED160A80EE201AF4
:1010F000B0EE418AB0EE480A4C4804F067F85FED64
:101100001B0A20EE200ABCEEC00A10EE100A80B2C4
:10111000401C00EE100AB8EEC00A87ED000ABDF8C8
:10112000040000EE100AB8EE400A5FED260A80EED9
:10113000201AB0EE418AB0EE480A3D4804F046F865
:101140005FED2C0A20EE200A10EE109A4846FFF7B9
:1011500038F941EC190BBDF8040000EE100AB8EEA6
:10116000400A5FED340A80EE201AB0EE418AB0EEFC
:10117000480A2F4804F02AF85FED3A0A20EE200AC8
:10118000BCEEC00A10EE100A1FFA80F94846FFF7BD
:101190000BF941EC1B0B1FED400B53EC102BFFF731
:1011A0005CF841EC1A0B53EC192BFFF71DF91AD21E
:1011B000BDF8040000EE100AB8EE400A5FED4B0ADD
:1011C00080EE201AB0EE418AB0EE480A184803F0CB
:1011D000FDFF5FED500A20EE200ABCEEC00A10EEC3
:1011E000100A80B21AE0BDF8040000EE100AB8EE52
:1011F000400A5FED580A80EE201AB0EE418AB0EE48
:10120000480A0B4803F0E2FF5FED5E0A20EE200A79
:10121000BCEEC00A10EE100A80B2401C00EE100AAC
:10122000B8EEC00A8AED000A40464CE5780400207A
:10123000900400202DE9FE4304460D4616461F4645
:10124000DDF828804FF00109002000900190029005
:10125000FFF7ECF98146B9F1010F02D04846BDE82D
:10126000FE833D480078022803DB00203A490870DD
:1012700004E039480078401C374908703749364A3D
:10128000127801EB4200FFF739FA3549324A1278F9
:1012900001EB4200FFF73AFA32492F4A127801EB8C
:1012A0004200FFF73BFA30492B4A127801EB42002B
:1012B000FFF73CFA2D49284A127801EB4200FFF76C
:1012C0003DFA26496846FFF793FC2080684604F003
:1012D000E1F923496846FFF78BFC2880684604F053
:1012E000D9F920496846FFF783FC3080684604F04E
:1012F000D1F91D496846FFF77BFC3880684604F049
:10130000C9F91A496846FFF773FCA8F80000684657
:1013100004F0C0F9208811490F4A127821F8120010
:1013200029880F480C4A127820F8121030880D498D
:10133000094A127821F8120038880B49064A1278B7
:1013400021F81200B8F800100848034A127820F873
:101350001210484683E70000E8000020CA00002081
:10136000D0000020D6000020DC000020E200002099
:10137000014600230022022204E0885C184483B264
:10138000501CC2B2C878801C9042F6DCD843C0B270
:10139000704700002DE9F04786B004460D4616461A
:1013A0001F46DDE90E894FF0010A142101A8FEF75E
:1013B00049FF59480078022803DB0020564908708D
:1013C00004E055480078401C5349087000F0B2F81A
:1013D00052485149097800EB810080ED000A00F085
:1013E000E5F84F484C49097800EB810080ED000A90
:1013F00000F018F94B484849097800EB810080ED6E
:10140000000A00F0B5F848484349097800EB81002C
:1014100080ED000A00F0E8F844483F49097800EB05
:10142000810080ED000A00F01BF941483A49097833
:1014300000EB810080ED000A384901A8FFF7AEFB00
:1014400084ED000A01A804F00FF9354901A8FFF75F
:10145000A5FB85ED000A01A804F006F9314901A8B1
:10146000FFF79CFB86ED000A01A804F0FDF82E4969
:1014700001A8FFF793FB87ED000A01A804F0F4F838
:101480002A4901A8FFF78AFB88ED000A01A804F0A9
:10149000EBF8274901A8FFF781FB89ED000A01A8B5
:1014A00004F0E2F894ED000A1C481B49097800EBAF
:1014B000810080ED000A95ED000A19481649097867
:1014C00000EB810080ED000A96ED000A15481249F4
:1014D000097800EB810080ED000A97ED000A1248C0
:1014E0000D49097800EB810080ED000A98ED000AB3
:1014F0000E480949097800EB810080ED000A99ED5A
:10150000000A0B480449097800EB810080ED000ACD
:10151000504606B0BDE8F087EA000020A80400208D
:10152000B4040020C0040020CC040020D804002013
:10153000E40400200A48B0F9000000EE100AB8EEFA
:10154000C00A9FED081AC0EE010A9FED070A20EEBF
:10155000800A064880ED000A90ED000A70470000FE
:101560009A0000200000004700003443A40000203F
:101570000A48B0F9000000EE100AB8EEC00A9FED6C
:10158000081AC0EE010A9FED070A20EE800A0648FD
:1015900080ED000A90ED000A7047000092000020E4
:1015A000000000470000FA44BC0000200A48B0F9DF
:1015B000020000EE100AB8EEC00A9FED081AC0EE55
:1015C000010A9FED070A20EE800A064880ED000A16
:1015D00090ED000A704700009A00002000000047CC
:1015E00000003443A80000200A48B0F9020000EED1
:1015F000100AB8EEC00A9FED081AC0EE010A9FED6E
:10160000070A20EE800A064880ED000A90ED000AE5
:101610007047000092000020000000470000FA44DC
:10162000C00000200A48B0F9040000EE100AB8EE2D
:10163000C00A9FED081AC0EE010A9FED070A20EECE
:10164000800A064880ED000A90ED000A704700000D
:101650009A0000200000004700003443AC00002046
:101660000A48B0F9040000EE100AB8EEC00A9FED77
:10167000081AC0EE010A9FED070A20EE800A06480C
:1016800080ED000A90ED000A7047000092000020F3
:10169000000000470000FA44C400002010B50124F7
:1016A000164804F009F804460CB9204610BD04B1F0
:1016B00003E0A82112A004F079FE642001F056F99D
:1016C0001B4803F0F9FF04400CB92046EEE704B1D3
:1016D00003E0B6210AA004F069FE0A2001F046F9F1
:1016E0006FF00100134909680861124802F0B0FB6D
:1016F00010B100242046D9E72046D7E7FF64000850
:101700002E2E5C48617264776172655C555341525C
:10171000545F4779726F73636F70655C55534152C4
:10172000545F4779726F73636F7065202E6300009A
:10173000FC6400081802002070470000F8B5054658
:101740000C46002000902068122800D804E04FF4D6
:10175000CB6177A004F02AFE606818B16068102899
:1017600000D804E040F2596171A004F01FFEA068A7
:10177000A0B1A068012811D0A06802280ED0A068EE
:1017800003280BD0A068042808D0A068052805D03D
:10179000A068062802D0A068072800D104E040F223
:1017A0005A6163A004F002FE00BF95F83C000128D6
:1017B00001D10220F8BD012085F83C0000BF20685F
:1017C000092816D92868C06821780A3901EB410236
:1017D0000721914088432968C86021780A3901EBC4
:1017E0004101A06888402968C96808432968C86021
:1017F00013E028680069217801EB4102072191403C
:10180000884329680861217801EB4101A06888407C
:10181000296809690843296808616068072817D2A0
:101820002868406B2179491E01EB81021F219140FC
:10183000884329684863208880B22179491E01EBDA
:10184000810188402968496B08432968486331E071
:1018500060680D2817D22868006B2179C91F01EB39
:1018600081021F219140884329680863208880B243
:101870002179C91F01EB810188402968096B084360
:101880002968086316E02868C06A21790D3901EBE0
:1018900081021F21914088432968C862208880B254
:1018A00021790D3901EB810188402968C96A084313
:1018B0002968C8622C4E2D49286888420AD12068C0
:1018C000122807D1706820F400007060706840F43E
:1018D0008000706025492868884222D12449206808
:1018E000884202D0206811281BD1706820F4800043
:1018F0007060706840F4000070601D492068884284
:101900000FD11C4800681C49B0FBF1F000EB8000CF
:101910004000009002E00098401E009000980028CF
:10192000F9D100BF002085F83C0000BF00BF41E7AF
:101930002E2E2F447269766572732F53544D3332B5
:10194000463478785F48414C5F4472697665722FFF
:101950005372632F73746D3332663478785F6861C5
:101960006C5F6164632E630000230140002001402E
:1019700012000010EC00002040420F000121014A3B
:1019800011707047700000207047704770B50446B2
:1019900000250026207E10B1207E012800D104E021
:1019A00040F29D4168A004F001FDE06918B1E069D2
:1019B000102800D804E040F29E4163A004F0F6FC39
:1019C0006069012804D0606910B16069022800D103
:1019D00004E040F29F415CA004F0E8FC206800684D
:1019E000C0F3400520684068C0F3401695B38EB33D
:1019F000206C00F0100018B9206C40F400702064D6
:101A00002068806800F04050E8B9207ED8B920688E
:101A1000C06A00F4700020B12068806800F4806023
:101A200088B92068406820F0200021684860206C58
:101A300020F480702064206C00F4805018B9206C71
:101A400040F0010020642046FFF798FF6FF012007D
:101A50002168086020680068C0F38005206840683D
:101A6000C0F3C016E5B3DEB3206C00F0100018B967
:101A7000206C40F4005020642068806800F440101E
:101A800038BB2068806B00F4401020B1206880686B
:101A900000F48060E8B92068406800F48060C0B954
:101AA0002068806800F0405098B9207E88B920688E
:101AB000406820F0800021684860206C20F480504D
:101AC0002064206C00F4807018B9206C40F0010094
:101AD00020642046FFF730FE6FF00C00216808609C
:101AE0002068006800F0010520684068C0F3801697
:101AF00085B17EB12068006800F0010050B1206C13
:101B000040F480302064204600F070F96FF001004E
:101B10002168086020680068C0F3401520684068AC
:101B2000C0F380667DB176B1606C40F00200606405
:101B30006FF02000216808602046FFF726FF6FF055
:101B400020002168086070BD2E2E2F4472697665D2
:101B500072732F53544D3332463478785F48414C7A
:101B60005F4472697665722F5372632F73746D339D
:101B700032663478785F68616C5F6164632E6300FD
:101B800070B5044600250CB9012070BD8749206856
:101B9000884200D104E040F2431185A004F006FC25
:101BA000606858B16068B0F5803F07D06068B0F5F4
:101BB000003F03D06068B0F5403F00D104E04FF42F
:101BC000A2717BA004F0F2FBA06858B1A068B0F14C
:101BD000807F07D0A068B0F1007F03D0A068B0F18B
:101BE000407F00D104E040F2451171A004F0DEFB1B
:101BF000206910B12069012800D104E04FF4A371DD
:101C00006BA004F0D3FB207E10B1207E012800D110
:101C100004E040F2471166A004F0C8FBA06AE8B3F4
:101C2000A06AB0F1807F3DD0A06AB0F1007F39D0CA
:101C3000A06AB0F1407F35D0A06AB0F1806F31D09A
:101C4000A06AB0F1A06F2DD0A06AB0F1C06F29D00A
:101C5000A06AB0F1E06F25D0A06AB0F1006F21D08A
:101C6000A06AB0F1106F1DD0A06AB0F1206F19D03A
:101C7000A06AB0F1306F15D0A06AB0F1406F11D0FA
:101C8000A06AB0F1506F0DD0A06AB0F1606F09D0BA
:101C9000A06AB0F1706F05D0534900E002E0A06A7D
:101CA000884200D104E04FF4A47141A004F07EFB0F
:101CB000E06818B1E068B0F5006F00D104E040F2D0
:101CC00049113BA004F072FBE06918B1E0691028EB
:101CD00000D804E04FF4A57135A004F067FB94F838
:101CE000300018B194F83000012800D104E040F22F
:101CF0004B112FA004F05AFB6069012804D06069E1
:101D000010B16069022800D104E04FF4A67128A048
:101D100004F04CFB2020005D18B12020005D01285C
:101D200000D104E040F24D1121A004F03FFB2E4908
:101D3000A06A884213D0E06A58B1E06AB0F1805FCF
:101D400007D0E06AB0F1005F03D0E06AB0F1405F15
:101D500000D104E040F2511115A004F027FB206CE3
:101D600030B9204600F044F80020606484F83C005C
:101D7000206C00F0100088B9206C20F4885040F0EE
:101D8000020020642046FEF7E9FC00206064206C1D
:101D900020F0020040F00100206400E0012500BFB7
:101DA000002084F83C0000BF2846EEE600200140F9
:101DB0002E2E2F447269766572732F53544D333231
:101DC000463478785F48414C5F4472697665722F7B
:101DD0005372632F73746D3332663478785F686141
:101DE0006C5F6164632E63000100000F70470000A8
:101DF00010B586B00446142101A8FEF723FA2D4938
:101E00002068884253D100BF002000902A48006813
:101E100040F48070284908600846006800F480702B
:101E2000009000BF00BF00BF00200090224814387F
:101E3000006840F001002049143908600846006835
:101E400000F00100009000BF00BF6A200190032055
:101E500002900020039001A9184800F09BFD18484B
:101E60001849086000204860002116488160C16060
:101E70004FF480610161490041618900816149112C
:101E8000C161490201620021416200F051FB08B1C9
:101E9000FEF7C8FE00BF0B48A063846300BF0022AA
:101EA0001146122001F084F8122001F04BF806B020
:101EB00010BD0000002001404438024000000240F4
:101EC000106402403801002070B504460D4600261B
:101ED0002068806800F48060B0F5806F11D12068C0
:101EE000806800F48070B0F5807F0AD1206C40F0EB
:101EF0002000206400BF002084F83C0000BF0120C7
:101F000070BD00F0A5FF064612E0681C80B125B147
:101F100000F09EFF801BA8420AD9206C40F004000C
:101F2000206400BF002084F83C0000BF0320E7E7E6
:101F30002068006800F002000228E6D16FF012006D
:101F400021680860206C40F400702064206880687C
:101F500000F04050B8B9207EA8B92068C06A00F4EB
:101F6000700020B12068806800F4806058B9206C4F
:101F700020F480702064206C00F4805018B9206C2C
:101F800040F0010020640020BAE7000038B50446A4
:101F900000200090207E10B1207E012800D104E0B6
:101FA00040F2D32145A004F001FAE06A58B1E06A9A
:101FB000B0F1805F07D0E06AB0F1005F03D0E06A63
:101FC000B0F1405F00D104E04FF435713BA004F064
:101FD000EDF900BF94F83C00012801D1022038BD82
:101FE000012084F83C0000BF2068806800F00100F8
:101FF000A0B92068806840F00100216888603D48F1
:1020000000683D49B0FBF1F000EB4000009002E0B9
:102010000098401E009000980028F9D12068806840
:1020200000F00100B8B3206C40F20161884340F435
:10203000807020642068406800F4806028B1206CC3
:1020400020F4005040F480502064206C00F4805054
:10205000B0F5805F04D1606C20F00600606401E0A0
:102060000020606400BF002084F83C0000BF234DC6
:102070006FF0220021680860686800F01F0058B9FE
:102080002068806800F0405028B92068806840F0DF
:102090008040216888600EE01949206888420AD192
:1020A0002068806800F0405028B92068806840F0BF
:1020B000804021688860002091E700002E2E2F4488
:1020C0007269766572732F53544D33324634787883
:1020D0005F48414C5F4472697665722F5372632F7B
:1020E00073746D3332663478785F68616C5F6164F5
:1020F000632E6300EC00002040420F0000230140EB
:1021000000200140F8B504460D4616460020009018
:10211000207E10B1207E012800D104E04FF4A86198
:1021200054A004F043F9E06A58B1E06AB0F1805F6E
:1021300007D0E06AB0F1005F03D0E06AB0F1405F21
:1021400000D104E040F241514AA004F02FF900BF51
:1021500094F83C00012801D10220F8BD012084F848
:102160003C0000BF2068806800F00100A0B9206832
:10217000806840F00100216888604C4800684C4944
:10218000B0FBF1F000EB4000009002E00098401E30
:10219000009000980028F9D12068806800F00100C4
:1021A000002864D0206C40F20161884340F48070C4
:1021B00020642068406800F4806028B1206C20F41E
:1021C000005040F480502064206C00F48050B0F542
:1021D000805F04D1606C20F00600606401E00020A4
:1021E000606400BF002084F83C0000BF314F3248DB
:1021F000A16BC8633148A16B08643148A16BC86406
:102200006FF02200216808602068406840F080601C
:10221000216848602068806840F480702168886088
:10222000226802F14C0133462A46A06B00F02EFBD7
:10223000786800F01F0058B92068806800F04050AE
:1022400028B92068806840F08040216888600EE0EE
:102250001C49206888420AD12068806800F04050FC
:1022600028B92068806840F080402168886000209C
:1022700073E700002E2E2F447269766572732F5318
:10228000544D3332463478785F48414C5F4472692C
:102290007665722F5372632F73746D3332663478A0
:1022A000785F68616C5F6164632E6300EC000020FE
:1022B00040420F0000230140850500081D0600086C
:1022C0000306000800200140014691F8350002286D
:1022D00003D08020486501207047052081F8350033
:1022E0000868006820F001000A6810600020F3E729
:1022F000F8B50446002000908C4800684FF4165151
:10230000B0FBF1F7A56D2E6894F85C1008208840AA
:10231000304098B12068006800F0040070B1206877
:10232000006820F004002168086094F85C10082020
:102330008840A860606D40F00100606594F85C1012
:1023400001208840304068B12068406900F080007A
:1023500040B194F85C1001208840A860606D40F0A6
:102360000200606594F85C1004208840304068B139
:102370002068006800F0020040B194F85C1004206E
:102380008840A860606D40F00400606594F85C10BF
:1023900010208840304078B32068006800F00800C2
:1023A00050B394F85C1010208840A8602068006842
:1023B00000F4802080B12068006800F4002028B973
:1023C000206CC8B12046216C884715E0A06C98B1FC
:1023D0002046A16C88470FE02068006800F48070F8
:1023E00028B92068006820F0080021680860206C87
:1023F00010B12046216C884794F85C10202088405A
:102400003040002865D02068006800F010000028E7
:102410005FD094F85C1020208840A86094F83500C4
:10242000052828D12068006820F01600216808607F
:102430002068406920F0800021684861206C08B95C
:10244000A06C28B12068006820F0080021680860AE
:1024500094F85C103F208840A86000BF002084F8FA
:10246000340000BF012084F83500206D10B12046F3
:10247000216D8847F8BD2068006800F4802080B195
:102480002068006800F4002028B9606C10B1204674
:10249000616C88471DE0E06BD8B12046E16B88474E
:1024A00017E02068006800F4807068B92068006850
:1024B00020F010002168086000BF002084F834007C
:1024C00000BF012084F83500E06B10B12046E16BBD
:1024D0008847606D38B3606D00F00100F0B10520F1
:1024E00084F835002068006820F001002168086049
:1024F00000BF0098401C0090B84200D905E0206859
:10250000006800F001000028F3D100BF00BF0020E8
:1025100084F8340000BF012084F83500E06C10B16D
:102520002046E16C884700BFA4E70000EC000020D3
:102530002DE9F0410446002500F08AFC074614B955
:102540000120BDE8F081C0492068884249D0BE49D9
:1025500018312068884244D0BB4930312068884215
:102560003FD0B9494831206888423AD0B6496031F5
:102570002068884235D0B44978312068884230D00C
:10258000B1499031206888422BD0AF49A8312068EA
:10259000884226D0AD492068884222D0AB49183104
:1025A000206888421DD0A94930312068884218D05F
:1025B000A64948312068884213D0A4496031206878
:1025C00088420ED0A14978312068884209D09F49BD
:1025D00090312068884204D09C49A8312068884204
:1025E00000D103E0B8219AA003F0E0FE6068D8B102
:1025F0006068B0F1007F17D06068B0F1806F13D0D1
:102600006068B0F1C06F0FD06068B0F1006F0BD0A0
:102610006068B0F1206F07D06068B0F1406F03D000
:102620006068B0F1606F00D103E0B92188A003F0C9
:10263000BDFEA06828B1A068402802D0A06880280C
:1026400000D103E0BA2182A003F0B0FEE068B0F54B
:10265000007F01D0E06800B903E0BB217CA003F05B
:10266000A5FE2069B0F5806F01D0206900B903E0B4
:10267000BC2177A003F09AFE606938B16069B0F5BB
:10268000006F03D06069B0F5805F00D103E0BD2129
:102690006FA003F08BFEA06938B1A069B0F5005FB0
:1026A00003D0A069B0F5804F00D103E0BE2168A03F
:1026B00003F07CFEE06930B1E069B0F5807F02D0C4
:1026C000E069202800D103E0BF2161A003F06EFE85
:1026D000206A58B1206AB0F5803F07D0206AB0F573
:1026E000003F03D0206AB0F5403F00D103E0C02195
:1026F00057A003F05BFE606A10B1606A042800D145
:1027000003E0C12152A003F051FE606A002835D0D9
:10271000A06A40B1A06A012805D0A06A022802D0B0
:10272000A06A032800D103E0C62149A003F03EFEC1
:10273000E06A58B1E06AB0F5000F07D0E06AB0F186
:10274000807F03D0E06AB0F1C07F00D103E0C721F1
:102750003FA003F02BFE206B58B1206BB0F5001F9B
:1027600007D0206BB0F5800F03D0206BB0F5C00F01
:1027700000D103E0C82136A003F018FE00BF0020FE
:1027800084F8340000BF022084F835002068006817
:1027900020F00100216808600AE000F059FBC01B2E
:1027A000052805D920206065032084F83500C8E697
:1027B0002068006800F001000028EED1206805685C
:1027C00031480540D4E901010843E1680843216923
:1027D000084361690843A1690843E1690843216A24
:1027E00008430543606A042803D1D4E90B01084378
:1027F0000543206805602068456925F00705606A83
:102800000543606A04280DD1A06A0543E06A48B117
:102810002046FEF757F928B140206065012084F872
:1028200035008EE6206845612046FEF731F9064600
:1028300094F85C103F208840B06000206065012063
:1028400084F8350000207CE61060024010640240ED
:102850002E2E2F447269766572732F53544D333286
:10286000463478785F48414C5F4472697665722FD0
:102870005372632F73746D3332663478785F686196
:102880006C5F646D612E63003F8010F02DE9F047AE
:1028900004460E4617461D464FF00008D4F85890DF
:1028A0001DB1B5F5803F00D204E04FF4E67121A0E0
:1028B00003F07CFD00BF94F83400012802D102200F
:1028C000BDE8F087012084F8340000BF94F835009B
:1028D000012825D1022084F83500002060652B46B0
:1028E0003A4631462046FEF742F994F85C103F2004
:1028F0008840C9F808002068006840F01600216888
:102900000860206C28B12068006840F00800216849
:1029100008602068006840F001002168086006E057
:1029200000BF002084F8340000BF4FF0020840468A
:10293000C6E700002E2E2F447269766572732F53FE
:10294000544D3332463478785F48414C5F44726965
:102950007665722F5372632F73746D3332663478D9
:10296000785F68616C5F646D612E630070B50446CA
:1029700000F06EFA06462546681C10B1044800783F
:10298000054400BF00F064FA801BA842FAD370BD72
:10299000640000202DE9F84306460C464FF000097C
:1029A000C8460025D34886420ED0D34886420BD075
:1029B000D248864208D0D248864205D0D1488642C5
:1029C00002D0D148864200D103E0B321CFA003F06A
:1029D000EDFC208880B220B120686FF30F0000B9B1
:1029E00003E0B421C9A003F0E1FC606830B3606883
:1029F000012823D06068112820D0606802281DD0EB
:102A0000606812281AD0D0496068884216D0CF4931
:102A10006068884212D0CE49606888420ED0CD49A5
:102A2000606888420AD0CC496068884206D0CB49A9
:102A30006068884202D06068032800D103E0B521B5
:102A4000B2A003F0B3FCA06828B1A068012802D0AE
:102A5000A068022800D103E0B621ACA003F0A6FCD8
:102A6000002741E1012000FA07F9206800EA09087F
:102A7000C8457DD16068012808D06068022805D06B
:102A80006068112802D06068122823D1E06840B144
:102A9000E068012805D0E068022802D0E068032839
:102AA00000D103E0C82199A003F080FCB56879004B
:102AB0000320884085437900E06888400543B5607D
:102AC00075680120B84085432079C0F30010B840F4
:102AD00005437560F56879000320884085437900D7
:102AE000A06888400543F5606068022802D06068ED
:102AF000122870D12069E0B32069092852D02069DA
:102B0000B8B32069A8B3206998B3206988B3206955
:102B1000012847D02069012844D02069022841D0EB
:102B2000206902283ED0206902283BD02069042871
:102B300038D02069042835D02069042832D0206993
:102B400005282FD0206905282CD02069052829D0F8
:102B50002069062826D02069062823D02069052868
:102B600020D0206906281DD0206907281AD001E04E
:102B7000B9E017E02069072814D02069072811D090
:102B8000206908280ED020690A280BD0206909285E
:102B900008D02069092805D020690C2802D02069B6
:102BA0000F2800D103E0E02158A003F0FFFBF90853
:102BB00006F1200050F821507807C10E0F20884000
:102BC00085437907C90E206988400543F90806F155
:102BD000200040F821503568790003208840854363
:102BE000207900F003007900884005433560606873
:102BF00000F08050B0F1805F75D100BF00200090E0
:102C00005748006840F4804055490860084600680D
:102C100000F48040009000BF00BF5248B90850F84F
:102C20002150B807010F0F20884085433148864264
:102C300001D1002014E03048864201D101200FE08C
:102C40002E48864201D102200AE02D48864201D159
:102C5000032005E02B48864201D1042000E0072034
:102C6000B907090F884005433E48B90840F821508C
:102C70003D48056825EA0805606800F48030B0F535
:102C8000803F01D145EA080537480560001D056809
:102C900025EA0805606800F40030B0F5003F01D176
:102CA00045EA08053048001D0560001D056825EA55
:102CB0000805606800F48010B0F5801F01D145EA76
:102CC0000805294808300560001D056825EA080543
:102CD000606800F40010B0F5001F01D145EA080556
:102CE00021480C3005607F1C102FFFF4BBAEBDE8FF
:102CF000F883000000000240000402400008024087
:102D0000000C024000100240001C02402E2E2F44F6
:102D10007269766572732F53544D33324634787826
:102D20005F48414C5F4472697665722F5372632F1E
:102D300073746D3332663478785F68616C5F677086
:102D4000696F2E63000000000000111000002110C8
:102D5000000031100000121000002210000032109C
:102D60004438024008380140003C014070B5054637
:102D70000C46A0B218B1200C000400B904E04FF4D6
:102D8000DB7106A003F012FB68692040A04202D16B
:102D90002004A86100E0AC6170BD00002E2E2F441D
:102DA0007269766572732F53544D33324634787896
:102DB0005F48414C5F4472697665722F5372632F8E
:102DC00073746D3332663478785F68616C5F6770F6
:102DD000696F2E630000000070B506460C4615466C
:102DE000A0B218B1200C000400B904E040F29F1119
:102DF00008A003F0DBFA0DB1012D00D104E04FF47F
:102E0000D07104A003F0D2FA0DB1B46101E0200446
:102E1000B06170BD2E2E2F447269766572732F5388
:102E2000544D3332463478785F48414C5F44726980
:102E30007665722F5372632F73746D3332663478F4
:102E4000785F68616C5F6770696F2E6300000000D7
:102E500001480068704700005C00002003480068DB
:102E60000349097808440149086070475C00002064
:102E70006400002010B50D48006840F400700B4954
:102E800008600846006840F48060086008460068F2
:102E900040F480700860032000F0F4F80F2000F088
:102EA00007F800F02BF8002010BD0000003C0240A5
:102EB00070B504460E4800784FF47A71B1FBF0F01B
:102EC0000C490968B1FBF0F5284600F0FBFD08B19C
:102ED000012070BD102C07D200222146501E00F0A8
:102EE00067F80548046001E00120F2E70020F0E700
:102EF00064000020EC0000206000002008B500BF46
:102F0000002000900E48006840F480400C490860A2
:102F10000846006800F48040009000BF00BF00BF7A
:102F200000200090081F006840F08050091F0860D2
:102F30000846006800F08050009000BF00BF08BD48
:102F40004438024010B50446002C00DB03E0BE21EB
:102F500008A003F02BFA2046002809DB00F01F022E
:102F6000012191404209920002F1E022C2F80011D1
:102F700000BF10BD2E2E2F447269766572732F53D9
:102F8000544D3332463478785F48414C5F4472691F
:102F90007665722F5372632F73746D333266347893
:102FA000785F68616C5F636F727465782E63000090
:102FB0002DE9F05F80460C4615460027102D00D203
:102FC00003E0AA2120A003F0F1F9102C00D203E0C5
:102FD000AB211DA003F0EAF903F0E0F807463946FB
:102FE00022462B4601F00700C0F1070ABAF1040F90
:102FF00002D94FF0040A01E0C0F1070AD14600F1FE
:10300000040ABAF1070F02D24FF0000A01E0A0F162
:10301000030AD4464FF0010A0AFA09FAAAF1010A92
:103020000AEA020A0AFA0CFA4FF0010B0BFA0CFB3F
:10303000ABF1010B0BEA030B4AEA0B0631464046A3
:1030400003F0B4F8BDE8F09F2E2E2F447269766528
:1030500072732F53544D3332463478785F48414C65
:103060005F4472697665722F5372632F73746D3388
:1030700032663478785F68616C5F636F727465780C
:103080002E63000010B50446072C07D0062C05D08F
:10309000052C03D0042C01D0032C00D103E0922195
:1030A00009A003F083F900BF04F00701154A106876
:1030B0004FF6FF021040144A024342EA0120114A2F
:1030C000106000BF10BD00002E2E2F44726976657F
:1030D00072732F53544D3332463478785F48414CE5
:1030E0005F4472697665722F5372632F73746D3308
:1030F00032663478785F68616C5F636F727465788C
:103100002E6300000CED00E00000FA0570B50446E7
:103110000D460CB9012070BD2068012803D320683A
:103120000F2800D804E040F2512195A003F03EF9A9
:103130006DB1012D0BD0022D09D0032D07D0042D28
:1031400005D0052D03D0062D01D0072D00D104E0B8
:1031500040F252218AA003F029F99748006800F054
:103160000F00A84209D294490D700846006800F08B
:103170000F00A84201D00120CDE7207800F0020026
:1031800002283DD1207800F00400042805D18B48A6
:10319000006840F4E05089490860207800F0080099
:1031A000082805D18548006840F4604083490860DC
:1031B000A068B8B1A068802814D0A068902811D069
:1031C000A068A0280ED0A068B0280BD0A068C028A6
:1031D00008D0A068D02805D0A068E02802D0A06858
:1031E000F02800D104E040F2752165A003F0DEF87C
:1031F0007248006820F0F000A16808436F49086039
:10320000207800F0010000284ED0606840B160686E
:10321000012805D06068022802D06068032800D128
:1032200004E04FF41F7156A003F0C0F86068012855
:1032300007D1624808380068C0F34040B8B901209F
:1032400069E76068022802D06068032807D15B48FC
:1032500008380068C0F3406048B901205BE7574870
:1032600008380068C0F3400008B9012053E753480C
:10327000006820F003006168084350490860FFF7C8
:10328000E7FD064608E0FFF7E3FD801B41F28831C9
:10329000884201D903203EE74848006800F00C004E
:1032A0006168B0EB810FEED14348006800F00F0079
:1032B000A84209D940490D700846006800F00F0087
:1032C000A84201D0012026E7207800F0040004285D
:1032D0001FD1E06878B1E068B0F5805F0BD0E0689E
:1032E000B0F5A05F07D0E068B0F5C05F03D0E0683C
:1032F000B0F5E05F00D104E040F2BA2120A003F075
:1033000055F82E48006820F4E050E16808432B4946
:103310000860207800F00800082820D1206978B1E2
:103320002069B0F5805F0BD02069B0F5A05F07D0B1
:103330002069B0F5C05F03D02069B0F5E05F00D12F
:1033400004E040F2C1210EA003F030F81B480068F1
:1033500020F46040216940EAC1001849086000F08B
:103360005BF816490968C1F30311154A515CC8405E
:103370001449086014480068FFF79AFD0020CAE667
:103380002E2E2F447269766572732F53544D33324B
:10339000463478785F48414C5F4472697665722F95
:1033A0005372632F73746D3332663478785F68615B
:1033B0006C5F7263632E6300003C02400838024079
:1033C0000B650008EC000020600000200148006848
:1033D00070470000EC00002000B5FFF7F7FF04493C
:1033E0000968C1F38221034A515CC84000BD000056
:1033F000083802401B65000800B5FFF7E7FF0449E5
:103400000968C1F34231034A515CC84000BD000065
:10341000083802401B6500082DE9F047002400250C
:103420000026A1462548006800F00C0020B10428C1
:1034300005D008283AD105E0DFF8849039E0DFF8BC
:10344000849036E01D48001F006800F03F041B48D0
:10345000001F006800F4800078B11A481749091F5E
:103460000968C1F38811A0FB0170014622460023C0
:103470003846FCF7AFFE05460EE011480F49091F1C
:103480000968C1F38811A0FB0170014622460023A0
:103490003846FCF79FFE05460848001F0068C0F349
:1034A0000140401C4600B5FBF6F902E0DFF8109041
:1034B00000BF00BF4846BDE8F08700000838024062
:1034C0000024F40000127A00F8B504460CB901207B
:1034D000F8BD20680F2800D803E0E821FBA002F027
:1034E00065FF207800F00100002870D0606838B1D6
:1034F0006068B0F5803F03D06068B0F5A02F00D1C0
:1035000003E0ED21F1A002F051FFFE48006800F059
:103510000C0004280DD0FB48006800F00C000828BF
:1035200013D1F848001F006800F48000B0F5800F48
:103530000BD1F44808380068C0F34040002859D047
:103540006068002856D10120C2E700BF6068B0F56E
:10355000803F08D1EB480838006840F48030E949E2
:10356000083908601EE06068B0F5A02F0DD1E5486D
:103570000838006840F48020E249083908600846AD
:10358000006840F4803008600CE0DE4808380068CD
:1035900020F48030DB49083908600846006820F4D0
:1035A0008020086000BF606890B1FFF751FC0546BD
:1035B00006E0FFF74DFC401B642801D9032087E794
:1035C000D04808380068C0F340400028F1D011E02E
:1035D000FFF73EFC054606E0FFF73AFC401B642877
:1035E00001D9032074E7C74808380068C0F3404099
:1035F0000028F1D1207800F00200022873D1E068A1
:1036000010B1E068012800D104E040F21F11AFA022
:1036100002F0CCFE20691F2800D804E04FF490711E
:10362000AAA002F0C3FEB748006800F00C0058B131
:10363000B448006800F00C0008281CD1B148001FF5
:10364000006800F48000B0B9AE4808380068C0F3E4
:10365000400020B1E068012801D0012038E7A948E6
:103660000838006820F0F800216940EAC100A54947
:103670000839086037E0E06800B30120A24908601B
:10368000FFF7E6FB054606E0FFF7E2FB401B0228DA
:1036900001D903201CE79B4808380068C0F34000AC
:1036A0000028F1D097480838006820F0F800216918
:1036B00040EAC10093490839086014E000209249AB
:1036C0000860FFF7C5FB054606E0FFF7C1FB401B9E
:1036D000022801D90320FBE68A4808380068C0F3B5
:1036E00040000028F1D1207800F00800082837D1E8
:1036F000606910B16069012800D104E04FF4B07135
:1037000072A002F053FE6069A8B101207F490860F1
:10371000FFF79EFB054606E0FFF79AFB401B0228D9
:1037200001D90320D4E677486C300068C0F340002C
:103730000028F1D014E0002074490860FFF788FBEE
:10374000054606E0FFF784FB401B022801D9032051
:10375000BEE66C486C300068C0F340000028F1D130
:10376000207800F00400042875D10027A06828B153
:10377000A068012802D0A068052800D104E04FF419
:10378000C67152A002F012FE5E483830006800F0A8
:10379000805090B900BF002000905A48383000682F
:1037A00040F080505749383108600846006800F002
:1037B0008050009000BF00BF01275548006800F40A
:1037C0008070B0B95248006840F480705049086079
:1037D000FFF73EFB054606E0FFF73AFB401B0228D9
:1037E00001D9032074E64A48006800F4807000287C
:1037F000F2D000BFA068012808D1424868300068B4
:1038000040F001003F49683108601DE0A0680528CC
:103810000DD13C486830006840F0040039496831F7
:1038200008600846006840F0010008600CE0354878
:103830006830006820F001003249683108600846AD
:10384000006820F00400086000BFA068A8B1FFF77E
:10385000FFFA054609E02FE0FFF7FAFA401B41F2B4
:103860008831884201D9032032E626486830006852
:10387000C0F340000028EFD013E0FFF7E9FA054657
:1038800008E0FFF7E5FA401B41F28831884201D990
:1038900003201DE61B4868300068C0F34000002884
:1038A000EFD1012F07D117483830006820F0805041
:1038B00014493831086000BFA06928B1A069012807
:1038C00002D0A069022825D12AE000002E2E2F4424
:1038D0007269766572732F53544D3332463478785B
:1038E0005F48414C5F4472697665722F5372632F53
:1038F00073746D3332663478785F68616C5F7263BD
:10390000632E63000838024000004742800E4742A1
:103910000070004040F2CF11AFF2500002F046FDBF
:10392000A06900287CD06548006800F00C000828D9
:1039300077D0A069022875D1E06918B1E069B0F5C7
:10394000800F00D105E04FF4EC71AFF2800002F07F
:103950002DFD206A3F2800D805E040F2D911AFF2D2
:10396000940002F023FD606AC02804D3606AB0F5B9
:10397000D87F00D805E04FF4ED71AFF2B00002F04F
:1039800015FDA06A022808D0A06A042805D0A06A04
:10399000062802D0A06A082800D105E040F2DB1119
:1039A000AFF2D80002F002FDE06A022803D3E06A19
:1039B0000F2800D805E04FF4EE71AFF2F00002F0EE
:1039C000F5FC00203E490866FFF742FA054606E08E
:1039D000FFF73EFA401B022801D9032078E537485B
:1039E00008380068C0F340600028F1D1D4E907012D
:1039F0000843616A40EA81110122A06AC2EB5000CB
:103A000041EA00412C20005D41EA00602B49091F7A
:103A1000086001202A490866FFF71AFA054609E0FE
:103A200049E025E00EE0FFF713FA401B022801D918
:103A300003204DE5214808380068C0F340600028A5
:103A4000F1D038E000201E490866FFF701FA05466C
:103A500006E0FFF7FDF9401B022801D9032037E5F6
:103A6000164808380068C0F340600028F1D122E011
:103A7000A069012800D12BE51048001F066806F454
:103A80008001E069814214D106F03F01206A814241
:103A90000FD147F6C0703040616A884209D106F400
:103AA0004031A06A814204D106F07061E06A81422F
:103AB00001D001200CE500200AE500000838024092
:103AC0000000474270B504462546681EB0F1807F6D
:103AD00001D301200FE0681E4FF0E02148610F2163
:103AE0004FF0FF3002F062FB00204FF0E0218861D0
:103AF00007200861002070BD704770472DE9F04134
:103B000004460D464149206888420FD02068B0F134
:103B1000804F0BD03E492068884207D03D4920683D
:103B2000884203D03C492068884200D104E040F23A
:103B300064613AA002F03AFC2868A0B12868102815
:103B400011D0286820280ED0286830280BD028688B
:103B5000402808D02868502805D02868602802D05E
:103B60002868702800D104E040F265612BA002F0C3
:103B70001DFC6868802801D0686800B904E040F244
:103B8000666126A002F012FC00BF94F83C000128F8
:103B900002D10220BDE8F081012084F83C0000BF82
:103BA000022084F83D00206847682068866827F076
:103BB00070072868074320684760144920688842D6
:103BC00013D02068B0F1804F0FD01149206888428F
:103BD0000BD010492068884207D00F4920688842DE
:103BE00003D01D492068884205D126F08006686808
:103BF000064320688660012084F83D0000BF002055
:103C000084F83C0000BF00BFC4E700000000014092
:103C10000004004000080040000C00402E2E2F44FD
:103C20007269766572732F53544D33324634787807
:103C30005F48414C5F4472697665722F5372632FFF
:103C400073746D3332663478785F68616C5F746961
:103C50006D5F65782E6300000040014010B504469A
:103C60000CB9012010BD3549206888421BD020685E
:103C7000B0F1804F17D032492068884213D03149C3
:103C8000206888420FD03049206888420BD02F49E5
:103C90002068884207D02E492068884203D02D49E9
:103CA0002068884200D104E04FF489712AA002F014
:103CB0007DFBA06858B1A068102808D0A068202813
:103CC00005D0A068402802D0A068602800D104E098
:103CD00040F2131120A002F069FB206938B120697D
:103CE000B0F5807F03D02069B0F5007F00D104E0FB
:103CF0004FF48A7118A002F059FBA06910B1A069B5
:103D0000802800D104E040F2151113A002F04EFB10
:103D100094F83D0028B9002084F83C00204600F0CB
:103D200037F8022084F83D00211D206801F0BCFD19
:103D3000012084F83D00002094E7000000000140CD
:103D40000004004000080040000C0040004001401A
:103D500000440140004801402E2E2F4472697665D0
:103D600072732F53544D3332463478785F48414C48
:103D70005F4472697665722F5372632F73746D336B
:103D800032663478785F68616C5F74696D2E6300A9
:103D900038B504462068B0F1804F18D100BF00202C
:103DA00000902848006840F0010026490860084655
:103DB000006800F00100009000BF00BF0022012158
:103DC0001C20FFF7F5F81C20FFF7BCF838E01E496F
:103DD0002068884218D100BF002000901948006870
:103DE00040F00200174908600846006800F0020031
:103DF000009000BF00BF00220A211D20FFF7D8F865
:103E00001D20FFF79FF81BE010492068884217D15A
:103E100000BF002000900B48006840F004000949F2
:103E200008600846006800F00400009000BF00BF72
:103E3000002204211E20FFF7BBF81E20FFF782F8A6
:103E400038BD000040380240000400400008004037
:103E500070B504461C49206888421BD02068B0F128
:103E6000804F17D019492068884213D0184920681C
:103E700088420FD01749206888420BD01649206825
:103E8000884207D015492068884203D01449206829
:103E9000884200D104E040F2B91112A002F086FA83
:103EA0002068C06840F001002168C8602068806810
:103EB00000F00705062D05D02068006840F00100DD
:103EC00021680860002070BD00000140000400402F
:103ED00000080040000C0040004001400044014048
:103EE000004801402E2E2F447269766572732F535D
:103EF000544D3332463478785F48414C5F447269A0
:103F00007665722F5372632F73746D333266347813
:103F1000785F68616C5F74696D2E63002DE9F04114
:103F200004460D4600BF94F83C00012802D102204F
:103F3000BDE8F081012084F83C0000BF022084F835
:103F40003D002868B0F5805F1AD02868B0F5005FA2
:103F500016D02868A0B12868102811D02868202819
:103F60000ED0286830280BD02868402808D0286850
:103F7000502805D02868602802D02868702800D111
:103F800004E041F28B11FAA002F010FA2068866872
:103F900026F0770626F47F46206886602868502839
:103FA0007ED00CDC20287CD004DC00287AD01028BD
:103FB00079D1C1E1302877D04028F9D176E1602865
:103FC00073D070282DD0B0F5805F03D0B0F5005FBE
:103FD000EED189E0F449206888421BD02068B0F116
:103FE000804F17D0F1492068884213D0F0492068EB
:103FF00088420FD0EF49206888420BD0EE492068F4
:10400000884207D0ED492068884203D0EC492068F7
:10401000884200D104E041F29711D5A002F0C6F920
:10402000DCE1E1492068884213D02068B0F1804F7C
:104030000FD0DE49206888420BD0DD4920688842D5
:1040400007D0DC492068884203D0DB4920688842D9
:1040500000D104E041F29E11C5A002F0A7F9A868C2
:1040600058B1A868B0F5805F07D0A868B0F5005FC8
:1040700003D0A868B0F5405F00D104E041F2A1117F
:10408000BBA002F093F96868B0F5004F10D06868E3
:1040900070B1686860B16868022809D0686805E096
:1040A0007AE04AE147E198E148E1BAE00A2800D124
:1040B00004E041F2A211AEA002F078F9E8680F28FE
:1040C00000D804E041F2A311A9A002F06FF9D5E9EC
:1040D00002136A68206801F039FC2068866846F09F
:1040E00077062068866079E1AF49206888420FD062
:1040F0002068B0F1804F0BD0AC492068884207D0CF
:10410000AB492068884203D0AA492068884200D180
:1041100004E041F2B61196A002F048F9A86858B13F
:10412000A868B0F5805F07D0A868B0F5005F03D03D
:10413000A868B0F5405F00D104E041F2B9118CA04D
:1041400002F034F96868B0F5004F09D0686838B1FA
:10415000686828B16868022802D068680A2800D117
:1041600004E041F2BA1182A002F020F9E8680F28B9
:1041700000D804E041F2BB117DA002F017F9D5E9A7
:1041800002136A68206801F0E1FB2068806840F44F
:1041900080402168886021E183492068884213D0EB
:1041A0002068B0F1804F0FD08049206888420BD042
:1041B0007F492068884207D07E492068884203D022
:1041C0007D492068884200D104E041F2CA1168A00C
:1041D00002F0ECF86868B0F5004F09D0686838B1B3
:1041E000686828B16868022802D068680A2800D187
:1041F00004E041F2CD115EA002F0D8F8E8680F2883
:1042000000D804E041F2CE1159A002F0CFF8EA68DC
:104210006968206801F0AEFB5021206801F0A1FB25
:10422000DCE061492068884213D02068B0F1804FFB
:104230000FD05E49206888420BD05D4920688842D3
:1042400007D05C492068884203D05B4920688842D7
:1042500000D104E041F2DA1145A002F0A7F8686845
:10426000B0F5004F09D0686838B1686828B168684F
:10427000022802D068680A2800D104E041F2DD116A
:104280003BA002F093F8E8680F2800D804E041F260
:10429000DE1137A002F08AF8EA686968206801F048
:1042A0007CFB6021206801F05CFB97E03E492068C0
:1042B000884213D02068B0F1804F0FD03B4920686E
:1042C00088420BD03A492068884207D03949206893
:1042D000884203D038492068884200D104E041F286
:1042E000EA1123A002F062F86868B0F5004F09D027
:1042F000686838B1686828B16868022802D06868C0
:104300000A2800D104E041F2ED1119A002F04EF8A4
:10431000E8680F2800D804E041F2EE1114A002F082
:1043200045F8EA686968206801F024FB40212068AC
:1043300001F017FB52E000BF00BF00BF1A49206820
:10434000884213D02068B0F1804F0FD01749206801
:1043500088420BD016492068884207D0154920684A
:10436000884203D01449206888422BD130E00000F5
:104370002E2E2F447269766572732F53544D33324B
:10438000463478785F48414C5F4472697665722F95
:104390005372632F73746D3332663478785F68615B
:1043A0006C5F74696D2E63000000014000040040E2
:1043B00000080040000C0040004001400044014063
:1043C0000048014041F2FD11AFF25C0001F0EEFF48
:1043D0002968206801F0C5FA00E000BF00BF012095
:1043E00084F83D0000BF002084F83C0000BF00BFFF
:1043F0009EE5704710B5044620680069C0F3400090
:10440000D8B12068C068C0F34000B0B16FF00200BE
:1044100021680861012020772068806900F003008E
:1044200018B12046FFF7E5FF05E0204600F0ADF8A3
:10443000204600F0ABF80020207720680069C0F328
:104440008000D8B12068C068C0F38000B0B16FF0C0
:10445000040021680861022020772068806900F448
:10446000407018B12046FFF7C4FF05E0204600F079
:104470008CF8204600F08AF8002020772068006938
:10448000C0F3C000D8B12068C068C0F3C000B0B1AC
:104490006FF0080021680861042020772068C06957
:1044A00000F0030018B12046FFF7A3FF05E0204607
:1044B00000F06BF8204600F069F8002020772068B3
:1044C0000069C0F30010D8B12068C068C0F30010C4
:1044D000B0B16FF0100021680861082020772068D3
:1044E000C06900F4407018B12046FFF782FF05E074
:1044F000204600F04AF8204600F048F800202077D7
:104500002068006900F0010058B12068C06800F020
:10451000010030B16FF0010021680861204600F011
:1045200037F820680069C0F3C01058B12068C0682F
:10453000C0F3C01030B16FF08000216808612046E0
:10454000FFF7DAFA20680069C0F3801058B12068DC
:10455000C068C0F3801030B16FF04000216808617E
:10456000204600F039F820680069C0F3401058B1C7
:104570002068C068C0F3401030B16FF0200021689F
:1045800008612046FFF7B9FA10BD70477047000078
:1045900010B504460D48844205D100F009FE0128FB
:1045A00001D101F00FFA0A48844205D100F000FE63
:1045B000012801D1FCF7ACF90648844205D100F08E
:1045C000F7FD012801D101F0BBFD10BDD80100208D
:1045D00098010020180200207047000010B506481E
:1045E0000078FCF701FA05490870012202490448E5
:1045F00000F04CFB10BD00007C0000207D0000207E
:104600005802002010B56648007866490870664870
:10461000007810BB08460078552814D1634800780C
:10462000401C6249087008460078022815D1002015
:10463000087001205C4908705D49087055205D498B
:104640000870487009E00020574908705849087000
:104650005649087057490870487053480078002838
:104660007ED053480078022811D14E480078514935
:10467000887008468078002804DB08468078B0F50A
:10468000157F04DB00204B49887047490870484873
:104690000078032817D1434800784649C870084677
:1046A000C0784549087008460078032803DB0846AF
:1046B0000078072807DD02203F49087000203D49A7
:1046C000C870394908703A480078042810D1354834
:1046D00000783849087108460079012803DB08464C
:1046E0000079362804DD0020324908712E4908700F
:1046F00031480078C01E31490978884216DD2C48BF
:104700000078042812DD274801782A48401D2B4AEA
:104710001278815429480078401C2849087026489E
:104720000078C01E0978884200D12DE02248007828
:10473000C01E22490978884206D12048007818B165
:10474000184800781B494874194801781A480078BD
:10475000801C814217D11A48007888B9012000E0F6
:1047600011E0174908700020114908700E490870BF
:104770000E49087002201049087000200F49087087
:1047800000200949087000BF09480078401C08490A
:104790000870012202490B4800F078FA10BD0000B1
:1047A000750000207B0000207600002077000020AC
:1047B0007900002022030020780000207A000020E9
:1047C00074000020D802002038B50446E06B00F0E9
:1047D000080078B100BF00200090206800680090B9
:1047E00020684068009000BF00BF012202490348D2
:1047F00000F04CFA38BD00007C0000205802002078
:104800002DE9F0470446206805682068C6682068DE
:1048100047694FF00008C14605F00F08B8F1000FD6
:104820000AD105F0200038B106F0200020B1204662
:1048300001F014F9BDE8F087B8F1000F72D007F06D
:10484000010018B906F4907000286BD005F0010043
:1048500030B106F4807018B1E06B40F00100E06305
:1048600005F0040030B107F0010018B1E06B40F032
:104870000200E06305F0020030B107F0010018B15A
:10488000E06B40F00400E06305F0080048B106F07A
:10489000200010B907F0010018B1E06B40F00800EB
:1048A000E063E06B70B305F0200028B106F0200053
:1048B00010B1204601F0D2F820684069C0F3801999
:1048C000E06B00F0080010B9B9F1000F23D02046CA
:1048D00001F0A4F82068406900F04000402816D19B
:1048E0002068406920F0400021684861606B50B149
:1048F0001748616B0865606BFDF7E6FC10B1606BF3
:10490000016D88470CE02046FFF75EFF08E0204677
:10491000FFF75AFF04E02046FFF756FF0020E06350
:1049200088E7FFE705F0800030B106F0800018B19D
:10493000204601F03AFB7DE705F0400030B106F07B
:10494000400018B1204601F079F873E700BF71E725
:10495000095A000810B504460CB9012010BDA06921
:10496000002826D040492068884207D03F49206867
:10497000884203D03E492068884200D104E040F2DA
:104980004B113CA001F012FDA06958B1A069B0F52F
:10499000807F07D0A069B0F5007F03D0A069B0F593
:1049A000407F00D117E04FF4A67132A001F0FEFC69
:1049B00011E02D492068884207D02C4920688842A0
:1049C00003D02B492068884200D104E04FF4A8713D
:1049D00028A001F0EBFCA06818B1A068B0F5805FDA
:1049E00000D104E04FF4A97122A001F0DFFCE069DE
:1049F00018B1E069B0F5004F00D104E040F2531166
:104A00001CA001F0D3FC94F8390028B9002084F8E8
:104A10003800204600F04CF8242084F83900206843
:104A2000C06820F400502168C860204601F06AF890
:104A30002068006920F4904021680861206840697E
:104A400020F02A00216848612068C06840F40050C6
:104A50002168C8600020E063202084F8390084F8D1
:104A60003A0000207AE700000010014000440040B6
:104A7000001401402E2E2F447269766572732F53F5
:104A8000544D3332463478785F48414C5F44726904
:104A90007665722F5372632F73746D333266347878
:104AA000785F68616C5F756172742E63000000004E
:104AB00010B586B00446142101A8FBF7C3FB6C496E
:104AC0002068884239D100BF002000906948006802
:104AD00040F01000674908600846006800F01000C8
:104AE000009000BF00BF00BF002000906148143854
:104AF000006840F001005F4914390860084600680A
:104B000000F00100009000BF00BF4FF4C0600190B2
:104B100002200290002003900320049007200590BB
:104B200001A95548FDF736FF002203212520FEF795
:104B30003FFA2520FEF706FA97E0504920688842A0
:104B400057D100BF002000904A48001F006840F481
:104B500000304849091F08600846006800F400302A
:104B6000009000BF00BF00BF0020009041481438F3
:104B7000006840F001003F491439086008460068A9
:104B800000F00100009000BF00BF00BF00200090B7
:104B90000846006840F0080008600846006800F019
:104BA0000800009000BF00BF042001900220029086
:104BB00000200390032004900720059001A92E48AF
:104BC000FDF7E8FE402001900220029000200390B3
:104BD000032004900720059001A92948FDF7DAFE7B
:104BE000002205212620FEF7E3F92620FEF7AAF988
:104BF0003BE024492068884237D100BF0020009064
:104C00001C48006840F020001A4908600846006807
:104C100000F02000009000BF00BF00BF0020009007
:104C200014481438006840F0040012491439086030
:104C30000846006800F00400009000BF00BFC020DC
:104C4000019002200290002003900320049008208D
:104C5000059001A90C48FDF79DFE00220621472082
:104C6000FEF7A6F94720FEF76DF906B010BD00006B
:104C7000001001404438024000000240004400405F
:104C8000000C0240001401400008024010B5034629
:104C900093F83A0020282FD101B10AB9012010BDA4
:104CA00000BF93F83800012801D10220F7E7012066
:104CB00083F8380000BF99629A85DA850020D863AE
:104CC000222083F83A0000BF002083F8380000BF9C
:104CD0001868C06840F480701C68E060186840691B
:104CE00040F001001C6860611868C06840F0200056
:104CF0001C68E0600020D2E70220D0E710B504462F
:104D000006492068884201D1FFF768FC0449206801
:104D1000884201D1FFF776FC10BD00000010014071
:104D2000001401402DE9F84304460D4616461F467F
:104D30004FF0000994F8390020285DD105B116B96B
:104D40000120BDE8F88300BF94F83800012801D1A4
:104D50000220F6E7012084F8380000BF0020E0635D
:104D6000212084F83900FEF773F88146A684E68492
:104D700000BF002084F8380000BF2BE0E08C401E0C
:104D8000E084A068B0F5805F16D14B4600228021F8
:104D90002046009701F03DF908B10320D1E7A8466D
:104DA000B8F80000C0F3080021684860206908B91D
:104DB000AD1C0FE06D1C0DE04B460022802120460B
:104DC000009701F026F908B10320BAE715F8010BA6
:104DD00021684860E08C0028D0D14B460022402159
:104DE0002046009701F015F908B10320A9E720201B
:104DF00084F839000020A4E70220A2E770470CB530
:104E000000BFEFF30980019000BFEFF3088000902E
:104E100000BFFEE710B54FF4FA70FDF7A7FD58A0EC
:104E200001F0ACF94FF47A70FDF7A0FDFBF78EFDB1
:104E3000604908700846007820B95FA001F09EF92B
:104E4000FBF7F0FE66A001F099F95A48007800B12E
:104E500004E040F245116CA001F0A8FA4FF47A701A
:104E6000FDF784FD01F05AF95249087008460078B0
:104E700020B96AA001F082F9FBF7D4FE70A001F01E
:104E80007DF94C48007800B104E040F253115EA077
:104E900001F08CFA4FF47A70FDF768FD01F0F8F834
:104EA000444908700846007820B96EA001F066F900
:104EB000FBF7B8FE74A001F061F93E48007800B13C
:104EC00004E040F2611150A001F070FA4FF47A70E2
:104ED000FDF74CFD01F0F6F83649087008460078F9
:104EE00020B972A001F04AF9FBF79CFE78A001F00E
:104EF00045F93048007800B104E040F26F1142A05B
:104F000001F054FA4FF47A70FDF730FD00F0ECFB3D
:104F1000284908700846007820B976A001F02EF9DB
:104F2000FBF780FE7CA001F029F92248007800B14F
:104F300004E04FF4C17134A001F038FA4FF47A70F4
:104F4000FDF714FDFCF7AAFB1A4908700846007823
:104F500020B97AA001F012F9FBF764FE80A001F0FD
:104F60000DF94FF47A70FDF701FD86A001F006F906
:104F70004FF4FA70FDF7FAFC0E48007810BD0000FF
:104F80003D3D3D3D5468652073797374656D2073B4
:104F9000746172747320746F20696E697469616CD6
:104FA000697A652068617264776172653D3D3D3D57
:104FB0000D0A0000000000204661696C65642074E1
:104FC0006F20696E697469616C697A652041444338
:104FD0002E2050726F6365647572650D0A000000C3
:104FE0007375636365737320746F20696E69746988
:104FF000616C697A65204144432050726F63656437
:105000007572650D0A0000002E2E2F436F72652FFA
:105010005372632F6D61696E2E6300004661696C87
:10502000656420746F20696E697469616C697A6562
:10503000205553415254362049540D0A00000000B7
:105040007375636365737320746F20696E69746927
:10505000616C697A65205553415254362049540D8C
:105060000A0000004661696C656420746F20696EF7
:10507000697469616C697A652055534152543120D5
:1050800049540D0A00000000737563636573732053
:10509000746F20696E697469616C697A6520555313
:1050A000415254312049540D0A0000004661696C98
:1050B000656420746F20696E697469616C697A65D2
:1050C000205553415254322049540D0A000000002B
:1050D0007375636365737320746F20696E69746997
:1050E000616C697A65205553415254322049540D00
:1050F0000A0000004661696C656420746F20696E67
:10510000697469616C697A6520536572766F4D6F59
:10511000746F720D0A00000073756363657373200A
:10512000746F20696E697469616C697A6520536572
:1051300072766F4D6F746F720D0A00004661696C74
:10514000656420746F20696E697469616C697A6541
:10515000204779726F73636F70650D0A000000005D
:105160007375636365737320746F20696E69746906
:10517000616C697A65204779726F73636F70650D32
:105180000A00000044657669636520706F77657278
:105190002D6F6E2064656C617920353030206D7321
:1051A0002C20706C6561736520776169740D0A004D
:1051B00002200549097809B9002004E0024909786C
:1051C000012900D10120704701000020F0EE400AC3
:1051D000C0ED010A90ED020A90ED031A30EE010ACB
:1051E00080ED020A90ED020A90ED041A30EE010AF9
:1051F00090ED021AC1EE001AC0ED051A90ED010AF9
:1052000090ED001A30EE411A90ED000AD0ED051A2B
:1052100001EE810A80ED010A90ED050AB7EE001A51
:1052200031EE400A90ED021A20EE010A80ED020AEA
:1052300090ED010A80ED000A90ED010A7047000030
:105240009FED0C0A80ED020A9FED0B0A80ED000A2B
:105250009FED090A80ED010A9FED060A80ED030A21
:105260009FED040A80ED040A9FED030A80ED050A14
:10527000704700000AD7233C000000001FB5002043
:1052800000900190029003902C482D4908604FF443
:105290008030486000212A4881600121016100219D
:1052A0000176012180F8201041620021C162254968
:1052B00081620021C1600521C161012180F83010A7
:1052C0004161FCF75DFC08B1FBF7ACFC01200090EC
:1052D0000190029069461A48FCF730FA08B1FBF7D2
:1052E000A1FC032000900220019069461448FCF7BD
:1052F00025FA08B1FBF796FC0520009003200190E9
:1053000069460F48FCF71AFA08B1FBF78BFC062038
:1053100000900420019069460948FCF70FFA08B193
:10532000FBF780FC1120009005200190694604489D
:10533000FCF704FA08B1FBF775FC1FBD0020014023
:10534000F00000200100000F08B500BF0020009011
:105350000A48006840F48000084908600846006870
:1053600000F48000009000BF00BF0022022138201E
:10537000FDF71EFE3820FDF7E5FD08BD3038024080
:1053800000B587B0142102A8FAF75CFF00BF002027
:1053900001903648006840F004003449086008462F
:1053A000006800F00400019000BF00BF00BF0020B3
:1053B00001900846006840F08000086008460068D8
:1053C00000F08000019000BF00BF00BF00200190EE
:1053D0000846006840F0010008600846006800F0D8
:1053E0000100019000BF00BF00BF002001900846EF
:1053F000006840F0020008600846006800F0020003
:10540000019000BF00BF00BF002001900846006867
:1054100040F0080008600846006800F008000190AD
:1054200000BF00BF002201211148FDF7D5FC00227A
:105430004FF470410F48FDF7CFFC0120029003901C
:10544000022004900320059002A90948FDF7A2FA62
:105450004FF47040029001200390002004900590CA
:1054600002A90448FDF796FA07B000BD30380240A3
:1054700000040240000C024000B587B000200390F9
:10548000049005900690019002904FF080401449DE
:10549000086040F2E7304860002111488160312106
:1054A000C1600021016180218161FEF7D7FB08B155
:1054B000FBF7B8FB4FF48050039003A90848FEF7B0
:1054C0002DFD08B1FBF7AEFB00200190029001A971
:1054D0000348FEF713FB08B1FBF7A4FB07B000BDC0
:1054E0009801002000B587B000200390049005903B
:1054F00006900190029014481449086063204860A7
:1055000000211248816042F20F71C16000210161E7
:105510008161FEF7A3FB08B1FBF784FB4FF48050D9
:10552000039003A90948FEF7F9FC08B1FBF77AFBE1
:1055300000200190029001A90448FEF7DFFA08B1AB
:10554000FBF770FB07B000BD00040040D80100204D
:1055500000B587B00020039004900590069001905C
:10556000029015481549086040F2F3104860002188
:105570001248816042F20F71C160002101618161B6
:10558000FEF76CFB08B1FBF74DFB4FF48050039026
:1055900003A90A48FEF7C2FC08B1FBF743FB002051
:1055A0000190029001A90548FEF7A8FA08B1FBF79F
:1055B00039FB07B000BD00000008004018020020C1
:1055C00010B50B480B4908604FF416504860002195
:1055D00008488160C16001610C2141610021816145
:1055E000C161FFF7B7F908B1FBF71CFB10BD000064
:1055F000001001405802002010B50B480B4908600C
:105600004FF4E1304860002108488160C1600161C9
:105610000C21416100218161C161FFF79BF908B153
:10562000FBF700FB10BD0000004400409802002082
:1056300010B50B480B4908604FF4E1304860002179
:1056400008488160C16001610C21416100218161D4
:10565000C161FFF77FF908B1FBF7E4FA10BD000064
:1056600000140140D8020020002106E09FED080A46
:1056700000EB810282ED000A491C0329F6DB9FED55
:10568000040A80ED040A9FED020A80ED030A7047C8
:1056900000000000002103E0002220F81120491C36
:1056A0000329F9DB00210181C180704700BFFEE7BB
:1056B00000BFFEE77047704770B50546012600241D
:1056C0000AE0285D06490870FF2301220548FFF71C
:1056D00029FB00B10026641C032CF2DB304670BDB0
:1056E000C80000205802002070B50125002400BF2A
:1056F0000AE04FF496720021204600F01BF8322099
:10570000FDF734F9601CC4B2062CF2DD3220FDF73F
:105710002DF96FF001000649096808610448FEF799
:1057200097FB10B10025284670BD2846FCE7000015
:10573000D8010020F0B58BB006460C46154601276F
:1057400055208DF818008DF819008DF81A60072083
:105750008DF81B0001208DF81C00E0B28DF81D00B3
:10576000210A8DF81E108DF81F50291206A801720B
:10577000122201A9FBF710F901A8FBF7F9FD8DF83A
:10578000290001A906A8FBF714F9122101A800F0CD
:10579000B3FC074638460BB0F0BD10B5FDF75EFB15
:1057A00010BD000000B593B0302107A8FAF74AFDFC
:1057B000142102A8FAF746FD00BF002001902548F9
:1057C000006840F08050234908600846006800F0F7
:1057D0008050019000BF00BF00BF002001901E4814
:1057E000006840F440401C4908600846006800F426
:1057F0004040019000BF00BF0220079001200A90A6
:1058000010200B9002200D9000210E9110210F917D
:105810004FF4C8711091042111910821129107A829
:10582000FDF752FE08B1FBF7FDF90F2002900220B0
:105830000390002004904FF48050059000200690C3
:10584000032102A8FDF762FC08B1FBF7EBF913B0E6
:1058500000BD00004038024000700040054800686C
:1058600040F47000034908604FF00060014980393E
:105870000860704788ED00E010B50248FEF7BAFDF9
:1058800010BD00009801002010B50248FEF7B2FDDF
:1058900010BD0000D801002010B50248FEF7AAFD97
:1058A00010BD00001802002010B50268204B98427D
:1058B0000BD0B0F1804F08D01E4B984205D01E4B44
:1058C000984202D01D4B984203D122F070024B68DF
:1058D0001A43174B984214D0B0F1804F11D0154B9A
:1058E00098420ED0144B98420BD0144B984208D0DB
:1058F000134B984205D0134B984202D0124B98425A
:1059000003D122F44072CB681A4322F080034C6921
:1059100043EA040202608B68C3620B688362044B33
:10592000984201D10B6903630123436110BD00005C
:10593000000001400004004000080040000C00404E
:1059400000400140004401400048014030B50C4691
:10595000816821F47F4142EA032525432943816080
:1059600030BD0A46816821F0700142F007031943F7
:105970008160704730B50B461446026A056A25F00F
:1059800001050562816921F0F00141EA041122F06C
:105990000A021A438161026230BD30B50B461446DB
:1059A000056A25F0100505628169026A21F47041DB
:1059B00041EA043122F0A00242EA0312816102624C
:1059C00030BD000000200949087009490870022014
:1059D00008490870002008490870084908700849FB
:1059E0000870084908704870704700007600002071
:1059F0007700002078000020790000207A00002045
:105A00007B0000202203002070B50546AC6B00200F
:105A1000E085E0842046FEF7D7FE70BD0168C968C6
:105A200021F490710268D1600168496921F0010197
:105A300002685161202180F83A10704710B5044681
:105A40002068C06820F040002168C860202084F8E9
:105A500039002046FFF7D2F9002010BD70B504468A
:105A600094F83A0022284AD1A068B0F5805F13D19B
:105A7000A56A206940B920684068C0F30800288002
:105A8000A06A801CA06219E020684068C0B228802B
:105A9000A06A401CA06211E0206938B92068406803
:105AA000C1B2A26A501CA062117007E02068406871
:105AB00000F07F01A26A501CA0621170E08D401EB0
:105AC00080B2E085C8B92068C06820F02000216855
:105AD000C8602068C06820F480702168C8602068B1
