:020000040800F2
:10000000100C0020B1010008D9440008193D000877
:10001000D54400089D0500081151000800000000AB
:10002000000000000000000000000000DF440008A5
:10003000A307000800000000DD4400084B4700084B
:10004000CB010008CB010008CB010008CB01000860
:10005000CB010008CB010008CB010008CB01000850
:10006000CB010008CB010008CB010008CB01000840
:10007000CB010008CB010008CB010008CB01000830
:10008000CB010008CB01000891030008000000002C
:10009000000000000000000000000000CB0100088C
:1000A000CB010008CB010008CB010008CB01000800
:1000B000294800083948000849480008CB010008D1
:1000C000CB010008CB010008CB010008CB010008E0
:1000D000CB010008E94F00081D5000080000000097
:1000E000CB010008CB010008CB0100080000000094
:1000F000000000000000000000000000CB0100082C
:1001000000000000CB010008CB010008CB01000873
:1001100000000000000000000000000000000000DF
:1001200089060008CB010008CB010008CB010008BC
:10013000CB010008000000000000000000000000EB
:10014000000000000000000000000000CB010008DB
:10015000CB010008CB010008CB0100087550000856
:10016000CB010008CB0100080000000000000000E7
:10017000000000000000000000000000000000007F
:1001800000000000CB01000800000000000000009B
:10019000CB010008CB010008DFF810D000F092F886
:1001A00000480047AD530008AFF30080100C00205A
:1001B0000648804706480047FEE7FEE7FEE7FEE701
:1001C000FEE7FEE7FEE7FEE7FEE7FEE70D48000874
:1001D000990100082DE9F05F0546002092469B46F4
:1001E00088460646814640241BE02846414647464D
:1001F000224600F057F853465A46C01A914110D390
:1002000011461846224600F03EF82D1A67EB010809
:100210004F4622460120002100F035F817EB000977
:100220004E41201EA4F10104DFDC484631462A4637
:100230004346BDE8F09FD2B201E000F8012B491E11
:10024000FBD270470022F6E710B513460A46044673
:100250001946FFF7F0FF204610BD30B50B460146AA
:1002600000202022012409E021FA02F59D4205D355
:1002700003FA02F5491B04FA02F52844151EA2F1FF
:100280000102F1DC30BD202A04DB203A00FA02F141
:10029000002070479140C2F1200320FA03F3194374
:1002A00090407047202A04DB203A21FA02F0002116
:1002B000704721FA02F3D040C2F120029140084376
:1002C00019467047064C074D06E0E06840F0010310
:1002D00094E8070098471034AC42F6D3FFF760FF6C
:1002E0000C5500082C55000870B50546AC6B206C09
:1002F00000F0500050BB206C40F400702064206877
:10030000806800F04050E8B9207ED8B92068C06A03
:1003100000F4700020B12068806800F4806088B923
:100320002068406820F0200021684860206C20F49C
:1003300080702064206C00F4805018B9206C40F06C
:1003400001002064204600F0CBFB0BE0206C00F0A5
:10035000100018B1204600F0CAFB03E0A06BC16C8E
:100360002846884770BD70B50546AC6B40202064B8
:10037000606C40F004006064204600F0B8FB70BD83
:1003800070B50446A56B284600F0B0FB70BD0000B8
:1003900010B5024800F0ACFB10BD0000D0000020FA
:1003A00070B504465B4D686820F44030686068684A
:1003B0006168084368602068406820F480702168A4
:1003C000486020684168206941EA0020216848604F
:1003D0002068406820F040702168486020684068CC
:1003E000A1680843216848602068806820F40060A4
:1003F0002168886020688068E16808432168886017
:100400004549A06A884218D02068806820F0706052
:100410002168886020688068A16A08432168886034
:100420002068806820F040502168886020688068DB
:10043000E16A0843216888600BE02068806820F04A
:100440007060216888602068806820F040502168D2
:1004500088602068806820F0020021688860206839
:100460008168207E41EA4000216888602020005D8C
:10047000F8B1606A18B1606A082800D804E040F258
:10048000757126A004F05EFF2068406840F40060AB
:10049000216848602068406820F460402168486016
:1004A00020684168606A401E41EA40302168486027
:1004B00005E02068406820F40060216848602068FA
:1004C000C06A20F470002168C8622068C16AA08BED
:1004D000401E41EA00502168C8622068806820F40C
:1004E0000070216888602068816894F8300041EAD3
:1004F0004020216888602068806820F4806021683E
:10050000886020688168606941EA8020216888608D
:1005100070BD0000002301400100000F2E2E2F446B
:100520007269766572732F53544D3332463478783E
:100530005F48414C5F4472697665722F5372632F36
:1005400073746D3332663478785F68616C5F6164B0
:10055000632E630010B50124E01E0C490968086190
:100560000A4802F009FC10B10020044610BD052223
:100570000749084800F05AFD10B100200446F5E78D
:100580000020054908702046F0E7000078010020AF
:10059000F8020020D00000207000002000BFFEE71D
:1005A00070B5034601251C46002002E0265C0E546F
:1005B000401C9042FADB284670BD70B502460B46DF
:1005C00001250021144600BF02E0605C5854491C1C
:1005D000D078801C8842F8DC507C5854481C02E0DB
:1005E00000261E54401C1228FADB284670BD00006D
:1005F00010B5014601201F4A13781278521C1D4C79
:1006000022701D4AD1541278552A04D00022234664
:100610001A70002010BD174A12780B2A01DA022046
:10062000F8E7154A5278512A04D0522A0AD0532AA0
:1006300018D10FE0114A104B9B1C1C6814605B68BA
:1006400053600FE00E4A0C4B9B1C1C6814605B68E7
:10065000536007E00B4A084B9B1C1C6814605B68E6
:10066000536000BF00BF0022024B1A70012000BF80
:10067000D0E7000088000020140300208A0000203A
:10068000920000209A00002010B5024800F0C4FD3E
:1006900010BD00001801002001460878103818230A
:1006A000B0FBF3F20848805CC865032A05D90868E6
:1006B0006FF30900001D886503E008686FF3090007
:1006C0008865886D70470000DC54000801460020F2
:1006D0008A6A8B69CBB932B1012A0DD0022A03D0C4
:1006E000032A10D10EE000BFCB6A03F08073B3F190
:1006F000807F00D1012007E0CB6AB3F1C07F00D139
:10070000012001E000E000BF34E08B69B3F5005F39
:100710001AD132B1012A07D0022A03D0032A11D1FB
:100720000AE000BF01200EE0CB6A03F08073B3F152
:10073000807F00D1012006E0CB6AB3F1C07F00D1F9
:10074000012000E000BF15E032B1012A05D0022AE5
:1007500004D0032A0CD103E000BF00BF012008E051
:10076000CB6A03F08073B3F1807F00D1012000E0F9
:1007700000BF00BF704730B50468246824F48024AB
:1007800005682C60046863608468402C04D10468A8
:10079000A2600468E16003E00468A1600468E260AC
:1007A00030BD704716E04FF400510B4801F072FA6B
:1007B0004FF48051084801F06DFA4FF4804106482B
:1007C00001F068FA4FF40041034801F063FA642035
:1007D00001F060F8E7E70000000C0240014600234A
:1007E0000022022204E0885C184483B2501CC2B28A
:1007F000C878801C9042F6DCD843C0B27047000035
:1008000010B50124164803F02FFF04460CB920460A
:1008100010BD04B103E0A82112A004F093FD6420F0
:1008200001F038F81B4803F01FFF04400CB92046C4
:10083000EEE704B103E0B6210AA004F083FD0A202C
:1008400001F028F86FF001001349096808611248A7
:1008500002F092FA10B100242046D9E72046D7E7EB
:10086000E75400082E2E5C48617264776172655C03
:1008700055534152545F4779726F73636F70655C73
:1008800055534152545F4779726F73636F7065209F
:100890002E630000E4540008F801002070470000B7
:1008A000F8B505460C46002000902068122800D8B4
:1008B00004E04FF4CB6177A004F044FD606818B108
:1008C0006068102800D804E040F2596171A004F07B
:1008D00039FDA068A0B1A068012811D0A068022845
:1008E0000ED0A06803280BD0A068042808D0A06808
:1008F000052805D0A068062802D0A068072800D1E6
:1009000004E040F25A6163A004F01CFD00BF95F8BA
:100910003C00012801D10220F8BD012085F83C00EF
:1009200000BF2068092816D92868C06821780A39CC
:1009300001EB41020721914088432968C860217872
:100940000A3901EB4101A06888402968C968084359
:100950002968C86013E028680069217801EB41022A
:1009600007219140884329680861217801EB410102
:10097000A068884029680969084329680861606897
:10098000072817D22868406B2179491E01EB8102A4
:100990001F219140884329684863208880B22179CB
:1009A000491E01EB810188402968496B0843296889
:1009B000486331E060680D2817D22868006B217900
:1009C000C91F01EB81021F219140884329680863F8
:1009D000208880B22179C91F01EB810188402968F4
:1009E000096B08432968086316E02868C06A217902
:1009F0000D3901EB81021F21914088432968C862AB
:100A0000208880B221790D3901EB81018840296865
:100A1000C96A08432968C8622C4E2D492868884253
:100A20000AD12068122807D1706820F40000706095
:100A3000706840F48000706025492868884222D19F
:100A400024492068884202D0206811281BD1706890
:100A500020F480007060706840F4000070601D49F0
:100A6000206888420FD11C4800681C49B0FBF1F097
:100A700000EB80004000009002E00098401E0090D3
:100A800000980028F9D100BF002085F83C0000BF85
:100A900000BF41E72E2E2F447269766572732F5383
:100AA000544D3332463478785F48414C5F44726924
:100AB0007665722F5372632F73746D333266347898
:100AC000785F68616C5F6164632E6300002301409E
:100AD0000020014012000010CC00002040420F0016
:100AE0000121014A11707047700000207047704763
:100AF00070B5044600250026207E10B1207E012816
:100B000000D104E040F29D4168A004F01BFCE069C4
:100B100018B1E069102800D804E040F29E4163A0BB
:100B200004F010FC6069012804D0606910B16069AC
:100B3000022800D104E040F29F415CA004F002FCD6
:100B400020680068C0F3400520684068C0F3401684
:100B500095B38EB3206C00F0100018B9206C40F4EF
:100B6000007020642068806800F04050E8B9207E62
:100B7000D8B92068C06A00F4700020B1206880688D
:100B800000F4806088B92068406820F02000216867
:100B90004860206C20F480702064206C00F4805049
:100BA00018B9206C40F0010020642046FFF798FF40
:100BB0006FF012002168086020680068C0F38005AB
:100BC00020684068C0F3C016E5B3DEB3206C00F0C7
:100BD000100018B9206C40F4005020642068806830
:100BE00000F4401038BB2068806B00F4401020B146
:100BF0002068806800F48060E8B92068406800F4EC
:100C00008060C0B92068806800F0405098B9207EAC
:100C100088B92068406820F0800021684860206C16
:100C200020F480502064206C00F4807018B9206C8F
:100C300040F0010020642046FFF730FE6FF00C000A
:100C4000216808602068006800F00105206840689D
:100C5000C0F3801685B17EB12068006800F0010005
:100C600050B1206C40F480302064204600F070F9D0
:100C70006FF001002168086020680068C0F340152B
:100C800020684068C0F380667DB176B1606C40F04A
:100C9000020060646FF02000216808602046FFF7C2
:100CA00026FF6FF020002168086070BD2E2E2F44B3
:100CB0007269766572732F53544D333246347878A7
:100CC0005F48414C5F4472697665722F5372632F9F
:100CD00073746D3332663478785F68616C5F616419
:100CE000632E630070B5044600250CB9012070BD69
:100CF00087492068884200D104E040F2431185A072
:100D000004F020FB606858B16068B0F5803F07D000
:100D10006068B0F5003F03D06068B0F5403F00D197
:100D200004E04FF4A2717BA004F00CFBA06858B162
:100D3000A068B0F1807F07D0A068B0F1007F03D039
:100D4000A068B0F1407F00D104E040F2451171A0ED
:100D500004F0F8FA206910B12069012800D104E0FC
:100D60004FF4A3716BA004F0EDFA207E10B1207E49
:100D7000012800D104E040F2471166A004F0E2FA35
:100D8000A06AE8B3A06AB0F1807F3DD0A06AB0F15C
:100D9000007F39D0A06AB0F1407F35D0A06AB0F1B1
:100DA000806F31D0A06AB0F1A06F2DD0A06AB0F1F1
:100DB000C06F29D0A06AB0F1E06F25D0A06AB0F171
:100DC000006F21D0A06AB0F1106F1DD0A06AB0F101
:100DD000206F19D0A06AB0F1306F15D0A06AB0F1C1
:100DE000406F11D0A06AB0F1506F0DD0A06AB0F181
:100DF000606F09D0A06AB0F1706F05D0534900E070
:100E000002E0A06A884200D104E04FF4A47141A03E
:100E100004F098FAE06818B1E068B0F5006F00D10E
:100E200004E040F249113BA004F08CFAE06918B1EB
:100E3000E069102800D804E04FF4A57135A004F053
:100E400081FA94F8300018B194F83000012800D1EC
:100E500004E040F24B112FA004F074FA60690128FD
:100E600004D0606910B16069022800D104E04FF439
:100E7000A67128A004F066FA2020005D18B1202099
:100E8000005D012800D104E040F24D1121A004F0E2
:100E900059FA2E49A06A884213D0E06A58B1E06A34
:100EA000B0F1805F07D0E06AB0F1005F03D0E06A84
:100EB000B0F1405F00D104E040F2511115A004F000
:100EC00041FA206C30B9204600F044F800206064FC
:100ED00084F83C00206C00F0100088B9206C20F4ED
:100EE000885040F0020020642046FFF759FA0020A5
:100EF0006064206C20F0020040F00100206400E0FB
:100F0000012500BF002084F83C0000BF2846EEE623
:100F1000002001402E2E2F447269766572732F5384
:100F2000544D3332463478785F48414C5F4472699F
:100F30007665722F5372632F73746D333266347813
:100F4000785F68616C5F6164632E63000100000F6D
:100F50007047000010B586B00446142101A8FFF7C1
:100F600071F92D492068884253D100BF00200090BC
:100F70002A48006840F480702849086008460068E4
:100F800000F48070009000BF00BF00BF0020009000
:100F900022481438006840F00100204914390860E4
:100FA0000846006800F00100009000BF00BF6A2002
:100FB0000190032002900020039001A9184800F03E
:100FC0007DFC184818490860002048600021164838
:100FD0008160C1604FF48061016149004161890015
:100FE00081614911C161490201620021416200F041
:100FF00033FA08B1FFF7D6FB00BF0B48A063846348
:1010000000BF00221146122000F066FF122000F0FF
:101010002DFF06B010BD0000002001404438024002
:10102000000002401064024018010020F8B5044698
:101030000D46164600200090207E10B1207E01282B
:1010400000D104E04FF4A86154A004F07BF9E06AF9
:1010500058B1E06AB0F1805F07D0E06AB0F1005F9C
:1010600003D0E06AB0F1405F00D104E040F24151AA
:101070004AA004F067F900BF94F83C00012801D1B0
:101080000220F8BD012084F83C0000BF2068806881
:1010900000F00100A0B92068806840F001002168DC
:1010A00088604C4800684C49B0FBF1F000EB400010
:1010B000009002E00098401E009000980028F9D1AE
:1010C0002068806800F00100002864D0206C40F2A5
:1010D0000161884340F4807020642068406800F417
:1010E000806028B1206C20F4005040F480502064CF
:1010F000206C00F48050B0F5805F04D1606C20F06B
:101100000600606401E00020606400BF002084F8F5
:101110003C0000BF314F3248A16BC8633148A16B1E
:1011200008643148A16BC8646FF022002168086030
:101130002068406840F080602168486020688068CE
:1011400040F4807021688860226802F14C013346C7
:101150002A46A06B00F02EFB786800F01F0058B9FB
:101160002068806800F0405028B92068806840F00E
:101170008040216888600EE01C49206888420AD1BE
:101180002068806800F0405028B92068806840F0EE
:10119000804021688860002073E700002E2E2F44D5
:1011A0007269766572732F53544D333246347878B2
:1011B0005F48414C5F4472697665722F5372632FAA
:1011C00073746D3332663478785F68616C5F616424
:1011D000632E6300CC00002040420F00002301403A
:1011E000E9020008810300086703000800200140AD
:1011F000014691F83500022803D08020486501207F
:101200007047052081F835000868006820F001006B
:101210000A6810600020F3E7F8B50446002000904B
:101220008C4800684FF41651B0FBF1F7A56D2E689D
:1012300094F85C1008208840304098B1206800681D
:1012400000F0040070B12068006820F004002168FC
:10125000086094F85C1008208840A860606D40F039
:101260000100606594F85C1001208840304068B14E
:101270002068406900F0800040B194F85C100120C3
:101280008840A860606D40F00200606594F85C10D2
:1012900004208840304068B12068006800F00200F7
:1012A00040B194F85C1004208840A860606D40F064
:1012B0000400606594F85C1010208840304078B3DA
:1012C0002068006800F0080050B394F85C1010200B
:1012D0008840A8602068006800F4802080B1206801
:1012E000006800F4002028B9206CC8B12046216CA9
:1012F000884715E0A06C98B12046A16C88470FE0A4
:101300002068006800F4807028B92068006820F028
:10131000080021680860206C10B12046216C8847C5
:1013200094F85C10202088403040002865D0206868
:10133000006800F0100000285FD094F85C102020B6
:101340008840A86094F83500052828D120680068F6
:1013500020F01600216808602068406920F08000B5
:1013600021684861206C08B9A06C28B12068006829
:1013700020F008002168086094F85C103F20884045
:10138000A86000BF002084F8340000BF012084F86A
:101390003500206D10B12046216D8847F8BD2068CA
:1013A000006800F4802080B12068006800F400200C
:1013B00028B9606C10B12046616C88471DE0E06B75
:1013C000D8B12046E16B884717E02068006800F438
:1013D000807068B92068006820F0100021680860FB
:1013E00000BF002084F8340000BF012084F83500DD
:1013F000E06B10B12046E16B8847606D38B3606DDB
:1014000000F00100F0B1052084F835002068006884
:1014100020F001002168086000BF0098401C009087
:10142000B84200D905E02068006800F001000028FB
:10143000F3D100BF00BF002084F8340000BF0120BA
:1014400084F83500E06C10B12046E16C884700BF9D
:10145000A4E70000CC0000202DE9F041044600255F
:1014600000F08AFC074614B90120BDE8F081C049AC
:101470002068884249D0BE4918312068884244D04B
:10148000BB493031206888423FD0B9494831206893
:1014900088423AD0B64960312068884235D0B44994
:1014A00078312068884230D0B14990312068884234
:1014B0002BD0AF49A8312068884226D0AD4920689A
:1014C000884222D0AB491831206888421DD0A949F2
:1014D00030312068884218D0A649483120688842B7
:1014E00013D0A4496031206888420ED0A1497831D8
:1014F0002068884209D09F4990312068884204D0F2
:101500009C49A8312068884200D103E0B8219AA004
:1015100003F018FF6068D8B16068B0F1007F17D0A1
:101520006068B0F1806F13D06068B0F1C06F0FD009
:101530006068B0F1006F0BD06068B0F1206F07D029
:101540006068B0F1406F03D06068B0F1606F00D1A7
:1015500003E0B92188A003F0F5FEA06828B1A068D7
:10156000402802D0A068802800D103E0BA2182A0E0
:1015700003F0E8FEE068B0F5007F01D0E06800B954
:1015800003E0BB217CA003F0DDFE2069B0F5806F95
:1015900001D0206900B903E0BC2177A003F0D2FE9E
:1015A000606938B16069B0F5006F03D06069B0F56B
:1015B000805F00D103E0BD216FA003F0C3FEA069EE
:1015C00038B1A069B0F5005F03D0A069B0F5804FD5
:1015D00000D103E0BE2168A003F0B4FEE06930B1A1
:1015E000E069B0F5807F02D0E069202800D103E0F7
:1015F000BF2161A003F0A6FE206A58B1206AB0F5B1
:10160000803F07D0206AB0F5003F03D0206AB0F5D4
:10161000403F00D103E0C02157A003F093FE606A71
:1016200010B1606A042800D103E0C12152A003F088
:1016300089FE606A002835D0A06A40B1A06A0128FE
:1016400005D0A06A022802D0A06A032800D103E0D6
:10165000C62149A003F076FEE06A58B1E06AB0F511
:10166000000F07D0E06AB0F1807F03D0E06AB0F1EC
:10167000C07F00D103E0C7213FA003F063FE206BD1
:1016800058B1206BB0F5001F07D0206BB0F5800F6C
:1016900003D0206BB0F5C00F00D103E0C82136A005
:1016A00003F050FE00BF002084F8340000BF022089
:1016B00084F835002068006820F001002168086087
:1016C0000AE000F059FBC01B052805D92020606501
:1016D000032084F83500C8E62068006800F00100A7
:1016E0000028EED12068056831480540D4E90101A1
:1016F0000843E16808432169084361690843A16917
:101700000843E1690843216A08430543606A0428E5
:1017100003D1D4E90B010843054320680560206824
:10172000456925F00705606A0543606A04280DD104
:10173000A06A0543E06A48B12046FEF7C7FF28B11A
:1017400040206065012084F835008EE62068456100
:101750002046FEF7A1FF064694F85C103F20884023
:10176000B06000206065012084F8350000207CE630
:1017700010600240106402402E2E2F44726976657C
:1017800072732F53544D3332463478785F48414C4E
:101790005F4472697665722F5372632F73746D3371
:1017A00032663478785F68616C5F646D612E6300C7
:1017B0003F8010F02DE9F04704460E4617461D46BF
:1017C0004FF00008D4F858901DB1B5F5803F00D215
:1017D00004E04FF4E67121A003F0B4FD00BF94F8DB
:1017E0003400012802D10220BDE8F087012084F8EE
:1017F000340000BF94F83500012825D1022084F878
:101800003500002060652B463A4631462046FEF7FB
:10181000B2FF94F85C103F208840C9F808002068A7
:10182000006840F0160021680860206C28B120682C
:10183000006840F00800216808602068006840F0F7
:1018400001002168086006E000BF002084F8340031
:1018500000BF4FF002084046C6E700002E2E2F447E
:101860007269766572732F53544D333246347878EB
:101870005F48414C5F4472697665722F5372632FE3
:1018800073746D3332663478785F68616C5F646D51
:10189000612E630070B5044600F06EFA06462546D8
:1018A000681C10B104480078054400BF00F064FAD9
:1018B000801BA842FAD370BD640000202DE9F843D4
:1018C00006460C464FF00009C8460025D34886421C
:1018D0000ED0D34886420BD0D248864208D0D24898
:1018E000864205D0D148864202D0D148864200D1F6
:1018F00003E0B321CFA003F025FD208880B220B102
:1019000020686FF30F0000B903E0B421C9A003F011
:1019100019FD606830B36068012823D06068112821
:1019200020D0606802281DD0606812281AD0D049E3
:101930006068884216D0CF496068884212D0CE498C
:10194000606888420ED0CD49606888420AD0CC4990
:101950006068884206D0CB496068884202D06068DF
:10196000032800D103E0B521B2A003F0EBFCA0688E
:1019700028B1A068012802D0A068022800D103E0A5
:10198000B621ACA003F0DEFC002741E1012000FA03
:1019900007F9206800EA0908C8457DD16068012878
:1019A00008D06068022805D06068112802D06068FD
:1019B000122823D1E06840B1E068012805D0E06832
:1019C000022802D0E068032800D103E0C82199A0D2
:1019D00003F0B8FCB568790003208840854379009E
:1019E000E06888400543B56075680120B8408543CC
:1019F0002079C0F30010B84005437560F5687900A0
:101A00000320884085437900A06888400543F5603D
:101A10006068022802D06068122870D12069E0B3A3
:101A20002069092852D02069B8B32069A8B3206979
:101A300098B3206988B32069012847D0206901281C
:101A400044D02069022841D0206902283ED0206974
:101A500002283BD02069042838D02069042835D0DA
:101A60002069042832D0206905282FD02069052854
:101A70002CD02069052829D02069062826D0206985
:101A8000062823D02069052820D0206906281DD0EB
:101A9000206907281AD001E0B9E017E0206907287B
:101AA00014D02069072811D0206908280ED0206999
:101AB0000A280BD02069092808D02069092805D0F8
:101AC00020690C2802D020690F2800D103E0E02112
:101AD00058A003F037FCF90806F1200050F8215017
:101AE0007807C10E0F20884085437907C90E206909
:101AF00088400543F90806F1200040F82150356878
:101B00007900032088408543207900F003007900A4
:101B1000884005433560606800F08050B0F1805F18
:101B200075D100BF002000905748006840F4804005
:101B3000554908600846006800F48040009000BFE6
:101B400000BF5248B90850F82150B807010F0F20C4
:101B5000884085433148864201D1002014E0304856
:101B6000864201D101200FE02E48864201D1022099
:101B70000AE02D48864201D1032005E02B48864229
:101B800001D1042000E00720B907090F8840054370
:101B90003E48B90840F821503D48056825EA080547
:101BA000606800F48030B0F5803F01D145EA080557
:101BB00037480560001D056825EA0805606800F4DF
:101BC0000030B0F5003F01D145EA08053048001D5E
:101BD0000560001D056825EA0805606800F48010AE
:101BE000B0F5801F01D145EA080529480830056095
:101BF000001D056825EA0805606800F40010B0F5CE
:101C0000001F01D145EA080521480C3005607F1C02
:101C1000102FFFF4BBAEBDE8F883000000000240C7
:101C20000004024000080240000C02400010024084
:101C3000001C02402E2E2F447269766572732F535A
:101C4000544D3332463478785F48414C5F44726972
:101C50007665722F5372632F73746D3332663478E6
:101C6000785F68616C5F6770696F2E6300000000C9
:101C700000001110000021100000311000001210AF
:101C800000002210000032104438024008380140A1
:101C9000003C014070B505460C46A0B218B1200CBE
:101CA000000400B904E04FF4DB7106A003F04AFB26
:101CB00068692040A04202D12004A86100E0AC6124
:101CC00070BD00002E2E2F447269766572732F53FB
:101CD000544D3332463478785F48414C5F447269E2
:101CE0007665722F5372632F73746D333266347856
:101CF000785F68616C5F6770696F2E630000000039
:101D000070B506460C461546A0B218B1200C00046A
:101D100000B904E040F29F1108A003F013FB0DB1DD
:101D2000012D00D104E04FF4D07104A003F00AFBB0
:101D30000DB1B46101E02004B06170BD2E2E2F44BE
:101D40007269766572732F53544D33324634787806
:101D50005F48414C5F4472697665722F5372632FFE
:101D600073746D3332663478785F68616C5F677066
:101D7000696F2E6300000000014800687047000092
:101D80005C000020034800680349097808440149C1
:101D9000086070475C0000206400002010B50D480A
:101DA000006840F400700B4908600846006840F481
:101DB000806008600846006840F480700860032076
:101DC00000F0F4F80F2000F007F800F02BF80020E6
:101DD00010BD0000003C024070B504460E4800787B
:101DE0004FF47A71B1FBF0F00C490968B1FBF0F5E2
:101DF000284600F0FBFD08B1012070BD102C07D271
:101E000000222146501E00F067F80548046001E0FA
:101E10000120F2E70020F0E764000020CC00002061
:101E20006000002008B500BF002000900E48006848
:101E300040F480400C4908600846006800F4804087
:101E4000009000BF00BF00BF00200090081F006886
:101E500040F08050091F08600846006800F080507C
:101E6000009000BF00BF08BD4438024010B50446D2
:101E7000002C00DB03E0BE2108A003F063FA20463B
:101E8000002809DB00F01F02012191404209920065
:101E900002F1E022C2F8001100BF10BD2E2E2F4427
:101EA0007269766572732F53544D333246347878A5
:101EB0005F48414C5F4472697665722F5372632F9D
:101EC00073746D3332663478785F68616C5F636F0A
:101ED000727465782E6300002DE9F05F80460C4631
:101EE00015460027102D00D203E0AA2120A003F000
:101EF00029FA102C00D203E0AB211DA003F022FA36
:101F000003F018F90746394622462B4601F0070030
:101F1000C0F1070ABAF1040F02D94FF0040A01E038
:101F2000C0F1070AD14600F1040ABAF1070F02D244
:101F30004FF0000A01E0A0F1030AD4464FF0010A75
:101F40000AFA09FAAAF1010A0AEA020A0AFA0CFADA
:101F50004FF0010B0BFA0CFBABF1010B0BEA030B7F
:101F60004AEA0B063146404603F0ECF8BDE8F09F24
:101F70002E2E2F447269766572732F53544D33326F
:101F8000463478785F48414C5F4472697665722FB9
:101F90005372632F73746D3332663478785F68617F
:101FA0006C5F636F727465782E63000010B5044631
:101FB000072C07D0062C05D0052C03D0042C01D00B
:101FC000032C00D103E0922109A003F0BBF900BF6C
:101FD00004F00701154A10684FF6FF021040144A3A
:101FE000024342EA0120114A106000BF10BD000008
:101FF0002E2E2F447269766572732F53544D3332EF
:10200000463478785F48414C5F4472697665722F38
:102010005372632F73746D3332663478785F6861FE
:102020006C5F636F727465782E6300000CED00E0E6
:102030000000FA0570B504460D460CB9012070BDCC
:102040002068012803D320680F2800D804E040F25C
:10205000512195A003F076F96DB1012D0BD0022D21
:1020600009D0032D07D0042D05D0052D03D0062D52
:1020700001D0072D00D104E040F252218AA003F0E4
:1020800061F99748006800F00F00A84209D294490E
:102090000D700846006800F00F00A84201D0012032
:1020A000CDE7207800F0020002283DD1207800F032
:1020B0000400042805D18B48006840F4E0508949A9
:1020C0000860207800F00800082805D185480068DD
:1020D00040F4604083490860A068B8B1A0688028D7
:1020E00014D0A068902811D0A068A0280ED0A068B5
:1020F000B0280BD0A068C02808D0A068D02805D090
:10210000A068E02802D0A068F02800D104E040F2E6
:10211000752165A003F016F97248006820F0F00000
:10212000A16808436F490860207800F0010000288A
:102130004ED0606840B16068012805D06068022810
:1021400002D06068032800D104E04FF41F7156A04C
:1021500003F0F8F86068012807D162480838006881
:10216000C0F34040B8B9012069E76068022802D096
:102170006068032807D15B4808380068C0F34060F6
:1021800048B901205BE7574808380068C0F34000B1
:1021900008B9012053E75348006820F00300616844
:1021A000084350490860FFF7E7FD064608E0FFF7DF
:1021B000E3FD801B41F28831884201D903203EE7CC
:1021C0004848006800F00C006168B0EB810FEED168
:1021D0004348006800F00F00A84209D940490D703B
:1021E0000846006800F00F00A84201D0012026E751
:1021F000207800F0040004281FD1E06878B1E0687E
:10220000B0F5805F0BD0E068B0F5A05F07D0E06864
:10221000B0F5C05F03D0E068B0F5E05F00D104E046
:1022200040F2BA2120A003F08DF82E48006820F477
:10223000E050E16808432B490860207800F008006E
:10224000082820D1206978B12069B0F5805F0BD0D3
:102250002069B0F5A05F07D02069B0F5C05F03D05A
:102260002069B0F5E05F00D104E040F2C1210EA08A
:1022700003F068F81B48006820F46040216940EAD8
:10228000C1001849086000F05BF816490968C1F3FD
:102290000311154A515CC84014490860144800688D
:1022A000FFF79AFD0020CAE62E2E2F44726976654C
:1022B00072732F53544D3332463478785F48414C13
:1022C0005F4472697665722F5372632F73746D3336
:1022D00032663478785F68616C5F7263632E630086
:1022E000003C024008380240F3540008CC000020B3
:1022F000600000200148006870470000CC0000200A
:1023000000B5FFF7F7FF04490968C1F38221034ACA
:10231000515CC84000BD0000083802400355000869
:1023200000B5FFF7E7FF04490968C1F34231034AEA
:10233000515CC84000BD0000083802400355000849
:102340002DE9F047002400250026A1462548006815
:1023500000F00C0020B1042805D008283AD105E08F
:10236000DFF8849039E0DFF8849036E01D48001FE4
:10237000006800F03F041B48001F006800F4800064
:1023800078B11A481749091F0968C1F38811A0FBE1
:1023900001700146224600233846FDF71BFF054623
:1023A0000EE011480F49091F0968C1F38811A0FB0D
:1023B00001700146224600233846FDF70BFF054613
:1023C0000848001F0068C0F30140401C4600B5FBF0
:1023D000F6F902E0DFF8109000BF00BF4846BDE804
:1023E000F0870000083802400024F40000127A0050
:1023F000F8B504460CB90120F8BD20680F2800D8B4
:1024000003E0E821FBA002F09DFF207800F001002E
:10241000002870D0606838B16068B0F5803F03D0A4
:102420006068B0F5A02F00D103E0ED21F1A002F02B
:1024300089FFFE48006800F00C0004280DD0FB481E
:10244000006800F00C00082813D1F848001F00684D
:1024500000F48000B0F5800F0BD1F4480838006814
:10246000C0F34040002859D06068002856D10120B0
:10247000C2E700BF6068B0F5803F08D1EB4808387C
:10248000006840F48030E949083908601EE060685F
:10249000B0F5A02F0DD1E5480838006840F4802041
:1024A000E249083908600846006840F48030086056
:1024B0000CE0DE480838006820F48030DB49083939
:1024C00008600846006820F48020086000BF60684B
:1024D00090B1FFF751FC054606E0FFF74DFC401BAD
:1024E000642801D9032087E7D04808380068C0F382
:1024F00040400028F1D011E0FFF73EFC054606E021
:10250000FFF73AFC401B642801D9032074E7C74851
:1025100008380068C0F340400028F1D1207800F06E
:102520000200022873D1E06810B1E068012800D1F0
:1025300004E040F21F11AFA002F004FF20691F2841
:1025400000D804E04FF49071AAA002F0FBFEB74857
:10255000006800F00C0058B1B448006800F00C00AE
:1025600008281CD1B148001F006800F48000B0B9F1
:10257000AE4808380068C0F3400020B1E068012888
:1025800001D0012038E7A9480838006820F0F80099
:10259000216940EAC100A5490839086037E0E068D0
:1025A00000B30120A2490860FFF7E6FB054606E0FC
:1025B000FFF7E2FB401B022801D903201CE79B48E0
:1025C00008380068C0F340000028F1D09748083868
:1025D000006820F0F800216940EAC10093490839F9
:1025E000086014E0002092490860FFF7C5FB05462B
:1025F00006E0FFF7C1FB401B022801D90320FBE6E0
:102600008A4808380068C0F340000028F1D12078DB
:1026100000F00800082837D1606910B1606901280E
:1026200000D104E04FF4B07172A002F08BFE60693B
:10263000A8B101207F490860FFF79EFB054606E030
:10264000FFF79AFB401B022801D90320D4E6774804
:102650006C300068C0F340000028F1D014E0002086
:1026600074490860FFF788FB054606E0FFF784FB26
:10267000401B022801D90320BEE66C486C3000687C
:10268000C0F340000028F1D1207800F004000428B5
:1026900075D10027A06828B1A068012802D0A068E1
:1026A000052800D104E04FF4C67152A002F04AFEA2
:1026B0005E483830006800F0805090B900BF0020BC
:1026C00000905A483830006840F0805057493831FF
:1026D00008600846006800F08050009000BF00BF0E
:1026E00001275548006800F48070B0B9524800686E
:1026F00040F4807050490860FFF73EFB054606E055
:10270000FFF73AFB401B022801D9032074E64A4830
:10271000006800F480700028F2D000BFA068012893
:1027200008D142486830006840F001003F496831F4
:1027300008601DE0A06805280DD13C48683000689D
:1027400040F004003949683108600846006840F0EC
:10275000010008600CE035486830006820F0010096
:102760003249683108600846006820F004000860BB
:1027700000BFA068A8B1FFF7FFFA054609E02FE007
:10278000FFF7FAFA401B41F28831884201D9032051
:1027900032E6264868300068C0F340000028EFD0D9
:1027A00013E0FFF7E9FA054608E0FFF7E5FA401BFA
:1027B00041F28831884201D903201DE61B48683068
:1027C0000068C0F340000028EFD1012F07D117485F
:1027D0003830006820F0805014493831086000BF5C
:1027E000A06928B1A069012802D0A069022825D1DA
:1027F0002AE000002E2E2F447269766572732F53E3
:10280000544D3332463478785F48414C5F447269A6
:102810007665722F5372632F73746D33326634781A
:10282000785F68616C5F7263632E630008380240F2
:1028300000004742800E47420070004040F2CF1136
:10284000AFF2500002F07EFDA06900287CD0654800
:10285000006800F00C00082877D0A069022875D124
:10286000E06918B1E069B0F5800F00D105E04FF4E0
:10287000EC71AFF2800002F065FD206A3F2800D8BD
:1028800005E040F2D911AFF2940002F05BFD606AFE
:10289000C02804D3606AB0F5D87F00D805E04FF4B3
:1028A000ED71AFF2B00002F04DFDA06A022808D031
:1028B000A06A042805D0A06A062802D0A06A0828C9
:1028C00000D105E040F2DB11AFF2D80002F03AFD92
:1028D000E06A022803D3E06A0F2800D805E04FF42D
:1028E000EE71AFF2F00002F02DFD00203E490866C7
:1028F000FFF742FA054606E0FFF73EFA401B0228C2
:1029000001D9032078E5374808380068C0F34060F3
:102910000028F1D1D4E907010843616A40EA811136
:102920000122A06AC2EB500041EA00412C20005D68
:1029300041EA00602B49091F086001202A49086606
:10294000FFF71AFA054609E049E025E00EE0FFF737
:1029500013FA401B022801D903204DE5214808380D
:102960000068C0F340600028F1D038E000201E4924
:102970000866FFF701FA054606E0FFF7FDF9401B80
:10298000022801D9032037E5164808380068C0F34B
:1029900040600028F1D122E0A069012800D12BE598
:1029A0001048001F066806F48001E069814214D1D6
:1029B00006F03F01206A81420FD147F6C0703040D7
:1029C000616A884209D106F44031A06A814204D18B
:1029D00006F07061E06A814201D001200CE5002020
:1029E0000AE50000083802400000474270B504467E
:1029F0002546681EB0F1807F01D301200FE0681EDC
:102A00004FF0E02148610F214FF0FF3002F09AFBB8
:102A100000204FF0E021886107200861002070BD90
:102A2000704770472DE9F04104460D464149206842
:102A300088420FD02068B0F1804F0BD03E4920680B
:102A4000884207D03D492068884203D03C4920682D
:102A5000884200D104E040F264613AA002F072FCC6
:102A60002868A0B12868102811D0286820280ED026
:102A7000286830280BD02868402808D028685028BB
:102A800005D02868602802D02868702800D104E0AA
:102A900040F265612BA002F055FC6868802801D0E7
:102AA000686800B904E040F2666126A002F04AFCC2
:102AB00000BF94F83C00012802D10220BDE8F0815B
:102AC000012084F83C0000BF022084F83D0020680B
:102AD00047682068866827F07007286807432068E1
:102AE000476014492068884213D02068B0F1804FB5
:102AF0000FD01149206888420BD0104920688842C5
:102B000007D00F492068884203D01D4920688842B9
:102B100005D126F08006686806432068866001209B
:102B200084F83D0000BF002084F83C0000BF00BFD7
:102B3000C4E700000000014000040040000800401D
:102B4000000C00402E2E2F447269766572732F534D
:102B5000544D3332463478785F48414C5F44726953
:102B60007665722F5372632F73746D3332663478C7
:102B7000785F68616C5F74696D5F65782E630000D3
:102B80000040014010B504460CB9012010BD354984
:102B9000206888421BD02068B0F1804F17D032499E
:102BA0002068884213D03149206888420FD03049CC
:102BB000206888420BD02F492068884207D02E49D0
:102BC0002068884203D02D492068884200D104E063
:102BD0004FF489712AA002F0B5FBA06858B1A06833
:102BE000102808D0A068202805D0A068402802D06E
:102BF000A068602800D104E040F2131120A002F088
:102C0000A1FB206938B12069B0F5807F03D020692D
:102C1000B0F5007F00D104E04FF48A7118A002F0F3
:102C200091FBA06910B1A069802800D104E040F2B6
:102C3000151113A002F086FB94F83D0028B900207E
:102C400084F83C00204600F037F8022084F83D006C
:102C5000211D206801F000FE012084F83D000020C5
:102C600094E700000000014000040040000800401C
:102C7000000C004000400140004401400048014079
:102C80002E2E2F447269766572732F53544D333252
:102C9000463478785F48414C5F4472697665722F9C
:102CA0005372632F73746D3332663478785F686162
:102CB0006C5F74696D2E630038B504462068B0F10E
:102CC000804F18D100BF002000902848006840F0D5
:102CD0000100264908600846006800F001000090E5
:102CE00000BF00BF002201211C20FFF7F5F81C20C7
:102CF000FFF7BCF838E01E492068884218D100BFB1
:102D0000002000901948006840F002001749086050
:102D10000846006800F00200009000BF00BF0022DB
:102D20000A211D20FFF7D8F81D20FFF79FF81BE0B0
:102D300010492068884217D100BF002000900B483E
:102D4000006840F00400094908600846006800F087
:102D50000400009000BF00BF002204211E20FFF7E6
:102D6000BBF81E20FFF782F838BD00004038024053
:102D7000000400400008004070B504461C4920686B
:102D800088421BD02068B0F1804F17D019492068C5
:102D9000884213D01849206888420FD0174920680C
:102DA00088420BD016492068884207D01549206810
:102DB000884203D014492068884200D104E040F2E0
:102DC000B91112A002F0BEFA2068C06840F00100FC
:102DD0002168C8602068806800F00705062D05D0CE
:102DE0002068006840F0010021680860002070BD84
:102DF000000001400004004000080040000C0040BA
:102E00000040014000440140004801402E2E2F4464
:102E10007269766572732F53544D33324634787825
:102E20005F48414C5F4472697665722F5372632F1D
:102E300073746D3332663478785F68616C5F74697F
:102E40006D2E63002DE9F04104460D4600BF94F855
:102E50003C00012802D10220BDE8F081012084F865
:102E60003C0000BF022084F83D002868B0F5805F78
:102E70001AD02868B0F5005F16D02868A0B128687D
:102E8000102811D0286820280ED0286830280BD0B0
:102E90002868402808D02868502805D0286860286D
:102EA00002D02868702800D104E041F28B11FAA00A
:102EB00002F048FA2068866826F0770626F47F46F6
:102EC00020688660286850287ED00CDC20287CD0C2
:102ED00004DC00287AD0102879D1C1E1302877D0DD
:102EE0004028F9D176E1602873D070282DD0B0F554
:102EF000805F03D0B0F5005FEED189E0F44920682F
:102F000088421BD02068B0F1804F17D0F14920686B
:102F1000884213D0F049206888420FD0EF492068DA
:102F200088420BD0EE492068884207D0ED492068DE
:102F3000884203D0EC492068884200D104E041F285
:102F40009711D5A002F0FEF9DCE1E1492068884242
:102F500013D02068B0F1804F0FD0DE49206888423E
:102F60000BD0DD492068884207D0DC4920688842C0
:102F700003D0DB492068884200D104E041F29E1171
:102F8000C5A002F0DFF9A86858B1A868B0F5805F65
:102F900007D0A868B0F5005F03D0A868B0F5405F1F
:102FA00000D104E041F2A111BBA002F0CBF96868A6
:102FB000B0F5004F10D0686870B1686860B168689B
:102FC000022809D0686805E07AE04AE147E198E123
:102FD00048E1BAE00A2800D104E041F2A211AEA013
:102FE00002F0B0F9E8680F2800D804E041F2A3111C
:102FF000A9A002F0A7F9D5E902136A68206801F0D8
:103000007DFC2068866846F077062068866079E156
:10301000AF49206888420FD02068B0F1804F0BD0B4
:10302000AC492068884207D0AB492068884203D069
:10303000AA492068884200D104E041F2B61196A066
:1030400002F080F9A86858B1A868B0F5805F07D091
:10305000A868B0F5005F03D0A868B0F5405F00D164
:1030600004E041F2B9118CA002F06CF96868B0F587
:10307000004F09D0686838B1686828B168680228CC
:1030800002D068680A2800D104E041F2BA1182A097
:1030900002F058F9E8680F2800D804E041F2BB11AB
:1030A0007DA002F04FF9D5E902136A68206801F0AB
:1030B00025FC2068806840F480402168886021E118
:1030C00083492068884213D02068B0F1804F0FD028
:1030D0008049206888420BD07F492068884207D009
:1030E0007E492068884203D07D492068884200D10B
:1030F00004E041F2CA1168A002F024F96868B0F552
:10310000004F09D0686838B1686828B1686802283B
:1031100002D068680A2800D104E041F2CD115EA017
:1031200002F010F9E8680F2800D804E041F2CE114F
:1031300059A002F007F9EA686968206801F0F2FB1B
:103140005021206801F0E5FBDCE0614920688842FD
:1031500013D02068B0F1804F0FD05E4920688842BC
:103160000BD05D492068884207D05C4920688842BE
:1031700003D05B492068884200D104E041F2DA11B3
:1031800045A002F0DFF86868B0F5004F09D0686824
:1031900038B1686828B16868022802D068680A28CF
:1031A00000D104E041F2DD113BA002F0CBF8E86869
:1031B0000F2800D804E041F2DE1137A002F0C2F877
:1031C000EA686968206801F0C0FB6021206801F0AE
:1031D000A0FB97E03E492068884213D02068B0F1F8
:1031E000804F0FD03B49206888420BD03A49206875
:1031F000884207D039492068884203D0384920687E
:10320000884200D104E041F2EA1123A002F09AF8CA
:103210006868B0F5004F09D0686838B1686828B1AF
:103220006868022802D068680A2800D104E041F2E8
:10323000ED1119A002F086F8E8680F2800D804E024
:1032400041F2EE1114A002F07DF8EA686968206886
:1032500001F068FB4021206801F05BFB52E000BFF9
:1032600000BF00BF1A492068884213D02068B0F11F
:10327000804F0FD01749206888420BD0164920682C
:10328000884207D015492068884203D01449206835
:1032900088422BD130E000002E2E2F4472697665D3
:1032A00072732F53544D3332463478785F48414C13
:1032B0005F4472697665722F5372632F73746D3336
:1032C00032663478785F68616C5F74696D2E630074
:1032D000000001400004004000080040000C0040D5
:1032E00000400140004401400048014041F2FD110E
:1032F000AFF25C0002F026F82968206801F009FBB3
:1033000000E000BF00BF012084F83D0000BF0020A6
:1033100084F83C0000BF00BF9EE5704710B504462E
:1033200020680069C0F34000D8B12068C068C0F3CD
:103330004000B0B16FF002002168086101202077E1
:103340002068806900F0030018B12046FFF7E5FF10
:1033500005E0204600F0ADF8204600F0ABF8002074
:10336000207720680069C0F38000D8B12068C06869
:10337000C0F38000B0B16FF0040021680861022042
:1033800020772068806900F4407018B12046FFF76C
:10339000C4FF05E0204600F08CF8204600F08AF8D3
:1033A0000020207720680069C0F3C000D8B12068F1
:1033B000C068C0F3C000B0B16FF0080021680861B8
:1033C000042020772068C06900F0030018B120466F
:1033D000FFF7A3FF05E0204600F06BF8204600F061
:1033E00069F80020207720680069C0F30010D8B188
:1033F0002068C068C0F30010B0B16FF01000216801
:103400000861082020772068C06900F4407018B176
:103410002046FFF782FF05E0204600F04AF82046EC
:1034200000F048F8002020772068006900F00100D3
:1034300058B12068C06800F0010030B16FF00100A1
:1034400021680861204600F037F820680069C0F361
:10345000C01058B12068C068C0F3C01030B16FF020
:103460008000216808612046FFF7DAFA20680069C9
:10347000C0F3801058B12068C068C0F3801030B12C
:103480006FF0400021680861204600F031F82068A4
:103490000069C0F3401058B12068C068C0F3401004
:1034A00030B16FF02000216808612046FFF7B9FABB
:1034B00010BD70477047000010B5044609488442AB
:1034C00005D100F003FE012801D101F0DBFD064823
:1034D000844201D100F0FAFD0448844201D100F099
:1034E000F5FD10BDB801002078010020F801002092
:1034F0007047000038B50446E06B00F0080078B172
:1035000000BF00200090206800680090206840689C
:10351000009000BF00BF01220249034800F04CFAAE
:1035200038BD00007C000020380200202DE9F04763
:103530000446206805682068C668206847694FF01F
:103540000008C14605F00F08B8F1000F0AD105F0D8
:10355000200038B106F0200020B1204601F033FAF7
:10356000BDE8F087B8F1000F72D007F0010018B97C
:1035700006F4907000286BD005F0010030B106F41D
:10358000807018B1E06B40F00100E06305F00400CA
:1035900030B107F0010018B1E06B40F00200E063C9
:1035A00005F0020030B107F0010018B1E06B40F007
:1035B0000400E06305F0080048B106F0200010B9EF
:1035C00007F0010018B1E06B40F00800E063E06B29
:1035D00070B305F0200028B106F0200010B120469D
:1035E00001F0F1F920684069C0F38019E06B00F048
:1035F000080010B9B9F1000F23D0204601F0C3F93B
:103600002068406900F04000402816D120684069D9
:1036100020F0400021684861606B50B11748616B31
:103620000865606BFDF7E4FD10B1606B016D8847C4
:103630000CE02046FFF75EFF08E02046FFF75AFF48
:1036400004E02046FFF756FF0020E06388E7FFE72D
:1036500005F0800030B106F0800018B1204601F07E
:1036600058FC7DE705F0400030B106F0400018B18D
:10367000204601F098F973E700BF71E7734900082D
:1036800010B504460CB9012010BDA069002826D051
:1036900040492068884207D03F492068884203D0CB
:1036A0003E492068884200D104E040F24B113CA022
:1036B00001F048FEA06958B1A069B0F5807F07D03D
:1036C000A069B0F5007F03D0A069B0F5407F00D1BC
:1036D00017E04FF4A67132A001F034FE11E02D493D
:1036E0002068884207D02C492068884203D02B49A3
:1036F0002068884200D104E04FF4A87128A001F0AE
:1037000021FEA06818B1A068B0F5805F00D104E088
:103710004FF4A97122A001F015FEE06918B1E0692B
:10372000B0F5004F00D104E040F253111CA001F0AD
:1037300009FE94F8390028B9002084F838002046A2
:1037400000F04CF8242084F839002068C06820F488
:1037500000502168C860204601F088F9206800699F
:1037600020F49040216808612068406920F02A0018
:10377000216848612068C06840F400502168C86032
:103780000020E063202084F8390084F83A0000200B
:103790007AE700000010014000440040001401409E
:1037A0002E2E2F447269766572732F53544D333227
:1037B000463478785F48414C5F4472697665722F71
:1037C0005372632F73746D3332663478785F686137
:1037D0006C5F756172742E630000000010B586B0D6
:1037E0000446142101A8FCF72DFD6C49206888428D
:1037F00039D100BF002000906948006840F01000F7
:10380000674908600846006800F01000009000BF9B
:1038100000BF00BF0020009061481438006840F0ED
:1038200001005F49143908600846006800F0010093
:10383000009000BF00BF4FF4C060019002200290D2
:1038400000200390032004900720059001A955480B
:10385000FEF734F8002203212520FEF73DFB25204A
:10386000FEF704FB97E050492068884257D100BF1B
:10387000002000904A48001F006840F4003048498A
:10388000091F08600846006800F40030009000BF7F
:1038900000BF00BF0020009041481438006840F08D
:1038A00001003F49143908600846006800F0010033
:1038B000009000BF00BF00BF0020009008460068D5
:1038C00040F0080008600846006800F0080000901A
:1038D00000BF00BF0420019002200290002003904E
:1038E000032004900720059001A92E48FDF7E6FF6C
:1038F00040200190022002900020039003200490B9
:103900000720059001A92948FDF7D8FF00220521CD
:103910002620FEF7E1FA2620FEF7A8FA3BE024492C
:103920002068884237D100BF002000901C48006802
:1039300040F020001A4908600846006800F02000A6
:10394000009000BF00BF00BF002000901448143852
:10395000006840F004001249143908600846006805
:1039600000F00400009000BF00BFC02001900220C2
:10397000029000200390032004900820059001A9E4
:103980000C48FDF79BFF002206214720FEF7A4FA12
:103990004720FEF76BFA06B010BD00000010014092
:1039A000443802400000024000440040000C024045
:1039B000001401400008024010B5034693F83A0095
:1039C00020282FD101B10AB9012010BD00BF93F802
:1039D0003800012801D10220F7E7012083F83800E0
:1039E00000BF99629A85DA850020D863222083F887
:1039F0003A0000BF002083F8380000BF1868C06894
:103A000040F480701C68E0601868406940F0010074
:103A10001C6860611868C06840F020001C68E060A5
:103A20000020D2E70220D0E710B5044606492068FE
:103A3000884201D100F07AF804492068884201D117
:103A400000F088F810BD0000001001400014014093
:103A50002DE9F84304460D4616461F464FF000096F
:103A600094F8390020285DD105B116B90120BDE8D0
:103A7000F88300BF94F83800012801D10220F6E74E
:103A8000012084F8380000BF0020E063212084F882
:103A90003900FEF771F98146A684E68400BF002054
:103AA00084F8380000BF2BE0E08C401EE084A06862
:103AB000B0F5805F16D14B4600228021204600974A
:103AC00001F05BFA08B10320D1E7A846B8F800007E
:103AD000C0F3080021684860206908B9AD1C0FE0F8
:103AE0006D1C0DE04B46002280212046009701F01E
:103AF00044FA08B10320BAE715F8010B21684860C1
:103B0000E08C0028D0D14B4600224021204600976F
:103B100001F033FA08B10320A9E7202084F8390026
:103B20000020A4E70220A2E77047000010B5064875
:103B30000078FCF75DFD0549087001220249044840
:103B4000FFF73AFF10BD00007C0000207D00002040
:103B50003802002010B5664800786649087066484B
:103B6000007810BB08460078552814D163480078C7
:103B7000401C6249087008460078022815D10020D0
:103B8000087001205C4908705D49087055205D4946
:103B90000870487009E000205749087058490870BB
:103BA00056490870574908704870534800780028F3
:103BB0007ED053480078022811D14E4800785149F0
:103BC000887008468078002804DB08468078B0F5C5
:103BD000157F04DB00204B4988704749087048482E
:103BE0000078032817D1434800784649C870084632
:103BF000C0784549087008460078032803DB08466A
:103C00000078072807DD02203F49087000203D4961
:103C1000C870394908703A480078042810D13548EE
:103C200000783849087108460079012803DB084606
:103C30000079362804DD0020324908712E490870C9
:103C400031480078C01E31490978884216DD2C4879
:103C50000078042812DD274801782A48401D2B4AA5
:103C60001278815429480078401C28490870264859
:103C70000078C01E0978884200D12DE022480078E3
:103C8000C01E22490978884206D12048007818B120
:103C9000184800781B494874194801781A48007878
:103CA000801C814217D11A48007888B9012000E0B1
:103CB00011E0174908700020114908700E4908707A
:103CC0000E49087002201049087000200F49087042
:103CD00000200949087000BF09480078401C0849C5
:103CE0000870012202490B48FFF766FE10BD000074
:103CF000750000207B000020760000207700002067
:103D00007900002002030020780000207A000020C3
:103D100074000020B80200200CB500BFEFF309804A
:103D2000019000BFEFF30880009000BFFEE70000A5
:103D300010B54FF4FA70FDF7ADFD58A001F0EAF9A7
:103D40004FF47A70FDF7A6FDFCF704FC604908709B
:103D50000846007820B95FA001F0DCF9FCF722FDED
:103D600066A001F0D7F95A48007800B104E04FF49A
:103D7000A4716CA001F0E6FA4FF47A70FDF78AFDA9
:103D800001F0B4F9524908700846007820B96AA0D9
:103D900001F0C0F9FCF706FD70A001F0BBF94C483A
:103DA000007800B104E04FF4AB715EA001F0CAFAF4
:103DB0004FF47A70FDF76EFD01F01EF9444908706A
:103DC0000846007820B96EA001F0A4F9FCF7EAFCDF
:103DD00074A001F09FF93E48007800B104E04FF470
:103DE000B27150A001F0AEFA4FF47A70FDF752FDB7
:103DF00001F02EF9364908700846007820B972A003
:103E000001F088F9FCF7CEFC78A001F083F9304886
:103E1000007800B104E04FF4B97142A001F092FAC9
:103E20004FF47A70FDF736FD00F036FC2849087033
:103E30000846007820B976A001F06CF9FCF7B2FCD6
:103E40007CA001F067F92248007800B104E040F25C
:103E5000851134A001F076FA4FF47A70FDF71AFD5F
:103E6000FCF7CEFC1A4908700846007820B97AA001
:103E700001F050F9FCF796FC80A001F04BF94FF4EB
:103E80007A70FDF707FD86A001F044F94FF4FA704F
:103E9000FDF700FD0E48007810BD00003D3D3D3DA2
:103EA0005468652073797374656D207374617274DE
:103EB0007320746F20696E697469616C697A65201A
:103EC00068617264776172653D3D3D3D0D0A000099
:103ED000000000204661696C656420746F20696E83
:103EE000697469616C697A65204144432E2050727F
:103EF0006F6365647572650D0A0000007375636316
:103F000065737320746F20696E697469616C697A76
:103F100065204144432050726F6365647572650D7E
:103F20000A0000002E2E2F436F72652F5372632FED
:103F30006D61696E2E6300004661696C6564207472
:103F40006F20696E697469616C697A6520555341A7
:103F50005254362049540D0A000000007375636303
:103F600065737320746F20696E697469616C697A16
:103F700065205553415254362049540D0A00000023
:103F80004661696C656420746F20696E697469614B
:103F90006C697A65205553415254312049540D0AB9
:103FA000000000007375636365737320746F20698C
:103FB0006E697469616C697A652055534152543158
:103FC0002049540D0A0000004661696C6564207444
:103FD0006F20696E697469616C697A652055534117
:103FE0005254322049540D0A000000007375636377
:103FF00065737320746F20696E697469616C697A86
:1040000065205553415254322049540D0A00000096
:104010004661696C656420746F20696E69746961BA
:104020006C697A6520536572766F4D6F746F720D8F
:104030000A0000007375636365737320746F2069F1
:104040006E697469616C697A6520536572766F4D2B
:104050006F746F720D0A00004661696C65642074AC
:104060006F20696E697469616C697A65204779723D
:104070006F73636F70650D0A0000000073756363F2
:1040800065737320746F20696E697469616C697AF5
:1040900065204779726F73636F70650D0A000000C9
:1040A00044657669636520706F7765722D6F6E2049
:1040B00064656C617920353030206D732C20706C14
:1040C0006561736520776169740D0A0002200549F6
:1040D000097809B9002004E002490978012900D1D2
:1040E00001207047010000201FB5002000900190C2
:1040F000029003902C482D4908604FF480304860AE
:1041000000212A48816001210161002101760121FD
:1041100080F8201041620021C1622549816200219E
:10412000C1600521C161012180F830104161FCF7B7
:10413000D9FD08B1FCF736FB0120009001900290F8
:1041400069461A48FCF7ACFB08B1FCF72BFB0320CF
:1041500000900220019069461448FCF7A1FB08B1C9
:10416000FCF720FB052000900320019069460F48D2
:10417000FCF796FB08B1FCF715FB06200090042025
:10418000019069460948FCF78BFB08B1FCF70AFB74
:10419000112000900520019069460448FCF780FB3F
:1041A00008B1FCF7FFFA1FBD00200140D00000203D
:1041B0000100000F08B500BF002000900A48006809
:1041C00040F48000084908600846006800F4800058
:1041D000009000BF00BF002202213820FDF77CFEC6
:1041E0003820FDF743FE08BD3038024000B587B0E7
:1041F000142102A8FCF726F800BF002001903648E1
:10420000006840F00400344908600846006800F087
:104210000400019000BF00BF00BF002001900846CD
:10422000006840F0800008600846006800F08000E8
:10423000019000BF00BF00BF002001900846006849
:1042400040F0010008600846006800F0010001909D
:1042500000BF00BF00BF002001900846006840F08A
:10426000020008600846006800F00200019000BFEC
:1042700000BF00BF002001900846006840F0080021
:1042800008600846006800F00800019000BF00BF09
:10429000002201211148FDF733FD00224FF4704147
:1042A0000F48FDF72DFD012002900390022004909D
:1042B0000320059002A90948FDF700FB4FF4704068
:1042C00002900120039000200490059002A9044868
:1042D000FDF7F4FA07B000BD303802400004024098
:1042E000000C024000B587B00020039004900590B8
:1042F0000690019002904FF080401449086040F20F
:10430000E73048600021114881603121C1600021FF
:10431000016180218161FEF735FC08B1FCF742FAAA
:104320004FF48050039003A90848FEF78BFD08B1B5
:10433000FCF738FA00200190029001A90348FEF72B
:1043400071FB08B1FCF72EFA07B000BD7801002020
:1043500000B587B00020039004900590069001906E
:1043600002901448144908606320486000211248F4
:10437000816042F20F71C160002101618161FEF72D
:1043800001FC08B1FCF70EFA4FF48050039003A92A
:104390000948FEF757FD08B1FCF704FA0020019028
:1043A000029001A90448FEF73DFB08B1FCF7FAF9B9
:1043B00007B000BD00040040B801002000B587B080
:1043C00000200390049005900690019002901548FB
:1043D0001549086040F2F3104860002112488160DE
:1043E00042F20F71C160002101618161FEF7CAFBD9
:1043F00008B1FCF7D7F94FF48050039003A90A489D
:10440000FEF720FD08B1FCF7CDF9002001900290E5
:1044100001A90548FEF706FB08B1FCF7C3F907B090
:1044200000BD000000080040F801002010B50B4856
:104430000B4908604FF4165048600021084881601D
:10444000C16001610C21416100218161C161FFF7FF
:1044500017F908B1FCF7A6F910BD000000100140E3
:104460003802002010B50B480B4908604FF4E130CA
:104470004860002108488160C16001610C214161F0
:1044800000218161C161FFF7FBF808B1FCF78AF9EF
:1044900010BD0000004400407802002010B50B4819
:1044A0000B4908604FF4E130486000210848816002
:1044B000C16001610C21416100218161C161FFF78F
:1044C000DFF808B1FCF76EF910BD000000140140E0
:1044D000B802002000BFFEE700BFFEE7704770474C
:1044E0002DE9FF5F0446894692469B4601200390D2
:1044F0000CB1012C7ED155208DF800008DF8010003
:104500008DF8024078208DF80B00012C79D199EDBF
:10451000000AB5EEC00AF1EE10FA03D29FED500A80
:1045200089ED000A9AED000AB5EEC00AF1EE10FA24
:1045300003D29FED4B0A8AED000A9BED000AB5EE0F
:10454000C00AF1EE10FA03D29FED450A8BED000A86
:104550000E9890ED000AB5EEC00AF1EE10FA04D202
:104560009FED3F0A0E9880ED000A99ED000ADFEDFD
:104570003D0A20EE200ABCEEC00A10EE100A85B2F9
:104580009AED000ADFED370A20EE200ABCEEC00AE1
:1045900010EE100A86B29BED000ADFED320A20EE23
:1045A000200ABCEEC00A10EE100A87B20E9890EDF9
:1045B000000ADFED2C0A20EE200ABCEEC00A10EE45
:1045C000100A1FFA80F828128DF80300E8B28DF85F
:1045D000040030128DF80500F0B28DF80600381294
:1045E0008DF80700F8B28DF808004FEA28208DF802
:1045F000090001E02EE004E008F0FF008DF80A0059
:1046000023E014BBB9F80050BAF80060BBF80070A2
:104610000E98B0F8008028128DF80300E8B28DF8EB
:10462000040030128DF80500F0B28DF80600381243
:104630008DF80700F8B28DF808004FEA28208DF8B1
:10464000090008F0FF008DF80A000C21684600F010
:10465000EDFC01E000200390039804B0BDE8F09F5A
:10466000000000000000C84270B505460126002485
:104670000AE0285D06490870FF2301220548FFF77C
:10468000E7F900B10026641C032CF2DB304670BD54
:10469000C80000203802002070B50125002400BFAA
:1046A0000AE04FF496720021204600F01BF83220F9
:1046B000FDF7F0F8601CC4B2062CF2DD3220FDF7E5
:1046C000E9F86FF001000649096808610448FEF73F
:1046D00053FB10B10025284670BD2846FCE70000BA
:1046E000B8010020F0B58BB006460C4615460127F0
:1046F00055208DF818008DF819008DF81A600720E4
:104700008DF81B0001208DF81C00E0B28DF81D0013
:10471000210A8DF81E108DF81F50291206A801726B
:10472000122201A9FBF73CFF01A8FCF757F88DF80E
:10473000290001A906A8FBF740FF122101A800F0FB
:10474000C3FC074638460BB0F0BD10B5FDF71AFBA9
:1047500010BD000000B593B0302107A8FBF772FD33
:10476000142102A8FBF76EFD00BF00200190254830
:10477000006840F08050234908600846006800F057
:104780008050019000BF00BF00BF002001901E4874
:10479000006840F440401C4908600846006800F486
:1047A0004040019000BF00BF0220079001200A9006
:1047B00010200B9002200D9000210E9110210F91DE
:1047C0004FF4C8711091042111910821129107A88A
:1047D000FDF70EFE08B1FBF7E5FF0F200290022067
:1047E0000390002004904FF4805005900020069024
:1047F000032102A8FDF71EFC08B1FBF7D3FF13B09D
:1048000000BD0000403802400070004005480068CC
:1048100040F47000034908604FF00060014980399E
:104820000860704788ED00E010B50248FEF776FD9D
:1048300010BD00007801002010B50248FEF76EFDA3
:1048400010BD0000B801002010B50248FEF766FD5B
:1048500010BD0000F801002010B50268204B9842FE
:104860000BD0B0F1804F08D01E4B984205D01E4BA4
:10487000984202D01D4B984203D122F070024B683F
:104880001A43174B984214D0B0F1804F11D0154BFA
:1048900098420ED0144B98420BD0144B984208D03B
:1048A000134B984205D0134B984202D0124B9842BA
:1048B00003D122F44072CB681A4322F080034C6982
:1048C00043EA040202608B68C3620B688362044B94
:1048D000984201D10B6903630123436110BD0000BD
:1048E000000001400004004000080040000C0040AF
:1048F00000400140004401400048014030B50C46F2
:10490000816821F47F4142EA0325254329438160E0
:1049100030BD0A46816821F0700142F00703194357
:104920008160704730B50B461446026A056A25F06F
:1049300001050562816921F0F00141EA041122F0CC
:104940000A021A438161026230BD30B50B4614463B
:10495000056A25F0100505628169026A21F470413B
:1049600041EA043122F0A00242EA031281610262AC
:1049700030BD70B50546AC6B0020E085E084204674
:10498000FEF7B8FD70BD0168C96821F49071026836
:10499000D1600168496921F001010268516120215B
:1049A00080F83A10704710B504462068C06820F0BF
:1049B00040002168C860202084F839002046FFF7B5
:1049C000B3F8002010BD70B5044694F83A002228D0
:1049D0004AD1A068B0F5805F13D1A56A206940B9BB
:1049E00020684068C0F308002880A06A801CA0628C
:1049F00019E020684068C0B22880A06A401CA0620C
:104A000011E0206938B920684068C1B2A26A501C20
:104A1000A062117007E02068406800F07F01A26A80
:104A2000501CA0621170E08D401E80B2E085C8B9B4
:104A30002068C06820F020002168C8602068C06835
:104A400020F480702168C8602068406920F001006F
:104A500021684861202084F83A002046FEF7E4FFF0
:104A6000002070BD0020FCE70220FAE72DE9F05F8E
:104A70000446FE496068884200D804E040F6FB31F5
:104A8000FBA000F05FFCE06818B1E068B0F5005FE3
:104A900000D104E040F6FC31F5A000F053FC2069A1
:104AA00038B12069B0F5806F03D02069B0F5C06FD0
:104AB00000D104E040F6FD31EDA000F043FC4FF6DC
:104AC000F3716069084010B9606900B104E040F614
:104AD000FE31E7A000F036FC2068006920F4405069
:104AE000E1680843216808612169A0680843616999
:104AF0000843E16940EA010A2068C06849F20C6194
:104B0000884340EA0A002168C8602068406920F4B0
:104B10004070A169084321684861E069B0F5004F21
:104B200076D1E2492068884203D0E1492068884272
:104B300070D1FDF7F5FB814602206168A0FB0151B1
:104B40000B461920A9FB00712A463846FBF742FBA9
:104B50006421B0FBF1F0070102206168A0FB015164
:104B60000B461920A9FB00B12A465846FBF732FB39
:104B7000804602206168A0FB01510B461920A9FB69
:104B800000B12A465846FBF725FB6421B0FBF1F043
:104B900000EBC00101EB0010A8EB8000322101EB1B
:104BA000C0006421B0FBF1F000F0F80007EB400713
:104BB00002206168A0FB01510B461920A9FB00B13E
:104BC0002A465846FBF706FB804602206168A0FB98
:104BD00001511920A9FB00B084462A460B465846CD
:104BE0006146FBF7F7FA6421B0FBF1F000EBC0017E
:104BF00001EB0010A8EB8000322101EBC000642122
:104C0000B0FBF1F000F007003844216888607EE1D5
:104C10006EE0FFE7FDF774FB814602206168A0FBB0
:104C200001510B461920A9FB00712A463846FBF7B3
:104C3000D1FA6421B0FBF1F0070102206168A0FB0A
:104C400001510B461920A9FB00B12A465846FBF733
:104C5000C1FA804602206168A0FB0150034619207A
:104C6000A9FB00B001462A465846FBF7B3FA642177
:104C7000B0FBF1F000EBC00101EB0010A8EB8000ED
:104C8000322101EBC0006421B0FBF1F000F0F8002C
:104C900007EB400702206168A0FB01510B46192079
:104CA000A9FB00B12A465846FBF794FA8046022039
:104CB0006168A0FB015003461920A9FB00B12A46F8
:104CC0005846FBF787FA6421B0FBF1F000EBC00116
:104CD00001EB0010A8EB8000322101EBC000642141
:104CE000B0FBF1F000F007003844216888600EE165
:104CF0006E492068884203D06D492068884271D18E
:104D0000FDF70EFB814604206168A0FB01510B46B4
:104D10001920A9FB00712A463846FBF75BFA0746C3
:104D200004206168A0FB015003461920A9FB00B0D4
:104D300001462A465846FBF74DFA6421B0FBF1F0D4
:104D400000EBC00101EB0010A7EB8000322101EB6A
:104D500000106421B0FBF1F000F0F007042061685E
:104D6000A0FB01511920A9FB00B084462A460B463E
:104D700058466146FBF72EFA6421B0FBF1F007EBD1
:104D8000001704206168A0FB015003461920A9FB0D
:104D900000B001462A465846FBF71CFA804604201C
:104DA0006168A0FB015003461920A9FB00B0014631
:104DB0002A465846FBF70EFA6421B0FBF1F000EBEF
:104DC000C00101EB0010A8EB8000322101EB0010C4
:104DD0006421B0FBF1F000F00F00384421688860D6
:104DE00095E0FFE7FDF78CFA814604206168A0FB9F
:104DF000015003461920A9FB007001462A46384697
:104E0000FBF7E8F9074604206168A0FB0150034660
:104E10001920A9FB00B001462A465846FBF7DAF9EB
:104E20006421B0FBF1F000EBC00101EB0010A7EB37
:104E30008000322101EB00106421B0FBF1F000F0A2
:104E4000F00704206168A0FB015003461920A9FB6C
:104E500000B001462A465846FBF7BCF96421B0FB76
:104E6000F1F007EB00170420616823E0A037A000F1
:104E70002E2E2F447269766572732F53544D333240
:104E8000463478785F48414C5F4472697665722F8A
:104E90005372632F73746D3332663478785F686150
:104EA0006C5F756172742E63000000000010014099
:104EB00000140140A0FB015003461920A9FB00B0DB
:104EC00001462A465846FBF785F98046042061686A
:104ED000A0FB015003461920A9FB00B001462A4659
:104EE0005846FBF777F96421B0FBF1F000EBC00105
:104EF00001EB0010A8EB8000322101EB00106421CF
:104F0000B0FBF1F000F00F00384421688860BDE884
:104F1000F09F014691F8390021282CD18868B0F51E
:104F2000805F0FD10A6A1088C0F308000B685860D0
:104F3000086918B9086A801C086209E0086A401C00
:104F4000086205E00B6A581C086218780B68586004
:104F5000C88C401E80B2C88458B90868C06820F068
:104F600080000B68D8600868C06840F040000B689B
:104F7000D860002070470220FCE72DE9F04104468C
:104F80000D4617469846069E21E0701CF8B12EB1DA
:104F9000FCF7F2FEA0EB0800B04218D92068C06808
:104FA00020F4D0702168C8602068406920F00100BA
:104FB00021684861202084F8390084F83A0000BF55
:104FC000002084F8380000BF0320BDE8F08120688D
:104FD00000682840A84201D1012000E00020B8422A
:104FE000D3D00020F1E7000010B50248FEF79EFA8A
:104FF00010BD00003802002010B50124012205492F
:105000000548FEF7D9FC10B10024204610BD20460B
:10501000FCE700007C0000203802002010B50248A8
:10502000FEF784FA10BD00007802002070B5044637
:105030000D46012664232A4621460448FEF708FD52
:1050400010B10026304670BD3046FCE778020020E3
:1050500010B50124012205490548FEF7ADFC10B149
:105060000024204610BD2046FCE700007E00002002
:105070007802002010B50248FEF758FA10BD000073
:10508000B802002000200949087009490870022070
:105090000849087000200849087008490870084944
:1050A00008700849087048707047000076000020BA
:1050B0007700002078000020790000207A0000208E
:1050C0007B0000200203002070B504460D46012637
:1050D00064232A4621460448FEF7BAFC10B1002694
:1050E000304670BD3046FCE7B802002010B5012400
:1050F000012205490548FEF75FFC10B10024204657
:1051000010BD2046FCE7000075000020B80200201A
:1051100000BFFEE70FB4054B10B503A9044A02987F
:1051200000F034F810BC5DF814FB0000895300084F
:105130008000002002480068C0F302207047000091
:105140000CED00E010B5002804DB0A07130E054A39
:10515000135406E00A07140E034A00F00F031B1F46
:10516000D45410BD00E400E018ED00E002E008C8EF
:10517000121F08C1002AFAD170477047002001E0D1
:1051800001C1121F002AFBD1704700002DE9FF4F1B
:105190008BB09A460F460546002606E025280BD020
:1051A00052460D9990476D1C761C28780028F5D141
:1051B0000FB03046BDE8F08F0024A04601226049C0
:1051C00000E0044315F8013F203B02FA03F00842D7
:1051D000F7D128782E2817D115F8010F44F00404D0
:1051E0002A280ED06FF02F022878A0F1300109296B
:1051F0000AD808EB880102EB410100EB01086D1CA5
:10520000F2E757F8048B6D1C287869283ED006DC3D
:105210000028CDD063280BD0642804D136E0732851
:1052200010D075284BD052460D999047761C85E0DA
:1052300017F8040B8DF8000000208DF80100E946F6
:10524000012003E057F8049B4FF0FF3061074FF057
:10525000000401D40AE0641C44450DDA8442FADB00
:1052600019F804100029F6D106E0641C8442FCDB26
:1052700019F804100029F8D1264404E019F8010BAC
:1052800052460D999047641EF8D257E001CF4FF077
:105290000A0B002802DA40422D2102E0210504D544
:1052A0002B218DF82410012103E0E10705D02021F6
:1052B000F7E70DF1200908910CE00021F9E701CF93
:1052C0004FF00A0BF9E75946FAF7C7FF01F1300230
:1052D00009F8012D0028F6D1ADEB090000F1200BF3
:1052E000600701D44FF00108D84502DDA8EB0B00A0
:1052F00000E000208046002406E009A85246005D38
:105300000D999047641C761C08988442F5DB04E0F4
:10531000302052460D999047761CB8F10001A8F153
:105320000108F5DC05E019F8010B52460D9990478C
:10533000761CBBF10001ABF1010BF4DC6D1C34E712
:105340000928010004460D462A46214602A0FFF71F
:10535000E1FE00BFFEE7000057726F6E67207061CC
:1053600072616D65746572732076616C75653A2043
:1053700066696C65202573206F6E206C696E6520F0
:1053800025640D0A00000000074A126802F08072CE
:1053900042B100BF4FF060421268002AFAD04FF0CD
:1053A0006043187070470000FCED00E008B5FCF7A2
:1053B000F5FCFFF7CFF9FEF719FFFEF7FBFEFEF74E
:1053C00093FEFFF733F8FFF74DF8FFF767F8FEF7A6
:1053D00089FFFEF7BDFFFEF7F1FFFEF7A9FC1A49B2
:1053E00008700846007800B103E0DE2117A0FFF73F
:1053F000A9FF1548007838B919A0FFF78BFE0020E7
:1054000022490870FBF7CEF921A0FFF783FE0120A7
:105410001E49087017E04FF47A70FCF73BFA2748F2
:10542000274B284A284900900020FFF759F84FF4ED
:105430007A70FCF72FFA2548254B264A264900901A
:105440000120FFF74DF8E6E7000000202E2E2F4345
:105450006F72652F5372632F6D61696E2E6300004A
:105460004661696C656420746F20696E6974696156
:105470006C697A6520486172647761726520507248
:105480006F6365647572650D0A00000001000020FD
:105490005375636365737320746F20696E697469F3
:1054A000616C697A65204861726477617265205029
:1054B000726F6365647572650D0A00000800002054
:1054C0000600002004000020020000203800002018
:1054D000340000202C0000202800002000061016B8
:1054E00000061016FFAA52FFAA67FFAA60FFAA6172
:1054F000FFAA620000000000000000010203040691
:105500000708090000000001020304002C550008F0
:1055100000000020D00000006C510008FC5500087D
:10552000D0000020400B00007C5100080100E40C7A
:10553000540BDC05E803200390010000000000008C
:10554000000000000000000000000000000000005B
:1055500000000000856BB54200002F4200000000F3
:1055600000004C41EC51054200000000000000002A
:10557000000000000000000000000000000000002B
:10558000000000000000000000000000100000000B
:10559000010000000000000000000000000000000A
:1055A00000000000020000000001000000000000F8
:1055B00000000000000000000000000000000000EB
:1055C00000000000000000000000000000000000DB
:1055D00000000000000000000000000000000000CB
:1055E00000000000000000000000000000000000BB
:0C55F00000000000000000000024F40097
:040000050800019955
:00000001FF
