:020000040800F2
:10000000F8360020B10100088D5C0008F9530008A3
:10001000895C000835070008358E000800000000E4
:10002000000000000000000000000000815F0008E8
:100030009B0A000800000000375F00080762000804
:10004000CB010008CB010008CB010008CB01000860
:10005000CB010008CB010008CB010008CB01000850
:10006000CB010008CB010008CB010008CB01000840
:10007000CB010008CB010008CB010008CB01000830
:10008000CB010008CB010008290500080000000092
:10009000000000000000000000000000CB0100088C
:1000A000CB010008CB010008CB010008CB01000800
:1000B000E5620008F562000805630008CB0100084E
:1000C000CB010008CB010008CB010008CB010008E0
:1000D000CB010008A56A0008D96A000800000000EA
:1000E000CB010008CB010008CB0100080000000094
:1000F000000000000000000000000000CB0100082C
:1001000000000000CB010008CB010008CB01000873
:1001100000000000000000000000000000000000DF
:10012000F9080008CB010008CB010008CB0100084A
:10013000CB010008000000000000000000000000EB
:10014000000000000000000000000000915C0008BA
:10015000CB010008CB010008CB0100080D6B0008A3
:10016000CB010008CB0100080000000000000000E7
:10017000000000000000000000000000000000007F
:1001800000000000CB01000800000000000000009B
:10019000CB010008CB010008DFF810D000F0A4F874
:1001A0000048004721910008AFF30080F836002096
:1001B0000648804706480047FEE7FEE7FEE7FEE701
:1001C000FEE7FEE7FEE7FEE7FEE7FEE7C96200089E
:1001D000990100082DE9F05F0546002092469B46F4
:1001E00088460646814640241BE02846414647464D
:1001F000224600F069F853465A46C01A914110D37E
:1002000011461846224600F050F82D1A67EB0108F7
:100210004F4622460120002100F047F817EB000965
:100220004E41201EA4F10104DFDC484631462A4637
:100230004346BDE8F09F40EA01039B0703D009E075
:1002400008C9121F08C0042AFAD203E011F8013BC2
:1002500000F8013B521EF9D27047D2B201E000F81B
:10026000012B491EFBD270470022F6E710B513465A
:100270000A4604461946FFF7F0FF204610BD30B588
:100280000B46014600202022012409E021FA02F554
:100290009D4205D303FA02F5491B04FA02F52844EE
:1002A000151EA2F10102F1DC30BD202A04DB203A48
:1002B00000FA02F1002070479140C2F1200320FAB9
:1002C00003F3194390407047202A04DB203A21FAB7
:1002D00002F00021704721FA02F3D040C2F120025F
:1002E0009140084319467047064C074D06E0E06808
:1002F00040F0010394E8070098471034AC42F6D36D
:10030000FFF74EFFA0920008C092000870B58C184D
:1003100010F8015B15F0070301D110F8013B2A1119
:1003200006D110F8012B03E010F8016B01F8016B06
:100330005B1EF9D12B0705D40023521E0DD401F802
:10034000013BFAE710F8013BCB1A921C03E013F8CB
:10035000015B01F8015B521EF9D5A142D8D3002000
:1003600070BD70B50546AC6B206C00F0500050BB02
:10037000206C40F4007020642068806800F04050D9
:10038000E8B9207ED8B92068C06A00F4700020B1B6
:100390002068806800F4806088B92068406820F098
:1003A000200021684860206C20F480702064206C5C
:1003B00000F4805018B9206C40F001002064204601
:1003C00000F046FF0BE0206C00F0100018B1204652
:1003D00000F045FF03E0A06BC16C2846884770BD64
:1003E00070B50546AC6B40202064606C40F00400A2
:1003F0006064204600F033FF70BD70B50446A56B05
:10040000284600F02BFF70BD10B50124294801F0EB
:1004100027FA0121274801F0C1F92748007830B9AF
:1004200000222103254802F075F902243FE0012251
:100430001103224802F06EF92148008840F6E44199
:10044000484340F6FF71B0FBF1F01E4908801C489C
:10045000408840F6E441484340F6FF71B0FBF1F0BC
:10046000194908801648808840F6E441484340F620
:10047000FF71B0FBF1F0154908801148C08840F6C3
:10048000E441484340F6FF71B0FBF1F010490880A9
:100490000B48008940F6E441484340F6FF71B0FB49
:1004A000F1F00C490880002003490870012420461F
:1004B00010BD00009402002096000020000C0240B5
:1004C000BC0400208C0000208E0000209000002042
:1004D000920000209400002001460120014A128869
:1004E0000A8070478C00002001460120014A1288D2
:1004F0000A8070478E00002001460120014A1288C0
:100500000A8070479000002001460120014A1288AD
:100510000A8070479200002001460120014A12889B
:100520000A8070479400002010B5024800F098FE41
:1005300010BD00009402002070B504465B4D686851
:1005400020F440306860686861680843686020682B
:10055000406820F480702168486020684168206904
:1005600041EA0020216848602068406820F040701F
:100570002168486020684068A16808432168486095
:100580002068806820F400602168886020688068A6
:10059000E1680843216888604549A06A884218D00C
:1005A0002068806820F0706021688860206880681A
:1005B000A16A0843216888602068806820F0405064
:1005C0002168886020688068E16A08432168886043
:1005D0000BE02068806820F07060216888602068E7
:1005E000806820F04050216888602068806820F092
:1005F00002002168886020688168207E41EA40000E
:10060000216888602020005DF8B1606A18B1606AD6
:10061000082800D804E040F2757126A008F024FDF7
:100620002068406840F400602168486020684068A5
:1006300020F460402168486020684168606A401E7C
:1006400041EA40302168486005E02068406820F4B5
:100650000060216848602068C06A20F4700021684A
:10066000C8622068C16AA08B401E41EA0050216820
:10067000C8622068806820F4007021688860206863
:10068000816894F8300041EA402021688860206841
:10069000806820F4806021688860206881686069D3
:1006A00041EA80202168886070BD0000002301407D
:1006B0000100000F2E2E2F447269766572732F533E
:1006C000544D3332463478785F48414C5F44726908
:1006D0007665722F5372632F73746D33326634787C
:1006E000785F68616C5F6164632E630010B50124FC
:1006F000E01E0C49096808610A4803F075FE10B154
:100700000020044610BD05220749084801F064F99D
:1007100010B100200446F5E7002005490870204686
:10072000F0E700003C030020BC04002094020020FD
:100730009600002000BFFEE70346042B15D007DC1F
:100740007BB1012B0ED0022B0DD0032B12D10BE06D
:10075000202B0BD0212B0AD0222B09D0232B09D1FF
:1007600007E008E007E006E005E004E003E002E05F
:1007700001E000E000BF00BF00207047002070478C
:1007800010B500220449054806F05EFB0449034801
:1007900006F053FB002010BDEC1200201C060020C8
:1007A000EC0A002070B504460D46288881B2204628
:1007B00000F012F82146044806F03FFB024806F01C
:1007C00017FB002070BD00001C06002010B503467A
:1007D0000C460021084610BD2DE9F04104460D46A7
:1007E00000260A48D0F8BC72D7F8140210B10120D4
:1007F000BDE8F0812A462146044806F025FB03485F
:1008000006F0A9FB06463046F2E700001C06002071
:1008100070B5034601251C46002002E0265C0E54FC
:10082000401C9042FADB284670BD70B502460B466C
:1008300001250021144600BF02E0605C5854491CA9
:10084000D078801C8842F8DC507C5854481C02E068
:1008500000261E54401C1228FADB284670BD0000FA
:1008600010B5014601201F4A13781278521C1D4C06
:1008700022701D4AD1541278552A04D000222346F2
:100880001A70002010BD174A12780B2A01DA0220D4
:10089000F8E7154A5278512A04D0522A0AD0532A2E
:1008A00018D10FE0114A104B9B1C1C6814605B6848
:1008B00053600FE00E4A0C4B9B1C1C6814605B6875
:1008C000536007E00B4A084B9B1C1C6814605B6874
:1008D000536000BF00BF0022024B1A70012000BF0E
:1008E000D0E70000AC000020D8040020AE000020BB
:1008F000B6000020BE00002010B5024801F062F9E9
:1009000010BD0000DC0200200146087810381823D2
:10091000B0FBF3F20848805CC865032A05D9086873
:100920006FF30900001D886503E008686FF3090094
:100930008865886D704700007092000801460020AD
:100940008A6A8B69CBB932B1012A0DD0022A03D051
:10095000032A10D10EE000BFCB6A03F08073B3F11D
:10096000807F00D1012007E0CB6AB3F1C07F00D1C6
:10097000012001E000E000BF34E08B69B3F5005FC7
:100980001AD132B1012A07D0022A03D0032A11D189
:100990000AE000BF01200EE0CB6A03F08073B3F1E0
:1009A000807F00D1012006E0CB6AB3F1C07F00D187
:1009B000012000E000BF15E032B1012A05D0022A73
:1009C00004D0032A0CD103E000BF00BF012008E0DF
:1009D000CB6A03F08073B3F1807F00D1012000E087
:1009E00000BF00BF704730B50468246824F4802439
:1009F00005682C60046863608468402C04D1046836
:100A0000A2600468E16003E00468A1600468E26039
:100A100030BD00000A469FED130A80ED030A002155
:100A200012E002EB810393ED000A00EB810383EDFA
:100A3000000A90ED030A00EB8103D3ED000A30EECB
:100A4000200A80ED030A491C0329EADB90ED030A22
:100A5000F0EE080A80EE201A80ED041A90ED040AE8
:100A6000704700000000000010B502460020D08052
:100A700000BF09E031F8103022F81030D38832F886
:100A800010402344D380401C0328F3DBD088032389
:100A900090FBF3F01081108910BD704716E04FF401
:100AA00000510B4801F000FE4FF48051084801F05E
:100AB000FBFD4FF48041064801F0F6FD4FF4004184
:100AC000034801F0F1FD642001F0BAFBE7E7000004
:100AD000000C02402DE9FE4304460D4616461F4613
:100AE000DDF828804FF0010900200090019002906D
:100AF000FFF78AFC8146B9F1010F02D04846BDE8F4
:100B0000FE833D480078022803DB00203A49087044
:100B100004E039480078401C374908703749364AA4
:100B2000127801EB4200FFF7D7FC3549324A1278C0
:100B300001EB4200FFF7D8FC32492F4A127801EB53
:100B40004200FFF7D9FC30492B4A127801EB4200F2
:100B5000FFF7DAFC2D49284A127801EB4200FFF733
:100B6000DBFC26496846FFF77FFF2080684605F0DA
:100B70007FF823496846FFF777FF2880684605F02D
:100B800077F820496846FFF76FFF3080684605F028
:100B90006FF81D496846FFF767FF3880684605F023
:100BA00067F81A496846FFF75FFFA8F80000684633
:100BB00005F05EF8208811490F4A127821F81200DA
:100BC00029880F480C4A127820F8121030880D49F5
:100BD000094A127821F8120038880B49064A12781F
:100BE00021F81200B8F800100848034A127820F8DB
:100BF0001210484683E700000C010020EE000020A0
:100C0000F4000020FA00002000010020060100206E
:100C1000014600230022022204E0885C184483B2CB
:100C2000501CC2B2C878801C9042F6DCD843C0B2D7
:100C3000704700002DE9F04786B004460D46164681
:100C40001F46DDE90E894FF0010A142101A8FFF7C4
:100C50000BFB59480078022803DB00205649087036
:100C600004E055480078401C5349087000F0CCF867
:100C700052485149097800EB810080ED000A00F0EC
:100C8000FFF84F484C49097800EB810080ED000ADD
:100C900000F032F94B484849097800EB810080EDBB
:100CA000000A00F0CFF848484349097800EB81007A
:100CB00080ED000A00F002F944483F49097800EB52
:100CC000810080ED000A00F035F941483A49097881
:100CD00000EB810080ED000A384901A8FFF79AFE79
:100CE00084ED000A01A804F0ADFF354901A8FFF723
:100CF00091FE85ED000A01A804F0A4FF314901A886
:100D0000FFF788FE86ED000A01A804F09BFF2E493C
:100D100001A8FFF77FFE87ED000A01A804F092FF0B
:100D20002A4901A8FFF776FE88ED000A01A804F021
:100D300089FF274901A8FFF76DFE89ED000A01A888
:100D400004F080FF94ED000A1C481B49097800EB71
:100D5000810080ED000A95ED000A194816490978CE
:100D600000EB810080ED000A96ED000A154812495B
:100D7000097800EB810080ED000A97ED000A124827
:100D80000D49097800EB810080ED000A98ED000A1A
:100D90000E480949097800EB810080ED000A99EDC1
:100DA000000A0B480449097800EB810080ED000A35
:100DB000504606B0BDE8F0870E010020D4050020A3
:100DC000E0050020EC050020F805002004060020C6
:100DD0001006002070B50A480468001D0568001D53
:100DE0000668344454B108220649204604F0DEFC6B
:100DF000042204491031284604F0D8FC70BD0000DC
:100E0000107AFF1F4A0100200A48B0F9000000EEE6
:100E1000100AB8EEC00A9FED081AC0EE010A9FED55
:100E2000070A20EE800A064880ED000A90ED000ACD
:100E300070470000BE00002000000047000034435F
:100E4000C80000200A48B0F9000000EE100AB8EE11
:100E5000C00A9FED081AC0EE010A9FED070A20EEB6
:100E6000800A064880ED000A90ED000A70470000F5
:100E7000B6000020000000470000FA44E000002017
:100E80000A48B0F9020000EE100AB8EEC00A9FED61
:100E9000081AC0EE010A9FED070A20EE800A0648F4
:100EA00080ED000A90ED000A70470000BE000020AF
:100EB0000000004700003443CC0000200A48B0F98D
:100EC000020000EE100AB8EEC00A9FED081AC0EE4C
:100ED000010A9FED070A20EE800A064880ED000A0D
:100EE00090ED000A70470000B600002000000047A7
:100EF0000000FA44E40000200A48B0F9040000EEC3
:100F0000100AB8EEC00A9FED081AC0EE010A9FED64
:100F1000070A20EE800A064880ED000A90ED000ADC
:100F200070470000BE00002000000047000034436E
:100F3000D00000200A48B0F9040000EE100AB8EE14
:100F4000C00A9FED081AC0EE010A9FED070A20EEC5
:100F5000800A064880ED000A90ED000A7047000004
:100F6000B6000020000000470000FA44E80000201E
:100F700010B50124164805F0D5F804460CB92046F2
:100F800010BD04B103E0A82112A008F06DF86420A0
:100F900001F056F91B4805F0C5F804400CB920468D
:100FA000EEE704B103E0B6210AA008F05DF80A20DC
:100FB00001F046F96FF00100134909680861124811
:100FC00003F012FA10B100242046D9E72046D7E7F3
:100FD0007B9200082E2E5C48617264776172655CBA
:100FE00055534152545F4779726F73636F70655CFC
:100FF00055534152545F4779726F73636F70652028
:101000002E63000078920008BC03002070470000A7
:10101000F8B505460C46002000902068122800D83C
:1010200004E04FF4CB6177A008F01EF8606818B1B7
:101030006068102800D804E040F2596171A008F0FF
:1010400013F8A068A0B1A068012811D0A0680228F8
:101050000ED0A06803280BD0A068042808D0A06890
:10106000052805D0A068062802D0A068072800D16E
:1010700004E040F25A6163A007F0F6FF00BF95F864
:101080003C00012801D10220F8BD012085F83C0078
:1010900000BF2068092816D92868C06821780A3955
:1010A00001EB41020721914088432968C8602178FB
:1010B0000A3901EB4101A06888402968C9680843E2
:1010C0002968C86013E028680069217801EB4102B3
:1010D00007219140884329680861217801EB41018B
:1010E000A068884029680969084329680861606820
:1010F000072817D22868406B2179491E01EB81022D
:101100001F219140884329684863208880B2217953
:10111000491E01EB810188402968496B0843296811
:10112000486331E060680D2817D22868006B217988
:10113000C91F01EB81021F21914088432968086380
:10114000208880B22179C91F01EB8101884029687C
:10115000096B08432968086316E02868C06A21798A
:101160000D3901EB81021F21914088432968C86233
:10117000208880B221790D3901EB810188402968EE
:10118000C96A08432968C8622C4E2D4928688842DC
:101190000AD12068122807D1706820F4000070601E
:1011A000706840F48000706025492868884222D128
:1011B00024492068884202D0206811281BD1706819
:1011C00020F480007060706840F4000070601D4979
:1011D000206888420FD11C4800681C49B0FBF1F020
:1011E00000EB80004000009002E00098401E00905C
:1011F00000980028F9D100BF002085F83C0000BF0E
:1012000000BF41E72E2E2F447269766572732F530B
:10121000544D3332463478785F48414C5F447269AC
:101220007665722F5372632F73746D333266347820
:10123000785F68616C5F6164632E63000023014026
:1012400000200140120000101001002040420F0059
:101250000121014A117070479600002070477047C5
:1012600070B5044600250026207E10B1207E01289E
:1012700000D104E040F29D4168A007F0F5FEE0696E
:1012800018B1E069102800D804E040F29E4163A044
:1012900007F0EAFE6069012804D0606910B1606956
:1012A000022800D104E040F29F415CA007F0DCFE80
:1012B00020680068C0F3400520684068C0F340160D
:1012C00095B38EB3206C00F0100018B9206C40F478
:1012D000007020642068806800F04050E8B9207EEB
:1012E000D8B92068C06A00F4700020B12068806816
:1012F00000F4806088B92068406820F020002168F0
:101300004860206C20F480702064206C00F48050D1
:1013100018B9206C40F0010020642046FFF798FFC8
:101320006FF012002168086020680068C0F3800533
:1013300020684068C0F3C016E5B3DEB3206C00F04F
:10134000100018B9206C40F40050206420688068B8
:1013500000F4401038BB2068806B00F4401020B1CE
:101360002068806800F48060E8B92068406800F474
:101370008060C0B92068806800F0405098B9207E35
:1013800088B92068406820F0800021684860206C9F
:1013900020F480502064206C00F4807018B9206C18
:1013A00040F0010020642046FFF730FE6FF00C0093
:1013B000216808602068006800F001052068406826
:1013C000C0F3801685B17EB12068006800F001008E
:1013D00050B1206C40F480302064204600F070F959
:1013E0006FF001002168086020680068C0F34015B4
:1013F00020684068C0F380667DB176B1606C40F0D3
:10140000020060646FF02000216808602046FFF74A
:1014100026FF6FF020002168086070BD2E2E2F443B
:101420007269766572732F53544D3332463478782F
:101430005F48414C5F4472697665722F5372632F27
:1014400073746D3332663478785F68616C5F6164A1
:10145000632E630070B5044600250CB9012070BDF1
:1014600087492068884200D104E040F2431185A0FA
:1014700007F0FAFD606858B16068B0F5803F07D0AA
:101480006068B0F5003F03D06068B0F5403F00D120
:1014900004E04FF4A2717BA007F0E6FDA06858B10C
:1014A000A068B0F1807F07D0A068B0F1007F03D0C2
:1014B000A068B0F1407F00D104E040F2451171A076
:1014C00007F0D2FD206910B12069012800D104E0A5
:1014D0004FF4A3716BA007F0C7FD207E10B1207EF2
:1014E000012800D104E040F2471166A007F0BCFDDE
:1014F000A06AE8B3A06AB0F1807F3DD0A06AB0F1E5
:10150000007F39D0A06AB0F1407F35D0A06AB0F139
:10151000806F31D0A06AB0F1A06F2DD0A06AB0F179
:10152000C06F29D0A06AB0F1E06F25D0A06AB0F1F9
:10153000006F21D0A06AB0F1106F1DD0A06AB0F189
:10154000206F19D0A06AB0F1306F15D0A06AB0F149
:10155000406F11D0A06AB0F1506F0DD0A06AB0F109
:10156000606F09D0A06AB0F1706F05D0534900E0F8
:1015700002E0A06A884200D104E04FF4A47141A0C7
:1015800007F072FDE06818B1E068B0F5006F00D1B7
:1015900004E040F249113BA007F066FDE06918B194
:1015A000E069102800D804E04FF4A57135A007F0D9
:1015B0005BFD94F8300018B194F83000012800D198
:1015C00004E040F24B112FA007F04EFD60690128A6
:1015D00004D0606910B16069022800D104E04FF4C2
:1015E000A67128A007F040FD2020005D18B1202042
:1015F000005D012800D104E040F24D1121A007F068
:1016000033FD2E49A06A884213D0E06A58B1E06ADF
:10161000B0F1805F07D0E06AB0F1005F03D0E06A0C
:10162000B0F1405F00D104E040F2511115A007F085
:101630001BFD206C30B9204600F044F800206064A7
:1016400084F83C00206C00F0100088B9206C20F475
:10165000885040F0020020642046FEF76DFF002015
:101660006064206C20F0020040F00100206400E083
:10167000012500BF002084F83C0000BF2846EEE6AC
:10168000002001402E2E2F447269766572732F530D
:10169000544D3332463478785F48414C5F44726928
:1016A0007665722F5372632F73746D33326634789C
:1016B000785F68616C5F6164632E63000100000FF6
:1016C0007047000010B586B00446142101A8FEF74B
:1016D000CBFD2D492068884253D100BF00200090E7
:1016E0002A48006840F4807028490860084600686D
:1016F00000F48070009000BF00BF00BF0020009089
:1017000022481438006840F001002049143908606C
:101710000846006800F00100009000BF00BF6A208A
:101720000190032002900020039001A9184800F0C6
:101730009BFD1848184908600020486000211648A1
:101740008160C1604FF4806101614900416189009D
:1017500081614911C161490201620021416200F0C9
:1017600051FB08B1FFF79AF900BF0B48A0638463EF
:1017700000BF00221146122001F0B8F8122001F03B
:101780007FF806B010BD0000002001404438024040
:101790000000024010640240DC02002070B50446E4
:1017A0000D4600262068806800F48060B0F5806FE8
:1017B00011D12068806800F48070B0F5807F0AD174
:1017C000206C40F02000206400BF002084F83C0022
:1017D00000BF012070BD00F0D9FF064612E0681C72
:1017E00080B125B100F0D2FF801BA8420AD9206C3D
:1017F00040F00400206400BF002084F83C0000BFDB
:101800000320E7E72068006800F002000228E6D124
:101810006FF0120021680860206C40F400702064B2
:101820002068806800F04050B8B9207EA8B92068D0
:10183000C06A00F4700020B12068806800F4806005
:1018400058B9206C20F480702064206C00F4805023
:1018500018B9206C40F0010020640020BAE70000B5
:1018600038B5044600200090207E10B1207E01286B
:1018700000D104E040F2D32145A007F0F5FBE06A77
:1018800058B1E06AB0F1805F07D0E06AB0F1005F64
:1018900003D0E06AB0F1405F00D104E04FF435714D
:1018A0003BA007F0E1FB00BF94F83C00012801D108
:1018B000022038BD012084F83C0000BF2068806809
:1018C00000F00100A0B92068806840F001002168A4
:1018D00088603D4800683D49B0FBF1F000EB4000F6
:1018E000009002E00098401E009000980028F9D176
:1018F0002068806800F00100B8B3206C40F20161FC
:10190000884340F4807020642068406800F4806060
:1019100028B1206C20F4005040F480502064206CEA
:1019200000F48050B0F5805F04D1606C20F00600B8
:10193000606401E00020606400BF002084F83C0087
:1019400000BF234D6FF0220021680860686800F036
:101950001F0058B92068806800F0405028B92068FE
:10196000806840F08040216888600EE01949206856
:1019700088420AD12068806800F0405028B9206869
:10198000806840F0804021688860002091E7000076
:101990002E2E2F447269766572732F53544D333255
:1019A000463478785F48414C5F4472697665722F9F
:1019B0005372632F73746D3332663478785F686165
:1019C0006C5F6164632E63001001002040420F00D1
:1019D0000023014000200140F8B504460D4616469C
:1019E00000200090207E10B1207E012800D104E06C
:1019F0004FF4A86154A007F037FBE06A58B1E06AE1
:101A0000B0F1805F07D0E06AB0F1005F03D0E06A18
:101A1000B0F1405F00D104E040F241514AA007F02C
:101A200023FB00BF94F83C00012801D10220F8BD3F
:101A3000012084F83C0000BF2068806800F00100AD
:101A4000A0B92068806840F00100216888604C4897
:101A500000684C49B0FBF1F000EB4000009002E060
:101A60000098401E009000980028F9D120688068F6
:101A700000F00100002864D0206C40F2016188432E
:101A800040F4807020642068406800F4806028B1D1
:101A9000206C20F4005040F480502064206C00F44E
:101AA0008050B0F5805F04D1606C20F00600606467
:101AB00001E00020606400BF002084F83C0000BF0B
:101AC000314F3248A16BC8633148A16B086431487B
:101AD000A16BC8646FF0220021680860206840682C
:101AE00040F08060216848602068806840F4807021
:101AF00021688860226802F14C0133462A46A06BB7
:101B000000F02EFB786800F01F0058B9206880684C
:101B100000F0405028B92068806840F0804021687B
:101B200088600EE01C49206888420AD120688068DD
:101B300000F0405028B92068806840F0804021685B
:101B40008860002073E700002E2E2F4472697665AE
:101B500072732F53544D3332463478785F48414C7A
:101B60005F4472697665722F5372632F73746D339D
:101B700032663478785F68616C5F6164632E6300FD
:101B80001001002040420F000023014063030008C1
:101B9000FB030008E103000800200140014691F822
:101BA0003500022803D080204865012070470520B9
:101BB00081F835000868006820F001000A681060AC
:101BC0000020F3E7F8B50446002000908C48006838
:101BD0004FF41651B0FBF1F7A56D2E6894F85C1028
:101BE00008208840304098B12068006800F0040068
:101BF00070B12068006820F004002168086094F843
:101C00005C1008208840A860606D40F001006065AD
:101C100094F85C1001208840304068B12068406929
:101C200000F0800040B194F85C1001208840A8606A
:101C3000606D40F00200606594F85C1004208840FC
:101C4000304068B12068006800F0020040B194F8AC
:101C50005C1004208840A860606D40F0040060655E
:101C600094F85C1010208840304078B320680068F9
:101C700000F0080050B394F85C1010208840A86071
:101C80002068006800F4802080B12068006800F4BB
:101C9000002028B9206CC8B12046216C884715E087
:101CA000A06C98B12046A16C88470FE020680068BE
:101CB00000F4807028B92068006820F008002168CE
:101CC0000860206C10B12046216C884794F85C10A5
:101CD000202088403040002865D02068006800F04F
:101CE000100000285FD094F85C1020208840A86085
:101CF00094F83500052828D12068006820F01600E7
:101D0000216808602068406920F0800021684861EF
:101D1000206C08B9A06C28B12068006820F0080089
:101D20002168086094F85C103F208840A86000BFDC
:101D3000002084F8340000BF012084F83500206DB5
:101D400010B12046216D8847F8BD2068006800F476
:101D5000802080B12068006800F4002028B9606C01
:101D600010B12046616C88471DE0E06BD8B1204679
:101D7000E16B884717E02068006800F4807068B95C
:101D80002068006820F010002168086000BF002073
:101D900084F8340000BF012084F83500E06B10B1F6
:101DA0002046E16B8847606D38B3606D00F001003C
:101DB000F0B1052084F835002068006820F00100AB
:101DC0002168086000BF0098401C0090B84200D90C
:101DD00005E02068006800F001000028F3D100BF92
:101DE00000BF002084F8340000BF012084F83500D3
:101DF000E06C10B12046E16C884700BFA4E700000A
:101E0000100100202DE9F0410446002500F0BEFC41
:101E1000074614B90120BDE8F081C0492068884216
:101E200049D0BE4918312068884244D0BB4930317E
:101E3000206888423FD0B9494831206888423AD06A
:101E4000B64960312068884235D0B449783120687D
:101E5000884230D0B1499031206888422BD0AF49B8
:101E6000A8312068884226D0AD492068884222D017
:101E7000AB491831206888421DD0A949303120680B
:101E8000884218D0A64948312068884213D0A44916
:101E90006031206888420ED0A1497831206888429C
:101EA00009D09F4990312068884204D09C49A831CC
:101EB0002068884200D103E0B8219AA007F0D4F846
:101EC0006068D8B16068B0F1007F17D06068B0F189
:101ED000806F13D06068B0F1C06F0FD06068B0F150
:101EE000006F0BD06068B0F1206F07D06068B0F170
:101EF000406F03D06068B0F1606F00D103E0B9219A
:101F000088A007F0B1F8A06828B1A068402802D0E6
:101F1000A068802800D103E0BA2182A007F0A4F8CD
:101F2000E068B0F5007F01D0E06800B903E0BB21B4
:101F30007CA007F099F82069B0F5806F01D0206986
:101F400000B903E0BC2177A007F08EF8606938B1D2
:101F50006069B0F5006F03D06069B0F5805F00D1B3
:101F600003E0BD216FA007F07FF8A06938B1A06938
:101F7000B0F5005F03D0A069B0F5804F00D103E059
:101F8000BE2168A007F070F8E06930B1E069B0F5F3
:101F9000807F02D0E069202800D103E0BF2161A04A
:101FA00007F062F8206A58B1206AB0F5803F07D088
:101FB000206AB0F5003F03D0206AB0F5403F00D161
:101FC00003E0C02157A007F04FF8606A10B1606AC3
:101FD000042800D103E0C12152A007F045F8606A4F
:101FE000002835D0A06A40B1A06A012805D0A06AB7
:101FF000022802D0A06A032800D103E0C62149A02C
:1020000007F032F8E06A58B1E06AB0F5000F07D087
:10201000E06AB0F1807F03D0E06AB0F1C07F00D108
:1020200003E0C7213FA007F01FF8206B58B1206BD9
:10203000B0F5001F07D0206BB0F5800F03D0206BE8
:10204000B0F5C00F00D103E0C82136A007F00CF8AE
:1020500000BF002084F8340000BF022084F835005F
:102060002068006820F00100216808600AE000F0A4
:102070008DFBC01B052805D920206065032084F84E
:102080003500C8E62068006800F001000028EED1A5
:102090002068056831480540D4E901010843E1683A
:1020A00008432169084361690843A1690843E1695C
:1020B0000843216A08430543606A042803D1D4E930
:1020C0000B0108430543206805602068456925F039
:1020D0000705606A0543606A04280DD1A06A0543BC
:1020E000E06A48B12046FEF729FC28B1402060652F
:1020F000012084F835008EE6206845612046FEF711
:1021000003FC064694F85C103F208840B060002035
:102110006065012084F8350000207CE610600240F4
:10212000106402402E2E2F447269766572732F530D
:10213000544D3332463478785F48414C5F4472697D
:102140007665722F5372632F73746D3332663478F1
:10215000785F68616C5F646D612E63003F8010F092
:102160002DE9F04704460E4617461D464FF000087D
:10217000D4F858901DB1B5F5803F00D204E04FF47B
:10218000E67121A006F070FF00BF94F8340001282A
:1021900002D10220BDE8F087012084F8340000BF9E
:1021A00094F83500012825D1022084F8350000205C
:1021B00060652B463A4631462046FEF714FC94F8FB
:1021C0005C103F208840C9F808002068006840F093
:1021D000160021680860206C28B12068006840F073
:1021E0000800216808602068006840F0010021684C
:1021F000086006E000BF002084F8340000BF4FF004
:1022000002084046C6E700002E2E2F44726976650C
:1022100072732F53544D3332463478785F48414CB3
:102220005F4472697665722F5372632F73746D33D6
:1022300032663478785F68616C5F646D612E63002C
:1022400070B5044600F0A2FA06462546681C10B197
:1022500004480078054400BF00F098FA801BA842AB
:10226000FAD370BD640000202DE9F84306460C4601
:102270004FF00009C8460025D34886420ED0D34807
:1022800086420BD0D248864208D0D248864205D03A
:10229000D148864202D0D148864200D103E0B32122
:1022A000CFA006F0E1FE208880B220B120686FF355
:1022B0000F0000B903E0B421C9A006F0D5FE6068A4
:1022C00030B36068012823D06068112820D060688E
:1022D00002281DD0606812281AD0D0496068884250
:1022E00016D0CF496068884212D0CE4960688842D3
:1022F0000ED0CD49606888420AD0CC4960688842D7
:1023000006D0CB496068884202D06068032800D1BB
:1023100003E0B521B2A006F0A7FEA06828B1A0682E
:10232000012802D0A068022800D103E0B621ACA0A9
:1023300006F09AFE002741E1012000FA07F9206823
:1023400000EA0908C8457DD16068012808D06068A6
:10235000022805D06068112802D06068122823D1B5
:10236000E06840B1E068012805D0E068022802D0AA
:10237000E068032800D103E0C82199A006F074FEAC
:10238000B56879000320884085437900E06888407B
:102390000543B56075680120B84085432079C0F3D6
:1023A0000010B84005437560F56879000320884047
:1023B00085437900A06888400543F560606802287D
:1023C00002D06068122870D12069E0B32069092822
:1023D00052D02069B8B32069A8B3206998B32069A6
:1023E00088B32069012847D02069012844D020699A
:1023F000022841D0206902283ED0206902283BD023
:102400002069042838D02069042835D020690428A0
:1024100032D0206905282FD0206905282CD02069CA
:10242000052829D02069062826D02069062823D02F
:102430002069052820D0206906281DD0206907289A
:102440001AD001E0B9E017E02069072814D020690C
:10245000072811D0206908280ED020690A280BD03F
:102460002069092808D02069092805D020690C288E
:1024700002D020690F2800D103E0E02158A006F027
:10248000F3FDF90806F1200050F821507807C10E3D
:102490000F20884085437907C90E2069884005438D
:1024A000F90806F1200040F8215035687900032032
:1024B00088408543207900F0030079008840054377
:1024C0003560606800F08050B0F1805F75D100BF6A
:1024D000002000905748006840F48040554908604B
:1024E0000846006800F48040009000BF00BF5248DA
:1024F000B90850F82150B807010F0F2088408543D4
:102500003148864201D1002014E03048864201D192
:1025100001200FE02E48864201D102200AE02D481A
:10252000864201D1032005E02B48864201D10420D8
:1025300000E00720B907090F884005433E48B90865
:1025400040F821503D48056825EA0805606800F418
:102550008030B0F5803F01D145EA08053748056075
:10256000001D056825EA0805606800F40030B0F534
:10257000003F01D145EA08053048001D0560001DF7
:10258000056825EA0805606800F48010B0F5801F32
:1025900001D145EA0805294808300560001D056895
:1025A00025EA0805606800F40010B0F5001F01D1AD
:1025B00045EA080521480C3005607F1C102FFFF408
:1025C000BBAEBDE8F88300000000024000040240FA
:1025D00000080240000C024000100240001C0240B3
:1025E0002E2E2F447269766572732F53544D3332F9
:1025F000463478785F48414C5F4472697665722F43
:102600005372632F73746D3332663478785F686108
:102610006C5F6770696F2E6300000000000011108E
:1026200000002110000031100000121000002210E4
:10263000000032104438024008380140003C01409C
:1026400070B506460C46A0B218B1200C000400B9C3
:1026500004E04FF4BF7105A006F006FD306920408C
:1026600008B1012500E00025284670BD2E2E2F441C
:102670007269766572732F53544D333246347878CD
:102680005F48414C5F4472697665722F5372632FC5
:1026900073746D3332663478785F68616C5F67702D
:1026A000696F2E630000000070B505460C46A0B2AD
:1026B00018B1200C000400B904E04FF4DB7106A04F
:1026C00006F0D2FC68692040A04202D12004A86133
:1026D00000E0AC6170BD00002E2E2F44726976655B
:1026E00072732F53544D3332463478785F48414CDF
:1026F0005F4472697665722F5372632F73746D3302
:1027000032663478785F68616C5F6770696F2E63DA
:102710000000000070B506460C461546A0B218B180
:10272000200C000400B904E040F29F1108A006F05C
:102730009BFC0DB1012D00D104E04FF4D07104A039
:1027400006F092FC0DB1B46101E02004B06170BDEF
:102750002E2E2F447269766572732F53544D333287
:10276000463478785F48414C5F4472697665722FD1
:102770005372632F73746D3332663478785F686197
:102780006C5F6770696F2E6300000000014800688D
:10279000704700005C000020034800680349097886
:1027A00008440149086070475C0000206400002074
:1027B00010B50D48006840F400700B4908600846E9
:1027C000006840F4806008600846006840F480704B
:1027D0000860032000F0F4F80F2000F007F800F084
:1027E0002BF8002010BD0000003C024070B50446EC
:1027F0000E4800784FF47A71B1FBF0F00C4909688B
:10280000B1FBF0F5284601F029FC08B1012070BDAC
:10281000102C07D200222146501E00F067F8054810
:10282000046001E00120F2E70020F0E764000020EE
:10283000100100206000002008B500BF00200090BB
:102840000E48006840F480400C4908600846006863
:1028500000F48040009000BF00BF00BF0020009047
:10286000081F006840F08050091F08600846006893
:1028700000F08050009000BF00BF08BD4438024007
:1028800010B50446002C00DB03E0BE2108A006F0D2
:10289000EBFB2046002809DB00F01F0201219140DC
:1028A0004209920002F1E022C2F8001100BF10BDFF
:1028B0002E2E2F447269766572732F53544D333226
:1028C000463478785F48414C5F4472697665722F70
:1028D0005372632F73746D3332663478785F686136
:1028E0006C5F636F727465782E6300002DE9F05F92
:1028F00080460C4615460027102D00D203E0AA2181
:1029000020A006F0B1FB102C00D203E0AB211DA0EB
:1029100006F0AAFB06F0A0FA0746394622462B46E7
:1029200001F00700C0F1070ABAF1040F02D94FF015
:10293000040A01E0C0F1070AD14600F1040ABAF125
:10294000070F02D24FF0000A01E0A0F1030AD446BB
:102950004FF0010A0AFA09FAAAF1010A0AEA020A80
:102960000AFA0CFA4FF0010B0BFA0CFBABF1010B5E
:102970000BEA030B4AEA0B063146404606F074FAAE
:10298000BDE8F09F2E2E2F447269766572732F5327
:10299000544D3332463478785F48414C5F44726915
:1029A0007665722F5372632F73746D333266347889
:1029B000785F68616C5F636F727465782E63000086
:1029C00010B50446072C07D0062C05D0052C03D0E3
:1029D000042C01D0032C00D103E0922109A006F0C1
:1029E00043FB00BF04F00701154A10684FF6FF02D1
:1029F0001040144A024342EA0120114A106000BF0D
:102A000010BD00002E2E2F447269766572732F530D
:102A1000544D3332463478785F48414C5F44726994
:102A20007665722F5372632F73746D333266347808
:102A3000785F68616C5F636F727465782E63000005
:102A40000CED00E00000FA05704702461068416294
:102A500000207047F0B5034615461868446A21B94E
:102A600044EA05401E68B06219E01868806A04EB09
:102A70001044002208E0186800F5827050F8220027
:102A800004EB1044501CC2B2481E9042F3D844EAF2
:102A90000547186800F582704E1E40F82670002029
:102AA000F0BD10B50446D4F8040404F030FE10BDA7
:102AB00070B504460D46C5EBC50304F13C0101EBBE
:102AC0008301CA682946D4F8040404F064FD70BD8B
:102AD00070B504460D46C5EBC50304F5FE7101EB68
:102AE0008301CA682946D4F8040404F0C7FD70BD08
:102AF00010B50446D4F8040404F00CFE10BD70B503
:102B000004460E4606F0800080280AD106F00F0029
:102B1000C0EBC00104F13C0000EB810501206870AE
:102B200009E006F00F00C0EBC00104F5FE7000EBF9
:102B300081050020687006F00F00287000BF94F82F
:102B4000BC03012801D1022070BD012084F8BC0320
:102B500000BF2946206805F0E7FA00BF002084F88E
:102B6000BC0300BF00BFEFE770B504460E4606F099
:102B70000F006168884201D9012070BD06F0800015
:102B800080280AD106F00F00C0EBC00104F13C0020
:102B900000EB81050120687009E006F00F00C0EB32
:102BA000C00104F5FE7000EB810500206870002074
:102BB000A87006F00F00287000BF94F8BC0301282D
:102BC00001D10220D9E7012084F8BC0300BF2946C7
:102BD000206805F08FFD00BF002084F8BC0300BF13
:102BE00000BFCAE7024601F00F00C0EBC00302F5C8
:102BF000FE7000EB8300806970472DE9F0470546C1
:102C00000E4690461F464FF0000906F080008028CF
:102C10000AD106F00F00C0EBC00105F13C0000EB4B
:102C200081040120607009E006F00F00C0EBC001D4
:102C300005F5FE7000EB81040020607006F00F00C7
:102C40002070C4F80880E770607808B12078E080D0
:102C5000022F01D10020207100BF95F8BC0301288C
:102C600002D10220BDE8F087012085F8BC0300BF37
:102C70002146286805F074F900BF002085F8BC03E0
:102C800000BF4846EEE72DE9F04104460E461746E0
:102C9000984606F00F00C0EBC00104F5FE7000EB93
:102CA0008105EF60C5F814800020A861687006F007
:102CB0000F0028702069012800D12F6106F00F0055
:102CC00028B9227C2946206805F0F0FB04E0227C2C
:102CD0002946206805F0A2FD0020BDE8F08170B50E
:102CE00004460D4605F00F006168884201D90120B5
:102CF00070BD05F0800080280AD105F00F00C0EB00
:102D0000C00104F13C0000EB81060120707007E077
:102D1000C5EBC50104F5FE7000EB81060020707064
:102D20000120B07005F00F00307000BF94F8BC03B4
:102D3000012801D10220DBE7012084F8BC0300BF99
:102D40003146206805F01DFD05F00F0028B9217CF3
:102D500004F57172206805F095FC00BF002084F82E
:102D6000BC0300BF00BFC3E72DE9F04104460E4697
:102D70001746984606F00F00C0EBC00104F13C0076
:102D800000EB8105EF60C5F814800020A8610120E8
:102D9000687006F00F0028702069012800D12F61AB
:102DA00006F00F0028B9227C2946206805F07EFB3A
:102DB00004E0227C2946206805F030FD0020BDE8B3
:102DC000F0812DE9FE4F044620680290029D2068A4
:102DD00005F00FFF00287DD1206805F049FF08B9F4
:102DE000BDE8FE8F206805F043FF00F002000228D6
:102DF00005D12068406900F0020021684861206820
:102E000005F036FF00F01000102846D120688069D8
:102E100020F01000216888610298D0F8209009F015
:102E20000F00C0EBC00104F5FE7000EB810BC9F38D
:102E3000434002281AD147F6F07009EA000030B387
:102E4000C9F30A12DBF80C10029805F016FFC9F35B
:102E50000A11DBF80C000844CBF80C00C9F30A1186
:102E6000DBF818000844CBF8180010E0C9F3434021
:102E700006280CD1082204F57171029805F0FDFEB8
:102E8000C9F30A11DBF818000844CBF818002068D1
:102E9000806940F0100021688861206805F0E8FE34
:102EA00000F40020B0F5002F52D10026206805F074
:102EB000AFFE824649E00AF00100E8B3F1B22068B3
:102EC00005F0C9FE804608F0010058B1012105F562
:102ED000306000E021E200EB461081603146204680
:102EE00002F010FF08F00800082809D1082105F5B4
:102EF000306000EB461081603146204602F0D0FE83
:102F000008F01000102805D1102105F5306000EB05
:102F10004610816008F02000202805D1202105F509
:102F2000306000EB4610816008F40050B0F5005F9F
:102F300008D14FF4005100E004E005F5306000EBEB
:102F400046108160761C4FEA5A0ABAF1000FB2D1DE
:102F5000206805F08DFE00F48020B0F5802F7ED132
:102F6000206805F04BFE8246002683E00AF001004F
:102F700000287CD0F1B2206805F054FE804608F0AD
:102F80000100F0B306F00F0101208840019040F6E7
:102F900034004159019821EA000040F634014851BB
:102FA000012105F5106000EB4610816020690128C1
:102FB00024D1C6EBC60104F13C0000EB8100C6EB56
:102FC000C602C16804F13C0000EB82008068014445
:102FD000C6EBC60204F13C0000EB8200C1606EB992
:102FE000C6EBC60104F13C0000EB8100406928B942
:102FF00004F571720121206805F044FBF1B220460E
:1030000000E001E0FFF754FD08F00800082805D1B2
:10301000082105F5106000EB4610816008F01000F3
:10302000102805D1102105F5106000EB46108160D5
:1030300008F04000402805D1402105F5106000EB64
:103040004610816008F00200022805D1022105F532
:10305000106000EB4610816008F0800001E00DE098
:1030600005E0802803D13146204602F009FF761C96
:103070004FEA5A0ABAF1000F7FF478AF206805F0E2
:10308000F7FD00F00040B0F1004F1CD140F6040005
:10309000405920F0010140F60400415194F8F40336
:1030A000012807D1002084F8F40300212046FFF70F
:1030B000CBFC02E0204600F083FA2068406900F073
:1030C000004021684861206805F0D2FD00F40060EE
:1030D000B0F5006F0ED140F60800405900F0010035
:1030E00010B1204600F0C4FA2068406900F4006086
:1030F00021684861206805F0BBFD00F48050B0F500
:10310000805F7DD140F60400405920F0010140F677
:10311000040041511021206805F040FD00273EE0E9
:103120004FF67F3105F5106000EB4710816005F523
:10313000106000EB4710006820F4001105F51060E6
:1031400000EB4710016005F5106000EB47100068C8
:1031500040F0006105F5106000EB471001604FF68C
:103160007F3105F5306000EB4710816005F5306078
:1031700000EB4710006820F4001105F5306000EB0B
:103180004710016005F5306000EB4710006840F023
:10319000006105F5306000EB471001607F1C60683E
:1031A000B842BDD840F61C00405940F0011140F62D
:1031B0001C004151206B70B1D5F8840840F00B0120
:1031C000C5F8841840F64400405940F00B0140F621
:1031D000440041510FE040F61400405942F22B01E7
:1031E000084340F614014851081F405940F00B01B4
:1031F0004FF401604151D5F8000820F4FE6000E072
:103200000DE0C5F80008217C04F57172206805F016
:1032100039FA2068406900F48050216848612068CC
:1032200005F026FD00F40050B0F5005F17D12068CE
:1032300004F0FEFE206805F0C9FCE06000F092FB9F
:103240000090227B2068009905F062FD204600F086
:10325000A5F92068406900F40050216848612068A1
:1032600005F006FD00F00800082808D1204600F00F
:10327000AEF92068406900F00800216848612068C4
:1032800005F0F6FC00F48010B0F5801F0AD100268E
:103290003146204600F043F82068406900F4801071
:1032A00021684861206805F0E3FC00F40010B0F5E7
:1032B000001F0AD100263146204600F039F8206868
:1032C000406900F4001021684861206805F0D0FCD6
:1032D00000F08040B0F1804F08D12046FFF7E1FBBD
:1032E0002068406900F0804021684861206805F04E
:1032F000BFFC00F0040004280FD12068D0F804902F
:1033000009F00400042802D12046FFF7F1FB2068F1
:10331000406840EA09002168486000BF60E570B578
:1033200004460D462946D4F8040404F05DFA70BD45
:1033300070B504460D462946D4F8040404F057FA43
:1033400070BD000070B58AB0044614B901200AB0FF
:1033500070BD2068B0F1A04F00D103E0872157A0D5
:1033600005F082FE266894F8BD0328B9002084F891
:10337000BC03204600F0BEF8032084F8BD03F06BC8
:1033800000F4807008B900212161206805F086F8FA
:10339000282204F110016846FCF74DFF94E80F0065
:1033A00004F05AFE20B1022084F8BD030120CEE7CC
:1033B0000021206805F072FC002531E00121C5EBF9
:1033C000C50204F13C0000EB82004170C5EBC50171
:1033D00004F13C0000F82150C5EBC50100EB810071
:1033E000C5800021C5EBC50204F13C0000EB820062
:1033F000C170C5EBC50204F13C0000EB82008160A6
:10340000C5EBC50204F13C0000EB8200C160C5EBD6
:10341000C50204F13C0000EB82004161681CC5B2AA
:103420006068A842CAD800252AE00021C5EBC50281
:1034300004F5FE7000EB82004170C5EBC50104F598
:10344000FE7000F821500021C5EBC50200EB8200A0
:10345000C170C5EBC50204F5FE7000EB820081600F
:10346000C5EBC50204F5FE7000EB8200C160C5EB40
:10347000C50204F5FE7000EB82004161681CC5B214
:103480006068A842D1D8282204F110016846FCF7F0
:10349000D2FE94E80F0004F011FF20B1022084F85E
:1034A000BD03012053E7002084F83800012084F890
:1034B000BD03206804F0F0FE002048E72E2E2F44C4
:1034C0007269766572732F53544D3332463478786F
:1034D0005F48414C5F4472697665722F5372632F67
:1034E00073746D3332663478785F68616C5F7063D3
:1034F000642E630010B586B00446142101A8FCF7C1
:10350000B3FE2068B0F1A04F42D100BF0020009070
:103510002048006840F001001E4908600846006825
:1035200000F00100009000BF00BF4FF4C0500190B8
:103530000220029000200390032004900A200590AE
:1035400001A91548FEF790FE00BF1248001D006853
:1035500040F080000F49091D086000BF0020009066
:103560000C481430006840F480400A491431086067
:103570000846006800F48040009000BF00BF00BF14
:10358000002211464320FFF7B1F94320FFF778F9F5
:1035900006B010BD303802400000024070B504464D
:1035A0000125E068022801D0FDF778FA2946D4F811
:1035B000040404F098F9D4F8040404F04BF970BD45
:1035C00010B50446D4F8040404F071F910BD10B528
:1035D0000446D4F8040404F075F910BD70B504462F
:1035E0000D4600BF94F8BC03012801D1022070BD34
:1035F000012084F8BC0300BF84F8385029462068B5
:1036000005F067FB00BF002084F8BC0300BF00BFCB
:10361000EDE710B5044604F57171D4F8040404F024
:1036200079F910BD70B50446256800BF94F8BC0355
:10363000012801D1022070BD012084F8BC0300BF25
:10364000A06A012806D1A069012803D0A86B40F424
:103650008030A863206805F083FA206804F00AFE31
:1036600000BF002084F8BC0300BF00BFE3E70000F8
:1036700010B50446D4F8040404F0A9F92068D0F881
:10368000000E40F001002168C1F8000E206A28B148
:103690000348006840F006000149086010BD0000C2
:1036A00010ED00E070B504460D460CB9012070BD68
:1036B0002068012803D320680F2800D804E040F2D6
:1036C000512195A005F0D0FC6DB1012D0BD0022D3C
:1036D00009D0032D07D0042D05D0052D03D0062DCC
:1036E00001D0072D00D104E040F252218AA005F05C
:1036F000BBFC9748006800F00F00A84209D294492B
:103700000D700846006800F00F00A84201D00120AB
:10371000CDE7207800F0020002283DD1207800F0AB
:103720000400042805D18B48006840F4E050894922
:103730000860207800F00800082805D18548006856
:1037400040F4604083490860A068B8B1A068802850
:1037500014D0A068902811D0A068A0280ED0A0682E
:10376000B0280BD0A068C02808D0A068D02805D009
:10377000A068E02802D0A068F02800D104E040F260
:10378000752165A005F070FC7248006820F0F0001B
:10379000A16808436F490860207800F00100002804
:1037A0004ED0606840B16068012805D0606802288A
:1037B00002D06068032800D104E04FF41F7156A0C6
:1037C00005F052FC6068012807D16248083800689B
:1037D000C0F34040B8B9012069E76068022802D010
:1037E0006068032807D15B4808380068C0F3406070
:1037F00048B901205BE7574808380068C0F340002B
:1038000008B9012053E75348006820F003006168BD
:10381000084350490860FEF7B9FF064608E0FEF786
:10382000B5FF801B41F28831884201D903203EE771
:103830004848006800F00C006168B0EB810FEED1E1
:103840004348006800F00F00A84209D940490D70B4
:103850000846006800F00F00A84201D0012026E7CA
:10386000207800F0040004281FD1E06878B1E068F7
:10387000B0F5805F0BD0E068B0F5A05F07D0E068DE
:10388000B0F5C05F03D0E068B0F5E05F00D104E0C0
:1038900040F2BA2120A005F0E7FB2E48006820F492
:1038A000E050E16808432B490860207800F00800E8
:1038B000082820D1206978B12069B0F5805F0BD04D
:1038C0002069B0F5A05F07D02069B0F5C05F03D0D4
:1038D0002069B0F5E05F00D104E040F2C1210EA004
:1038E00005F0C2FB1B48006820F46040216940EAF3
:1038F000C1001849086000F05BF816490968C1F377
:103900000311154A515CC840144908601448006806
:10391000FEF76CFF0020CAE62E2E2F4472697665F2
:1039200072732F53544D3332463478785F48414C8C
:103930005F4472697665722F5372632F73746D33AF
:1039400032663478785F68616C5F7263632E6300FF
:10395000003C024008380240879200081001002015
:10396000600000200148006870470000100100203E
:1039700000B5FFF7F7FF04490968C1F38221034A44
:10398000515CC84000BD0000083802409792000812
:1039900000B5FFF7E7FF04490968C1F34231034A64
:1039A000515CC84000BD00000838024097920008F2
:1039B0002DE9F047002400250026A146254800688F
:1039C00000F00C0020B1042805D008283AD105E009
:1039D000DFF8849039E0DFF8849036E01D48001F5E
:1039E000006800F03F041B48001F006800F48000DE
:1039F00078B11A481749091F0968C1F38811A0FB5B
:103A000001700146224600233846FCF7E3FB0546D9
:103A10000EE011480F49091F0968C1F38811A0FB86
:103A200001700146224600233846FCF7D3FB0546C9
:103A30000848001F0068C0F30140401C4600B5FB69
:103A4000F6F902E0DFF8109000BF00BF4846BDE87D
:103A5000F0870000083802400024F40000127A00C9
:103A6000F8B504460CB90120F8BD20680F2800D82D
:103A700003E0E821FBA005F0F7FA207800F0010050
:103A8000002870D0606838B16068B0F5803F03D01E
:103A90006068B0F5A02F00D103E0ED21F1A005F0A2
:103AA000E3FAFE48006800F00C0004280DD0FB4843
:103AB000006800F00C00082813D1F848001F0068C7
:103AC00000F48000B0F5800F0BD1F448083800688E
:103AD000C0F34040002859D06068002856D101202A
:103AE000C2E700BF6068B0F5803F08D1EB480838F6
:103AF000006840F48030E949083908601EE06068D9
:103B0000B0F5A02F0DD1E5480838006840F48020BA
:103B1000E249083908600846006840F480300860CF
:103B20000CE0DE480838006820F48030DB490839B2
:103B300008600846006820F48020086000BF6068C4
:103B400090B1FEF723FE054606E0FEF71FFE401B80
:103B5000642801D9032087E7D04808380068C0F3FB
:103B600040400028F1D011E0FEF710FE054606E0C7
:103B7000FEF70CFE401B642801D9032074E7C748F8
:103B800008380068C0F340400028F1D1207800F0E8
:103B90000200022873D1E06810B1E068012800D16A
:103BA00004E040F21F11AFA005F05EFA20691F2863
:103BB00000D804E04FF49071AAA005F055FAB74878
:103BC000006800F00C0058B1B448006800F00C0028
:103BD00008281CD1B148001F006800F48000B0B96B
:103BE000AE4808380068C0F3400020B1E068012802
:103BF00001D0012038E7A9480838006820F0F80013
:103C0000216940EAC100A5490839086037E0E06849
:103C100000B30120A2490860FEF7B8FD054606E0A2
:103C2000FEF7B4FD401B022801D903201CE79B4886
:103C300008380068C0F340000028F1D097480838E1
:103C4000006820F0F800216940EAC1009349083972
:103C5000086014E0002092490860FEF797FD0546D1
:103C600006E0FEF793FD401B022801D90320FBE686
:103C70008A4808380068C0F340000028F1D1207855
:103C800000F00800082837D1606910B16069012888
:103C900000D104E04FF4B07172A005F0E5F960695D
:103CA000A8B101207F490860FEF770FD054606E0D7
:103CB000FEF76CFD401B022801D90320D4E67748AB
:103CC0006C300068C0F340000028F1D014E0002000
:103CD00074490860FEF75AFD054606E0FEF756FDFA
:103CE000401B022801D90320BEE66C486C300068F6
:103CF000C0F340000028F1D1207800F0040004282F
:103D000075D10027A06828B1A068012802D0A0685A
:103D1000052800D104E04FF4C67152A005F0A4F9C3
:103D20005E483830006800F0805090B900BF002035
:103D300000905A483830006840F080505749383178
:103D400008600846006800F08050009000BF00BF87
:103D500001275548006800F48070B0B952480068E7
:103D600040F4807050490860FEF710FD054606E0FB
:103D7000FEF70CFD401B022801D9032074E64A48D7
:103D8000006800F480700028F2D000BFA06801280D
:103D900008D142486830006840F001003F4968316E
:103DA00008601DE0A06805280DD13C486830006817
:103DB00040F004003949683108600846006840F066
:103DC000010008600CE035486830006820F0010010
:103DD0003249683108600846006820F00400086035
:103DE00000BFA068A8B1FEF7D1FC054609E02FE0AE
:103DF000FEF7CCFC401B41F28831884201D90320F8
:103E000032E6264868300068C0F340000028EFD052
:103E100013E0FEF7BBFC054608E0FEF7B7FC401BCD
:103E200041F28831884201D903201DE61B486830E1
:103E30000068C0F340000028EFD1012F07D11748D8
:103E40003830006820F0805014493831086000BFD5
:103E5000A06928B1A069012802D0A069022825D153
:103E60002AE000002E2E2F447269766572732F535C
:103E7000544D3332463478785F48414C5F44726920
:103E80007665722F5372632F73746D333266347894
:103E9000785F68616C5F7263632E6300083802406C
:103EA00000004742800E47420070004040F2CF11B0
:103EB000AFF2500005F0D8F8A06900287CD0654822
:103EC000006800F00C00082877D0A069022875D19E
:103ED000E06918B1E069B0F5800F00D105E04FF45A
:103EE000EC71AFF2800005F0BFF8206A3F2800D8DF
:103EF00005E040F2D911AFF2940005F0B5F8606A20
:103F0000C02804D3606AB0F5D87F00D805E04FF42C
:103F1000ED71AFF2B00005F0A7F8A06A022808D052
:103F2000A06A042805D0A06A062802D0A06A082842
:103F300000D105E040F2DB11AFF2D80005F094F8B3
:103F4000E06A022803D3E06A0F2800D805E04FF4A6
:103F5000EE71AFF2F00005F087F800203E490866E8
:103F6000FEF714FC054606E0FEF710FC401B022895
:103F700001D9032078E5374808380068C0F340606D
:103F80000028F1D1D4E907010843616A40EA8111B0
:103F90000122A06AC2EB500041EA00412C20005DE2
:103FA00041EA00602B49091F086001202A49086680
:103FB000FEF7ECFB054609E049E025E00EE0FEF7E0
:103FC000E5FB401B022801D903204DE521480838B4
:103FD0000068C0F340600028F1D038E000201E499E
:103FE0000866FEF7D3FB054606E0FEF7CFFB401B55
:103FF000022801D9032037E5164808380068C0F3C5
:1040000040600028F1D122E0A069012800D12BE511
:104010001048001F066806F48001E069814214D14F
:1040200006F03F01206A81420FD147F6C070304050
:10403000616A884209D106F44031A06A814204D104
:1040400006F07061E06A814201D001200CE5002099
:104050000AE50000083802400000474270B50446F7
:104060002546681EB0F1807F01D301200FE0681E55
:104070004FF0E02148610F214FF0FF3004F0F4FED3
:1040800000204FF0E021886107200861002070BD0A
:10409000704770472DE9F04104460D4641492068BC
:1040A00088420FD02068B0F1804F0BD03E49206885
:1040B000884207D03D492068884203D03C492068A7
:1040C000884200D104E040F264613AA004F0CCFFE1
:1040D0002868A0B12868102811D0286820280ED0A0
:1040E000286830280BD02868402808D02868502835
:1040F00005D02868602802D02868702800D104E024
:1041000040F265612BA004F0AFFF6868802801D001
:10411000686800B904E040F2666126A004F0A4FFDC
:1041200000BF94F83C00012802D10220BDE8F081D4
:10413000012084F83C0000BF022084F83D00206884
:1041400047682068866827F070072868074320685A
:10415000476014492068884213D02068B0F1804F2E
:104160000FD01149206888420BD01049206888423E
:1041700007D00F492068884203D01D492068884233
:1041800005D126F080066868064320688660012015
:1041900084F83D0000BF002084F83C0000BF00BF51
:1041A000C4E7000000000140000400400008004097
:1041B000000C00402E2E2F447269766572732F53C7
:1041C000544D3332463478785F48414C5F447269CD
:1041D0007665722F5372632F73746D333266347841
:1041E000785F68616C5F74696D5F65782E6300004D
:1041F0000040014010B504460CB9012010BD3549FE
:10420000206888421BD02068B0F1804F17D0324917
:104210002068884213D03149206888420FD0304945
:10422000206888420BD02F492068884207D02E4949
:104230002068884203D02D492068884200D104E0DC
:104240004FF489712AA004F00FFFA06858B1A0684C
:10425000102808D0A068202805D0A068402802D0E7
:10426000A068602800D104E040F2131120A004F0FF
:10427000FBFE206938B12069B0F5807F03D020694A
:10428000B0F5007F00D104E04FF48A7118A004F06B
:10429000EBFEA06910B1A069802800D104E040F2D3
:1042A000151113A004F0E0FE94F83D0028B9002099
:1042B00084F83C00204600F037F8022084F83D00E6
:1042C000211D206802F026F8012084F83D0000201E
:1042D00094E7000000000140000400400008004096
:1042E000000C0040004001400044014000480140F3
:1042F0002E2E2F447269766572732F53544D3332CC
:10430000463478785F48414C5F4472697665722F15
:104310005372632F73746D3332663478785F6861DB
:104320006C5F74696D2E630038B504462068B0F187
:10433000804F18D100BF002000902848006840F04E
:104340000100264908600846006800F0010000905E
:1043500000BF00BF002201211C20FEF7C7FA1C206D
:10436000FEF78EFA38E01E492068884218D100BF57
:10437000002000901948006840F0020017490860CA
:104380000846006800F00200009000BF00BF002255
:104390000A211D20FEF7AAFA1D20FEF771FA1BE084
:1043A00010492068884217D100BF002000900B48B8
:1043B000006840F00400094908600846006800F001
:1043C0000400009000BF00BF002204211E20FEF761
:1043D0008DFA1E20FEF754FA38BD00004038024026
:1043E000000400400008004070B504461C492068E5
:1043F00088421BD02068B0F1804F17D0194920683F
:10440000884213D01849206888420FD01749206885
:1044100088420BD016492068884207D01549206889
:10442000884203D014492068884200D104E040F259
:10443000B91112A004F018FE2068C06840F0010015
:104440002168C8602068806800F00705062D05D047
:104450002068006840F0010021680860002070BDFD
:10446000000001400004004000080040000C004033
:104470000040014000440140004801402E2E2F44DE
:104480007269766572732F53544D3332463478789F
:104490005F48414C5F4472697665722F5372632F97
:1044A00073746D3332663478785F68616C5F7469F9
:1044B0006D2E63002DE9F04104460D4600BF94F8CF
:1044C0003C00012802D10220BDE8F081012084F8DF
:1044D0003C0000BF022084F83D002868B0F5805FF2
:1044E0001AD02868B0F5005F16D02868A0B12868F7
:1044F000102811D0286820280ED0286830280BD02A
:104500002868402808D02868502805D028686028E6
:1045100002D02868702800D104E041F28B11FAA083
:1045200004F0A2FD2068866826F0770626F47F4610
:1045300020688660286850287ED00CDC20287CD03B
:1045400004DC00287AD0102879D1C1E1302877D056
:104550004028F9D176E1602873D070282DD0B0F5CD
:10456000805F03D0B0F5005FEED189E0F4492068A8
:1045700088421BD02068B0F1804F17D0F1492068E5
:10458000884213D0F049206888420FD0EF49206854
:1045900088420BD0EE492068884207D0ED49206858
:1045A000884203D0EC492068884200D104E041F2FF
:1045B0009711D5A004F058FDDCE1E149206888425C
:1045C00013D02068B0F1804F0FD0DE4920688842B8
:1045D0000BD0DD492068884207D0DC49206888423A
:1045E00003D0DB492068884200D104E041F29E11EB
:1045F000C5A004F039FDA86858B1A868B0F5805F7F
:1046000007D0A868B0F5005F03D0A868B0F5405F98
:1046100000D104E041F2A111BBA004F025FD6868BF
:10462000B0F5004F10D0686870B1686860B1686814
:10463000022809D0686805E07AE04AE147E198E19C
:1046400048E1BAE00A2800D104E041F2A211AEA08C
:1046500004F00AFDE8680F2800D804E041F2A31135
:10466000A9A004F001FDD5E902136A68206801F0F1
:10467000A3FE2068866846F077062068866079E1A8
:10468000AF49206888420FD02068B0F1804F0BD02E
:10469000AC492068884207D0AB492068884203D0E3
:1046A000AA492068884200D104E041F2B61196A0E0
:1046B00004F0DAFCA86858B1A868B0F5805F07D0AC
:1046C000A868B0F5005F03D0A868B0F5405F00D1DE
:1046D00004E041F2B9118CA004F0C6FC6868B0F5A2
:1046E000004F09D0686838B1686828B16868022846
:1046F00002D068680A2800D104E041F2BA1182A011
:1047000004F0B2FCE8680F2800D804E041F2BB11C5
:104710007DA004F0A9FCD5E902136A68206801F0C5
:104720004BFE2068806840F480402168886021E169
:1047300083492068884213D02068B0F1804F0FD0A1
:104740008049206888420BD07F492068884207D082
:104750007E492068884203D07D492068884200D184
:1047600004E041F2CA1168A004F07EFC6868B0F56C
:10477000004F09D0686838B1686828B168680228B5
:1047800002D068680A2800D104E041F2CD115EA091
:1047900004F06AFCE8680F2800D804E041F2CE116A
:1047A00059A004F061FCEA686968206801F018FE0D
:1047B0005021206801F00BFEDCE06149206888424E
:1047C00013D02068B0F1804F0FD05E492068884236
:1047D0000BD05D492068884207D05C492068884238
:1047E00003D05B492068884200D104E041F2DA112D
:1047F00045A004F039FC6868B0F5004F09D068683E
:1048000038B1686828B16868022802D068680A2848
:1048100000D104E041F2DD113BA004F025FCE86882
:104820000F2800D804E041F2DE1137A004F01CFC90
:10483000EA686968206801F0E6FD6021206801F0FF
:10484000C6FD97E03E492068884213D02068B0F149
:10485000804F0FD03B49206888420BD03A492068EE
:10486000884207D039492068884203D038492068F7
:10487000884200D104E041F2EA1123A004F0F4FBE5
:104880006868B0F5004F09D0686838B1686828B129
:104890006868022802D068680A2800D104E041F262
:1048A000ED1119A004F0E0FBE8680F2800D804E03F
:1048B00041F2EE1114A004F0D7FBEA6869682068A1
:1048C00001F08EFD4021206801F081FD52E000BF23
:1048D00000BF00BF1A492068884213D02068B0F199
:1048E000804F0FD01749206888420BD016492068A6
:1048F000884207D015492068884203D014492068AF
:1049000088422BD130E000002E2E2F44726976654C
:1049100072732F53544D3332463478785F48414C8C
:104920005F4472697665722F5372632F73746D33AF
:1049300032663478785F68616C5F74696D2E6300ED
:10494000000001400004004000080040000C00404E
:1049500000400140004401400048014041F2FD1187
:10496000AFF25C0004F080FB2968206801F02FFDA5
:1049700000E000BF00BF012084F83D0000BF002020
:1049800084F83C0000BF00BF9EE5704710B50446A8
:1049900020680069C0F34000D8B12068C068C0F347
:1049A0004000B0B16FF0020021680861012020775B
:1049B0002068806900F0030018B12046FFF7E5FF8A
:1049C00005E0204600F0ADF8204600F0ABF80020EE
:1049D000207720680069C0F38000D8B12068C068E3
:1049E000C0F38000B0B16FF00400216808610220BC
:1049F00020772068806900F4407018B12046FFF7E6
:104A0000C4FF05E0204600F08CF8204600F08AF84C
:104A10000020207720680069C0F3C000D8B120686A
:104A2000C068C0F3C000B0B16FF008002168086131
:104A3000042020772068C06900F0030018B12046E8
:104A4000FFF7A3FF05E0204600F06BF8204600F0DA
:104A500069F80020207720680069C0F30010D8B101
:104A60002068C068C0F30010B0B16FF0100021687A
:104A70000861082020772068C06900F4407018B1F0
:104A80002046FFF782FF05E0204600F04AF8204666
:104A900000F048F8002020772068006900F001004D
:104AA00058B12068C06800F0010030B16FF001001B
:104AB00021680861204600F037F820680069C0F3DB
:104AC000C01058B12068C068C0F3C01030B16FF09A
:104AD0008000216808612046FFF7DAFA2068006943
:104AE000C0F3801058B12068C068C0F3801030B1A6
:104AF0006FF0400021680861204600F069F82068E6
:104B00000069C0F3401058B12068C068C0F340107D
:104B100030B16FF02000216808612046FFF7B9FA34
:104B200010BD7047704700001CB504461A48844207
:104B300005D100F05BFE012801D101F0EFFF17481D
:104B4000844217D100F052FE012813D101F006FA79
:104B50001348144B144A154900901548FBF7BAFF47
:104B60001048114B114A12490090002001F012FA2E
:104B700001F0E2F90F4884420DD100F037FE012820
:104B800009D10D480D490E4B0E4ACDE900100E49D2
:104B90000E48FCF74FF81CBD7C0300203C030020AE
:104BA000700000206E0000206C0000206A000020D1
:104BB00068000020BC030020880000208400002042
:104BC000800000207C00002078000020740000207D
:104BD0007047000038B50446E06B00F0080078B17B
:104BE00000BF0020009020680068009020684068A6
:104BF000009000BF00BF01220249034800F04CFAB8
:104C000038BD0000A0000020FC0300202DE9F04783
:104C10000446206805682068C668206847694FF028
:104C20000008C14605F00F08B8F1000F0AD105F0E1
:104C3000200038B106F0200020B1204601F021FC10
:104C4000BDE8F087B8F1000F72D007F0010018B985
:104C500006F4907000286BD005F0010030B106F426
:104C6000807018B1E06B40F00100E06305F00400D3
:104C700030B107F0010018B1E06B40F00200E063D2
:104C800005F0020030B107F0010018B1E06B40F010
:104C90000400E06305F0080048B106F0200010B9F8
:104CA00007F0010018B1E06B40F00800E063E06B32
:104CB00070B305F0200028B106F0200010B12046A6
:104CC00001F0DFFB20684069C0F38019E06B00F061
:104CD000080010B9B9F1000F23D0204601F0B1FB54
:104CE0002068406900F04000402816D120684069E3
:104CF00020F0400021684861606B50B11748616B3B
:104D00000865606BFCF74AFF10B1606B016D884766
:104D10000CE02046FFF75EFF08E02046FFF75AFF51
:104D200004E02046FFF756FF0020E06388E7FFE736
:104D300005F0800030B106F0800018B1204601F087
:104D400046FE7DE705F0400030B106F0400018B1A6
:104D5000204601F086FB73E700BF71E72F6400086F
:104D600010B504460CB9012010BDA069002826D05A
:104D700040492068884207D03F492068884203D0D4
:104D80003E492068884200D104E040F24B113CA02B
:104D900004F06AF9A06958B1A069B0F5807F07D026
:104DA000A069B0F5007F03D0A069B0F5407F00D1C5
:104DB00017E04FF4A67132A004F056F911E02D4926
:104DC0002068884207D02C492068884203D02B49AC
:104DD0002068884200D104E04FF4A87128A004F0B4
:104DE00043F9A06818B1A068B0F5805F00D104E075
:104DF0004FF4A97122A004F037F9E06918B1E06915
:104E0000B0F5004F00D104E040F253111CA004F0B3
:104E10002BF994F8390028B9002084F8380020468E
:104E200000F04CF8242084F839002068C06820F491
:104E300000502168C860204601F076FB20680069B8
:104E400020F49040216808612068406920F02A0021
:104E5000216848612068C06840F400502168C8603B
:104E60000020E063202084F8390084F83A00002014
:104E70007AE70000001001400044004000140140A7
:104E80002E2E2F447269766572732F53544D333230
:104E9000463478785F48414C5F4472697665722F7A
:104EA0005372632F73746D3332663478785F686140
:104EB0006C5F756172742E630000000010B586B0DF
:104EC0000446142101A8FBF7CFF96C4920688842F9
:104ED00039D100BF002000906948006840F0100000
:104EE000674908600846006800F01000009000BFA5
:104EF00000BF00BF0020009061481438006840F0F7
:104F000001005F49143908600846006800F001009C
:104F1000009000BF00BF4FF4C060019002200290DB
:104F200000200390032004900720059001A9554814
:104F3000FDF79AF9002203212520FDF7D7FC252053
:104F4000FDF79EFC97E050492068884257D100BF8A
:104F5000002000904A48001F006840F40030484993
:104F6000091F08600846006800F40030009000BF88
:104F700000BF00BF0020009041481438006840F096
:104F800001003F49143908600846006800F001003C
:104F9000009000BF00BF00BF0020009008460068DE
:104FA00040F0080008600846006800F00800009023
:104FB00000BF00BF04200190022002900020039057
:104FC000032004900720059001A92E48FDF74CF915
:104FD00040200190022002900020039003200490C2
:104FE0000720059001A92948FDF73EF90022052177
:104FF0002620FDF77BFC2620FDF742FC3BE0244900
:105000002068884237D100BF002000901C4800680B
:1050100040F020001A4908600846006800F02000AF
:10502000009000BF00BF00BF00200090144814385B
:10503000006840F00400124914390860084600680E
:1050400000F00400009000BF00BFC02001900220CB
:10505000029000200390032004900820059001A9ED
:105060000C48FDF701F9002206214720FDF73EFC20
:105070004720FDF705FC06B010BD00000010014000
:10508000443802400000024000440040000C02404E
:10509000001401400008024010B5034693F83A009E
:1050A00020282FD101B10AB9012010BD00BF93F80B
:1050B0003800012801D10220F7E7012083F83800E9
:1050C00000BF99629A85DA850020D863222083F890
:1050D0003A0000BF002083F8380000BF1868C0689D
:1050E00040F480701C68E0601868406940F001007E
:1050F0001C6860611868C06840F020001C68E060AF
:105100000020D2E70220D0E710B504460649206807
:10511000884201D100F07AF804492068884201D120
:1051200000F088F810BD000000100140001401409C
:105130002DE9F84304460D4616461F464FF0000978
:1051400094F8390020285DD105B116B90120BDE8D9
:10515000F88300BF94F83800012801D10220F6E757
:10516000012084F8380000BF0020E063212084F88B
:105170003900FDF70BFB8146A684E68400BF0020C2
:1051800084F8380000BF2BE0E08C401EE084A0686B
:10519000B0F5805F16D14B46002280212046009753
:1051A00001F049FC08B10320D1E7A846B8F8000097
:1051B000C0F3080021684860206908B9AD1C0FE001
:1051C0006D1C0DE04B46002280212046009701F027
:1051D00032FC08B10320BAE715F8010B21684860DA
:1051E000E08C0028D0D14B46002240212046009779
:1051F00001F021FC08B10320A9E7202084F8390040
:105200000020A4E70220A2E77047000010B506487E
:105210000078FBF725FB0549087001220249044884
:10522000FFF73AFF10BD0000A0000020A100002001
:10523000FC03002010B5664800786649087066488F
:10524000007810BB08460078552814D163480078D0
:10525000401C6249087008460078022815D10020D9
:10526000087001205C4908705D49087055205D494F
:105270000870487009E000205749087058490870C4
:1052800056490870574908704870534800780028FC
:105290007ED053480078022811D14E4800785149F9
:1052A000887008468078002804DB08468078B0F5CE
:1052B000157F04DB00204B49887047490870484837
:1052C0000078032817D1434800784649C87008463B
:1052D000C0784549087008460078032803DB084673
:1052E0000078072807DD02203F49087000203D496B
:1052F000C870394908703A480078042810D13548F8
:1053000000783849087108460079012803DB08460F
:105310000079362804DD0020324908712E490870D2
:1053200031480078C01E31490978884216DD2C4882
:105330000078042812DD274801782A48401D2B4AAE
:105340001278815429480078401C28490870264862
:105350000078C01E0978884200D12DE022480078EC
:10536000C01E22490978884206D12048007818B129
:10537000184800781B494874194801781A48007881
:10538000801C814217D11A48007888B9012000E0BA
:1053900011E0174908700020114908700E49087083
:1053A0000E49087002201049087000200F4908704B
:1053B00000200949087000BF09480078401C0849CE
:1053C0000870012202490B48FFF766FE10BD00007D
:1053D000990000209F0000209A0000209B000020E0
:1053E0009D000020C60400209C0000209E0000209C
:1053F000980000207C0400200CB500BFEFF309806A
:10540000019000BFEFF30880009000BFFEE70000AE
:1054100010B54FF4FA70FCF713FF58A003F00CFD21
:105420004FF47A70FCF70CFFFBF760F960490870E5
:105430000846007820B95FA003F0FEFCFBF72EFBC6
:1054400066A003F0F9FC5A48007800B104E040F28D
:105450004B116CA003F008FE4FF47A70FCF7F0FEDD
:1054600001F090FB524908700846007820B96AA004
:1054700003F0E2FCFBF712FB70A003F0DDFC4C48EC
:10548000007800B104E040F259115EA003F0ECFD99
:105490004FF47A70FCF7D4FE01F00CFB444908701D
:1054A0000846007820B96EA003F0C6FCFBF7F6FAB8
:1054B00074A003F0C1FC3E48007800B104E040F263
:1054C000671150A003F0D0FD4FF47A70FCF7B8FEDE
:1054D00001F00AFB364908700846007820B972A02E
:1054E00003F0AAFCFBF7DAFA78A003F0A5FC304839
:1054F000007800B104E040F2751142A003F0B4FD61
:105500004FF47A70FCF79CFE00F024FE28490870E6
:105510000846007820B976A003F08EFCFBF7BEFAAF
:105520007CA003F089FC2248007800B104E04FF42D
:10553000C47134A003F098FD4FF47A70FCF780FE3C
:10554000FBF716FD1A4908700846007820B97AA0C2
:1055500003F072FCFBF7A2FA80A003F06DFC4FF49D
:105560007A70FCF76DFE86A003F066FC4FF4FA70CB
:10557000FCF766FE0E48007810BD00003D3D3D3D45
:105580005468652073797374656D207374617274E7
:105590007320746F20696E697469616C697A652023
:1055A00068617264776172653D3D3D3D0D0A0000A2
:1055B000000000204661696C656420746F20696E8C
:1055C000697469616C697A65204144432E20507288
:1055D0006F6365647572650D0A000000737563631F
:1055E00065737320746F20696E697469616C697A80
:1055F00065204144432050726F6365647572650D88
:105600000A0000002E2E2F436F72652F5372632FF6
:105610006D61696E2E6300004661696C656420747B
:105620006F20696E697469616C697A6520555341B0
:105630005254362049540D0A00000000737563630C
:1056400065737320746F20696E697469616C697A1F
:1056500065205553415254362049540D0A0000002C
:105660004661696C656420746F20696E6974696154
:105670006C697A65205553415254312049540D0AC2
:10568000000000007375636365737320746F206995
:105690006E697469616C697A652055534152543161
:1056A0002049540D0A0000004661696C656420744D
:1056B0006F20696E697469616C697A652055534120
:1056C0005254322049540D0A000000007375636380
:1056D00065737320746F20696E697469616C697A8F
:1056E00065205553415254322049540D0A000000A0
:1056F0004661696C656420746F20696E69746961C4
:105700006C697A6520536572766F4D6F746F720D98
:105710000A0000007375636365737320746F2069FA
:105720006E697469616C697A6520536572766F4D34
:105730006F746F720D0A00004661696C65642074B5
:105740006F20696E697469616C697A652047797246
:105750006F73636F70650D0A0000000073756363FB
:1057600065737320746F20696E697469616C697AFE
:1057700065204779726F73636F70650D0A000000D2
:1057800044657669636520706F7765722D6F6E2052
:1057900064656C617920353030206D732C20706C1D
:1057A0006561736520776169740D0A0030B50B4639
:1057B000002100BF16E00A24B4EB107F05D9302485
:1057C00004EB107403F8114005E0412404EB10745D
:1057D0000A3C03F81140000100254C00641C1D55D3
:1057E0004C1CE1B29142E6DB30BD000002200549CD
:1057F000097809B9002004E002490978012900D19B
:1058000001207047010000201FB50020009001908A
:10581000029003902C482D49086000204860002128
:105820002A4881600121016100210176012180F86F
:10583000201041620021C162254981620021C160BE
:105840000521C161012180F830104161FBF702FEA2
:1058500008B1FBF723F901200090019002906946FE
:105860001A48FBF7D5FB08B1FBF718F903200090A5
:105870000220019069461548FBF7CAFB08B1FBF707
:105880000DF9052000900320019069460F48FBF7B1
:10589000BFFB08B1FBF702F906200090042001903D
:1058A00069460A48FBF7B4FB08B1FBF7F7F811208B
:1058B00000900520019069460448FBF7A9FB08B158
:1058C000FBF7ECF81FBD000000200140940200200F
:1058D0000100000F08B500BF002000900A480068D2
:1058E00040F48000084908600846006800F4800021
:1058F000009000BF00BF002202213820FCF7F6FF15
:105900003820FCF7BDFF08BD3038024000B587B035
:10591000142102A8FAF7A8FC00BF00200190364825
:10592000006840F00400344908600846006800F050
:105930000400019000BF00BF00BF00200190084696
:10594000006840F0800008600846006800F08000B1
:10595000019000BF00BF00BF002001900846006812
:1059600040F0010008600846006800F00100019066
:1059700000BF00BF00BF002001900846006840F053
:10598000020008600846006800F00200019000BFB5
:1059900000BF00BF002001900846006840F00800EA
:1059A00008600846006800F00800019000BF00BFD2
:1059B000002201211148FCF7ADFE00224FF4704196
:1059C0000F48FCF7A7FE01200290039002200490EC
:1059D0000320059002A90948FCF746FC4FF47040EB
:1059E00002900120039000200490059002A9044831
:1059F000FCF73AFC07B000BD30380240000402401A
:105A0000000C024000B587B0002003900490059080
:105A10000690019002904FF080401449086040F2D7
:105A2000CF2048600021114881603121C1600021F0
:105A3000016180218161FEF7DDFB08B1FBF72EF8E3
:105A40004FF48050039003A90848FEF733FD08B1D6
:105A5000FBF724F800200190029001A90348FEF70B
:105A600019FB08B1FBF71AF807B000BD3C03002092
:105A700000B587B000200390049005900690019037
:105A8000029015481549086040F2CF204860002177
:105A90001248816040F2E731C160002101618161FB
:105AA000FEF7A8FB08B1FAF7F9FF4FF48050039016
:105AB00003A90A48FEF7FEFC08B1FAF7EFFF002041
:105AC0000190029001A90548FEF7E4FA08B1FAF73F
:105AD000E5FF07B000BD0000000400407C0300208B
