:020000040800F2
:1000000040070020B101000873300008FD2B0008F4
:100010007130000825060008853600080000000041
:100020000000000000000000000000007730000821
:10003000AB0700080000000075300008E931000837
:10004000CB010008CB010008CB010008CB01000860
:10005000CB010008CB010008CB010008CB01000850
:10006000CB010008CB010008CB010008CB01000840
:10007000CB010008CB010008CB010008CB01000830
:10008000CB010008CB0100084D040008000000006F
:10009000000000000000000000000000CB0100088C
:1000A000CB010008CB010008CB010008CB01000800
:1000B000CB010008CB010008CB010008CB010008F0
:1000C000CB010008CB010008CB010008CB010008E0
:1000D000CB010008013600082D36000800000000A2
:1000E000CB010008CB010008CB0100080000000094
:1000F000000000000000000000000000CB0100082C
:1001000000000000CB010008CB010008CB01000873
:1001100000000000000000000000000000000000DF
:10012000D1060008CB010008CB010008CB01000874
:10013000CB010008000000000000000000000000EB
:10014000000000000000000000000000CB010008DB
:10015000CB010008CB010008CB01000839360008AC
:10016000CB010008CB0100080000000000000000E7
:10017000000000000000000000000000000000007F
:1001800000000000CB01000800000000000000009B
:10019000CB010008CB010008DFF810D000F092F886
:1001A0000048004711390008AFF3008040070020E5
:1001B0000648804706480047FEE7FEE7FEE7FEE701
:1001C000FEE7FEE7FEE7FEE7FEE7FEE7793200081E
:1001D000990100082DE9F05F0546002092469B46F4
:1001E00088460646814640241BE02846414647464D
:1001F000224600F057F853465A46C01A914110D390
:1002000011461846224600F03EF82D1A67EB010809
:100210004F4622460120002100F035F817EB000977
:100220004E41201EA4F10104DFDC484631462A4637
:100230004346BDE8F09FD2B201E000F8012B491E11
:10024000FBD270470022F6E710B513460A46044673
:100250001946FFF7F0FF204610BD30B50B460146AA
:1002600000202022012409E021FA02F59D4205D355
:1002700003FA02F5491B04FA02F52844151EA2F1FF
:100280000102F1DC30BD202A04DB203A00FA02F141
:10029000002070479140C2F1200320FA03F3194374
:1002A00090407047202A04DB203A21FA02F0002116
:1002B000704721FA02F3D040C2F120029140084376
:1002C00019467047064C074D06E0E06840F0010310
:1002D00094E8070098471034AC42F6D3FFF760FF6C
:1002E000283A0008483A000810B50146806B026CB5
:1002F00012F0500F05D0026CD20626D500F02BFC70
:1003000010BD016C41F40071016401688A6812F04B
:10031000405F17D1027EAAB9CA6A12F4700F02D0E8
:100320008A6852050ED44A6822F020024A60016CA5
:1003300021F480710164016CC90403D4016C41F0A3
:100340000101016400F000FC10BD806BC26CBDE8CF
:1003500010400846104710B5806B40210164416C85
:1003600041F00401416400F0F6FB10BD10B5806B54
:1003700000F0F0FB10BD000070B501251B4800F037
:1003800073FE0121194800F01DFE194C194829037C
:10039000227832B3012201F00DFC1749088840F69B
:1003A000E442504340F6FF72B0FBF2F060804888B0
:1003B00040F6E4435843B0FBF2F0A08088885843ED
:1003C000B0FBF2F0E080C8885843B0FBF2F0208127
:1003D00008895843B0FBF2F0608100202070284665
:1003E00070BD002201F0E6FB0225F8E7C000002006
:1003F0003C000020000C024028020020024A01219B
:1004000052880280084670473C000020024A0121C1
:1004100092880280084670473C000020024A012171
:10042000D2880280084670473C000020024A012121
:1004300012890280084670473C000020024A0121D0
:1004400052890280084670473C000020014800F0B5
:1004500083BB0000C000002010B504464B48416833
:1004600021F4403141604168626811434160206875
:10047000416821F48071416020684168226941EA45
:10048000022141602068416821F04071416020688C
:100490004168A268114341602068816821F40061CD
:1004A000816020688168E26811438160A06A6FF012
:1004B0007061C8422068816821F0706181602068A5
:1004C00081680CD0A26A114381602068816821F0A4
:1004D0004051816020688168E26A114301E021F0A7
:1004E000405181602068816821F0020181602068AC
:1004F0008168227E41EA4201816094F82000002850
:100500003FD0606A401E072804D940F2757120A0D0
:1005100003F0C6F92068416841F400614160206839
:10052000416821F46041416020684168264B626A5D
:1005300003EB4232114341602068C16A21F470012B
:10054000C1622068C16AA28B204B03EB02521143A7
:10055000C1622068816821F400718160206881682F
:1005600094F8302041EA422181602068816821F4BA
:100570008061816020688168626941EA82218160CE
:1005800010BD2068416821F40061D4E700230140D8
:100590002E2E2F447269766572732F53544D333269
:1005A000463478785F48414C5F4472697665722FB3
:1005B0005372632F73746D3332663478785F686179
:1005C0006C5F6164632E630000E0FFFF0000F0FFDA
:1005D000084808B5831E021F811F0090083800F0EC
:1005E00003F904490A390028087001D100F0DEF847
:1005F00008BD00000A00002010B5012405220649AC
:10060000064800F0C5FD00284FF0000002D1044963
:100610000870204610BD000028020020C000002005
:100620003C000020FEE730B50124002302E0C55C59
:10063000CD545B1C9342FADB204630BD10B501233C
:10064000002202E0845C8C54521CC478A41C9442A6
:10065000F8DC407C8854002000E08854521C122AA8
:10066000FBDB184610BD000030B518490446164A99
:10067000087801231454401CC4B20C701578002073
:10068000552D01D0087030BD0B2C01D2022030BD99
:100690005478512C04D0522C08D0532C11D10BE09B
:1006A00052F8024F8C625268CA620AE052F8024F56
:1006B0000C6352684A6304E052F8024F8C6352683C
:1006C000CA630870184630BD440200205C00002058
:1006D000014800F025BE0000080100200168182331
:1006E000CAB2103AB2FBF3F2054B6FF30901032AC9
:1006F0009B5CC36500D9091D8165084670470000F1
:10070000AC39000810B5014600208B698A6A4FF0A9
:10071000C07453B1B3F5005F15D072B1012A0CD08B
:10072000022A0AD0032A09D104E01AB1012A06D00C
:10073000022A03D1C96AC90100D5012010BDC96AC6
:10074000A142FAD010BD002AF7D0012AF2D0022A25
:10075000F3D0032AF3D010BD30B50468256825F422
:1007600080252560046863608368402B036803D09C
:1007700099600068C26030BD9A600068C16030BD99
:1007800010B50022A0F8062031F8123020F81230FF
:10079000C488521C2344C380032AF5DB99B2032288
:1007A000B1FBF2F10181084610BD70470D4C4FF4CA
:1007B0000055A6146F004FF400482946204601F06A
:1007C000C9F93146204601F0C5F93946204601F005
:1007D000C1F94146204601F0BDF9642001F044F81A
:1007E000EBE70000000C02402DE9FE4F4FF000083F
:1007F000DDF830B01E46174689468246CDF80080A7
:10080000CDF80480CDF80880FFF7B6FD0546012835
:1008100075D13C4C2078022802D384F8008001E096
:10082000401C207037482178801C00EB4100FFF706
:10083000E5FD34482178083000EB4100FFF7E6FD84
:10084000304821780E3000EB4100FFF7E7FD2D48DE
:100850002178143000EB4100FFF7E8FDDFF8A480B9
:10086000217808F11A0808EB4100FFF7E7FDA8F12D
:1008700018016846FFF784FFAAF80000684602F0F6
:10088000EDFBA8F112016846FFF77AFFA9F8000016
:10089000684602F0E3FBA8F10C016846FFF770FF21
:1008A0003880684602F0DAFBA8F106016846FFF7D7
:1008B00067FF3080684602F0D1FB41466846FFF78B
:1008C0005FFFABF80000684602F0C8FB2078A8F193
:1008D0001801BAF8002021F81020891DB9F800206D
:1008E00021F81020891D3A8821F81020891D3288AE
:1008F00021F81020BBF8002028F810202846BDE879
:10090000FE8F00009C00002010B5C2780023022159
:10091000921C04E0445C491C23449BB2C9B28A4245
:10092000F8D8D843C0B210BD70B50A4802F0A4FB95
:1009300004000DD0642000F097FF0648C01E02F0AE
:100940009BFB10EA040502D00A2000F08DFF284628
:1009500070BD0000B739000870470000F8B50026E8
:100960000546009608680C46122804D94FF4CB615E
:1009700062A002F095FF6068401E0F2804D940F283
:1009800059615EA002F08CFFA06890B1012810D0E0
:1009900002280ED003280CD004280AD0052808D03D
:1009A000062806D0072804D040F25A6153A002F06E
:1009B00077FF95F83C00012819D0012085F83C000C
:1009C000206807212A68092813D9D3680A3800EB60
:1009D000400081408B43D3602078A1680A3800EB47
:1009E000400081402868C2681143C16010E00220C5
:1009F000F8BD136900EB400081408B4313612178FF
:100A0000A06801EB4101884029680A691043086128
:100A100060681F21072813D22A68536B401E00EB21
:100A2000800081408B43536321792088491E80B226
:100A300001EB8101884029684A6B1043486327E035
:100A40002A680D2812D2136BC01F00EB8000814072
:100A50008B431363208881B22079C01F00EB800094
:100A600081402868026B1143016311E0D36A0D389D
:100A700000EB800081408B43D362217920880D39BF
:100A800080B201EB810188402968CA6A1043C862BC
:100A900029492A6827488A420AD12268122A07D19E
:100AA000426822F400024260426842F480024260DE
:100AB0002A688A421DD1214A2168914201D0112918
:100AC00017D1416821F480014160416841F400017F
:100AD0004160206890420CD119481A490068B0FB67
:100AE000F1F000EB8000400000E0401E0090002884
:100AF000FBD185F83C600020F8BD00002E2E2F446D
:100B00007269766572732F53544D33324634787858
:100B10005F48414C5F4472697665722F5372632F50
:100B200073746D3332663478785F68616C5F6164CA
:100B3000632E6300002301400020014012000010DA
:100B4000BC00002040420F0001490120087070479E
:100B50003C0000207047704770B50446007E30B1FD
:100B6000012804D040F29D4159A002F099FEE069AD
:100B7000401E0F2804D940F29E4155A002F090FE7D
:100B80006069012807D030B1022804D040F29F41AB
:100B90004FA002F085FE206801684268C1F3400161
:100BA000C2F3401251B34AB3216CC90603D4216C7D
:100BB00041F400712164816811F0405F17D1217EFA
:100BC000A9B9C16A11F4700F02D0816849050ED429
:100BD000416821F020014160206C20F48070206485
:100BE000206CC00403D4206C40F001002064204637
:100BF000FFF7AAFF21686FF0120008602068016803
:100C00004268C1F38001C2F3C01289B382B3216C80
:100C1000C90603D4216C41F400512164816811F4A8
:100C2000401F1ED1816B11F4401F02D0816849051D
:100C300017D44168490514D4816811F0405F10D180
:100C4000217E71B9416821F080014160206C20F45F
:100C500080502064206CC00503D4206C40F001005B
:100C600020642046FFF778FE21686FF00C000860D2
:100C700020680168426811F0010FC2F380120ED0A3
:100C80006AB10068C0070AD0206C40F4803020644C
:100C9000204600F03FF921686FF0010008602068ED
:100CA00001684268C1F34011C2F3806200290DD08F
:100CB000002A0BD0616C41F0020161646FF02005E5
:100CC00005602046FFF747FF2068056070BD000003
:100CD0002E2E2F447269766572732F53544D333222
:100CE000463478785F48414C5F4472697665722F6C
:100CF0005372632F73746D3332663478785F686132
:100D00006C5F6164632E63002DE9F04704004FF0CF
:100D100000057DD06F492068884204D040F243111D
:100D20006DA002F0BDFD606868B1B0F5803F0AD0EB
:100D3000B0F5003F07D0B0F5403F04D04FF4A271AA
:100D400065A002F0ADFDA0684FF080774FF000780D
:100D50004FF0407950B1B84208D0404506D04845E0
:100D600004D040F245115CA002F09AFD206930B138
:100D7000012804D04FF4A37157A002F091FD207E0A
:100D800030B1012804D040F2471153A002F088FD91
:100D90005F4EA06A80B3B8422ED040452CD0484563
:100DA0002AD0B0F1806F27D0B0F1A06F24D0B0F17D
:100DB000C06F21D0B0F1E06F1ED0B0F1006F1BD03A
:100DC000B0F1106F18D0B0F1206F15D0B0F1306FC6
:100DD00012D0B0F1406F0FD0B0F1506F0CD0B0F125
:100DE000606F09D0B0F1706F06D0B04204D04FF4FC
:100DF000A47139A002F054FDE06838B1B0F5006F7D
:100E000004D040F2491134A002F04AFDE06900E04C
:100E10003DE0401E0F2804D94FF4A5712EA002F02A
:100E20003FFD94F8300030B1012804D040F24B115E
:100E300029A002F035FD6069012807D030B10228F1
:100E400004D04FF4A67124A002F02AFD94F82000EB
:100E500030B1012804D040F24D111FA002F020FD56
:100E6000A06AB0420FD0E06A68B1B0F1805F0AD0EA
:100E7000B0F1005F07D0B0F1405F04D040F25111F3
:100E800015A002F00DFD206C002618B108E001202D
:100E9000BDE8F087204600F03FF8666484F83C60C7
:100EA000206CC00610D4206C20F4885040F0020062
:100EB00020642046FFF7D0FA6664206C20F0020020
:100EC00040F00100206400E0012584F83C602846E1
:100ED000DEE70000002001402E2E2F447269766567
:100EE00072732F53544D3332463478785F48414CF7
:100EF0005F4472697665722F5372632F73746D331A
:100F000032663478785F68616C5F6164632E630079
:100F10000100000F7047000070B586B0064614212E
:100F20006846FFF78FF92249306888423DD1214851
:100F30000025016841F480710160006800F4807050
:100F400005901C481438016841F0010101600068F7
:100F5000694600F0010005906A2000900320CDE969
:100F60000105154800F092FC154C1448C4E9000531
:100F70000015A560C4E90350400060618000A061D5
:100F80004011E0614002C4E90805204600F098FAEB
:100F900008B1FFF70BFCB463002211461220A663D0
:100FA00000F0D0FE122000F09BFE06B070BD0000E5
:100FB000002001404438024000000240106402401A
:100FC000080100202DE9F041044600680D468168C3
:100FD0004FF0000749050BD58068C00508D5206C87
:100FE00040F02000206484F83C700120BDE8F081CE
:100FF00000F016FE06460FE0681C0DD025B100F08B
:101000000FFE801BA84207D9206C40F0040020642A
:1010100084F83C700320E9E7206800688007EBD57E
:1010200021686FF012000860206C40F400702064AA
:101030002068816811F0405F13D1217E89B9C16AAF
:1010400011F4700F02D0806840050AD4206C20F49F
:1010500080702064206CC00403D4206C40F0010038
:1010600020640020C2E7000038B500250446009542
:10107000007E30B1012804D040F2D32132A002F02A
:101080000FFCE06A68B1B0F1805F0AD0B0F1005F98
:1010900007D0B0F1405F04D04FF435712AA002F0C0
:1010A000FFFB94F83C00012807D0012084F83C00A5
:1010B00020688168C90702D011E0022038BD81682C
:1010C00041F0010181602E482E490068B0FBF1F02B
:1010D00000EB400000E0401E00900028FBD120689B
:1010E0008168C9072DD0216C40F20162914341F41F
:1010F000807121644168490505D5216C21F40051B6
:1011000041F480512164216CC90404D5616C21F043
:101110000601616400E0656484F83C501A496FF090
:10112000220202604868C006206802D0174988423F
:1011300007D1816811F0405F03D1816841F080419F
:101140008160002038BD00002E2E2F447269766524
:1011500072732F53544D3332463478785F48414C84
:101160005F4472697665722F5372632F73746D33A7
:1011700032663478785F68616C5F6164632E630007
:10118000BC00002040420F0000230140002001402D
:10119000F8B5002504460095007E16460F4630B18E
:1011A000012804D04FF4A8613FA002F079FBE06A67
:1011B00068B1B0F1805F0AD0B0F1005F07D0B0F144
:1011C000405F04D040F2415137A002F069FB94F82F
:1011D0003C00012807D0012084F83C002068816889
:1011E000C90702D011E00220F8BD816841F0010179
:1011F00081603B483B490068B0FBF1F000EB4000E8
:1012000000E0401E00900028FBD120688168C907DB
:1012100048D0216C40F20162914341F48071216415
:101220004068400505D5206C20F4005040F4805003
:101230002064206CC00404D5606C20F0060060645B
:1012400000E0656484F83C50A16B2848264DC863D3
:10125000A16B27480864A16B2648C86421686FF019
:10126000220008602068416841F080614160206888
:10127000816841F480718160216833463A464C317F
:10128000A06B00F08DFA6868C006206802D01A4989
:10129000884207D1816811F0405F03D1816841F035
:1012A000804181600020F8BD2E2E2F447269766542
:1012B00072732F53544D3332463478785F48414C23
:1012C0005F4472697665722F5372632F73746D3346
:1012D00032663478785F68616C5F6164632E6300A6
:1012E000BC00002040420F0000230140E90200083A
:1012F0006D030008570300080020014090F83510E6
:10130000022903D08021416501207047052180F822
:1013100035100068016821F001010160002070476C
:101320002DE9F84304464FF00009CDF800906348DA
:101330004FF41651A56D0068B0FBF1F72E6894F8D4
:101340005C10082000FA01F131420FD021680A68D0
:1013500052070BD50A6822F004020A6094F85C1068
:101360008840A860606D40F00100606594F85C10F2
:101370004FF0010808FA01F0304208D021684969AD
:10138000090604D5A860606D40F00200606594F81D
:101390005C1004208840304208D021680968890721
:1013A00004D5A860606D40F00400606594F85C109E
:1013B00010208840304218D021680968090714D5E8
:1013C000A86020680168490304D50068000308D5B7
:1013D000A16C07E00168C90503D4016821F0080188
:1013E0000160216C09B12046884794F85C102020E8
:1013F0008840304231D021680968C9062DD5A860DF
:1014000094F8350005282068016806D0490347D5BF
:10141000006800031DD4616C1CE021F0160101601E
:101420002068416921F080014161206C08B9A06CFD
:1014300020B12068016821F00801016094F85C1077
:101440003F208840A86084F8349084F83580216D6E
:101450001FE0E16B09B120468847606D00282BD062
:10146000606DC00714D0052084F83500206801683D
:1014700021F0010101600098401C0090B84203D89F
:1014800020680068C007F6D184F8349084F835806D
:10149000E16C002910D001B02046BDE8F0430847B8
:1014A0000168C905D5D4016821F01001016084F8F4
:1014B000349084F83580CCE7BDE8F883BC00002088
:1014C0002DE9F041044600F0ABFB0546002C7CD032
:1014D000A249206888423ED0A049183188423AD0BB
:1014E0009E493031884236D09C494831884232D0BA
:1014F0009A49603188422ED09849783188422AD062
:1015000096499031884226D09449A831884222D009
:10151000934988421FD09249183188421BD0904984
:101520003031884217D08E494831884213D08C49D7
:10153000603188420FD08A49783188420BD088497F
:101540009031884207D08649A831884203D0B8211B
:1015500084A002F0A5F96068C0B1B0F1007F15D099
:10156000B0F1806F12D0B0F1C06F0FD0B0F1006F4A
:101570000CD0B0F1206F09D0B0F1406F06D0B0F1BF
:10158000606F03D0B92177A002F08AF9A06838B162
:10159000402805D0802803D0BA2172A002F080F93B
:1015A000E068B0F5007F04D018B1BB216DA002F057
:1015B00077F92069B0F5806F04D018B1BC2169A01B
:1015C00002F06EF9606958B100E071E0B0F5006FAB
:1015D00006D0B0F5805F03D0BD2162A002F060F9B3
:1015E000A06948B1B0F5005F06D0B0F5804F03D0D8
:1015F000BE215CA002F054F9E06940B1B0F5807FF3
:1016000005D0202803D0BF2156A002F049F9206A56
:1016100060B1B0F5803F09D0B0F5003F06D0B0F51D
:10162000403F03D0C0214FA002F03AF9606A002881
:1016300032D0042806D0C1214AA002F031F9606AF4
:10164000002829D0A06A48B1012807D0022805D077
:10165000032803D0C62143A002F022F9E06A60B15A
:10166000B0F5000F09D0B0F1807F06D0B0F1C07F97
:1016700003D0C7213BA002F013F9206B60B1B0F595
:10168000001F09D0B0F5800F06D0B0F5C00F03D011
:10169000C82134A002F004F9002684F83460022046
:1016A00084F835002068016821F0010101600EE036
:1016B0000120BDE8F08100BF00F0B2FA401B052810
:1016C00005D920206065032084F83500F1E7206803
:1016D0000068C007F0D12268116830480140D4E9A1
:1016E00001031843D4E903352B43184363691843B6
:1016F000A3691843E3691843236A18430843616ADE
:10170000042903D1D4E90B1319430843106020685E
:101710004069656A20F0070128460D430127042827
:101720000CD1A06A0543E06A40B12046FEF7EAFF0B
:1017300020B14020606584F83570B9E720684561C4
:101740002046FEF7CBFF94F85C203F21914081605A
:10175000666584F835700020ABE700001060024039
:10176000106402402E2E2F447269766572732F53D7
:10177000544D3332463478785F48414C5F44726947
:101780007665722F5372632F73746D3332663478BB
:10179000785F68616C5F646D612E63003F8010F05C
:1017A0002DE9F04789460446876D0025581E4FF6FF
:1017B000FF711E469046884204D34FF4E6711CA088
:1017C00002F06EF894F8340001280DD0012084F85E
:1017D000340094F835100020012907D084F8340033
:1017E00002252846BDE8F0870220FBE7022184F8A5
:1017F000351060653346424649462046FEF7ACFF49
:1018000094F85C103F208840B8602068016841F07F
:1018100016010160206C20B12068016841F00801C8
:1018200001602068016841F001010160D9E7000012
:101830002E2E2F447269766572732F53544D3332B6
:10184000463478785F48414C5F4472697665722F00
:101850005372632F73746D3332663478785F6861C6
:101860006C5F646D612E630070B5044600F0D8F9BA
:101870000546601C02D004480078044400F0D0F90A
:10188000401BA042FAD370BD300000202DE9F84F74
:10189000044692480D46844212D0914884420FD0AB
:1018A000904884420CD09048844209D08F488442AA
:1018B00006D08F48844203D0B3218EA001F0F0FF00
:1018C00028680104090C01D0000C03D0B42189A0C0
:1018D00001F0E6FF6868F8B101281DD011281BD07F
:1018E000022819D0122817D09149884214D0914962
:1018F000884211D0904988420ED0904988420BD03E
:101900008F49884208D08F49884205D0032803D0E8
:10191000B52178A001F0C4FFA86838B1012805D02E
:10192000022803D0B62173A001F0BAFF00264FF0C1
:10193000010A4FF0030B00BF0AFA06F02F68804639
:10194000074047457ED16868012805D0022803D0AA
:10195000112801D012281DD1E86848B1012807D00C
:10196000022805D0032803D0C82162A001F098FF07
:10197000A06872000BFA02F18843E96891400143C4
:10198000A1606068297920EA0800C1F30011B14024
:1019900001436160E0687100AA6888460BFA01F9AA
:1019A00020EA090002FA08F20243E26068680228AD
:1019B00001D0122828D12869C8B1092817D00128D8
:1019C00015D0022813D0042811D005280FD00628DE
:1019D0000DD007280BD0082809D00A2807D00C28DA
:1019E00005D00F2803D0E02142A001F059FFF008F4
:1019F00004EB8002106A7107CB0E0F2199408843D7
:101A000029699940014311622068297920EA090077
:101A100001F0030101FA08F1014321606868C00088
:101A200056D54948016841F480410160006826F0BC
:101A3000030100F48040009044480A18D2F80818C6
:101A4000B00700E044E0030F0F2098408143234893
:101A5000844201D1002014E02148844201D10120B8
:101A60000FE02048844201D102200AE01E4884424F
:101A700001D1032005E01D48844201D1042000E08B
:101A8000072098400843C2F80808314908686A6886
:101A9000B843D20300D5384308602D49091D0868B2
:101AA0006A68B843920300D5384308602849083172
:101AB00008686A68B843D20200D5384308602449F0
:101AC0000C3108686A68B843920200D53843086050
:101AD000761C102EFFF430AFBDE8F88F00000240F6
:101AE0000004024000080240000C024000100240C6
:101AF000001C02402E2E2F447269766572732F539C
:101B0000544D3332463478785F48414C5F447269B3
:101B10007665722F5372632F73746D333266347827
:101B2000785F68616C5F6770696F2E63000000000A
:101B300000001110000021100000311000001210F0
:101B400000002210000032104438024000300140F2
:101B5000003C014070B50C00054604D14FF4DB7128
:101B600005A001F09DFE686934EA000001D0AC6177
:101B700070BD2004A86170BD2E2E2F447269766559
:101B800072732F53544D3332463478785F48414C4A
:101B90005F4472697665722F5372632F73746D336D
:101BA00032663478785F68616C5F6770696F2E6346
:101BB0000000000070B515460C00064604D140F246
:101BC0009F1108A001F06CFE45B1012D04D04FF427
:101BD000D07104A001F064FEB46170BD2004B06156
:101BE00070BD00002E2E2F447269766572732F53DC
:101BF000544D3332463478785F48414C5F447269C3
:101C00007665722F5372632F73746D333266347836
:101C1000785F68616C5F6770696F2E630000000019
:101C20000148806870470000300000200248816849
:101C30000278114481607047300000200B4810B5D5
:101C4000016841F400710160016841F48061016044
:101C5000016841F480710160032000F0C3F80F2097
:101C600000F006F800F024F8002010BD003C02400F
:101C700070B50D4D04464FF47A712878B1FBF0F041
:101C80000A490968B1FBF0F000F0ACFC48B9102C2F
:101C900007D200222146501E00F054F800206C604C
:101CA00070BD012070BD000030000020BC0000208D
:101CB0000A4808B5016841F480410160006800F4F9
:101CC000804000900548001F016841F0805101608C
:101CD000006800F08050009008BD000044380240C9
:101CE00010B5040003D5BE2107A001F0D9FD002CDA
:101CF00009DB04F01F01012088406109890001F11E
:101D0000E021C1F8000110BD2E2E2F4472697665C6
:101D100072732F53544D3332463478785F48414CB8
:101D20005F4472697665722F5372632F73746D33DB
:101D300032663478785F68616C5F636F727465785F
:101D40002E63000070B515460C460646102A03D3D4
:101D5000AA2114A001F0A4FD102C03D3AB2111A0E3
:101D600001F09EFD1E480068C0F30223C3F1070284
:101D70002046042A00D90422191D072901D2002374
:101D800000E0DB1E012404FA02F1491E01409940E3
:101D90009C40641E2C4021433046BDE8704001F059
:101DA00083BC00002E2E2F447269766572732F5308
:101DB000544D3332463478785F48414C5F44726901
:101DC0007665722F5372632F73746D333266347875
:101DD000785F68616C5F636F727465782E63000072
:101DE0000CED00E010B5044607280BD0062C09D0F6
:101DF000052C07D0042C05D0032C03D0922108A079
:101E000001F04EFD154904F0070208684FF6FF0384
:101E1000184040EA0220124A1043086010BD00003A
:101E20002E2E2F447269766572732F53544D3332C0
:101E3000463478785F48414C5F4472697665722F0A
:101E40005372632F73746D3332663478785F6861D0
:101E50006C5F636F727465782E6300000CED00E0B8
:101E60000000FA052DE9F0470E4604007DD02068F9
:101E7000401E0E2804D940F251217AA001F010FD35
:101E800096B1012E10D0022E0ED0032E0CD0042EAF
:101E90000AD0052E08D0062E06D0072E04D040F218
:101EA000522170A001F0FCFCDFF8F081D8F80000AE
:101EB000F7B200F00F00B04207D288F80070D8F8EF
:101EC000000000F00F00B0424FD12068744D810730
:101ED00029D5400703D5286840F4E05028602078D1
:101EE000000703D5286840F460402860A068A0B1CE
:101EF000802812D0902810D0A0280ED0B0280CD066
:101F0000C0280AD0D02808D0E02806D0F02804D075
:101F100040F2752153A001F0C3FC2868A16820F0AD
:101F2000F000084328602078C00743D0DFF87091A4
:101F30006068A9F1080988B1012822D0022824D0BC
:101F4000032822D04FF41F7146A001F0A9FC60685D
:101F5000012816D0022818D0032816D0D9F800007E
:101F60008007002833DA286800E030E0616820F05C
:101F7000030008432860FFF753FE814641F2883A88
:101F800011E0D9F800008003EBE7D9F800008001E8
:101F9000E7E700BFFFF744FEA0EB0901514502D976
:101FA0000320BDE8F0872868616800F00C00B0EB02
:101FB000810FEFD1D8F80010404601F00F01B14277
:101FC00007D90770006800F00F00B04201D001206F
:101FD000E7E720784FF4805640074FF4A0574FF4BE
:101FE000C0584FF4E05914D5E06860B1B0420AD04F
:101FF000B84208D0404506D0484504D040F2BA2146
:1020000018A001F04DFC2868E16820F4E050084376
:1020100028602078000715D5206960B1B0420AD049
:10202000B84208D0404506D0484504D040F2C1210E
:102030000CA001F035FC2868216920F4604040EADA
:10204000C100286000F054F82968164AC1F3031152
:10205000515CC8401449086014480068FFF708FE46
:1020600000209EE72E2E2F447269766572732F53DF
:10207000544D3332463478785F48414C5F4472693E
:102080007665722F5372632F73746D3332663478B2
:10209000785F68616C5F7263632E6300003C02408E
:1020A00008380240BA390008BC0000203400002083
:1020B0000448054900680968044AC1F38221515C5B
:1020C000C8407047BC00002008380240CA390008E8
:1020D0000448054900680968044AC1F34231515C6B
:1020E000C8407047BC00002008380240CA390008C8
:1020F000154810B5006810F00C02144813D04110B8
:10210000042A0FD0082A0ED10F4C241F22682368FE
:1021100002F03F025B0207D52068C0F38810A0FBE5
:10212000010106E0084610BD2168C1F38811A1FB3A
:1021300000010023FEF74EF82168C1F30141491C5C
:102140004900B0FBF1F010BD083802400024F40053
:102150002DE9F84F04007DD020680F2803D9E8212D
:10216000F6A001F09DFB2078DFF80894C007A9F1E4
:10217000040555D060684FF480364FF4A02738B17D
:10218000B04205D0B84203D0ED21ECA001F088FBAD
:10219000F848001D0168C1F38101012908D00068D9
:1021A000C0F3810002280AD1D9F80000400206D508
:1021B0002868800334D560680028CCD030E060689F
:1021C000B04203D1286840F480300CE0B84228685F
:1021D00003D140F480202860F4E720F480302860A8
:1021E000286820F480202860606860B1FFF718FD3F
:1021F000064604E0FFF714FD801B64287ED828689B
:102200008003F7D50CE0FFF70BFD064605E000BFA5
:10221000FFF706FD801B6428F0D828688003F7D4F8
:102220002078DFF8548380074FF0000A56D5E06825
:1022300030B1012804D040F21F11C0A001F030FBE2
:1022400020691F2804D94FF49071BCA001F028FB2D
:10225000C84800E092E0001D016811F00C0F08D0A2
:102260000068C0F38100022810D1D9F800004002B4
:102270000CD42868800702D5E06801287ED1286840
:10228000216920F0F80040EAC10017E0E068B8B129
:102290000120C8F80000FFF7C3FC064605E000BFB8
:1022A000FFF7BEFC801B0228A8D828688007F7D556
:1022B000286820F0F801206941EAC00028600DE09C
:1022C000C8F800A0FFF7ACFC064604E0FFF7A8FC46
:1022D000801B022892D828688007F7D4207800074E
:1022E0002ED5A44EA54F60697036D0B1012808D014
:1022F0004FF4B07191A001F0D3FA00E049E16069B8
:1023000078B101203860FFF78BFC074605E000BF7D
:10231000FFF786FCC01B0228C6D830688007F7D5B7
:102320000EE0C7F800A0FFF77BFC074605E000BF02
:10233000FFF776FCC01B0228B6D830688007F7D4B8
:102340002078400776D5A068002740B1012806D044
:10235000052804D04FF4C67178A001F0A1FADFF887
:1023600014B20BF13C0BDBF80000C0000DD4DBF81D
:10237000001041F08051CBF8001000E02EE1DBF8B6
:102380000000012700F0805000907D4E3068C005AD
:1023900011D4306840F480703060FFF741FC009049
:1023A00006E000BFFFF73CFC0099401A022891D8D4
:1023B0003068C005F6D56F4EA0686C3601280FD086
:1023C0000528306810D020F001003060306820F01F
:1023D00004003060A068B8B1FFF722FC00900FE065
:1023E000306840F00100F4E740F004003060F7E7A7
:1023F000FFF716FC0099411A41F2883081428BD8D0
:1024000030688007F4D50EE0FFF70AFC009007E083
:10241000FFF706FC0099411A41F2883081428BD8BF
:1024200030688007F4D42FB1DBF8001021F0805120
:10243000CBF80010A069002874D0012809D0022828
:1024400007D040F2CF113DA001F02AFAA069002880
:10245000F2D04848001D0068C0F381000228A0693E
:102460006BD0022805D0C8F860A0FFF7D9FB04465E
:1024700092E0E06938B1B0F5800F04D04FF4EC7110
:102480002EA001F00DFA206A3F2804D940F2D9119C
:102490002AA001F005FA606AC038F02804D94FF488
:1024A000ED7126A001F0FCF9A06A02280AD00428E8
:1024B00008D0062806D0082804D040F2DB111FA05F
:1024C00001F0EEF9E06A801E0D2804D94FF4EE7198
:1024D0001AA001F0E5F94746C8F860A0FFF7A0FB95
:1024E000064604E0FFF79CFB801B022851D82868B1
:1024F0008001F7D4D4E907010843A16A214A4908B9
:1025000002EB0141626A41EA8211084394F82C10FF
:1025100040EA0161C9F8001001203866FFF780FB2E
:10252000044606E05CE000BFFFF77AFB001B0228D0
:102530002FD828688001F7D552E031E02E2E2F44A5
:102540007269766572732F53544D333246347878FE
:102550005F48414C5F4472697665722F5372632FF6
:1025600073746D3332663478785F68616C5F726360
:10257000632E63000438024000004742800E474249
:10258000007000400000FFFFFFF74AFB001B02281D
:1025900002D90320BDE8F88F28688001F4D41FE039
:1025A0000128F7D0D9F80000E26900F480019142D7
:1025B00014D1226A00F03F0191420FD147F6C07159
:1025C000626A0140914209D1A26A00F4403191420D
:1025D00004D1E16A00F07060884201D00120D9E79F
:1025E0000020D7E710B5401EB0F1807F01D3012055
:1025F00010BD4FF0E02460610F21601701F054F826
:102600000020A06107202061002010BD10B5064CFD
:10261000207AFEF729F8607204F10801BDE8104045
:102620000122024800F04CBA480000206801002056
:102630002DE9F00335484378C3718478344A4FF06C
:102640000108002134B9552B10D081704171C1703F
:10265000117051708478ECB345794FF00209022D66
:1026600013D0032D13D0042D1AD01FE0C478641C9E
:10267000E4B2C470022CEDD1C17080F8028080F801
:102680000580552414705470E4E793700EE0D37005
:10269000DC1E0371052C09D380F80490D17004E08E
:1026A0005C1E1371362C01D3117181700479867907
:1026B000A446E41EA64208DA042D06D99719761C12
:1026C000F6B27B718671A64215D0F6B2A64203D14E
:1026D00016B100E00FE053740CF1020C65450AD10D
:1026E00002783AB980F8008041718170C17080F839
:1026F00004908171817041790122491C4171BDE8CA
:10270000F00302490348491C00F0DAB948000020F0
:1027100032020020E8010020C16B82B0090709D510
:10272000006801684068009001220349034802B034
:1027300000F0C6B902B070475000002068010020C8
:1027400070B5026804461068D168536910F00F0F25
:1027500052D003F0010501F490762E435FD0C207FA
:1027600005D0CA0503D5E26B42F00102E2634207DD
:1027700005D5DA0703D0E26B42F00202E26382077A
:1027800005D5DA0703D0E26B42F00402E2630207E8
:1027900007D501F020022A4303D0E26B42F0080281
:1027A000E263E26B002A33D0800604D5880602D5A6
:1027B000204600F097FD20684069E16BC0F380106F
:1027C000090700D428B3204600F07EFD2068416947
:1027D00049061AD5416921F040014161606BA0B101
:1027E0001B490165606BFEF789FD002810D0606B06
:1027F000016DBDE870400847830610D58B060ED5E5
:102800002046BDE8704000F06DBD2046FFF784FF14
:1028100070BD2046FFF780FF0020E06370BD030617
:1028200006D50B0604D52046BDE8704000F084BEF6
:102830004006F3D54806F1D5D168204621F0400185
:10284000D160202184F8391000F0D7F970BD000064
:10285000B932000870B5040020D0A06935490028BD
:10286000354A364B20681BD088420AD0904208D0A7
:10287000984206D040F24B1131A001F011F8A06946
:10288000C8B1A069B0F5807F15D0B0F5007F12D037
:10289000B0F5407F0FD04FF4A67109E0012070BD64
:1028A000884208D0904206D0984204D04FF4A871D4
:1028B00023A000F0F5FFA06838B1B0F5805F04D028
:1028C0004FF4A9711EA000F0EBFFE06938B1B0F53C
:1028D000004F04D040F2531119A000F0E1FF94F82A
:1028E0003900002520B984F83850204600F046F819
:1028F000242084F839002068C16821F40051C160A7
:10290000204600F03BFD2068016921F490410161FF
:102910002068416921F02A0141612068C16841F4C1
:102920000051C160E563202084F8390084F83A0042
:10293000002070BD00100140004400400014014020
:102940002E2E2F447269766572732F53544D333295
:10295000463478785F48414C5F4472697665722FDF
:102960005372632F73746D3332663478785F6861A5
:102970006C5F756172742E6300000000F0B587B063
:10298000044614216846FDF75DFC4749DFF814C191
:1029900023680024444A14390225032607274348A4
:1029A00063451FD1136843F010031360126802F0EF
:1029B000100205920A6842F001020A60096802AB3F
:1029C00001F0010105917102CDE9001583E8D00005
:1029D0006946FEF75BFF002203212520FFF7B2F9CD
:1029E000252036E0DFF8C8C0634536D12E4A121FD5
:1029F000136843F400331360126802F40032059246
:102A00000A6842F001020A600A6802F001020592B7
:102A10000A6842F008020A60096802AA01F0080187
:102A200005910421CDE9001582E8D0006946FEF742
:102A30002DFF4020CDE9000502AA694682E8D000BA
:102A40001C48FEF723FF002205212620FFF77AF914
:102A50002620FFF745F907B0F0BD17488342FAD1A9
:102A6000106840F020001060106800F02000059011
:102A7000086840F0040008600868029400F0040050
:102A80000590C020CDE900050820CDE90360694626
:102A90000A48FEF7FBFE002206214720FFF752F905
:102AA0004720D6E7001001404438024000000240B1
:102AB00000440040000C02400014014000080240A5
:102AC00090F83A30202B22D1F9B1F2B190F8383099
:102AD000012B1CD081628285C2850021C163222224
:102AE00080F83A2080F838100168CA6842F4807291
:102AF000CA6001684A6942F001024A610068C1681F
:102B000041F02001C1600020704701207047022081
:102B10007047000010B5044600680749884201D19B
:102B2000FFF774FD05492068884203D1BDE81040D5
:102B3000FFF77EBD10BD00000010014000140140F1
:102B40002DE9F843044690F839001F4616460D4615
:102B5000202850D1B5B1AEB194F8380001284AD040
:102B6000012084F838004FF00008C4F83C80212090
:102B700084F83900FFF754F8A6848146E68484F887
:102B8000388026E00120BDE8F883E08C401EE08418
:102B9000A0684B46B0F5805F4FF000024FF0800117
:102BA0002046009703D000F0F8FCE8B90DE000F0F3
:102BB000F4FCC8B928882168C0F30800486020697F
:102BC00008B16D1C05E0AD1C03E0216815F8010B90
:102BD0004860E08C0028D8D14B4600224021204696
:102BE000009700F0DAFC08B10320CCE7202084F83D
:102BF00039000020C7E70220C5E77047FEE7000064
:102C000010B52E4800F040FDFDF7F6FC2C4C0028D6
:102C1000207037D02BA000F037FD2078002833D06B
:102C200000F020FD2070002831D030A000F02CFDF5
:102C3000207800282DD000F0E9FC207000282BD04F
:102C400033A000F021FD2078002827D000F030FAD2
:102C50002070002825D037A000F016FD207800282D
:102C600021D0FDF761FE2070002821D031A000F0B6
:102C70000BFD39A000F008FD4FF4FA70FEF7F4FDEB
:102C8000207810BD3FA014E04FF493710DE047A0F1
:102C90000FE040F2331108E04DA00AE04FF4A071BC
:102CA00003E054A005E040F24D115BA000F0F8FDF8
:102CB0005EA000F0E9FCFDF779FD0000D4390008C2
:102CC000000000207375636365737320746F20695F
:102CD0006E697469616C697A652041444320507261
:102CE0006F6365647572650D0A0000007375636338
:102CF00065737320746F20696E697469616C697A99
:102D000065205553415254362049540D0A000000A5
:102D10007375636365737320746F20696E6974697A
:102D2000616C697A65205553415254312049540DE4
:102D30000A0000007375636365737320746F206904
:102D40006E697469616C697A6520536572766F4D3E
:102D50006F746F720D0A00004465766963652070B8
:102D60006F7765722D6F6E2064656C6179203530E8
:102D700030206D732C20706C6561736520776169FC
:102D8000740D0A004661696C656420746F20696E79
:102D9000697469616C697A65204144432E205072E0
:102DA0006F6365647572650D0A0000004661696CA9
:102DB000656420746F20696E697469616C697A65F5
:102DC000205553415254362049540D0A000000004A
:102DD0004661696C656420746F20696E697469610D
:102DE0006C697A65205553415254312049540D0A7B
:102DF000000000004661696C656420746F20696E94
:102E0000697469616C697A6520536572766F4D6F7C
:102E1000746F720D0A0000002E2E2F436F72652F03
:102E20005372632F6D61696E2E6300004661696C99
:102E3000656420746F20696E697469616C697A6574
:102E4000204779726F73636F70650D0A0000000090
:102E50007FB500212A48009101910291274A0391F0
:102E6000026001244FF480320461C0E9012101763F
:102E700080F82040234A4462C0E90A210525C56143
:102E8000C16080F830404461FDF73EFF08B1FDF7B6
:102E90008DFC02260094CDE9014669461848FDF7ED
:102EA0005DFD08B1FDF782FC0324CDE900466946CB
:102EB0001348FDF753FD08B1FDF778FCCDE9005448
:102EC00069460F48FDF74AFD08B1FDF76FFC062083
:102ED00000900420019069460948FDF73FFD08B1C4
:102EE000FDF764FC1120CDE9000569460448FDF7B3
:102EF00035FD002801D0FDF759FC7FBD00200140C1
:102F0000C00000200100000F094808B5016841F425
:102F1000800101600068002200F48000009002211E
:102F20003820FEF70FFFBDE808403820FEF7D8BE76
:102F30003038024070B586B014216846FDF782F93A
:102F40001A480024016841F004010160016801F0A1
:102F500004010591016841F080010160016801F000
:102F600080010591016841F001010160016801F0F3
:102F700001010591016841F00801016000680C4EF3
:102F800000F008004FF470450590002229463046B5
:102F9000FEF710FE01200095CDE901046946304698
:102FA0000394FEF773FC06B070BD00003038024099
:102FB000000C02400C4810B50A4901604FF416514C
:102FC0004160002181600C22C160C0E9041281616E
:102FD000C161FFF73FFC002803D0BDE81040FDF7BA
:102FE000E5BB10BD00100140680100200C4810B581
:102FF0000A4901604FF4E1314160002181600C22F7
:10300000C160C0E904128161C161FFF723FC00289F
:1030100003D0BDE81040FDF7C9BB10BD004400401F
:10302000A80100200C4810B50A4901604FF4E131B5
:103030004160002181600C22C160C0E904128161FD
:10304000C161FFF707FC002803D0BDE81040FDF781
:10305000ADBB10BD00140140E801002000210A466C
:1030600020F81120491C0329FADB0281C280704735
:10307000FEE7FEE7704770472DE9F04101250A4F52
:10308000064600240849305D7870FF230122491C60
:103090000648FFF755FD00B10025641C032CF1DB49
:1030A0002846BDE8F08100005C0000206801002097
:1030B00038B50020062400904FF496720A2120466D
:1030C00000F00BF86946204600F034F804464FF44F
:1030D000FA70FEF7C9FB204638BD00B58BB055230A
:1030E0008DF800308DF801308DF8020007208DF842
:1030F000030001208DF804008DF80510080A8DF8F2
:103100000600100A8DF807208DF80800122205A984
:103110006846FDF788FA05A8FDF7F6FB8DF8110063
:1031200005A96846FDF78AFA122105A800F08AFA77
:103130000BB000BD30B58BB0024655208DF80000B5
:103140008DF801008DF8022003208DF803001C206B
:103150000D468DF80400122205A96846FDF763FAB2
:1031600005A8FDF7D1FB8DF8110005A96846FDF70C
:1031700065FA122105A800F065FA0446284600F019
:1031800003F80BB0204630BD70B586B00546012669
:103190004FF4FA7404E0641E02D5022006B070BD3C
:1031A00000F0AAFB0028F6D069460D48FDF746FA64
:1031B0006846FDF7A9FB0B49087009494A7C824221
:1031C00001D00020EAE708791C2801D03046E5E765
:1031D000B1F805000124286000F05CF82046DDE726
:1031E0003202002058000020FEF720BD30B593B019
:1031F00030216846FDF726F814210CA8FDF722F8C7
:103200001B480024016841F080510160006800F013
:10321000805011901748016841F4404101600068F6
:10322000022500F4404011900120039010200095E9
:1032300006950490CDE907404FF4C870099004202A
:103240000A9008200B906846FEF782FF60B90F20B5
:10325000CDE90C05E802CDE90E4003210CA810943D
:10326000FEF700FE002801D0FDF7A0FA13B030BD34
:1032700040380240007000400548016841F4700188
:10328000016003494FF0006080390860704700001A
:1032900088ED00E0064900208870C87002220A719B
:1032A00048718871C8710349087048707047000000
:1032B000480000203202002010B5806B0021C1853B
:1032C000C184FFF729FA10BD0168CA6822F4907220
:1032D000CA6001684A6922F001024A61202180F82F
:1032E0003A10704710B590F83A10222901D0022008
:1032F00010BD8168B1F5805F11D0016900290168B6
:103300001FD0496801F07F03816A4A1C82620B70FA
:10331000C18D491E0904090CC18518D02BE0026932
:10332000816A002A0268526805D0D2B20A80816A96
:10333000491C8162ECE7C2F308020A80816A891C99
:10334000F7E74A68816A4B1C83620A70E0E701680C
:10335000CA6822F02002CA600168CA6822F480723A
:10336000CA6001684A6922F001024A61202180F89E
:103370003A10FFF7CFFB002010BD00002DE9F0410F
:10338000044640685A49884204D940F6FB3159A0A6
:1033900000F086FAE06838B1B0F5005F04D040F67E
:1033A000FC3154A000F07CFA206950B1B0F5806F78
:1033B00007D0B0F5C06F04D040F6FD314DA000F04D
:1033C0006FFA60694FF6F371084200D120B940F6F8
:1033D000FE3148A000F064FA20680169E26821F437
:1033E0004051114301612169A068E26908436169A4
:1033F000114308432168CA6849F20C639A430243A7
:10340000CA6020684169A26921F440711143416199
:10341000E069192764253226B0F5004F4449454A32
:1034200020684FF0000806D0904201D0884236D183
:10343000FEF74EFE35E0904201D0884202D1FEF701
:1034400047FE01E0FEF734FE61684A18A0FB070161
:1034500048EB0803FCF7BEFE0146B0FBF5F00201A5
:10346000B1FBF5F06FF01803584301EB800006EB59
:10347000C000B0FBF5F000F0F80002EB4002B1FB39
:10348000F5F0584301EB800006EBC000B0FBF5F00F
:1034900000F00700216810448860BDE8F081FEF765
:1034A00007FE61688B0F8A00A0FB0701FCF792FE04
:1034B0000146B0FBF5F06FF01802504301EB8000BD
:1034C00006EB0010B0FBF5F000F0F002B1FBF5F0F8
:1034D00002EB0012B1FBF5F06FF01803584301EB5B
:1034E000800006EB0010B0FBF5F000F00F00D1E714
:1034F000A037A0002E2E2F447269766572732F5369
:10350000544D3332463478785F48414C5F44726999
:103510007665722F5372632F73746D33326634780D
:10352000785F68616C5F756172742E6300000000E3
:10353000001401400010014090F83910212901D0F9
:10354000022070478168B1F5805F016A0BD04A1C88
:103550000262026809785160C18C491E0904090C95
:10356000C1840ED017E009880268C1F308015160D8
:1035700001690029016A02D0491C0162ECE7891C3B
:10358000FBE70168CA6822F08002CA600068C1686F
:1035900041F04001C160002070472DE9F04198469C
:1035A00017460E460446069D1DE0681C1BD02DB133
:1035B000FEF736FBA0EB0800A84214D92068C168CA
:1035C00021F4D071C1602068416921F0010141619D
:1035D000202084F8390084F83A00002084F838006C
:1035E0000320BDE8F0812068006836EA000004D0BE
:1035F0000020B842D9D00020F3E70120F9E700000D
:103600000148FFF79DB800006801002010B50124B3
:10361000224604490448FFF753FA08B1002010BDC0
:10362000204610BD50000020680100200148FFF72F
:1036300087B80000A80100200148FFF781B800000A
:10364000E801002010B50A4601460124642304481D
:10365000FFF776FA08B1002010BD204610BD00002B
:10366000E801002010B50124224604490448FFF770
:1036700027FA08B1002010BD204610BD49000020E7
:10368000E8010020FEE700000FB4054B10B503A9C8
:10369000044A029800F028F810BC5DF814FB000002
:1036A000DD380008540000200907090E002804DB5B
:1036B00000F1E02080F80014704700F00F0000F1E6
:1036C000E02080F8141D704702E008C8121F08C1EE
:1036D000002AFAD170477047002001E001C1121F93
:1036E000002AFBD1704700002DE9FF4F8BB09A46AE
:1036F0000F460546002606E025280BD052460D99B8
:1037000090476D1C761C28780028F5D10FB0304604
:10371000BDE8F08F0024A0460122604900E0044388
:1037200015F8013F203B02FA03F00842F7D1287850
:103730002E2817D115F8010F44F004042A280ED0C2
:103740006FF02F022878A0F1300109290AD808EB80
:10375000880102EB410100EB01086D1CF2E757F80C
:10376000048B6D1C287869283ED006DC0028CDD05B
:1037700063280BD0642804D136E0732810D0752854
:103780004BD052460D999047761C85E017F8040BF4
:103790008DF8000000208DF80100E946012003E0CB
:1037A00057F8049B4FF0FF3061074FF0000401D43D
:1037B0000AE0641C44450DDA8442FADB19F804106F
:1037C0000029F6D106E0641C8442FCDB19F80410E1
:1037D0000029F8D1264404E019F8010B52460D994E
:1037E0009047641EF8D257E001CF4FF00A0B002833
:1037F00002DA40422D2102E0210504D52B218DF86B
:103800002410012103E0E10705D02021F7E70DF1A5
:10381000200908910CE00021F9E701CF4FF00A0BD5
:10382000F9E75946FCF719FD01F1300209F8012DBD
:103830000028F6D1ADEB090000F1200B600701D4A0
:103840004FF00108D84502DDA8EB0B0000E0002096
:103850008046002406E009A85246005D0D99904775
:10386000641C761C08988442F5DB04E03020524644
:103870000D999047761CB8F10001A8F10108F5DC1C
:1038800005E019F8010B52460D999047761CBBF1E3
:103890000001ABF1010BF4DC6D1C34E709280100D9
:1038A0000A46014601A0FFF7EFFEFEE757726F6E72
:1038B0006720706172616D65746572732076616CEA
:1038C00075653A2066696C65202573206F6E206CE3
:1038D000696E652025640D0A00000000054909682D
:1038E000C90105D54FF060410A68002AFCD0087074
:1038F00070470000FCED00E004480178012901D088
:10390000002070470021017001207047480000200E
:10391000FEF794F9FFF76AFCFFF70CFBFFF7F4FAE8
:10392000FFF796FAFFF746FBFFF760FBFFF77AFB1E
:10393000FFF766F90649087028B106A0FFF7A4FE54
:10394000FCF746FEFCE70EA0FFF79EFEFCF72EFFFD
:10395000000000207375636365737320746F2069C2
:103960006E697469616C697A652048617264776117
:1039700072652050726F6365647572650D0A000090
:103980004661696C656420746F20696E6974696151
:103990006C697A6520486172647761726520507243
:1039A0006F6365647572650D0A00000000061016ED
:1039B00000061016FFAA52FFAA67000000000000D0
:1039C00000000102030406070809000000000102CC
:1039D000030400003D3D3D3D3D3D3D3D3D3D3D3D04
:1039E0005468652073797374656D207374617274A3
:1039F0007320746F20696E697469616C697A6520DF
:103A000068617264776172653D3D3D3D3D3D3D3D80
:103A10003D3D3D3D3D3D3D3D3D3D3D3D3D3D3D3DD6
:103A20003D3D3D3D3D0D0A00483A000800000020A4
:103A3000C0000000C8360008083B0008C000002095
:103A400080060000D83600080100000000000000D9
:103A50000000000000000000000000000000000066
:103A60000000000000000000000000000000000056
:103A70000000000000000000010000001000000035
:103A80000000000000000000000000000000000036
:103A90000000000002000000000100000000000023
:103AA0000000000000000000000000000000000016
:103AB0000000000000000000000000000000000006
:103AC00000000000000000000000000000000000F6
:103AD00000000000000000000000000000000000E6
:103AE00000000000000000000000000000000000D6
:103AF00000000000000000000000000000000000C6
:083B0000000000000024F400A5
:040000050800019955
:00000001FF
