:020000040800F2
:10000000A0380020B10100089D660008095E0008C4
:1000100099660008CD0B0008B598000800000000A4
:1000200000000000000000000000000091690008CE
:10003000370F000800000000476900083F6C000807
:10004000CB010008CB010008CB010008CB01000860
:10005000CB010008CB010008CB010008CB01000850
:10006000CB010008CB010008CB010008CB01000840
:10007000CB010008CB010008CB010008CB01000830
:10008000CB010008CB01000889090008000000002E
:10009000000000000000000000000000CB0100088C
:1000A000CB010008CB010008CB010008CB01000800
:1000B0001D6D00082D6D00083D6D0008CB01000886
:1000C000CB010008CB010008CB010008CB010008E0
:1000D000CB010008DD740008117500080000000065
:1000E000CB010008CB010008CB0100080000000094
:1000F000000000000000000000000000CB0100082C
:1001000000000000CB010008CB010008CB01000873
:1001100000000000000000000000000000000000DF
:10012000950D0008CB010008CB010008CB010008A9
:10013000CB010008000000000000000000000000EB
:10014000000000000000000000000000A1660008A0
:10015000CB010008CB010008CB0100088D75000819
:10016000CB010008CB0100080000000000000000E7
:10017000000000000000000000000000000000007F
:1001800000000000CB01000800000000000000009B
:10019000CB010008CB010008DFF810D000F0D4FA42
:1001A00000480047BDA20008AFF30080A03800203F
:1001B0000648804706480047FEE7FEE7FEE7FEE701
:1001C000FEE7FEE7FEE7FEE7FEE7FEE7016D00085B
:1001D000990100082DE9F05F0546002092469B46F4
:1001E00088460646814640241BE02846414647464D
:1001F000224600F030F953465A46C01A914110D3B6
:1002000011461846224600F017F92D1A67EB01082F
:100210004F4622460120002100F00EF917EB00099D
:100220004E41201EA4F10104DFDC484631462A4637
:100230004346BDE8F09F40EA01039B0703D009E075
:1002400008C9121F08C0042AFAD203E011F8013BC2
:1002500000F8013B521EF9D27047D2B201E000F81B
:10026000012B491EFBD270470022F6E710B513465A
:100270000A4604461946FFF7F0FF204610BD421C0F
:1002800010F8011B0029FBD1801A70472DE9FE4FA1
:10029000804681EA0300C00F0C46009021F0004127
:1002A00023F00045B8EB0200A94105D240462146A3
:1002B00090461C460B46024623F00040104347D0B0
:1002C000270DC7F30A00C3F30A510290401A0190A8
:1002D00040286BDAC3F3130040F4801B0098924669
:1002E00020B10023D2EB030A63EB0B0B01985946B4
:1002F000C0F14002504600F09FF806460D465046B9
:100300005946019A00F0B7F810EB0800614100244B
:1003100087EA115284EAE7731A4340D0009A62B325
:10032000019A012A4FEA075215DC001B61EB02011A
:100330004FF0004202EA0752CDE90042001C41F5AD
:10034000801132462B4600F0B7F803B0BDE8F08FBD
:1003500040462146F9E7001B61EB0201001C41F514
:10036000801300185B412018A2F5001747EB03012A
:1003700040EAD570B6196D4111E06D084FEA3606B6
:1003800045EAC0754FEA0752001B61EB0201001CF1
:1003900041F5801149084FEA3000001951413246B9
:1003A0002B4603B0BDE8F04F00F077B8009801226B
:1003B00040000023D0EB020263EBE073009821467B
:1003C0004FEAE074B8EB000061EB0401E9E783F069
:1003D00000435BE781F0004158E7000030B5041EA0
:1003E00071F1000404DB4FF00044404264EB010172
:1003F000141E73F1000405DB1C464FF0004352420B
:1004000063EB0403994208BF904230BD30B50B4600
:10041000014600202022012409E021FA02F59D4234
:1004200005D303FA02F5491B04FA02F52844151E08
:10043000A2F10102F1DC30BD202A04DB203A00FAEF
:1004400002F1002070479140C2F1200320FA03F32B
:10045000194390407047202A04DB203A21FA02F029
:100460000021704721FA02F3D040C2F120029140EE
:10047000084319467047202A06DBCB17203A41FA79
:1004800002F043EAE07306E041FA02F3D040C2F121
:100490002002914008431946704710B5141E73F1AD
:1004A000000408DA401C41F1000192185B411A4334
:1004B00001D120F0010010BD2DE9F04D92469B4680
:1004C00011B1B1FA81F202E0B0FA80F22032904626
:1004D000FFF7B2FF04460F4640EA0A0041EA0B016B
:1004E00053465A46084313D0114653EA010019D027
:1004F000C8F140025046FFF7AEFF05460E46504693
:1005000059464246FFF798FF084305D0012004E012
:1005100020463946BDE8F08D0020054346EAE076E6
:100520002C4337430A986305E40AA0EB0800002235
:10053000FD0A44EA47540A3002D500200146E9E7A3
:10054000010510196941DDE9084500196941BDE857
:10055000F04DA2E72DE9FE4F81EA030404F00044C8
:1005600021F0004100944FF0000B23F0004350EACB
:1005700001045ED052EA03045BD0C3F30A54C1F312
:100580000A552C44A4F2F3340194A0FB0254C1F3A5
:10059000130141F48011C3F3130343F4801301FBEF
:1005A000024400FB034E840A970A44EA815447EA56
:1005B0008357A4FB076802958D0A05FB07854FEA60
:1005C000932C04FB0C542705029D4FEA065847EA7A
:1005D0001637B5EB08056EEB070C870E920E47EA4F
:1005E000811742EA8312A7FB0201B6EB0B0164EB11
:1005F00000042B0D43EA0C335E1844EB1C50DA4622
:100600005146E7FB0201C5F313044FEA0B3343EAFB
:1006100014534FEA0432019C43EA0603A4F10C048C
:100620000294009CCDE900B4FFF746FF03B0BDE89B
:10063000F08F00200146F9E72DE9F04D81EA03042F
:1006400004F0004B21F0004514464FF0000A23F05F
:10065000004150EA050220D054EA01021DD0C5F342
:100660000A570246C5F31303C1F31300C1F30A5638
:1006700040F4801543F48013A7EB0608101BD64600
:1006800008F2FD3873EB050002D308F1010801E020
:1006900092185B41B8F1000F03DA00200146BDE873
:1006A000F08D00204FF48011064684460EE0171BA3
:1006B00073EB050705D3121B63EB050306434CEAF6
:1006C000010C49084FEA300092185B4150EA0107DB
:1006D000EDD152EA030012D082EA040083EA050158
:1006E000084305D0101BAB4106D20122002306E0CF
:1006F00000224FF0004302E06FF0010253101AEBAA
:1007000006004CEB085110EB0A0041EB0B01BDE871
:10071000F04DFFF7C2BEC1F30A52C1F3130140F21C
:10072000FF3341F480119A4202DA002001467047FB
:1007300040F233439A42A2F2334202DC5242FFF7C4
:100740008ABEFFF779BE0000064C074D06E0E06860
:1007500040F0010394E8070098471034AC42F6D308
:10076000FFF71EFD40A4000860A4000870B58C18B7
:1007700010F8015B15F0070301D110F8013B2A11B5
:1007800006D110F8012B03E010F8016B01F8016BA2
:100790005B1EF9D12B0705D40023521E0DD401F89E
:1007A000013BFAE710F8013BCB1A921C03E013F867
:1007B000015B01F8015B521EF9D5A142D8D300209C
:1007C00070BD70B50546AC6B206C00F0500050BB9E
:1007D000206C40F4007020642068806800F0405075
:1007E000E8B9207ED8B92068C06A00F4700020B152
:1007F0002068806800F4806088B92068406820F034
:10080000200021684860206C20F480702064206CF7
:1008100000F4805018B9206C40F00100206420469C
:1008200000F064FF0BE0206C00F0100018B12046CF
:1008300000F063FF03E0A06BC16C2846884770BDE1
:1008400070B50546AC6B40202064606C40F004003D
:100850006064204600F051FF70BD70B50446A56B82
:10086000284600F049FF70BD10B50124294801F069
:1008700045FA0121274801F0DFF92748007830B90F
:1008800000222103254802F093F902243FE00122CF
:100890001103224802F08CF92148008840F6E44117
:1008A000484340F6FF71B0FBF1F01E4908801C4838
:1008B000408840F6E441484340F6FF71B0FBF1F058
:1008C000194908801648808840F6E441484340F6BC
:1008D000FF71B0FBF1F0154908801148C08840F65F
:1008E000E441484340F6FF71B0FBF1F01049088045
:1008F0000B48008940F6E441484340F6FF71B0FBE5
:10090000F1F00C49088000200349087001242046BA
:1009100010BD000010030020AA000020000C0240BF
:1009200038050020A0000020A2000020A400002024
:10093000A6000020A800002001460120014A1288DC
:100940000A807047A000002001460120014A128859
:100950000A807047A200002001460120014A128847
:100960000A807047A400002001460120014A128835
:100970000A807047A600002001460120014A128823
:100980000A807047A800002010B5024800F0B6FEAB
:1009900010BD00001003002070B504465B4D686870
:1009A00020F44030686068686168084368602068C7
:1009B000406820F4807021684860206841682069A0
:1009C00041EA0020216848602068406820F04070BB
:1009D0002168486020684068A16808432168486031
:1009E0002068806820F40060216888602068806842
:1009F000E1680843216888604549A06A884218D0A8
:100A00002068806820F070602168886020688068B5
:100A1000A16A0843216888602068806820F04050FF
:100A20002168886020688068E16A084321688860DE
:100A30000BE02068806820F0706021688860206882
:100A4000806820F04050216888602068806820F02D
:100A500002002168886020688168207E41EA4000A9
:100A6000216888602020005DF8B1606A18B1606A72
:100A7000082800D804E040F2757126A009F0C2FBF6
:100A80002068406840F40060216848602068406841
:100A900020F460402168486020684168606A401E18
:100AA00041EA40302168486005E02068406820F451
:100AB0000060216848602068C06A20F470002168E6
:100AC000C8622068C16AA08B401E41EA00502168BC
:100AD000C8622068806820F40070216888602068FF
:100AE000816894F8300041EA4020216888602068DD
:100AF000806820F48060216888602068816860696F
:100B000041EA80202168886070BD00000023014018
:100B10000100000F2E2E2F447269766572732F53D9
:100B2000544D3332463478785F48414C5F447269A3
:100B30007665722F5372632F73746D333266347817
:100B4000785F68616C5F6164632E630010B5012497
:100B5000E01E0C49096808610A4803F093FE10B1D1
:100B60000020044610BD05220749084801F082F91B
:100B700010B100200446F5E7002005490870204622
:100B8000F0E70000B8030020380500201003002023
:100B9000AA00002070B5044601250120084908700C
:100BA0002078572801D0002507E04FF480510548F0
:100BB00001F0C8FF012004490870284670BD0000FC
:100BC00024010020000C02402301002000BFFEE7AA
:100BD0000346042B15D007DC7BB1012B0ED0022B72
:100BE0000DD0032B12D10BE0202B0BD0212B0AD0E0
:100BF000222B09D0232B09D107E008E007E006E00B
:100C000005E004E003E002E001E000E000BF00BF17
:100C1000002070470020704710B5002204490548A5
:100C200006F052FE0449034806F047FE002010BDBE
:100C300098140020C8070020980C002070B50446C6
:100C40000D462046FFF7A6FF0549087021460548D6
:100C500006F033FE034806F00BFE002070BD0000D6
:100C6000DC010020C807002010B503460C46002117
:100C7000084610BD2DE9F04104460D4600260A48FD
:100C8000D0F8BC72D7F8140210B10120BDE8F08191
:100C90002A462146044806F017FE034806F09BFE4C
:100CA00006463046F2E70000C807002070B503464C
:100CB00001251C46002002E0265C0E54401C904298
:100CC000FADB284670BD70B502460B4601250021AF
:100CD000144600BF02E0605C5854491CD078801C68
:100CE0008842F8DC507C5854481C02E000261E5410
:100CF000401C1228FADB284670BD000010B50146E2
:100D000001201F4A13781278521C1D4C22701D4A74
:100D1000D1541278552A04D0002223461A7000209C
:100D200010BD174A12780B2A01DA0220F8E7154A9B
:100D30005278512A04D0522A0AD0532A18D10FE0EF
:100D4000114A104B9B1C1C6814605B6853600FE0D9
:100D50000E4A0C4B9B1C1C6814605B68536007E0D8
:100D60000B4A084B9B1C1C6814605B68536000BFF7
:100D700000BF0022024B1A70012000BFD0E7000024
:100D8000C000002054060020C2000020CA0000203D
:100D9000D200002010B5024801F062F910BD000039
:100DA000580300200146087810381823B0FBF3F2EE
:100DB0000848805CC865032A05D908686FF30900F4
:100DC000001D886503E008686FF309008865886D79
:100DD0007047000010A40008014600208A6A8B6951
:100DE000CBB932B1012A0DD0022A03D0032A10D187
:100DF0000EE000BFCB6A03F08073B3F1807F00D1B7
:100E0000012007E0CB6AB3F1C07F00D1012001E0EF
:100E100000E000BF34E08B69B3F5005F1AD132B156
:100E2000012A07D0022A03D0032A11D10AE000BF09
:100E300001200EE0CB6A03F08073B3F1807F00D114
:100E4000012006E0CB6AB3F1C07F00D1012000E0B1
:100E500000BF15E032B1012A05D0022A04D0032ACE
:100E60000CD103E000BF00BF012008E0CB6A03F013
:100E70008073B3F1807F00D1012000E000BF00BF8C
:100E8000704730B50468246824F4802405682C6019
:100E9000046863608468402C04D10468A26004681C
:100EA000E16003E00468A1600468E26030BD000016
:100EB0000A469FED130A80ED030A002112E002EBBF
:100EC000810393ED000A00EB810383ED000A90EDAE
:100ED000030A00EB8103D3ED000A30EE200A80ED17
:100EE000030A491C0329EADB90ED030AF0EE080A25
:100EF00080EE201A80ED041A90ED040A704700007D
:100F00000000000010B502460020D08000BF09E0BC
:100F100031F8103022F81030D38832F810402344D2
:100F2000D380401C0328F3DBD088032390FBF3F02D
:100F30001081108910BD704716E04FF400510B4826
:100F400001F000FE4FF48051084801F0FBFD4FF422
:100F50008041064801F0F6FD4FF40041034801F0DE
:100F6000F1FD642001F0BAFBE7E70000000C02404D
:100F70002DE9FE4304460D4616461F46DDF828803F
:100F80004FF001090020009001900290FFF76CFCE7
:100F90008146B9F1010F02D04846BDE8FE833D48C5
:100FA0000078022803DB00203A49087004E0394841
:100FB0000078401C374908703749364A127801EBEF
:100FC0004200FFF7B9FC3549324A127801EB420082
:100FD000FFF7BAFC32492F4A127801EB4200FFF7C3
:100FE000BBFC30492B4A127801EB4200FFF7BCFCF6
:100FF0002D49284A127801EB4200FFF7BDFC264933
:101000006846FFF77FFF2080684605F039FB2349DB
:101010006846FFF777FF2880684605F031FB2049D6
:101020006846FFF76FFF3080684605F029FB1D49D1
:101030006846FFF767FF3880684605F021FB1A49CC
:101040006846FFF75FFFA8F80000684605F018FB48
:10105000208811490F4A127821F8120029880F4878
:101060000C4A127820F8121030880D49094A12787B
:1010700021F8120038880B49064A127821F812002C
:10108000B8F800100848034A127820F812104846B1
:1010900083E7000020010020020100200801002059
:1010A0000E010020140100201A0100200146002337
:1010B0000022022204E0885C184483B2501CC2B2B1
:1010C000C878801C9042F6DCD843C0B2704700005C
:1010D0002DE9F04786B004460D4616461F46DDE969
:1010E0000E894FF0010A142101A8FFF7BDF85948F5
:1010F0000078022803DB00205649087004E05548B8
:101100000078401C5349087000F0CCF8524851490F
:10111000097800EB810080ED000A00F0FFF84F48ED
:101120004C49097800EB810080ED000A00F032F9AB
:101130004B484849097800EB810080ED000A00F037
:10114000CFF848484349097800EB810080ED000A58
:1011500000F002F944483F49097800EB810080ED36
:10116000000A00F035F941483A49097800EB81005E
:1011700080ED000A384901A8FFF79AFE84ED000AC5
:1011800001A805F067FA354901A8FFF791FE85ED42
:10119000000A01A805F05EFA314901A8FFF788FEB0
:1011A00086ED000A01A805F055FA2E4901A8FFF7BF
:1011B0007FFE87ED000A01A805F04CFA2A4901A834
:1011C000FFF776FE88ED000A01A805F043FA2749EB
:1011D00001A8FFF76DFE89ED000A01A805F03AFAB3
:1011E00094ED000A1C481B49097800EB810080ED52
:1011F000000A95ED000A19481649097800EB8100AC
:1012000080ED000A96ED000A15481249097800EBB6
:10121000810080ED000A97ED000A12480D49097817
:1012200000EB810080ED000A98ED000A0E480949A4
:10123000097800EB810080ED000A99ED000A0B4867
:101240000449097800EB810080ED000A504606B0A1
:10125000BDE8F08722010020500700205C07002035
:101260006807002074070020800700208C070020FA
:1012700070B50A480468001D0568001D06683444FE
:1012800054B108220649204604F098FF042204497C
:101290001031284604F092FF70BD0000107AFF1F45
:1012A000C20100200A48B0F9000000EE100AB8EEB2
:1012B000C00A9FED081AC0EE010A9FED070A20EE52
:1012C000800A064880ED000A90ED000A7047000091
:1012D000D20000200000004700003443DC00002062
:1012E0000A48B0F9000000EE100AB8EEC00A9FEDFF
:1012F000081AC0EE010A9FED070A20EE800A064890
:1013000080ED000A90ED000A70470000CA0000203E
:10131000000000470000FA44F40000200A48B0F939
:10132000020000EE100AB8EEC00A9FED081AC0EEE7
:10133000010A9FED070A20EE800A064880ED000AA8
:1013400090ED000A70470000D20000200000004726
:1013500000003443E00000200A48B0F9020000EE2B
:10136000100AB8EEC00A9FED081AC0EE010A9FED00
:10137000070A20EE800A064880ED000A90ED000A78
:1013800070470000CA000020000000470000FA4437
:10139000F80000200A48B0F9040000EE100AB8EE88
:1013A000C00A9FED081AC0EE010A9FED070A20EE61
:1013B000800A064880ED000A90ED000A70470000A0
:1013C000D20000200000004700003443E400002069
:1013D0000A48B0F9040000EE100AB8EEC00A9FED0A
:1013E000081AC0EE010A9FED070A20EE800A06489F
:1013F00080ED000A90ED000A70470000CA0000204E
:10140000000000470000FA44FC00002010B5012451
:10141000164805F0A3FB04460CB9204610BD04B1E4
:1014200003E0A82112A008F0EDFE642001F056F9B7
:101430001B4805F093FB04400CB92046EEE704B1CD
:1014400003E0B6210AA008F0DDFE0A2001F046F90B
:101450006FF00100134909680861124803F012FA9D
:1014600010B100242046D9E72046D7E71BA4000886
:101470002E2E5C48617264776172655C55534152EF
:10148000545F4779726F73636F70655C5553415257
:10149000545F4779726F73636F7065202E6300002D
:1014A00018A400083804002070470000F8B505466D
:1014B0000C46002000902068122800D804E04FF469
:1014C000CB6177A008F09EFE606818B160681028B4
:1014D00000D804E040F2596171A008F093FEA068C2
:1014E000A0B1A068012811D0A06802280ED0A06881
:1014F00003280BD0A068042808D0A068052805D0D0
:10150000A068062802D0A068072800D104E040F2B5
:101510005A6163A008F076FE00BF95F83C000128F0
:1015200001D10220F8BD012085F83C0000BF2068F1
:10153000092816D92868C06821780A3901EB4102C8
:101540000721914088432968C86021780A3901EB56
:101550004101A06888402968C96808432968C860B3
:1015600013E028680069217801EB410207219140CE
:10157000884329680861217801EB4101A06888400F
:10158000296809690843296808616068072817D233
:101590002868406B2179491E01EB81021F2191408F
:1015A000884329684863208880B22179491E01EB6D
:1015B000810188402968496B08432968486331E004
:1015C00060680D2817D22868006B2179C91F01EBCC
:1015D00081021F219140884329680863208880B2D6
:1015E0002179C91F01EB810188402968096B0843F3
:1015F0002968086316E02868C06A21790D3901EB73
:1016000081021F21914088432968C862208880B2E6
:1016100021790D3901EB810188402968C96A0843A5
:101620002968C8622C4E2D49286888420AD1206852
:10163000122807D1706820F400007060706840F4D0
:101640008000706025492868884222D1244920689A
:10165000884202D0206811281BD1706820F48000D5
:101660007060706840F4000070601D492068884216
:101670000FD11C4800681C49B0FBF1F000EB800062
:101680004000009002E00098401E00900098002862
:10169000F9D100BF002085F83C0000BF00BF41E742
:1016A0002E2E2F447269766572732F53544D333248
:1016B000463478785F48414C5F4472697665722F92
:1016C0005372632F73746D3332663478785F686158
:1016D0006C5F6164632E63000023014000200140C1
:1016E000120000108801002040420F000121014A31
:1016F00011707047AA0000207047704770B504460B
:1017000000250026207E10B1207E012800D104E0B3
:1017100040F29D4168A008F075FDE06918B1E069EC
:10172000102800D804E040F29E4163A008F06AFD52
:101730006069012804D0606910B16069022800D195
:1017400004E040F29F415CA008F05CFD2068006866
:10175000C0F3400520684068C0F3401695B38EB3CF
:10176000206C00F0100018B9206C40F40070206468
:101770002068806800F04050E8B9207ED8B9206821
:10178000C06A00F4700020B12068806800F48060B6
:1017900088B92068406820F0200021684860206CEB
:1017A00020F480702064206C00F4805018B9206C04
:1017B00040F0010020642046FFF798FF6FF0120010
:1017C0002168086020680068C0F3800520684068D0
:1017D000C0F3C016E5B3DEB3206C00F0100018B9FA
:1017E000206C40F4005020642068806800F44010B1
:1017F00038BB2068806B00F4401020B120688068FE
:1018000000F48060E8B92068406800F48060C0B9E6
:101810002068806800F0405098B9207E88B9206820
:10182000406820F0800021684860206C20F48050DF
:101830002064206C00F4807018B9206C40F0010026
:1018400020642046FFF730FE6FF00C00216808602E
:101850002068006800F0010520684068C0F3801629
:1018600085B17EB12068006800F0010050B1206CA5
:1018700040F480302064204600F070F96FF00100E1
:101880002168086020680068C0F34015206840683F
:10189000C0F380667DB176B1606C40F00200606498
:1018A0006FF02000216808602046FFF726FF6FF0E8
:1018B00020002168086070BD2E2E2F447269766565
:1018C00072732F53544D3332463478785F48414C0D
:1018D0005F4472697665722F5372632F73746D3330
:1018E00032663478785F68616C5F6164632E630090
:1018F00070B5044600250CB9012070BD87492068E9
:10190000884200D104E040F2431185A008F07AFC3F
:10191000606858B16068B0F5803F07D06068B0F586
:10192000003F03D06068B0F5403F00D104E04FF4C1
:10193000A2717BA008F066FCA06858B1A068B0F165
:10194000807F07D0A068B0F1007F03D0A068B0F11D
:10195000407F00D104E040F2451171A008F052FC34
:10196000206910B12069012800D104E04FF4A3716F
:101970006BA008F047FC207E10B1207E012800D12A
:1019800004E040F2471166A008F03CFCA06AE8B30E
:10199000A06AB0F1807F3DD0A06AB0F1007F39D05D
:1019A000A06AB0F1407F35D0A06AB0F1806F31D02D
:1019B000A06AB0F1A06F2DD0A06AB0F1C06F29D09D
:1019C000A06AB0F1E06F25D0A06AB0F1006F21D01D
:1019D000A06AB0F1106F1DD0A06AB0F1206F19D0CD
:1019E000A06AB0F1306F15D0A06AB0F1406F11D08D
:1019F000A06AB0F1506F0DD0A06AB0F1606F09D04D
:101A0000A06AB0F1706F05D0534900E002E0A06A0F
:101A1000884200D104E04FF4A47141A008F0F2FB29
:101A2000E06818B1E068B0F5006F00D104E040F262
:101A300049113BA008F0E6FBE06918B1E069102805
:101A400000D804E04FF4A57135A008F0DBFB94F852
:101A5000300018B194F83000012800D104E040F2C1
:101A60004B112FA008F0CEFB6069012804D06069FB
:101A700010B16069022800D104E04FF4A67128A0DB
:101A800008F0C0FB2020005D18B12020005D012877
:101A900000D104E040F24D1121A008F0B3FB2E4923
:101AA000A06A884213D0E06A58B1E06AB0F1805F62
:101AB00007D0E06AB0F1005F03D0E06AB0F1405FA8
:101AC00000D104E040F2511115A008F09BFB206CFE
:101AD00030B9204600F044F80020606484F83C00EF
:101AE000206C00F0100088B9206C20F4885040F081
:101AF000020020642046FEF74FFF00206064206C47
:101B000020F0020040F00100206400E0012500BF49
:101B1000002084F83C0000BF2846EEE6002001408B
:101B20002E2E2F447269766572732F53544D3332C3
:101B3000463478785F48414C5F4472697665722F0D
:101B40005372632F73746D3332663478785F6861D3
:101B50006C5F6164632E63000100000F704700003A
:101B600010B586B00446142101A8FEF77DFB2D496F
:101B70002068884253D100BF002000902A480068A6
:101B800040F48070284908600846006800F48070BE
:101B9000009000BF00BF00BF002000902248143812
:101BA000006840F0010020491439086008460068C8
:101BB00000F00100009000BF00BF6A2001900320E8
:101BC00002900020039001A9184800F09BFD1848DE
:101BD0001849086000204860002116488160C160F3
:101BE0004FF48061016149004161890081614911BF
:101BF000C161490201620021416200F051FB08B15C
:101C0000FFF79AF900BF0B48A063846300BF00226E
:101C10001146122001F0B8F8122001F07FF806B04A
:101C200010BD000000200140443802400000024086
:101C3000106402405803002070B504460D4600268B
:101C40002068806800F48060B0F5806F11D1206852
:101C5000806800F48070B0F5807F0AD1206C40F07D
:101C60002000206400BF002084F83C0000BF012059
:101C700070BD00F0D9FF064612E0681C80B125B1A6
:101C800000F0D2FF801BA8420AD9206C40F004006B
:101C9000206400BF002084F83C0000BF0320E7E779
:101CA0002068006800F002000228E6D16FF0120000
:101CB00021680860206C40F400702064206880680F
:101CC00000F04050B8B9207EA8B92068C06A00F47E
:101CD000700020B12068806800F4806058B9206CE2
:101CE00020F480702064206C00F4805018B9206CBF
:101CF00040F0010020640020BAE7000038B5044637
:101D000000200090207E10B1207E012800D104E048
:101D100040F2D32145A008F075FAE06A58B1E06AB4
:101D2000B0F1805F07D0E06AB0F1005F03D0E06AF5
:101D3000B0F1405F00D104E04FF435713BA008F0F2
:101D400061FA00BF94F83C00012801D1022038BD9F
:101D5000012084F83C0000BF2068806800F001008A
:101D6000A0B92068806840F00100216888603D4883
:101D700000683D49B0FBF1F000EB4000009002E04C
:101D80000098401E009000980028F9D120688068D3
:101D900000F00100B8B3206C40F20161884340F4C8
:101DA000807020642068406800F4806028B1206C56
:101DB00020F4005040F480502064206C00F48050E7
:101DC000B0F5805F04D1606C20F00600606401E033
:101DD0000020606400BF002084F83C0000BF234D59
:101DE0006FF0220021680860686800F01F0058B991
:101DF0002068806800F0405028B92068806840F072
:101E00008040216888600EE01949206888420AD124
:101E10002068806800F0405028B92068806840F051
:101E2000804021688860002091E700002E2E2F441A
:101E30007269766572732F53544D33324634787815
:101E40005F48414C5F4472697665722F5372632F0D
:101E500073746D3332663478785F68616C5F616487
:101E6000632E63008801002040420F0000230140E0
:101E700000200140F8B504460D46164600200090AB
:101E8000207E10B1207E012800D104E04FF4A8612B
:101E900054A008F0B7F9E06A58B1E06AB0F1805F89
:101EA00007D0E06AB0F1005F03D0E06AB0F1405FB4
:101EB00000D104E040F241514AA008F0A3F900BF6C
:101EC00094F83C00012801D10220F8BD012084F8DB
:101ED0003C0000BF2068806800F00100A0B92068C5
:101EE000806840F00100216888604C4800684C49D7
:101EF000B0FBF1F000EB4000009002E00098401EC3
:101F0000009000980028F9D12068806800F0010056
:101F1000002864D0206C40F20161884340F4807056
:101F200020642068406800F4806028B1206C20F4B0
:101F3000005040F480502064206C00F48050B0F5D4
:101F4000805F04D1606C20F00600606401E0002036
:101F5000606400BF002084F83C0000BF314F32486D
:101F6000A16BC8633148A16B08643148A16BC86498
:101F70006FF02200216808602068406840F08060AF
:101F8000216848602068806840F48070216888601B
:101F9000226802F14C0133462A46A06B00F02EFB6A
:101FA000786800F01F0058B92068806800F0405041
:101FB00028B92068806840F08040216888600EE081
:101FC0001C49206888420AD12068806800F040508F
:101FD00028B92068806840F080402168886000202F
:101FE00073E700002E2E2F447269766572732F53AB
:101FF000544D3332463478785F48414C5F447269BF
:102000007665722F5372632F73746D333266347832
:10201000785F68616C5F6164632E630088010020F3
:1020200040420F0000230140C30700085B0800087E
:102030004108000800200140014691F835000228BF
:1020400003D08020486501207047052081F83500C5
:102050000868006820F001000A6810600020F3E7BB
:10206000F8B50446002000908C4800684FF41651E3
:10207000B0FBF1F7A56D2E6894F85C10082088403D
:10208000304098B12068006800F0040070B120680A
:10209000006820F004002168086094F85C100820B3
:1020A0008840A860606D40F00100606594F85C10A5
:1020B00001208840304068B12068406900F080000D
:1020C00040B194F85C1001208840A860606D40F039
:1020D0000200606594F85C1004208840304068B1CC
:1020E0002068006800F0020040B194F85C10042001
:1020F0008840A860606D40F00400606594F85C1052
:1021000010208840304078B32068006800F0080054
:1021100050B394F85C1010208840A86020680068D4
:1021200000F4802080B12068006800F4002028B905
:10213000206CC8B12046216C884715E0A06C98B18E
:102140002046A16C88470FE02068006800F480708A
:1021500028B92068006820F0080021680860206C19
:1021600010B12046216C884794F85C1020208840EC
:102170003040002865D02068006800F0100000287A
:102180005FD094F85C1020208840A86094F8350057
:10219000052828D12068006820F016002168086012
:1021A0002068406920F0800021684861206C08B9EF
:1021B000A06C28B12068006820F008002168086041
:1021C00094F85C103F208840A86000BF002084F88D
:1021D000340000BF012084F83500206D10B1204686
:1021E000216D8847F8BD2068006800F4802080B128
:1021F0002068006800F4002028B9606C10B1204607
:10220000616C88471DE0E06BD8B12046E16B8847E0
:1022100017E02068006800F4807068B920680068E2
:1022200020F010002168086000BF002084F834000E
:1022300000BF012084F83500E06B10B12046E16B4F
:102240008847606D38B3606D00F00100F0B1052083
:1022500084F835002068006820F0010021680860DB
:1022600000BF0098401C0090B84200D905E02068EB
:10227000006800F001000028F3D100BF00BF00207B
:1022800084F8340000BF012084F83500E06C10B100
:102290002046E16C884700BFA4E7000088010020C9
:1022A0002DE9F0410446002500F0BEFC074614B9B4
:1022B0000120BDE8F081C0492068884249D0BE496C
:1022C00018312068884244D0BB49303120688842A8
:1022D0003FD0B9494831206888423AD0B649603188
:1022E0002068884235D0B44978312068884230D09F
:1022F000B1499031206888422BD0AF49A83120687D
:10230000884226D0AD492068884222D0AB49183196
:10231000206888421DD0A94930312068884218D0F1
:10232000A64948312068884213D0A449603120680A
:1023300088420ED0A14978312068884209D09F494F
:1023400090312068884204D09C49A8312068884296
:1023500000D103E0B8219AA007F054FF6068D8B11B
:102360006068B0F1007F17D06068B0F1806F13D063
:102370006068B0F1C06F0FD06068B0F1006F0BD033
:102380006068B0F1206F07D06068B0F1406F03D093
:102390006068B0F1606F00D103E0B92188A007F058
:1023A00031FFA06828B1A068402802D0A06880282A
:1023B00000D103E0BA2182A007F024FFE068B0F565
:1023C000007F01D0E06800B903E0BB217CA007F0EA
:1023D00019FF2069B0F5806F01D0206900B903E0D2
:1023E000BC2177A007F00EFF606938B16069B0F5D5
:1023F000006F03D06069B0F5805F00D103E0BD21BC
:102400006FA007F0FFFEA06938B1A069B0F5005FCA
:1024100003D0A069B0F5804F00D103E0BE2168A0D1
:1024200007F0F0FEE06930B1E069B0F5807F02D0DE
:10243000E069202800D103E0BF2161A007F0E2FE9F
:10244000206A58B1206AB0F5803F07D0206AB0F505
:10245000003F03D0206AB0F5403F00D103E0C02127
:1024600057A007F0CFFE606A10B1606A042800D15F
:1024700003E0C12152A007F0C5FE606A002835D0F4
:10248000A06A40B1A06A012805D0A06A022802D043
:10249000A06A032800D103E0C62149A007F0B2FEDC
:1024A000E06A58B1E06AB0F5000F07D0E06AB0F119
:1024B000807F03D0E06AB0F1C07F00D103E0C72184
:1024C0003FA007F09FFE206B58B1206BB0F5001FB6
:1024D00007D0206BB0F5800F03D0206BB0F5C00F94
:1024E00000D103E0C82136A007F08CFE00BF002019
:1024F00084F8340000BF022084F8350020680068AA
:1025000020F00100216808600AE000F08DFBC01B8C
:10251000052805D920206065032084F83500C8E629
:102520002068006800F001000028EED120680568EE
:1025300031480540D4E901010843E16808432169B5
:10254000084361690843A1690843E1690843216AB6
:1025500008430543606A042803D1D4E90B0108430A
:102560000543206805602068456925F00705606A15
:102570000543606A04280DD1A06A0543E06A48B1AA
:102580002046FEF729FC28B140206065012084F830
:1025900035008EE6206845612046FEF703FC0646BE
:1025A00094F85C103F208840B060002060650120F6
:1025B00084F8350000207CE6106002401064024080
:1025C0002E2E2F447269766572732F53544D333219
:1025D000463478785F48414C5F4472697665722F63
:1025E0005372632F73746D3332663478785F686129
:1025F0006C5F646D612E63003F8010F02DE9F04741
:1026000004460E4617461D464FF00008D4F8589071
:102610001DB1B5F5803F00D204E04FF4E67121A072
:1026200007F0F0FD00BF94F83400012802D1022029
:10263000BDE8F087012084F8340000BF94F835002D
:10264000012825D1022084F83500002060652B4642
:102650003A4631462046FEF714FC94F85C103F20C1
:102660008840C9F808002068006840F0160021681A
:102670000860206C28B12068006840F008002168DC
:1026800008602068006840F001002168086006E0EA
:1026900000BF002084F8340000BF4FF0020840461D
:1026A000C6E700002E2E2F447269766572732F5391
:1026B000544D3332463478785F48414C5F447269F8
:1026C0007665722F5372632F73746D33326634786C
:1026D000785F68616C5F646D612E630070B504465D
:1026E00000F0A2FA06462546681C10B1044800789E
:1026F000054400BF00F098FA801BA842FAD370BDD1
:10270000740000202DE9F84306460C464FF00009FE
:10271000C8460025D34886420ED0D34886420BD007
:10272000D248864208D0D248864205D0D148864257
:1027300002D0D148864200D103E0B321CFA007F0F8
:1027400061FD208880B220B120686FF30F0000B9CE
:1027500003E0B421C9A007F055FD606830B360689C
:10276000012823D06068112820D0606802281DD07D
:10277000606812281AD0D0496068884216D0CF49C4
:102780006068884212D0CE49606888420ED0CD4938
:10279000606888420AD0CC496068884206D0CB493C
:1027A0006068884202D06068032800D103E0B52148
:1027B000B2A007F027FDA06828B1A068012802D0C8
:1027C000A068022800D103E0B621ACA007F01AFDF2
:1027D000002741E1012000FA07F9206800EA090812
:1027E000C8457DD16068012808D06068022805D0FE
:1027F0006068112802D06068122823D1E06840B1D7
:10280000E068012805D0E068022802D0E0680328CB
:1028100000D103E0C82199A007F0F4FCB568790065
:102820000320884085437900E06888400543B5600F
:1028300075680120B84085432079C0F30010B84086
:1028400005437560F5687900032088408543790069
:10285000A06888400543F5606068022802D060687F
:10286000122870D12069E0B32069092852D020696C
:10287000B8B32069A8B3206998B3206988B32069E8
:10288000012847D02069012844D02069022841D07E
:10289000206902283ED0206902283BD02069042804
:1028A00038D02069042835D02069042832D0206926
:1028B00005282FD0206905282CD02069052829D08B
:1028C0002069062826D02069062823D020690528FB
:1028D00020D0206906281DD0206907281AD001E0E1
:1028E000B9E017E02069072814D02069072811D023
:1028F000206908280ED020690A280BD020690928F1
:1029000008D02069092805D020690C2802D0206948
:102910000F2800D103E0E02158A007F073FCF9086C
:1029200006F1200050F821507807C10E0F20884092
:1029300085437907C90E206988400543F90806F1E7
:10294000200040F8215035687900032088408543F5
:10295000207900F003007900884005433560606805
:1029600000F08050B0F1805F75D100BF0020009072
:102970005748006840F480405549086008460068A0
:1029800000F48040009000BF00BF5248B90850F8E2
:102990002150B807010F0F208840854331488642F7
:1029A00001D1002014E03048864201D101200FE01F
:1029B0002E48864201D102200AE02D48864201D1EC
:1029C000032005E02B48864201D1042000E00720C7
:1029D000B907090F884005433E48B90840F821501F
:1029E0003D48056825EA0805606800F48030B0F5C8
:1029F000803F01D145EA080537480560001D05689C
:102A000025EA0805606800F40030B0F5003F01D108
:102A100045EA08053048001D0560001D056825EAE7
:102A20000805606800F48010B0F5801F01D145EA08
:102A30000805294808300560001D056825EA0805D5
:102A4000606800F40010B0F5001F01D145EA0805E8
:102A500021480C3005607F1C102FFFF4BBAEBDE891
:102A6000F883000000000240000402400008024019
:102A7000000C024000100240001C02402E2E2F4489
:102A80007269766572732F53544D333246347878B9
:102A90005F48414C5F4472697665722F5372632FB1
:102AA00073746D3332663478785F68616C5F677019
:102AB000696F2E630000000000001110000021105B
:102AC000000031100000121000002210000032102F
:102AD0004438024008380140003C014070B50646C9
:102AE0000C46A0B218B1200C000400B904E04FF469
:102AF000BF7105A007F086FB3069204008B10125B1
:102B000000E00025284670BD2E2E2F4472697665A0
:102B100072732F53544D3332463478785F48414CAA
:102B20005F4472697665722F5372632F73746D33CD
:102B300032663478785F68616C5F6770696F2E63A6
:102B40000000000070B505460C46A0B218B1200C7C
:102B5000000400B904E04FF4DB7106A007F052FB5B
:102B600068692040A04202D12004A86100E0AC6165
:102B700070BD00002E2E2F447269766572732F533C
:102B8000544D3332463478785F48414C5F44726923
:102B90007665722F5372632F73746D333266347897
:102BA000785F68616C5F6770696F2E63000000007A
:102BB00070B506460C461546A0B218B1200C0004AC
:102BC00000B904E040F29F1108A007F01BFB0DB113
:102BD000012D00D104E04FF4D07104A007F012FBE6
:102BE0000DB1B46101E02004B06170BD2E2E2F4400
:102BF0007269766572732F53544D33324634787848
:102C00005F48414C5F4472697665722F5372632F3F
:102C100073746D3332663478785F68616C5F6770A7
:102C2000696F2E63000000000148006870470000D3
:102C30006C000020034800680349097808440149F2
:102C4000086070476C0000207400002010B50D482B
:102C5000006840F400700B4908600846006840F4C2
:102C6000806008600846006840F4807008600320B7
:102C700000F0F4F80F2000F007F800F02BF8002027
:102C800010BD0000003C024070B504460E480078BC
:102C90004FF47A71B1FBF0F00C490968B1FBF0F523
:102CA000284601F029FC08B1012070BD102C07D284
:102CB00000222146501E00F067F80548046001E03C
:102CC0000120F2E70020F0E77400002088010020D6
:102CD0007000002008B500BF002000900E4800687A
:102CE00040F480400C4908600846006800F48040C9
:102CF000009000BF00BF00BF00200090081F0068C8
:102D000040F08050091F08600846006800F08050BD
:102D1000009000BF00BF08BD4438024010B5044613
:102D2000002C00DB03E0BE2108A007F06BFA204670
:102D3000002809DB00F01F020121914042099200A6
:102D400002F1E022C2F8001100BF10BD2E2E2F4468
:102D50007269766572732F53544D333246347878E6
:102D60005F48414C5F4472697665722F5372632FDE
:102D700073746D3332663478785F68616C5F636F4B
:102D8000727465782E6300002DE9F05F80460C4672
:102D900015460027102D00D203E0AA2120A007F03D
:102DA00031FA102C00D203E0AB211DA007F02AFA63
:102DB00006F0ACFD0746394622462B4601F00700D7
:102DC000C0F1070ABAF1040F02D94FF0040A01E07A
:102DD000C0F1070AD14600F1040ABAF1070F02D286
:102DE0004FF0000A01E0A0F1030AD4464FF0010AB7
:102DF0000AFA09FAAAF1010A0AEA020A0AFA0CFA1C
:102E00004FF0010B0BFA0CFBABF1010B0BEA030BC0
:102E10004AEA0B063146404606F080FDBDE8F09FC9
:102E20002E2E2F447269766572732F53544D3332B0
:102E3000463478785F48414C5F4472697665722FFA
:102E40005372632F73746D3332663478785F6861C0
:102E50006C5F636F727465782E63000010B5044672
:102E6000072C07D0062C05D0052C03D0042C01D04C
:102E7000032C00D103E0922109A007F0C3F900BFA1
:102E800004F00701154A10684FF6FF021040144A7B
:102E9000024342EA0120114A106000BF10BD000049
:102EA0002E2E2F447269766572732F53544D333230
:102EB000463478785F48414C5F4472697665722F7A
:102EC0005372632F73746D3332663478785F686140
:102ED0006C5F636F727465782E6300000CED00E028
:102EE0000000FA05704702461068416200207047F2
:102EF000F0B5034615461868446A21B944EA05400E
:102F00001E68B06219E01868806A04EB1044002261
:102F100008E0186800F5827050F8220004EB1044B5
:102F2000501CC2B2481E9042F3D844EA05471868C4
:102F300000F582704E1E40F826700020F0BD10B5DE
:102F40000446D4F8040405F022F910BD70B5044617
:102F50000D46C5EBC50304F13C0101EB8301CA68D2
:102F60002946D4F8040405F056F870BD70B504463F
:102F70000D46C5EBC50304F5FE7101EB8301CA687C
:102F80002946D4F8040405F0B9F870BD10B504461C
:102F9000D4F8040405F0FEF810BD70B504460E46E2
:102FA00006F0800080280AD106F00F00C0EBC001B7
:102FB00004F13C0000EB81050120687009E006F097
:102FC0000F00C0EBC00104F5FE7000EB810500208E
:102FD000687006F00F00287000BF94F8BC03012849
:102FE00001D1022070BD012084F8BC0300BF294636
:102FF000206805F0D9FD00BF002084F8BC0300BFA5
:1030000000BFEFE770B504460E4606F00F0061689A
:10301000884201D9012070BD06F0800080280AD1C5
:1030200006F00F00C0EBC00104F13C0000EB81058D
:103030000120687009E006F00F00C0EBC00104F544
:10304000FE7000EB8105002068700020A87006F07B
:103050000F00287000BF94F8BC03012801D10220A2
:10306000D9E7012084F8BC0300BF2946206806F098
:1030700081F800BF002084F8BC0300BF00BFCAE78E
:10308000024601F00F00C0EBC00302F5FE7000EB3A
:103090008300806970472DE9F04705460E4690464B
:1030A0001F464FF0000906F0800080280AD106F084
:1030B0000F00C0EBC00105F13C0000EB81040120D2
:1030C000607009E006F00F00C0EBC00105F5FE706E
:1030D00000EB81040020607006F00F002070C4F83F
:1030E0000880E770607808B12078E080022F01D175
:1030F0000020207100BF95F8BC03012802D10220F6
:10310000BDE8F087012085F8BC0300BF2146286890
:1031100005F066FC00BF002085F8BC0300BF4846F0
:10312000EEE72DE9F04104460E461746984606F0B4
:103130000F00C0EBC00104F5FE7000EB8105EF60ED
:10314000C5F814800020A861687006F00F00287090
:103150002069012800D12F6106F00F0028B9227CD8
:103160002946206805F0E2FE04E0227C294620681A
:1031700006F094F80020BDE8F08170B504460D46D5
:1031800005F00F006168884201D9012070BD05F08B
:10319000800080280AD105F00F00C0EBC00104F1C7
:1031A0003C0000EB81060120707007E0C5EBC50113
:1031B00004F5FE7000EB8106002070700120B070F5
:1031C00005F00F00307000BF94F8BC03012801D156
:1031D0000220DBE7012084F8BC0300BF31462068F1
:1031E00006F00FF805F00F0028B9217C04F5717284
:1031F000206805F087FF00BF002084F8BC0300BFF3
:1032000000BFC3E72DE9F04104460E461746984635
:1032100006F00F00C0EBC00104F13C0000EB81059B
:10322000EF60C5F814800020A8610120687006F0E6
:103230000F0028702069012800D12F6106F00F00CF
:1032400028B9227C2946206805F070FE04E0227C23
:103250002946206806F022F80020BDE8F0812DE91B
:10326000FE4F044620680290029D206806F001FA95
:1032700000287DD1206806F03BFA08B9BDE8FE8F32
:10328000206806F035FA00F00200022805D1206817
:10329000406900F0020021684861206806F028FAC1
:1032A00000F01000102846D12068806920F010003E
:1032B000216888610298D0F8209009F00F00C0EBD7
:1032C000C00104F5FE7000EB810BC9F343400228F6
:1032D0001AD147F6F07009EA000030B3C9F30A12B8
:1032E000DBF80C10029806F008FAC9F30A11DBF8B3
:1032F0000C000844CBF80C00C9F30A11DBF81800E5
:103300000844CBF8180010E0C9F3434006280CD15C
:10331000082204F57171029806F0EFF9C9F30A1159
:10332000DBF818000844CBF818002068806940F0EA
:10333000100021688861206806F0DAF900F40020A6
:10334000B0F5002F52D10026206806F0A1F9824680
:1033500049E00AF00100E8B3F1B2206806F0BBF9D9
:10336000804608F0010058B1012105F5306000E009
:1033700021E200EB461081603146204603F0CAF995
:1033800008F00800082809D1082105F5306000EB95
:10339000461081603146204603F08AF908F010009B
:1033A000102805D1102105F5306000EB4610816032
:1033B00008F02000202805D1202105F5306000EB21
:1033C0004610816008F40050B0F5005F08D14FF45A
:1033D000005100E004E005F5306000EB461081602C
:1033E000761C4FEA5A0ABAF1000FB2D1206806F0F3
:1033F0007FF900F48020B0F5802F7ED1206806F0A0
:103400003DF98246002683E00AF0010000287CD0C6
:10341000F1B2206806F046F9804608F00100F0B3EA
:1034200006F00F0101208840019040F63400415918
:10343000019821EA000040F634014851012105F5C8
:10344000106000EB461081602069012824D1C6EB92
:10345000C60104F13C0000EB8100C6EBC602C16866
:1034600004F13C0000EB820080680144C6EBC60218
:1034700004F13C0000EB8200C1606EB9C6EBC601EE
:1034800004F13C0000EB8100406928B904F5717239
:103490000121206805F036FEF1B2204600E001E08F
:1034A000FFF754FD08F00800082805D1082105F5AC
:1034B000106000EB4610816008F01000102805D164
:1034C000102105F5106000EB4610816008F0400007
:1034D000402805D1402105F5106000EB46108160C1
:1034E00008F00200022805D1022105F5106000EB6A
:1034F0004610816008F0800001E00DE005E08028C2
:1035000003D13146204603F0C3F9761C4FEA5A0A2C
:10351000BAF1000F7FF478AF206806F0E9F800F008
:103520000040B0F1004F1CD140F60400405920F09B
:10353000010140F60400415194F8F403012807D139
:10354000002084F8F40300212046FFF7CBFC02E0C2
:10355000204600F083FA2068406900F000402168AE
:103560004861206806F0C4F800F40060B0F5006F10
:103570000ED140F60800405900F0010010B120467D
:1035800000F0C4FA2068406900F4006021684861D6
:10359000206806F0ADF800F48050B0F5805F7DD172
:1035A00040F60400405920F0010140F6040041516A
:1035B0001021206806F032F800273EE04FF67F31F8
:1035C00005F5106000EB4710816005F5106000EB19
:1035D0004710006820F4001105F5106000EB47105B
:1035E000016005F5106000EB4710006840F00061D5
:1035F00005F5106000EB471001604FF67F3105F5CF
:10360000306000EB4710816005F5306000EB47103B
:10361000006820F4001105F5306000EB47100160F0
:1036200005F5306000EB4710006840F0006105F5DB
:10363000306000EB471001607F1C6068B842BDD865
:1036400040F61C00405940F0011140F61C00415169
:10365000206B70B1D5F8840840F00B01C5F88418D0
:1036600040F64400405940F00B0140F644004151FF
:103670000FE040F61400405942F22B01084340F697
:1036800014014851081F405940F00B014FF40160EC
:103690004151D5F8000820F4FE6000E00DE0C5F8C7
:1036A0000008217C04F57172206805F02BFD20686C
:1036B000406900F4805021684861206806F018F8DD
:1036C00000F40050B0F5005F17D1206805F0F0F964
:1036D000206805F0BBFFE06000F092FB0090227BC9
:1036E0002068009906F054F8204600F0A5F92068FB
:1036F000406900F4005021684861206805F0F8FF37
:1037000000F00800082808D1204600F0AEF9206833
:10371000406900F0080021684861206805F0E8FF72
:1037200000F48010B0F5801F0AD1002631462046F3
:1037300000F043F82068406900F480102168486177
:10374000206805F0D5FF00F40010B0F5001F0AD185
:1037500000263146204600F039F82068406900F420
:10376000001021684861206805F0C2FF00F0804029
:10377000B0F1804F08D12046FFF7E1FB2068406997
:1037800000F0804021684861206805F0B1FF00F03A
:10379000040004280FD12068D0F8049009F0040038
:1037A000042802D12046FFF7F1FB2068406840EA78
:1037B00009002168486000BF60E570B504460D4609
:1037C0002946D4F8040404F04FFD70BD70B50446DA
:1037D0000D462946D4F8040404F049FD70BD0000EC
:1037E00070B58AB0044614B901200AB070BD2068D3
:1037F000B0F1A04F00D103E0872157A006F002FDF1
:10380000266894F8BD0328B9002084F8BC0320463C
:1038100000F0BEF8032084F8BD03F06B00F4807064
:1038200008B900212161206805F078FB282204F105
:1038300010016846FCF7FFFC94E80F0005F04CF916
:1038400020B1022084F8BD030120CEE700212068CA
:1038500005F064FF002531E00121C5EBC50204F14C
:103860003C0000EB82004170C5EBC50104F13C0057
:1038700000F82150C5EBC50100EB8100C580002197
:10388000C5EBC50204F13C0000EB8200C170C5EB42
:10389000C50204F13C0000EB82008160C5EBC5026B
:1038A00004F13C0000EB8200C160C5EBC50204F1ED
:1038B0003C0000EB82004161681CC5B26068A84210
:1038C000CAD800252AE00021C5EBC50204F5FE7028
:1038D00000EB82004170C5EBC50104F5FE7000F8F5
:1038E00021500021C5EBC50200EB8200C170C5EB81
:1038F000C50204F5FE7000EB82008160C5EBC502D5
:1039000004F5FE7000EB8200C160C5EBC50204F552
:10391000FE7000EB82004161681CC5B26068A8427D
:10392000D1D8282204F110016846FCF784FC94E801
:103930000F0005F003FA20B1022084F8BD03012036
:1039400053E7002084F83800012084F8BD03206884
:1039500005F0E2F9002048E72E2E2F4472697665C3
:1039600072732F53544D3332463478785F48414C4C
:103970005F4472697665722F5372632F73746D336F
:1039800032663478785F68616C5F7063642E6300C0
:1039900010B586B00446142101A8FCF765FC206828
:1039A000B0F1A04F42D100BF002000902048006835
:1039B00040F001001E4908600846006800F0010060
:1039C000009000BF00BF4FF4C05001900220029051
:1039D00000200390032004900A20059001A91548B7
:1039E000FEF790FE00BF1248001D006840F0800006
:1039F0000F49091D086000BF002000900C481430DA
:103A0000006840F480400A491431086008460068A4
:103A100000F48040009000BF00BF00BF00221146AC
:103A20004320FFF7B1F94320FFF778F906B010BD46
:103A3000303802400000024070B504460125E068BD
:103A4000022801D0FDF778FA2946D4F8040404F0DE
:103A50008AFCD4F8040404F03DFC70BD10B50446A3
:103A6000D4F8040404F063FC10BD10B50446D4F887
:103A7000040404F067FC10BD70B504460D4600BF99
:103A800094F8BC03012801D1022070BD012084F804
:103A9000BC0300BF84F838502946206805F059FE61
:103AA00000BF002084F8BC0300BF00BFEDE710B5E5
:103AB000044604F57171D4F8040404F06BFC10BDE5
:103AC00070B50446256800BF94F8BC03012801D1F5
:103AD000022070BD012084F8BC0300BFA06A012849
:103AE00006D1A069012803D0A86B40F48030A863F8
:103AF000206805F075FD206805F0FCF800BF002087
:103B000084F8BC0300BF00BFE3E7000010B5044623
:103B1000D4F8040404F09BFC2068D0F8000E40F0B8
:103B200001002168C1F8000E206A28B1034800682E
:103B300040F006000149086010BD000010ED00E0F3
:103B400070B504460D460CB9012070BD20680128EF
:103B500003D320680F2800D804E040F2512195A03B
:103B600006F050FB6DB1012D0BD0022D09D0032DB5
:103B700007D0042D05D0052D03D0062D01D0072D2B
:103B800000D104E040F252218AA006F03BFB9748A6
:103B9000006800F00F00A84209D294490D70084651
:103BA000006800F00F00A84201D00120CDE7207886
:103BB00000F0020002283DD1207800F00400042823
:103BC00005D18B48006840F4E050894908602078AE
:103BD00000F00800082805D18548006840F46040DE
:103BE00083490860A068B8B1A068802814D0A06894
:103BF000902811D0A068A0280ED0A068B0280BD0C3
:103C0000A068C02808D0A068D02805D0A068E02807
:103C100002D0A068F02800D104E040F2752165A030
:103C200006F0F0FA7248006820F0F000A16808433E
:103C30006F490860207800F0010000284ED06068CD
:103C400040B16068012805D06068022802D0606831
:103C5000032800D104E04FF41F7156A006F0D2FAF9
:103C60006068012807D1624808380068C0F3404006
:103C7000B8B9012069E76068022802D060680328AB
:103C800007D15B4808380068C0F3406048B901209C
:103C90005BE7574808380068C0F3400008B90120C6
:103CA00053E75348006820F0030061680843504917
:103CB0000860FEF7B9FF064608E0FEF7B5FF801B77
:103CC00041F28831884201D903203EE74848006824
:103CD00000F00C006168B0EB810FEED14348006842
:103CE00000F00F00A84209D940490D70084600684D
:103CF00000F00F00A84201D0012026E7207800F054
:103D0000040004281FD1E06878B1E068B0F5805F56
:103D10000BD0E068B0F5A05F07D0E068B0F5C05FF9
:103D200003D0E068B0F5E05F00D104E040F2BA21D2
:103D300020A006F067FA2E48006820F4E050E16801
:103D400008432B490860207800F00800082820D19B
:103D5000206978B12069B0F5805F0BD02069B0F59B
:103D6000A05F07D02069B0F5C05F03D02069B0F52F
:103D7000E05F00D104E040F2C1210EA006F042FA5B
:103D80001B48006820F46040216940EAC1001849DE
:103D9000086000F05BF816490968C1F30311154A81
:103DA000515CC8401449086014480068FEF76CFF75
:103DB0000020CAE62E2E2F447269766572732F5347
:103DC000544D3332463478785F48414C5F447269D1
:103DD0007665722F5372632F73746D333266347845
:103DE000785F68616C5F7263632E6300003C024021
:103DF0000838024027A40008880100207000002035
:103E000001480068704700008801002000B5FFF7F6
:103E1000F7FF04490968C1F38221034A515CC84095
:103E200000BD00000838024037A4000800B5FFF7C5
:103E3000E7FF04490968C1F34231034A515CC840B5
:103E400000BD00000838024037A400082DE9F04703
:103E5000002400250026A1462548006800F00C003B
:103E600020B1042805D008283AD105E0DFF8849075
:103E700039E0DFF8849036E01D48001F006800F04C
:103E80003F041B48001F006800F4800078B11A4806
:103E90001749091F0968C1F38811A0FB0170014689
:103EA000224600233846FCF795F905460EE01148F6
:103EB0000F49091F0968C1F38811A0FB0170014671
:103EC000224600233846FCF785F905460848001FBE
:103ED0000068C0F30140401C4600B5FBF6F902E063
:103EE000DFF8109000BF00BF4846BDE8F087000033
:103EF000083802400024F40000127A00F8B50446A5
:103F00000CB90120F8BD20680F2800D803E0E82193
:103F1000FBA006F077F9207800F00100002870D0AF
:103F2000606838B16068B0F5803F03D06068B0F574
:103F3000A02F00D103E0ED21F1A006F063F9FE48C7
:103F4000006800F00C0004280DD0FB48006800F069
:103F50000C00082813D1F848001F006800F4800006
:103F6000B0F5800F0BD1F44808380068C0F340402A
:103F7000002859D06068002856D10120C2E700BF50
:103F80006068B0F5803F08D1EB480838006840F41D
:103F90008030E949083908601EE06068B0F5A02F5C
:103FA0000DD1E5480838006840F48020E24908391E
:103FB00008600846006840F4803008600CE0DE4885
:103FC0000838006820F48030DB490839086008466A
:103FD000006820F48020086000BF606890B1FEF7A0
:103FE00023FE054606E0FEF71FFE401B642801D9AC
:103FF000032087E7D04808380068C0F34040002815
:10400000F1D011E0FEF710FE054606E0FEF70CFECB
:10401000401B642801D9032074E7C74808380068AA
:10402000C0F340400028F1D1207800F002000228BF
:1040300073D1E06810B1E068012800D104E040F2DB
:104040001F11AFA006F0DEF820691F2800D804E099
:104050004FF49071AAA006F0D5F8B748006800F0B8
:104060000C0058B1B448006800F00C0008281CD1BE
:10407000B148001F006800F48000B0B9AE480838AD
:104080000068C0F3400020B1E068012801D00120A1
:1040900038E7A9480838006820F0F800216940EAAC
:1040A000C100A5490839086037E0E06800B3012085
:1040B000A2490860FEF7B8FD054606E0FEF7B4FD2C
:1040C000401B022801D903201CE79B4808380068E0
:1040D000C0F340000028F1D097480838006820F06D
:1040E000F800216940EAC10093490839086014E0EA
:1040F000002092490860FEF797FD054606E0FEF7AE
:1041000093FD401B022801D90320FBE68A480838AA
:104110000068C0F340000028F1D1207800F00800CA
:10412000082837D1606910B16069012800D104E026
:104130004FF4B07172A006F065F86069A8B1012073
:104140007F490860FEF770FD054606E0FEF76CFD4E
:10415000401B022801D90320D4E677486C30006860
:10416000C0F340000028F1D014E00020744908603A
:10417000FEF75AFD054606E0FEF756FD401B0228F5
:1041800001D90320BEE66C486C300068C0F34000E3
:104190000028F1D1207800F00400042875D1002710
:1041A000A06828B1A068012802D0A068052800D125
:1041B00004E04FF4C67152A006F024F85E4838308F
:1041C000006800F0805090B900BF002000905A486D
:1041D0003830006840F08050574938310860084650
:1041E000006800F08050009000BF00BF01275548D4
:1041F000006800F48070B0B95248006840F48070E4
:1042000050490860FEF710FD054606E0FEF70CFD7C
:10421000401B022801D9032074E64A48006800F4D4
:1042200080700028F2D000BFA068012808D1424861
:104230006830006840F001003F49683108601DE0C7
:10424000A06805280DD13C486830006840F00400A3
:104250003949683108600846006840F0010008608C
:104260000CE035486830006820F0010032496831C0
:1042700008600846006820F00400086000BFA068DD
:10428000A8B1FEF7D1FC054609E02FE0FEF7CCFC13
:10429000401B41F28831884201D9032032E626488A
:1042A00068300068C0F340000028EFD013E0FEF74C
:1042B000BBFC054608E0FEF7B7FC401B41F2883125
:1042C000884201D903201DE61B4868300068C0F30E
:1042D00040000028EFD1012F07D11748383000687F
:1042E00020F0805014493831086000BFA06928B11F
:1042F000A069012802D0A069022825D12AE0000087
:104300002E2E2F447269766572732F53544D3332BB
:10431000463478785F48414C5F4472697665722F05
:104320005372632F73746D3332663478785F6861CB
:104330006C5F7263632E63000838024000004742DE
:10434000800E47420070004040F2CF11AFF25000A3
:1043500005F058FFA06900287CD06548006800F08F
:104360000C00082877D0A069022875D1E06918B13F
:10437000E069B0F5800F00D105E04FF4EC71AFF2C9
:10438000800005F03FFF206A3F2800D805E040F29A
:10439000D911AFF2940005F035FF606AC02804D34C
:1043A000606AB0F5D87F00D805E04FF4ED71AFF248
:1043B000B00005F027FFA06A022808D0A06A0428F0
:1043C00005D0A06A062802D0A06A082800D105E01E
:1043D00040F2DB11AFF2D80005F014FFE06A0228CA
:1043E00003D3E06A0F2800D805E04FF4EE71AFF276
:1043F000F00005F007FF00203E490866FEF714FCB8
:10440000054606E0FEF710FC401B022801D90320F8
:1044100078E5374808380068C0F340600028F1D1DB
:10442000D4E907010843616A40EA81110122A06AC8
:10443000C2EB500041EA00412C20005D41EA0060DF
:104440002B49091F086001202A490866FEF7ECFB8A
:10445000054609E049E025E00EE0FEF7E5FB401BDC
:10446000022801D903204DE5214808380068C0F32F
:1044700040600028F1D038E000201E490866FEF7B1
:10448000D3FB054606E0FEF7CFFB401B022801D90F
:10449000032037E5164808380068C0F3406000285C
:1044A000F1D122E0A069012800D12BE51048001FBE
:1044B000066806F48001E069814214D106F03F01EC
:1044C000206A81420FD147F6C0703040616A88424D
:1044D00009D106F44031A06A814204D106F070612E
:1044E000E06A814201D001200CE500200AE50000CD
:1044F000083802400000474270B504462546681E51
:10450000B0F1807F01D301200FE0681E4FF0E02161
:1045100048610F214FF0FF3005F000FA00204FF006
:10452000E021886107200861002070BD7047704756
:104530002DE9F04104460D464149206888420FD0DC
:104540002068B0F1804F0BD03E492068884207D0E8
:104550003D492068884203D03C492068884200D108
:1045600004E040F264613AA005F04CFE2868A0B176
:104570002868102811D0286820280ED028683028F4
:104580000BD02868402808D02868502805D0286813
:10459000602802D02868702800D104E040F26561EC
:1045A0002BA005F02FFE6868802801D0686800B94C
:1045B00004E040F2666126A005F024FE00BF94F8F6
:1045C0003C00012802D10220BDE8F081012084F8DE
:1045D0003C0000BF022084F83D0020684768206846
:1045E000866827F0700728680743206847601449E9
:1045F0002068884213D02068B0F1804F0FD0114955
:10460000206888420BD010492068884207D00F49A3
:104610002068884203D01D492068884205D126F0D1
:1046200080066868064320688660012084F83D00A3
:1046300000BF002084F83C0000BF00BFC4E70000BA
:10464000000001400004004000080040000C004051
:104650002E2E2F447269766572732F53544D333268
:10466000463478785F48414C5F4472697665722FB2
:104670005372632F73746D3332663478785F686178
:104680006C5F74696D5F65782E63000000400140C7
:1046900010B504460CB9012010BD35492068884288
:1046A0001BD02068B0F1804F17D032492068884273
:1046B00013D03149206888420FD0304920688842A1
:1046C0000BD02F492068884207D02E4920688842A5
:1046D00003D02D492068884200D104E04FF489714D
:1046E0002AA005F08FFDA06858B1A068102808D056
:1046F000A068202805D0A068402802D0A0686028C3
:1047000000D104E040F2131120A005F07BFD2069E8
:1047100038B12069B0F5807F03D02069B0F5007F03
:1047200000D104E04FF48A7118A005F06BFDA06978
:1047300010B1A069802800D104E040F2151113A047
:1047400005F060FD94F83D0028B9002084F83C0095
:10475000204600F037F8022084F83D00211D206833
:1047600002F0F4FA012084F83D00002094E70000F4
:10477000000001400004004000080040000C004020
:104780000040014000440140004801402E2E2F44CB
:104790007269766572732F53544D3332463478788C
:1047A0005F48414C5F4472697665722F5372632F84
:1047B00073746D3332663478785F68616C5F7469E6
:1047C0006D2E630038B504462068B0F1804F18D1D3
:1047D00000BF002000902848006840F001002649F2
:1047E00008600846006800F00100009000BF00BFAC
:1047F000002201211C20FEF7C7FA1C20FEF78EFACA
:1048000038E01E492068884218D100BF002000907F
:104810001948006840F0020017490860084600681F
:1048200000F00200009000BF00BF00220A211D20FE
:10483000FEF7AAFA1D20FEF771FA1BE01049206866
:10484000884217D100BF002000900B48006840F05C
:104850000400094908600846006800F00400009060
:1048600000BF00BF002208211E20FEF78DFA1E2087
:10487000FEF754FA38BD0000403802400004004002
:104880000008004070B504461C49206888421BD0CF
:104890002068B0F1804F17D019492068884213D0A2
:1048A0001849206888420FD01749206888420BD0E9
:1048B00016492068884207D015492068884203D0ED
:1048C00014492068884200D104E040F2B91112A0D6
:1048D00005F098FC2068C06840F001002168C860BD
:1048E0002068806800F00705062D05D02068006864
:1048F00040F0010021680860002070BD0000014008
:104900000004004000080040000C0040004001404E
:1049100000440140004801402E2E2F447269766504
:1049200072732F53544D3332463478785F48414C7C
:104930005F4472697665722F5372632F73746D339F
:1049400032663478785F68616C5F74696D2E6300DD
:104950002DE9F04104460D4600BF94F83C000128C3
:1049600002D10220BDE8F081012084F83C0000BFA4
:10497000022084F83D002868B0F5805F1AD02868CE
:10498000B0F5005F16D02868A0B12868102811D0B3
:10499000286820280ED0286830280BD028684028A6
:1049A00008D02868502805D02868602802D02868D8
:1049B000702800D104E041F28B11FAA005F022FC2E
:1049C0002068866826F0770626F47F462068866091
:1049D000286850287ED00CDC20287CD004DC0028FD
:1049E0007AD0102879D1C1E1302877D04028F9D188
:1049F00076E1602873D070282DD0B0F5805F03D0A9
:104A0000B0F5005FEED189E0F449206888421BD000
:104A10002068B0F1804F17D0F1492068884213D048
:104A2000F049206888420FD0EF49206888420BD0B7
:104A3000EE492068884207D0ED492068884203D0BB
:104A4000EC492068884200D104E041F29711D5A0DA
:104A500005F0D8FBDCE1E1492068884213D02068EA
:104A6000B0F1804F0FD0DE49206888420BD0DD497D
:104A70002068884207D0DC492068884203D0DB499F
:104A80002068884200D104E041F29E11C5A005F0E3
:104A9000B9FBA86858B1A868B0F5805F07D0A868CE
:104AA000B0F5005F03D0A868B0F5405F00D104E026
:104AB00041F2A111BBA005F0A5FB6868B0F5004F5D
:104AC00010D0686870B1686860B16868022809D061
:104AD000686805E07AE04AE147E198E148E1BAE038
:104AE0000A2800D104E041F2A211AEA005F08AFB31
:104AF000E8680F2800D804E041F2A311A9A005F04E
:104B000081FBD5E902136A68206802F071F9206818
:104B1000866846F077062068866079E1AF492068AC
:104B200088420FD02068B0F1804F0BD0AC4920688C
:104B3000884207D0AB492068884203D0AA49206840
:104B4000884200D104E041F2B61196A005F05AFB6C
:104B5000A86858B1A868B0F5805F07D0A868B0F51C
:104B6000005F03D0A868B0F5405F00D104E041F2D7
:104B7000B9118CA005F046FB6868B0F5004F09D06C
:104B8000686838B1686828B16868022802D0686827
:104B90000A2800D104E041F2BA1182A005F032FBEC
:104BA000E8680F2800D804E041F2BB117DA005F0B1
:104BB00029FBD5E902136A68206802F019F9206818
:104BC000806840F480402168886021E18349206842
:104BD000884213D02068B0F1804F0FD08049206800
:104BE00088420BD07F492068884207D07E492068E0
:104BF000884203D07D492068884200D104E041F218
:104C0000CA1168A005F0FEFA6868B0F5004F09D037
:104C1000686838B1686828B16868022802D0686896
:104C20000A2800D104E041F2CD115EA005F0EAFAB5
:104C3000E8680F2800D804E041F2CE1159A005F031
:104C4000E1FAEA686968206802F0E6F85021206815
:104C500002F0D9F8DCE061492068884213D020686E
:104C6000B0F1804F0FD05E49206888420BD05D497B
:104C70002068884207D05C492068884203D05B499D
:104C80002068884200D104E041F2DA1145A005F025
:104C9000B9FA6868B0F5004F09D0686838B168683B
:104CA00028B16868022802D068680A2800D104E0A8
:104CB00041F2DD113BA005F0A5FAE8680F2800D805
:104CC00004E041F2DE1137A005F09CFAEA68696859
:104CD000206802F0B4F86021206802F094F897E0B0
:104CE0003E492068884213D02068B0F1804F0FD031
:104CF0003B49206888420BD03A492068884207D057
:104D000039492068884203D038492068884200D158
:104D100004E041F2EA1123A005F074FA6868B0F5E6
:104D2000004F09D0686838B1686828B168680228FF
:104D300002D068680A2800D104E041F2ED1119A000
:104D400005F060FAE8680F2800D804E041F2EE119F
:104D500014A005F057FAEA686968206802F05CF868
:104D60004021206802F04FF852E000BF00BF00BFB2
:104D70001A492068884213D02068B0F1804F0FD0C4
:104D80001749206888420BD016492068884207D00E
:104D900015492068884203D01449206888422BD1E5
:104DA00030E000002E2E2F447269766572732F5307
:104DB000544D3332463478785F48414C5F447269D1
:104DC0007665722F5372632F73746D333266347845
:104DD000785F68616C5F74696D2E6300000001404C
:104DE0000004004000080040000C0040004001406A
:104DF000004401400048014041F2FD11AFF25C0067
:104E000005F000FA2968206801F0FDFF00E000BF0E
:104E100000BF012084F83D0000BF002084F83C0062
:104E200000BF00BF9EE5704710B5044620680069CA
:104E3000C0F34000D8B12068C068C0F34000B0B1F2
:104E40006FF00200216808610120207720688069E6
:104E500000F0030018B12046FFF7E5FF05E020460B
:104E600000F0ADF8204600F0ABF800202077206875
:104E70000069C0F38000D8B12068C068C0F380002A
:104E8000B0B16FF00400216808610220207720682B
:104E9000806900F4407018B12046FFF7C4FF05E0B8
:104EA000204600F08CF8204600F08AF80020207799
:104EB00020680069C0F3C000D8B12068C068C0F3A2
:104EC000C000B0B16FF008002168086104202077AD
:104ED0002068C06900F0030018B12046FFF7A3FF67
:104EE00005E0204600F06BF8204600F069F800204D
:104EF000207720680069C0F30010D8B12068C0682E
:104F0000C0F30010B0B16FF01000216808610820F4
:104F100020772068C06900F4407018B12046FFF780
:104F200082FF05E0204600F04AF8204600F048F8ED
:104F3000002020772068006900F0010058B1206847
:104F4000C06800F0010030B16FF001002168086115
:104F5000204600F037F820680069C0F3C01058B14F
:104F60002068C068C0F3C01030B16FF080002168C5
:104F700008612046FFF7DAFA20680069C0F3801064
:104F800058B12068C068C0F3801030B16FF04000A5
:104F900021680861204600F07DF820680069C0F3B0
:104FA000401058B12068C068C0F3401030B16FF0B5
:104FB0002000216808612046FFF7B9FA10BD70474C
:104FC000704700001CB504462248844205D101F018
:104FD00015F9012801D102F0E1FA1F48844226D1D7
:104FE00001F00CF9012822D101F0A4FD1B48007842
:104FF000E0B11B480068401C1949086001F0B6FC8C
:105000001848194B194A1A4900901A48FBF7B0FF83
:105010001548164B164A17490090002001F0C2FCB3
:1050200000200E49087001F08FFC00E01CBD124802
:1050300084420DD101F0E2F8012809D10F4810494E
:10504000104B114ACDE9001010491148FCF740F807
:1050500000BFEBE7F8030020B80300202301002085
:105060009C000020800000207E0000207C000020AA
:105070007A000020780000203804002098000020EA
:1050800094000020900000208C0000208800002068
:10509000840000207047000038B50446E06B00F043
:1050A000080078B100BF00200090206800680090E0
:1050B00020684068009000BF00BF012202490348F9
:1050C00000F04CFA38BD0000B40000207804002045
:1050D0002DE9F0470446206805682068C668206806
:1050E00047694FF00008C14605F00F08B8F1000FFE
:1050F0000AD105F0200038B106F0200020B120468A
:1051000001F0DBFEBDE8F087B8F1000F72D007F0C8
:10511000010018B906F4907000286BD005F001006A
:1051200030B106F4807018B1E06B40F00100E0632C
:1051300005F0040030B107F0010018B1E06B40F059
:105140000200E06305F0020030B107F0010018B181
:10515000E06B40F00400E06305F0080048B106F0A1
:10516000200010B907F0010018B1E06B40F0080012
:10517000E063E06B70B305F0200028B106F020007A
:1051800010B1204601F099FE20684069C0F38019F3
:10519000E06B00F0080010B9B9F1000F23D02046F1
:1051A00001F06BFE2068406900F04000402816D1F5
:1051B0002068406920F0400021684861606B50B170
:1051C0001748616B0865606BFCF736FF10B1606BC8
:1051D000016D88470CE02046FFF75EFF08E020469F
:1051E000FFF75AFF04E02046FFF756FF0020E06378
:1051F00088E7FFE705F0800030B106F0800018B1C5
:10520000204602F000F97DE705F0400030B106F0DD
:10521000400018B1204601F040FE73E700BF71E77F
:10522000676E000810B504460CB9012010BDA069D6
:10523000002826D040492068884207D03F4920688E
:10524000884203D03E492068884200D104E040F201
:105250004B113CA004F0D6FFA06958B1A069B0F58D
:10526000807F07D0A069B0F5007F03D0A069B0F5BA
:10527000407F00D117E04FF4A67132A004F0C2FFC6
:1052800011E02D492068884207D02C4920688842C7
:1052900003D02B492068884200D104E04FF4A87164
:1052A00028A004F0AFFFA06818B1A068B0F5805F37
:1052B00000D104E04FF4A97122A004F0A3FFE0693B
:1052C00018B1E069B0F5004F00D104E040F253118D
:1052D0001CA004F097FF94F8390028B9002084F846
:1052E0003800204600F04CF8242084F8390020686B
:1052F000C06820F400502168C860204601F030FEEC
:105300002068006920F490402168086120684069A5
:1053100020F02A00216848612068C06840F40050ED
:105320002168C8600020E063202084F8390084F8F8
:105330003A0000207AE700000010014000440040DD
:10534000001401402E2E2F447269766572732F531C
:10535000544D3332463478785F48414C5F4472692B
:105360007665722F5372632F73746D33326634789F
:10537000785F68616C5F756172742E630000000075
:1053800010B586B00446142101A8FAF76DFF6C49E8
:105390002068884239D100BF002000906948006829
:1053A00040F01000674908600846006800F01000EF
:1053B000009000BF00BF00BF00200090614814387B
:1053C000006840F001005F49143908600846006831
:1053D00000F00100009000BF00BF4FF4C0600190DA
:1053E00002200290002003900320049007200590E3
:1053F00001A95548FDF786F9002204212520FDF773
:10540000C3FC2520FDF78AFC97E0504920688842BC
:1054100057D100BF002000904A48001F006840F4A8
:1054200000304849091F08600846006800F4003051
:10543000009000BF00BF00BF00200090414814381A
:10544000006840F001003F491439086008460068D0
:1054500000F00100009000BF00BF00BF00200090DE
:105460000846006840F0080008600846006800F040
:105470000800009000BF00BF0420019002200290AD
:1054800000200390032004900720059001A92E48D6
:10549000FDF738F94020019002200290002003908F
:1054A000032004900720059001A92948FDF72AF957
:1054B000002205212620FDF767FC2620FDF72EFCA3
:1054C0003BE024492068884237D100BF002000908B
:1054D0001C48006840F020001A490860084600682F
:1054E00000F02000009000BF00BF00BF002000902F
:1054F00014481438006840F0040012491439086058
:105500000846006800F00400009000BF00BFC02003
:1055100001900220029000200390032004900820B4
:10552000059001A90C48FDF7EDF80022062147205F
:10553000FDF72AFC4720FDF7F1FB06B010BD000087
:105540000010014044380240000002400044004086
:10555000000C0240001401400008024010B5034650
:1055600093F83A0020282FD101B10AB9012010BDCB
:1055700000BF93F83800012801D10220F7E701208D
:1055800083F8380000BF99629A85DA850020D863D5
:10559000222083F83A0000BF002083F8380000BFC3
:1055A0001868C06840F480701C68E0601868406942
:1055B00040F001001C6860611868C06840F020007D
:1055C0001C68E0600020D2E70220D0E710B5044656
:1055D00006492068884201D100F0A6F804492068F5
:1055E000884201D100F0B4F810BD00000010014065
:1055F000001401402DE9F84304460D4616461F46A7
:105600004FF0000994F8390020285DD105B116B992
:105610000120BDE8F88300BF94F83800012801D1CB
:105620000220F6E7012084F8380000BF0020E06384
:10563000212084F83900FDF7F7FA8146A684E68434
:1056400000BF002084F8380000BF2BE0E08C401E33
:10565000E084A068B0F5805F16D14B46002280211F
:105660002046009701F003FF08B10320D1E7A846C8
:10567000B8F80000C0F3080021684860206908B944
:10568000AD1C0FE06D1C0DE04B4600228021204632
:10569000009701F0ECFE08B10320BAE715F8010B02
:1056A00021684860E08C0028D0D14B460022402180
:1056B0002046009701F0DBFE08B10320A9E7202077
:1056C00084F839000020A4E70220A2E710B50346C1
:1056D00093F83900202823D101B10AB9012010BD67
:1056E00000BF93F83800012801D10220F7E701201C
:1056F00083F8380000BF19629A84DA840020D863E6
:10570000212083F8390000BF002083F8380000BF53
:105710001868C06840F080001C68E0600020DEE788
:105720000220DCE77047000010B506480078FBF760
:10573000E5FA05490870012202490448FFF70EFF07
:1057400010BD0000B4000020B50000207804002047
:1057500010B566480078664908706648007810BB46
:1057600008460078552814D163480078401C6249E7
:10577000087008460078022815D100200870012022
:105780005C4908705D49087055205D490870487093
:1057900009E00020574908705849087056490870B8
:1057A0005749087048705348007800287ED0534805
:1057B0000078022811D14E48007851498870084677
:1057C0008078002804DB08468078B0F5157F04DB7C
:1057D00000204B49887047490870484800780328E2
:1057E00017D1434800784649C8700846C0784549F3
:1057F000087008460078032803DB0846007807286D
:1058000007DD02203F49087000203D49C870394932
:1058100008703A480078042810D135480078384993
:10582000087108460079012803DB0846007936280C
:1058300004DD0020324908712E4908703148007893
:10584000C01E31490978884216DD2C4800780428AA
:1058500012DD274801782A48401D2B4A12788154CE
:1058600029480078401C2849087026480078C01E46
:105870000978884200D12DE022480078C01E2249D4
:105880000978884206D12048007818B11848007875
:105890001B494874194801781A480078801C8142D5
:1058A00017D11A48007888B9012000E011E01749A3
:1058B00008700020114908700E4908700E490870E0
:1058C00002201049087000200F4908700020094983
:1058D000087000BF09480078401C08490870012280
:1058E00002490B48FFF73AFE10BD0000AD00002052
:1058F000B3000020AE000020AF000020B100002067
:1059000042060020B0000020B2000020AC000020C1
:10591000F80400202DE9F041044601252678A76807
:10592000D4F804803B464246314608A001F0F8FD19
:1059300005460120FCF7D2FE05B103E04B2107A08C
:1059400004F060FC2846BDE8F0810000616464203A
:1059500025642C25642C2564FFFFFF002E2E5C4857
:10596000617264776172655C484D495F436F6E7424
:10597000726F6C5C484D495F436F6E74726F6C2E32
:10598000630000002DE9F041044601252678676890
:105990003A46314607A001F0C3FD05460120FCF759
:1059A0009DFE05B103E0332106A004F02BFC284640
:1059B000BDE8F0816E25642E76616C3D2564FFFFA5
:1059C000FF0000002E2E5C48617264776172655C96
:1059D000484D495F436F6E74726F6C5C484D495F10
:1059E000436F6E74726F6C2E6300000000B589B057
:1059F000194B1A4A1A491B4800F04AF81A4908700C
:105A00000846007800B104E040F2472117A004F0F6
:105A1000F9FB1B4801461B4A1346CDE90432CDE988
:105A200006101948014602460346CDE90032CDE989
:105A30000210134B1549134800F0EAF80A490870A0
:105A40000846007800B104E040F25A2107A004F0B3
:105A5000D9FB09B000BD00000800002006000020AE
:105A60000400002002000020000000202E2E2F4302
:105A70006F72652F5372632F6D61696E2E63000024
:105A80006A000020640000206800002066000020FA
:105A90002DE9F0412DED088B05460E461746984638
:105AA0000124288808EE100A308808EE900A388809
:105AB00009EE100AB8F8000009EE900AB8EEC80A1C
:105AC000DFED430A80EE201A9FED420A21EE000A24
:105AD000B0EE40AAF8EEE80A9FED3D1A80EE810A8A
