:020000040800F2
:10000000D8070020B1010008412E0008232800086D
:100010003D2E00081D050008DD3700080000000027
:10002000000000000000000000000000472E000853
:100030002307000800000000452E00082B2F0008B1
:10004000CB010008CB010008CB010008CB01000860
:10005000CB010008CB010008CB010008CB01000850
:10006000CB010008CB010008CB010008CB01000840
:10007000CB010008CB010008CB010008CB01000830
:10008000CB010008CB010008650300080000000058
:10009000000000000000000000000000CB0100088C
:1000A000CB010008CB010008CB010008CB01000800
:1000B0000930000819300008CB010008CB01000806
:1000C000CB010008CB010008CB010008CB010008E0
:1000D000CB01000841370008753700080000000018
:1000E000CB010008CB010008CB0100080000000094
:1000F000000000000000000000000000CB0100082C
:1001000000000000CB010008CB010008CB01000873
:1001100000000000000000000000000000000000DF
:1001200009060008CB010008CB010008CB0100083C
:10013000CB010008000000000000000000000000EB
:10014000000000000000000000000000CB010008DB
:10015000CB010008CB010008CB010008853700085F
:10016000CB010008CB0100080000000000000000E7
:10017000000000000000000000000000000000007F
:1001800000000000CB01000800000000000000009B
:10019000CB010008CB010008DFF810D000F07CF89C
:1001A000004800478D380008AFF30080D8070020D2
:1001B0000648804706480047FEE7FEE7FEE7FEE701
:1001C000FEE7FEE7FEE7FEE7FEE7FEE7ED2F0008AD
:1001D000990100082DE9F05F0546002092469B46F4
:1001E00088460646814640241BE02846414647464D
:1001F000224600F041F853465A46C01A914110D3A6
:1002000011461846224600F028F82D1A67EB01081F
:100210004F4622460120002100F01FF817EB00098D
:100220004E41201EA4F10104DFDC484631462A4637
:100230004346BDE8F09FD2B201E000F8012B491E11
:10024000FBD270470022F6E710B513460A46044673
:100250001946FFF7F0FF204610BD202A04DB203AA4
:1002600000FA02F1002070479140C2F1200320FA09
:1002700003F3194390407047202A04DB203A21FA07
:1002800002F00021704721FA02F3D040C2F12002AF
:100290009140084319467047064C074D06E0E06858
:1002A00040F0010394E8070098471034AC42F6D3BD
:1002B000FFF776FF643900088439000870B50546F9
:1002C000AC6B206C00F0500050BB206C40F4007010
:1002D00020642068806800F04050E8B9207ED8B9DA
:1002E0002068C06A00F4700020B12068806800F4C3
:1002F000806088B92068406820F02000216848604C
:10030000206C20F480702064206C00F4805018B9B8
:10031000206C40F001002064204600F021FB0BE03F
:10032000206C00F0100018B1204600F020FB03E024
:10033000A06BC16C2846884770BD70B50546AC6B94
:1003400040202064606C40F004006064204600F0AF
:100350000EFB70BD70B50446A56B284600F006FB89
:1003600070BD000010B5024800F002FB10BD000097
:10037000D800002055494A6822F440324A604A6851
:1003800043681A434A600268526822F48072036824
:100390005A6002685368026943EA022203685A609D
:1003A0000268526822F0407203685A60026852681C
:1003B00083681A4303685A600268926822F40062F4
:1003C00003689A6002689268C3681A4303689A6077
:1003D0003F4B826A9A4218D00268926822F070629B
:1003E00003689A6002689268836A1A4303689A6095
:1003F0000268926822F0405203689A60026892682C
:10040000C36A1A4303689A600BE00268926822F09C
:10041000706203689A600268926822F04052036832
:100420009A600268926822F0020203689A60026889
:100430009368027E43EA420203689A602022125CBB
:10044000A2B10268526842F4006203685A6002680E
:10045000526822F4604203685A6002685368426A34
:10046000521E43EA423203685A6005E0026852684D
:1004700022F4006203685A600268D26A22F47002B1
:100480000368DA620268D36A828B521E43EA025220
:100490000368DA620268926822F4007203689A6064
:1004A0000268936890F8302043EA422203689A6019
:1004B0000268926822F4806203689A600268936816
:1004C000426943EA822203689A6070470023014030
:1004D0000100000F10B50124E01E0C4909680861F5
:1004E0000A4801F06DFC10B10020044610BD052241
:1004F0000749084800F098FB10B100200446F5E7D2
:100500000020054908702046F0E700008001002027
:10051000C0020020D80000207A00002000BFFEE7C3
:1005200070B5034601251C46002002E0265C0E54EF
:10053000401C9042FADB284670BD70B502460B465F
:1005400001250021144600BF02E0605C5854491C9C
:10055000D078801C8842F8DC507C5854481C02E05B
:1005600000261E54401C1228FADB284670BD0000ED
:1005700010B5014601201F4A13781278521C1D4CF9
:1005800022701D4AD1541278552A04D000222346E5
:100590001A70002010BD174A12780B2A01DA0220C7
:1005A000F8E7154A5278512A04D0522A0AD0532A21
:1005B00018D10FE0114A104B9B1C1C6814605B683B
:1005C00053600FE00E4A0C4B9B1C1C6814605B6868
:1005D000536007E00B4A084B9B1C1C6814605B6867
:1005E000536000BF00BF0022024B1A70012000BF01
:1005F000D0E7000090000020DC02002092000020E4
:100600009A000020A200002010B5024800F0C6FBAE
:1006100010BD000020010020014608781038182382
:10062000B0FBF3F20848805CC865032A05D9086866
:100630006FF30900001D886503E008686FF3090087
:100640008865886D70470000343900080146002035
:100650008A6A8B69CBB932B1012A0DD0022A03D044
:10066000032A10D10EE000BFCB6A03F08073B3F110
:10067000807F00D1012007E0CB6AB3F1C07F00D1B9
:10068000012001E000E000BF34E08B69B3F5005FBA
:100690001AD132B1012A07D0022A03D0032A11D17C
:1006A0000AE000BF01200EE0CB6A03F08073B3F1D3
:1006B000807F00D1012006E0CB6AB3F1C07F00D17A
:1006C000012000E000BF15E032B1012A05D0022A66
:1006D00004D0032A0CD103E000BF00BF012008E0D2
:1006E000CB6A03F08073B3F1807F00D1012000E07A
:1006F00000BF00BF704730B50468246824F480242C
:1007000005682C60046863608468402C04D1046828
:10071000A2600468E16003E00468A1600468E2602C
:1007200030BD704716E04FF400510B4800F014FE46
:100730004FF48051084800F00FFE4FF48041064806
:1007400000F00AFE4FF40041034800F005FE64206B
:1007500000F004FDE7E70000000C02400146002322
:100760000022022204E0885C184483B2501CC2B20A
:10077000C878801C9042F6DCD843C0B270470000B5
:1007800010B501240A4802F05FFB04460CB920466C
:1007900010BD642000F0E2FC064802F055FB044066
:1007A0000CB92046F4E70A2000F0D8FC2046EFE719
:1007B0003F3900083C3900087047000038B5024650
:1007C0000020009000BF92F83C00012801D10220D7
:1007D00038BD012082F83C0000BF0868092816D9FE
:1007E0001068C0680C780A3C04EB44050724AC4050
:1007F000A0431468E0600C780A3C04EB4404886869
:10080000A0401468E46820431468E06013E01068B6
:1008100000690C7804EB44050724AC40A04314683D
:1008200020610C7804EB44048868A04014682469B3
:100830002043146820614868072817D21068406B6D
:100840000C79641E04EB84051F24AC40A04314689B
:100850006063088880B20C79641E04EB8404A040B5
:100860001468646B20431468606331E048680D28A5
:1008700017D21068006B0C79E41F04EB84051F2469
:10088000AC40A04314682063088880B20C79E41F50
:1008900004EB8404A0401468246B20431468206394
:1008A00016E01068C06A0C790D3C04EB84051F2427
:1008B000AC40A0431468E062088880B20C790D3C1B
:1008C00004EB8404A0401468E46A20431468E062E6
:1008D0001E4B1F4C1068A0420AD10868122807D18D
:1008E000586820F400005860586840F48000586050
:1008F000174C1068A04222D1164C0868A04202D0C2
:10090000086811281BD1586820F480005860586886
:1009100040F4000058600F4C0868A0420FD10E4808
:1009200000680E4CB0FBF4F000EB8000400000903B
:1009300002E00098401E009000980028F9D100BF06
:10094000002082F83C0000BF00BF41E700230140C7
:100950000020014012000010D400002040420F008F
:100960000121014A117070477A00002070477047DA
:1009700070B504460025002620680068C0F34005D5
:1009800020684068C0F3401695B38EB3206C00F029
:10099000100018B9206C40F4007020642068806852
:1009A00000F04050E8B9207ED8B92068C06A00F451
:1009B000700020B12068806800F4806088B92068E9
:1009C000406820F0200021684860206C20F480708E
:1009D0002064206C00F4805018B9206C40F00100B5
:1009E00020642046FFF7BCFF6FF01200216808600A
:1009F00020680068C0F3800520684068C0F3C01616
:100A0000E5B3DEB3206C00F0100018B9206C40F4A0
:100A1000005020642068806800F4401038BB2068D3
:100A2000806B00F4401020B12068806800F4806082
:100A3000E8B92068406800F48060C0B92068806828
:100A400000F0405098B9207E88B92068406820F0B6
:100A5000800021684860206C20F480502064206C65
:100A600000F4807018B9206C40F00100206420462A
:100A7000FFF7A2FE6FF00C00216808602068006894
:100A800000F0010520684068C0F3801685B17EB192
:100A90002068006800F0010050B1206C40F4803004
:100AA0002064204600F052F86FF0010021680860D1
:100AB00020680068C0F3401520684068C0F3806675
:100AC0007DB176B1606C40F0020060646FF0200090
:100AD000216808602046FFF74AFF6FF02000216878
:100AE000086070BD70B5044600250CB9012070BDCA
:100AF0001549A06A884200D000BF206C30B920465A
:100B000000F026F80020606484F83C00206C00F0BF
:100B1000100088B9206C20F4885040F00200206456
:100B20002046FFF727FC00206064206C20F00200C4
:100B300040F00100206400E0012500BF002084F89F
:100B40003C0000BF2846D2E70100000F70470000BC
:100B500010B586B00446142101A8FFF773FB2D4998
:100B60002068884253D100BF002000902A480068C6
:100B700040F48070284908600846006800F48070DE
:100B8000009000BF00BF00BF002000902248143832
:100B9000006840F0010020491439086008460068E8
:100BA00000F00100009000BF00BF6A200190032008
:100BB00002900020039001A9184800F0E3FA1848B9
:100BC0001849086000204860002116488160C16013
:100BD0004FF48061016149004161890081614911DF
:100BE000C161490201620021416200F0F7F908B1D8
:100BF000FFF798FD00BF0B48A063846300BF00228D
:100C00001146122000F042FC122000F02FFC06B02A
:100C100010BD0000002001404438024000000240A6
:100C20001064024020010020F8B504460D46164627
:100C30000020009000BF94F83C00012801D1022060
:100C4000F8BD012084F83C0000BF2068806800F0F7
:100C50000100A0B92068806840F001002168886028
:100C60003D4800683D49B0FBF1F000EB40000090CA
:100C700002E00098401E009000980028F9D12068FA
:100C8000806800F00100002864D0206C40F201610F
:100C9000884340F4807020642068406800F48060DD
:100CA00028B1206C20F4005040F480502064206C67
:100CB00000F48050B0F5805F04D1606C20F0060035
:100CC000606401E00020606400BF002084F83C0004
:100CD00000BF234F2348A16BC8632348A16B08645E
:100CE0002248A16BC8646FF0220021680860206868
:100CF000406840F08060216848602068806840F467
:100D0000807021688860226802F14C0133462A46CF
:100D1000A06B00F0D9F9786800F01F0058B920687E
:100D2000806800F0405028B92068806840F080401A
:100D3000216888600EE00E49206888420AD1206848
:100D4000806800F0405028B92068806840F08040FA
:100D500021688860002073E7D400002040420F0023
:100D600000230140BD020008550300083B030008B2
:100D700000200140014691F83500022803D0802070
:100D8000486501207047052081F835000868006833
:100D900020F001000A6810600020F3E7F8B504466F
:100DA000002000908C4800684FF41651B0FBF1F71A
:100DB000A56D2E6894F85C1008208840304098B1EA
:100DC0002068006800F0040070B12068006820F01E
:100DD00004002168086094F85C1008208840A8602E
:100DE000606D40F00100606594F85C10012088405F
:100DF000304068B12068406900F0800040B194F84C
:100E00005C1001208840A860606D40F002006065C1
:100E100094F85C1004208840304068B12068006875
:100E200000F0020040B194F85C1004208840A860F3
:100E3000606D40F00400606594F85C1010208840FC
:100E4000304078B32068006800F0080050B394F890
:100E50005C1010208840A8602068006800F48020A2
:100E600080B12068006800F4002028B9206CC8B167
:100E70002046216C884715E0A06C98B12046A16CF3
:100E800088470FE02068006800F4807028B9206867
:100E9000006820F0080021680860206C10B120462E
:100EA000216C884794F85C1020208840304000284E
:100EB00065D02068006800F0100000285FD094F82A
:100EC0005C1020208840A86094F83500052828D1BF
:100ED0002068006820F016002168086020684069DA
:100EE00020F0800021684861206C08B9A06C28B10E
:100EF0002068006820F008002168086094F85C1001
:100F00003F208840A86000BF002084F8340000BF64
:100F1000012084F83500206D10B12046216D8847EE
:100F2000F8BD2068006800F4802080B12068006867
:100F300000F4002028B9606C10B12046616C88472D
:100F40001DE0E06BD8B12046E16B884717E02068D0
:100F5000006800F4807068B92068006820F0100014
:100F60002168086000BF002084F8340000BF012021
:100F700084F83500E06B10B12046E16B8847606D66
:100F800038B3606D00F00100F0B1052084F8350041
:100F90002068006820F001002168086000BF009808
:100FA000401C0090B84200D905E02068006800F0BD
:100FB00001000028F3D100BF00BF002084F83400F6
:100FC00000BF012084F83500E06C10B12046E16CD0
:100FD000884700BFA4E70000D40000202DE9F041BD
:100FE0000446002500F0C8F9074614B90120BDE801
:100FF000F081606A00B100BF00BF002084F83400B7
:1010000000BF022084F835002068006820F001004D
:10101000216808600AE000F0AFF9C01B052805D977
:1010200020206065032084F83500E0E72068006830
:1010300000F001000028EED1206805682148054035
:10104000D4E901010843E168084321690843616963
:101050000843A1690843E1690843216A084305433D
:10106000606A042803D1D4E90B01084305432068D2
:1010700005602068456925F00705606A0543606AD8
:1010800004280DD1A06A0543E06A48B12046FFF765
:10109000DDFA28B140206065012084F83500A6E71C
:1010A000206845612046FFF7B7FA064694F85C10C1
:1010B0003F208840B06000206065012084F8350042
:1010C000002094E73F8010F02DE9F04704460D46DC
:1010D00016461F464FF00008D4F8589000BF94F809
:1010E0003400012802D10220BDE8F087012084F8F5
:1010F000340000BF94F83500012825D1022084F87F
:101100003500002060653B46324629462046FFF701
:10111000F2FA94F85C103F208840C9F80800206873
:10112000006840F0160021680860206C28B1206833
:10113000006840F00800216808602068006840F0FE
:1011400001002168086006E000BF002084F8340038
:1011500000BF4FF002084046C6E7000070B50446E5
:1011600000F00AF906462546681C10B104480078CC
:10117000054400BF00F000F9801BA842FAD370BDFF
:1011800064000020F8B503460A460025002400202C
:101190000021CDE0012606FA01F5166806EA0504ED
:1011A000AC4273D15668012E08D05668022E05D085
:1011B0005668112E02D05668122E13D198684F002F
:1011C0000326BE40B0434F00D668BE40304398600F
:1011D000586801268E40B0431679C6F300168E403B
:1011E00030435860D8684F000326BE40B0434F00DC
:1011F0009668BE403043D8605668022E02D05668CA
:10120000122E13D1CF0803F1200656F827004E07FF
:10121000F70E0F26BE40B0434F07FF0E1669BE40C3
:101220003043CF0803F1200646F8270018684F0026
:101230000326BE40B043167906F003064F00BE40B9
:1012400030431860566806F08056B6F1805F6ED164
:1012500000BF00260096384E366846F48046364F6A
:101260003E603E46366806F48046009600BF00BFEA
:10127000324E8F0856F827008E07370F0F26BE40D4
:10128000B0432F4EB34202D1002615E04FE02D4E61
:10129000B34201D101260FE02B4EB34201D1022609
:1012A0000AE02A4EB34201D1032605E0284EB3429C
:1012B00001D1042600E007268F073F0FBE403043D0
:1012C0001E4E8F0846F82700224E3068A04356680D
:1012D00006F48036B6F5803F00D120431D4E3060C5
:1012E000361D3068A043566806F40036B6F5003F58
:1012F00000D12043174E361D3060361D3068A043A4
:10130000566806F48016B6F5801F00D12043114EB2
:1013100008363060361D3068A043566806F4001663
:10132000B6F5001F00D120430A4E0C363060491C30
:101330001029FFF42FAFF8BD4438024008380140AF
:10134000000002400004024000080240000C02407D
:1013500000100240003C014042690A408A4202D12A
:101360000A04826100E0816170470AB1816101E095
:101370000B0483617047000001480068704700005B
:101380005C000020034800680349097808440149CB
:10139000086070475C0000206400002010B50D4814
:1013A000006840F400700B4908600846006840F48B
:1013B000806008600846006840F480700860032080
:1013C00000F0A2F80F2000F007F800F02BF8002042
:1013D00010BD0000003C024070B504460E48007885
:1013E0004FF47A71B1FBF0F00C490968B1FBF0F5EC
:1013F000284600F021FC08B1012070BD102C07D256
:1014000000222146501E00F041F80548046001E02A
:101410000120F2E70020F0E764000020D400002063
:101420006000002008B500BF002000900E48006852
:1014300040F480400C4908600846006800F4804091
:10144000009000BF00BF00BF00200090081F006890
:1014500040F08050091F08600846006800F0805086
:10146000009000BF00BF08BD443802400146084656
:10147000002809DB00F01F0301229A4043099B006A
:1014800003F1E023C3F8002100BF70472DE9F05FAE
:1014900080460D461646002702F0AAF9074639464F
:1014A0002A46334601F00700C0F1070ABAF1040FDB
:1014B00002D94FF0040A01E0C0F1070AD14600F159
:1014C000040ABAF1070F02D24FF0000A01E0A0F1BE
:1014D000030AD4464FF0010A0AFA09FAAAF1010AEE
:1014E0000AEA020A0AFA0CFA4FF0010B0BFA0CFB9B
:1014F000ABF1010B0BEA030B4AEA0B042146404611
:1015000002F07EF9BDE8F09F00BF00F00702064B35
:1015100019684FF6FF031940044B0B4343EA0221BD
:10152000014B196000BF70470CED00E00000FA05A8
:1015300070B504460D460CB9012070BD58480068CE
:1015400000F00F00A84209D255490D700846006806
:1015500000F00F00A84201D00120EEE7207800F053
:10156000020002281DD1207800F00400042805D1D3
:101570004C48006840F4E0504A490860207800F088
:101580000800082805D14748006840F460404549F4
:1015900008604448006820F0F000A1680843414911
:1015A0000860207800F00100A8B36068012807D126
:1015B0003C4808380068C0F34040B8B90120BCE797
:1015C0006068022802D06068032807D135480838CF
:1015D0000068C0F3406048B90120AEE731480838E0
:1015E0000068C0F3400008B90120A6E72D48006854
:1015F00020F00300616808432A490860FFF7BCFE39
:10160000064609E0FFF7B8FE801B41F288318842A8
:1016100002D9032091E707E02248006800F00C009F
:101620006168B0EB810FEDD11D48006800F00F003C
:10163000A84209D91A490D700846006800F00F0049
:10164000A84201D0012078E7207800F004000428A7
:1016500007D11448006820F4E050E16808431149BC
:101660000860207800F00800082808D10D480068BC
:1016700020F46040216940EAC1000A49086000F096
:101680003FF808490968C1F30311074A515CC84093
:101690000649086006480068FFF79EFE00204CE7F8
:1016A000003C0240083802404B390008D4000020BA
:1016B000600000200148006870470000D40000204E
:1016C00000B5FFF7F7FF04490968C1F38221034A17
:1016D000515CC84000BD0000083802405B3900087A
:1016E00000B5FFF7E7FF04490968C1F34231034A37
:1016F000515CC84000BD0000083802405B3900085A
:101700002DE9F047002400250026A1462548006861
:1017100000F00C0020B1042805D008283AD105E0DB
:10172000DFF8849039E0DFF8849036E01D48001F30
:10173000006800F03F041B48001F006800F48000B0
:1017400078B11A481749091F0968C1F38811A0FB2D
:1017500001700146224600233846FEF73BFD054650
:101760000EE011480F49091F0968C1F38811A0FB59
:1017700001700146224600233846FEF72BFD054640
:101780000848001F0068C0F30140401C4600B5FB3C
:10179000F6F902E0DFF8109000BF00BF4846BDE850
:1017A000F0870000083802400024F40000127A009C
:1017B000F8B504460CB90120F8BD207800F001000E
:1017C000002874D0F948006800F00C0004280DD0FF
:1017D000F648006800F00C00082813D1F348001FF9
:1017E000006800F48000B0F5800F0BD1EF48083896
:1017F0000068C0F34040002859D06068002856D1E6
:101800000120D9E700BF6068B0F5803F08D1E74804
:101810000838006840F48030E449083908601EE068
:101820006068B0F5A02F0DD1E0480838006840F49A
:101830008020DE49083908600846006840F480309E
:1018400008600CE0D9480838006820F48030D74997
:10185000083908600846006820F48020086000BF4E
:10186000606890B1FFF788FD054606E0FFF784FD4C
:10187000401B642801D903209EE7CC480838006843
:10188000C0F340400028F1D011E0FFF775FD054698
:1018900006E0FFF771FD401B642801D903208BE7A8
:1018A000C24808380068C0F340400028F1D12078D1
:1018B00000F0020002285FD1BC48006800F00C0074
:1018C00058B1BA48006800F00C0008281CD1B7488D
:1018D000001F006800F48000B0B9B4480838006800
:1018E000C0F3400020B1E068012801D0012063E787
:1018F000AE480838006820F0F800216940EAC100CD
:10190000AA490839086037E0E06800B30120A84917
:101910000860FFF731FD054606E0FFF72DFD401B8F
:10192000022801D9032047E7A04808380068C0F31F
:1019300040000028F1D09D480838006820F0F800E9
:10194000216940EAC10099490839086014E0002083
:1019500097490860FFF710FD054606E0FFF70CFD0C
:10196000401B022801D9032026E790480838006868
:10197000C0F340000028F1D1207800F008000828CA
:101980002CD16069A8B101208A490860FFF7F4FCF6
:10199000054606E0FFF7F0FC401B022801D90320B2
:1019A0000AE782486C300068C0F340000028F1D09C
:1019B00014E000207F490860FFF7DEFC054606E0E2
:1019C000FFF7DAFC401B022801D90320F4E6774830
:1019D0006C300068C0F340000028F1D1207800F09E
:1019E0000400042870D1002770483830006800F0E7
:1019F000805090B900BF002000906C4838300068DB
:101A000040F080506949383108600846006800F0AD
:101A10008050009000BF00BF01276748006800F4B5
:101A20008070B0B96448006840F480706249086012
:101A3000FFF7A2FC054606E0FFF79EFC401B0228CC
:101A400001D90320B8E65C48006800F480700028E3
:101A5000F2D000BFA068012808D15448683000685F
:101A600040F001005149683108601DE0A068052878
:101A70000DD14E486830006840F004004B49683191
:101A800008600846006840F0010008600CE0474824
:101A90006830006820F00100444968310860084659
:101AA000006820F00400086000BFA068A8B1FFF73C
:101AB00063FC054609E0FFF75FFC401B41F28831FB
:101AC000884202D9032077E626E03848683000686B
:101AD000C0F340000028EED013E0FFF74DFC0546B0
:101AE00008E0FFF749FC401B41F28831884201D9E8
:101AF000032061E62D4868300068C0F340000028EC
:101B0000EFD1012F07D129483830006820F08050EC
:101B100026493831086000BFA069002845D0234815
:101B2000006800F00C0008285DD0A069022845D1AB
:101B300000201F490866FFF71FFC054606E0FFF777
:101B40001BFC401B022801D9032035E61748083842
:101B50000068C0F340600028F1D1D4E907010843D0
:101B6000616A40EA81110122A06AC2EB500041EA99
:101B700000412C20005D41EA00600C49091F08600B
:101B800001200B490866FFF7F7FB054606E0FFF763
:101B9000F3FB401B022801D903200DE60348083857
:101BA0000068C0F340600028F1D03FE008380240F0
:101BB00000004742800E47420070004000201C4950
:101BC0000866FFF7D9FB054606E0FFF7D5FB401B8B
:101BD000022801D90320EFE516480068C0F34060F1
:101BE0000028F2D122E0A069012800D1E4E51148E3
:101BF000001D066806F48001E069814214D106F0F8
:101C00003F01206A81420FD147F6C0703040616ABF
:101C1000884209D106F44031A06A814204D106F01D
:101C20007061E06A814201D00120C5E50020C3E572
:101C3000000047420038024070B504462546681E41
:101C4000B0F1807F01D301200FE0681E4FF0E0214A
:101C500048610F214FF0FF3001F0D2FD00204FF01E
:101C6000E021886107200861002070BD704770473F
:101C700030B502460B4600BF92F83C00012801D166
:101C8000022030BD012082F83C0000BF022082F813
:101C90003D00106844681068816824F0700418687A
:101CA000044310684460144D1068A84213D01068B3
:101CB000B0F1804F0FD0114D1068A8420BD0104DDD
:101CC0001068A84207D00F4D1068A84203D00E4DEF
:101CD0001068A84205D121F08001586801431068BE
:101CE0008160012082F83D0000BF002082F83C00A6
:101CF00000BF00BFC5E70000000001400004004035
:101D000000080040000C00400040014010B50446AF
:101D10000CB9012010BD94F83D0028B9002084F8CA
:101D20003C00204600F00CF8022084F83D00211D04
:101D3000206801F079F9012084F83D000020E9E7EE
:101D400038B504462068B0F1804F18D100BF00209C
:101D500000901948006840F00100174908600846E3
:101D6000006800F00100009000BF00BF00220121C8
:101D70001C20FFF78BFB1C20FFF778FB1BE00F49B3
:101D80002068884217D100BF002000900A480068F0
:101D900040F00200084908600846006800F00200B0
:101DA000009000BF00BF00220A211D20FFF76EFB3C
:101DB0001D20FFF75BFB38BD4038024000040040A7
:101DC00001460868C06840F001000B68D8600868E8
:101DD000806800F00702062A05D00868006840F015
:101DE00001000B681860002070472DE9F04104469F
:101DF0000D4600BF94F83C00012802D10220BDE846
:101E0000F081012084F83C0000BF022084F83D00EE
:101E10002068866826F0770626F47F46206886606C
:101E20002868502833D00CDC202850D004DC00284F
:101E30004BD0102851D149E0302849D040284CD10E
:101E400039E060282DD0702807D0B0F5805F03D02E
:101E5000B0F5005F41D10DE040E0D5E902136A68BA
:101E6000206801F033F92068866846F0770620681C
:101E7000866033E0D5E902136A68206801F026F92C
:101E80002068806840F480402168886026E0EA6825
:101E90006968206801F02EF95021206801F021F9CD
:101EA0001CE0EA686968206801F037F96021206861
:101EB00001F017F912E0EA686968206801F01AF980
:101EC0004021206801F00DF908E000BF00BF00BF0D
:101ED0002968206801F005F900E000BF00BF01207B
:101EE00084F83D0000BF002084F83C0000BF00BF24
:101EF00085E7704710B5044620680069C0F34000CC
:101F0000D8B12068C068C0F34000B0B16FF00200E3
:101F100021680861012020772068806900F00300B3
:101F200018B12046FFF7E5FF05E0204600F0ADF8C8
:101F3000204600F0ABF80020207720680069C0F34D
:101F40008000D8B12068C068C0F38000B0B16FF0E5
:101F5000040021680861022020772068806900F46D
:101F6000407018B12046FFF7C4FF05E0204600F09E
:101F70008CF8204600F08AF800202077206800695D
:101F8000C0F3C000D8B12068C068C0F3C000B0B1D1
:101F90006FF0080021680861042020772068C0697C
:101FA00000F0030018B12046FFF7A3FF05E020462C
:101FB00000F06BF8204600F069F8002020772068D8
:101FC0000069C0F30010D8B12068C068C0F30010E9
:101FD000B0B16FF0100021680861082020772068F8
:101FE000C06900F4407018B12046FFF782FF05E099
:101FF000204600F04AF8204600F048F800202077FC
:102000002068006900F0010058B12068C06800F045
:10201000010030B16FF0010021680861204600F036
:1020200037F820680069C0F3C01058B12068C06854
:10203000C0F3C01030B16FF0800021680861204605
:10204000FFF714FE20680069C0F3801058B12068C3
:10205000C068C0F3801030B16FF0400021680861A3
:10206000204600F03FF820680069C0F3401058B1E6
:102070002068C068C0F3401030B16FF020002168C4
:1020800008612046FFF7F3FD10BD70477047000060
:1020900010B504460F4884420CD101F053F80E48A5
:1020A0000068401C0C490860084600680A2801D1F5
:1020B00000200860094884420BD109480068401C90
:1020C0000749086008460068B0F5FA6F01D10020A2
:1020D000086010BDC00100206800002080010020C1
:1020E0006C0000207047000010B506480078FEF72D
:1020F0003FFA0549087001220249044800F0D8FA65
:1021000010BD000084000020850000200002002097
:1021100010B566480078664908706648007810BBBC
:1021200008460078552814D163480078401C62495D
:10213000087008460078022815D100200870012098
:102140005C4908705D49087055205D490870487009
:1021500009E000205749087058490870564908702E
:102160005749087048705348007800287ED053487B
:102170000078022811D14E480078514988700846ED
:102180008078002804DB08468078B0F5157F04DBF2
:1021900000204B4988704749087048480078032858
:1021A00017D1434800784649C8700846C078454969
:1021B000087008460078032803DB084600780728E3
:1021C00007DD02203F49087000203D49C8703949A9
:1021D00008703A480078042810D13548007838490A
:1021E000087108460079012803DB08460079362883
:1021F00004DD0020324908712E490870314800780A
:10220000C01E31490978884216DD2C480078042820
:1022100012DD274801782A48401D2B4A1278815444
:1022200029480078401C2849087026480078C01EBC
:102230000978884200D12DE022480078C01E22494A
:102240000978884206D12048007818B118480078EB
:102250001B494874194801781A480078801C81424B
:1022600017D11A48007888B9012000E011E0174919
:1022700008700020114908700E4908700E49087056
:1022800002201049087000200F49087000200949F9
:10229000087000BF09480078401C084908700122F6
:1022A00002490B4800F004FA10BD00007D00002038
:1022B000830000207E0000207F000020810000209D
:1022C000CA02002080000020820000207C00002044
:1022D0008002002038B50446E06B00F0080078B1B9
:1022E00000BF0020009020680068009020684068CF
:1022F000009000BF00BF01220249034800F0D8F956
:1023000038BD000084000020000200202DE9F047C5
:102310000446206805682068C668206847694FF051
:102320000008C14605F00F08B8F1000F0AD105F00A
:10233000200038B106F0200020B1204600F04EFF0A
:10234000BDE8F087B8F1000F72D007F0010018B9AE
:1023500006F4907000286BD005F0010030B106F44F
:10236000807018B1E06B40F00100E06305F00400FC
:1023700030B107F0010018B1E06B40F00200E063FB
:1023800005F0020030B107F0010018B1E06B40F039
:102390000400E06305F0080048B106F0200010B921
:1023A00007F0010018B1E06B40F00800E063E06B5B
:1023B00070B305F0200028B106F0200010B12046CF
:1023C00000F00CFF20684069C0F38019E06B00F05A
:1023D000080010B9B9F1000F23D0204600F0DEFE4E
:1023E0002068406900F04000402816D1206840690C
:1023F00020F0400021684861606B50B11748616B64
:102400000865606BFEF7B6FC10B1606B016D884724
:102410000CE02046FFF75EFF08E02046FFF75AFF7A
:1024200004E02046FFF756FF0020E06388E7FFE75F
:1024300005F0800030B106F0800018B1204601F0B0
:1024400015F97DE705F0400030B106F0400018B105
:10245000204600F0B3FE73E700BF71E78931000842
:1024600010B504460CB9012010BDA06900B100E010
:1024700000BF94F8390028B9002084F838002046BD
:1024800000F028F8242084F839002068C06820F47F
:1024900000502168C860204600F0F4FE2068006902
:1024A00020F49040216808612068406920F02A00EB
:1024B000216848612068C06840F400502168C86005
:1024C0000020E063202084F8390084F83A000020DE
:1024D000CAE7000010B586B00446142101A8FDF734
:1024E000B1FE6C492068884239D100BF00200090BD
:1024F0006948006840F010006749086008460068B5
:1025000000F01000009000BF00BF00BF002000904E
:1025100061481438006840F001005F4914390860D0
:102520000846006800F00100009000BF00BF4FF4B3
:10253000C0600190022002900020039003200490CC
:102540000720059001A95548FEF71CFE0022032133
:102550002520FEF79BFF2520FEF788FF97E05049D6
:102560002068884257D100BF002000904A48001FD1
:10257000006840F400304849091F086008460068B8
:1025800000F40030009000BF00BF00BF00200090AA
:1025900041481438006840F001003F491439086090
:1025A0000846006800F00100009000BF00BF00BFB7
:1025B000002000900846006840F0080008600846C7
:1025C000006800F00800009000BF00BF04200190E8
:1025D0000220029000200390032004900720059021
:1025E00001A92E48FEF7CEFD402001900220029066
:1025F00000200390032004900720059001A929489A
:10260000FEF7C0FD002205212620FEF73FFF262011
:10261000FEF72CFF3BE024492068884237D100BFF9
:10262000002000901C48006840F020001A49086013
:102630000846006800F02000009000BF00BF00BF07
:102640000020009014481438006840F0040012493B
:10265000143908600846006800F00400009000BFCC
:1026600000BFC020019002200290002003900320B0
:1026700004900820059001A90C48FEF783FD002274
:1026800006214720FEF702FF4720FEF7EFFE06B0C7
:1026900010BD00000010014044380240000002401C
:1026A00000440040000C02400014014000080240B9
:1026B00010B5034693F83A0020282FD101B10AB98A
:1026C000012010BD00BF93F83800012801D102207D
:1026D000F7E7012083F8380000BF99629A85DA8510
:1026E0000020D863222083F83A0000BF002083F83E
:1026F000380000BF1868C06840F480701C68E06053
:102700001868406940F001001C6860611868C06882
:1027100040F020001C68E0600020D2E70220D0E7F3
:1027200010B5044606492068884201D1FFF7DCFC59
:1027300004492068884201D1FFF7EAFC10BD00007F
:1027400000100140001401402DE9F84304460D46F5
:1027500016461F464FF0000994F8390020285DD135
:1027600005B116B90120BDE8F88300BF94F8380020
:10277000012801D10220F6E7012084F8380000BFCB
:102780000020E063212084F83900FEF7F5FD814642
:10279000A684E68400BF002084F8380000BF2BE048
:1027A000E08C401EE084A068B0F5805F16D14B46F7
:1027B000002280212046009700F08CFF08B1032002
:1027C000D1E7A846B8F80000C0F3080021684860C7
:1027D000206908B9AD1C0FE06D1C0DE04B460022CE
:1027E00080212046009700F075FF08B10320BAE76A
:1027F00015F8010B21684860E08C0028D0D14B46C9
:10280000002240212046009700F064FF08B1032019
:10281000A9E7202084F839000020A4E70220A2E7DD
:1028200070470CB500BFEFF30980019000BFEFF3D4
:102830000880009000BFFEE710B54FF4FA70FEF775
:102840008DFC38A000F0CCFF4FF47A70FEF786FCC8
:10285000FDF740FE404908700846007820B93FA0C7
:1028600000F0BEFFFDF75EFF46A000F0B9FF4FF499
:102870007A70FEF773FC00F09FFF37490870084636
:10288000007820B949A000F0ABFFFDF74BFF50A046
:1028900000F0A6FF4FF47A70FEF760FC00F058FFDE
:1028A0002D4908700846007820B952A000F098FF22
:1028B000FDF738FF58A000F093FF4FF47A70FEF751
:1028C0004DFC00F0D9FA244908700846007820B978
:1028D0005AA000F085FFFDF725FF61A000F080FF02
:1028E0004FF47A70FEF73AFCFDF74AFF1A49087078
:1028F0000846007820B963A000F072FFFDF712FFD0
:1029000069A000F06DFF4FF47A70FEF727FC6FA00E
:1029100000F066FF4FF4FA70FEF720FC0E480078D6
:1029200010BD00003D3D3D3D5468652073797374D2
:10293000656D2073746172747320746F20696E69A1
:102940007469616C697A6520686172647761726527
:102950003D3D3D3D0D0A0000000000204661696CD0
:10296000656420746F20696E697469616C697A6549
:10297000204144432E2050726F6365647572650D6B
:102980000A0000007375636365737320746F2069B8
:102990006E697469616C697A6520414443205072A4
:1029A0006F6365647572650D0A0000004661696CAD
:1029B000656420746F20696E697469616C697A65F9
:1029C000205553415254362049540D0A000000004E
:1029D0007375636365737320746F20696E697469BE
:1029E000616C697A65205553415254362049540D23
:1029F0000A0000004661696C656420746F20696E8E
:102A0000697469616C697A6520555341525431206B
:102A100049540D0A000000007375636365737320E9
:102A2000746F20696E697469616C697A65205553A9
:102A3000415254312049540D0A0000004661696C2E
:102A4000656420746F20696E697469616C697A6568
:102A500020536572766F4D6F746F720D0A0000001F
:102A60007375636365737320746F20696E6974692D
:102A7000616C697A6520536572766F4D6F746F7201
:102A80000D0A00004661696C656420746F20696EF0
:102A9000697469616C697A65204779726F73636FD5
:102AA00070650D0A00000000737563636573732021
:102AB000746F20696E697469616C697A6520477901
:102AC000726F73636F70650D0A000000446576696C
:102AD000636520706F7765722D6F6E2064656C6121
:102AE0007920353030206D732C20706C65617365F2
:102AF00020776169740D0A001FB5002000900190D5
:102B0000029003902D482E4908604FF480304860B1
:102B100000212B4881600121016100210176012102
:102B200080F8201041620021C162264981620021A3
:102B3000C1600521C161012180F830104161FDF7BC
:102B4000D1FF08B1FDF7EEFD0120009001900320B8
:102B5000029069461A48FDF731FE08B1FDF7E2FD23
:102B6000032000900220019069461548FDF726FEDB
:102B700008B1FDF7D7FD05200090032001906946BC
:102B80000F48FDF71BFE08B1FDF7CCFD06200090B5
:102B90000420019069460A48FDF710FE08B1FDF7D0
:102BA000C1FD112000900520019069460448FDF701
:102BB00005FE08B1FDF7B6FD1FBD00000020014075
:102BC000D80000200100000F08B500BF00200090D1
:102BD0000A48006840F48000084908600846006818
:102BE00000F48000009000BF00BF002202213820C6
:102BF000FEF74CFC3820FEF739FC08BD30380240A7
:102C000000B587B0142102A8FDF71CFB00BF00200F
:102C100001902748006840F00400254908600846F4
:102C2000006800F00400019000BF00BF00BF00205A
:102C300001900846006840F080000860084600687F
:102C400000F08000019000BF00BF00BF0020019095
:102C50000846006840F0010008600846006800F07F
:102C60000100019000BF00BF00BF00200190084696
:102C7000006840F0080008600846006800F008009E
:102C8000019000BF00BF00224FF470410948FEF7D9
:102C90006CFB4FF4704002900120039000200490E0
:102CA000059002A90348FEF76DFA07B000BD0000C9
:102CB00030380240000C024000B587B0002003907D
:102CC000049005900690019002904FF080401449C6
:102CD000086040F2E73048600021114881603121EE
:102CE000C1600021016180218161FFF70FF808B107
:102CF000FDF718FD4FF48050039003A90848FFF733
:102D000074F808B1FDF70EFD00200190029001A9B2
:102D10000348FEF7ADFF08B1FDF704FD07B000BDA5
:102D20008001002000B587B000200390049005903A
:102D300006900190029015481549086042F20F7004
:102D4000486000211248816042F20F71C160002189
:102D500001618161FEF7DAFF08B1FDF7E3FC4FF492
:102D60008050039003A90A48FFF73FF808B1FDF728
:102D7000D9FC00200190029001A90548FEF778FFD8
:102D800008B1FDF7CFFC07B000BD00000004004013
:102D9000C001002010B50B480B4908604FF41650D5
:102DA0004860002108488160C16001610C214161D7
:102DB00000218161C161FFF753FB08B1FDF7B2FC4F
:102DC00010BD0000001001400002002010B50B48AB
:102DD0000B4908604FF4E1304860002108488160E9
:102DE000C16001610C21416100218161C161FFF776
:102DF00037FB08B1FDF796FC10BD00000044004011
:102E00004002002010B50B480B4908604FF4E13038
:102E10004860002108488160C16001610C21416166
:102E200000218161C161FFF71BFB08B1FDF77AFC4E
:102E300010BD0000001401408002002000BFFEE72A
:102E400000BFFEE77047704770B5054601260024B5
:102E50000AE0285D06490870FF2301220548FFF7B4
:102E600073FC00B10026641C032CF2DB304670BDFD
:102E7000D00000200002002070B50125002400BF12
:102E80000AE04FF496720021204600F01BF8322031
:102E9000FEF764F9601CC4B2062CF2DD3220FEF7A6
:102EA0005DF96FF001000649096808610448FEF702
:102EB00087FF10B10025284670BD2846FCE70000BA
:102EC000C0010020F0B58BB006460C461546012720
:102ED00055208DF818008DF819008DF81A6007201C
:102EE0008DF81B0001208DF81C00E0B28DF81D004C
:102EF000210A8DF81E108DF81F50291206A80172A4
:102F0000122201A9FDF70CFB01A8FDF727FC8DF8A3
:102F1000290001A906A8FDF710FB122101A800F065
:102F200039FC074638460BB0F0BD10B5FEF72AFA5B
:102F300010BD000000B593B0302107A8FDF782F95D
:102F4000142102A8FDF77EF900BF0020019025485A
:102F5000006840F08050234908600846006800F08F
:102F60008050019000BF00BF00BF002001901E48AC
:102F7000006840F440401C4908600846006800F4BE
:102F80004040019000BF00BF0220079001200A903E
:102F900010200B9002200D9000210E9110210F9116
:102FA0004FF4C8711091042111910821129107A8C2
:102FB000FEF7FEFB08B1FDF7B5FB0F2002900220E3
:102FC0000390002004904FF480500590002006905C
:102FD000032102A8FEF7ACFA08B1FDF7A3FB13B07A
:102FE00000BD000040380240007000400548006805
:102FF00040F47000034908604FF0006001498039D7
:103000000860704788ED00E010B50248FEF772FFD7
:1030100010BD00008001002010B50248FEF76AFFD5
:1030200010BD0000C001002010B50268204B98427E
:103030000BD0B0F1804F08D01E4B984205D01E4BEC
:10304000984202D01D4B984203D122F070024B6887
:103050001A43174B984214D0B0F1804F11D0154B42
:1030600098420ED0144B98420BD0144B984208D083
:10307000134B984205D0134B984202D0124B984202
:1030800003D122F44072CB681A4322F080034C69CA
:1030900043EA040202608B68C3620B688362044BDC
:1030A000984201D10B6903630123436110BD000005
:1030B000000001400004004000080040000C0040F7
:1030C00000400140004401400048014030B50C463A
:1030D000816821F47F4142EA032525432943816029
:1030E00030BD0A46816821F0700142F007031943A0
:1030F0008160704730B50B461446026A056A25F0B8
:1031000001050562816921F0F00141EA041122F014
:103110000A021A438161026230BD30B50B46144683
:10312000056A25F0100505628169026A21F4704183
:1031300041EA043122F0A00242EA031281610262F4
:1031400030BD0000002009490870094908700220BC
:1031500008490870002008490870084908700849A3
:103160000870084908704870704700007E00002011
:103170007F000020800000208100002082000020CD
:1031800083000020CA02002070B50546AC6B002009
:10319000E085E0842046FFF79DF870BD0168C968AE
:1031A00021F490710268D1600168496921F0010140
:1031B00002685161202180F83A10704710B504462A
:1031C0002068C06820F040002168C860202084F892
:1031D00039002046FFF724FB002010BD70B50446DF
:1031E00094F83A0022284AD1A068B0F5805F13D144
:1031F000A56A206940B920684068C0F308002880AB
:10320000A06A801CA06219E020684068C0B22880D3
:10321000A06A401CA06211E0206938B920684068AB
:10322000C1B2A26A501CA062117007E02068406819
:1032300000F07F01A26A501CA0621170E08D401E58
:1032400080B2E085C8B92068C06820F020002168FD
:10325000C8602068C06820F480702168C860206859
:10326000406920F0010021684861202084F83A007C
:103270002046FFF755FA002070BD0020FCE7022031
:10328000FAE700002DE9F84F04462068006920F4B1
:103290004050E1680843216808612169A06808433B
:1032A00061690843E169084300902068C06849F2F9
:1032B0000C618843009908432168C8602068406910
:1032C00020F44070A169084321684861E069B0F5C5
:1032D000004F75D1E3492068884203D0E249206855
:1032E00088426FD1FEF7FCF9814602206168A0FB9D
:1032F00001510B461920A9FB00712A463846FCF7FC
:1033000069FF6421B0FBF1F04FEA001A0220616806
:10331000A0FB01510B461920A9FB00712A46384633
:10332000FCF758FF074602206168A0FB01510B46DD
:103330001920A9FB00B12A465846FCF74BFF64212F
:10334000B0FBF1F000EBC00101EB0010A7EB800037
:10335000322101EBC0006421B0FBF1F000F0F80075
:103360000AEB400A02206168A0FB01510B461920BC
:10337000A9FB00712A463846FCF72CFF07460220BD
:103380006168A0FB01510B461920A9FB00B12A4638
:103390005846FCF71FFF6421B0FBF1F000EBC001C1
:1033A00001EB0010A7EB8000322101EBC00064218B
:1033B000B0FBF1F000F007005044216888604FE155
:1033C0006EE0FFE7FEF77CF9814602206168A0FB12
:1033D00001510B461920A9FB00712A463846FCF71B
:1033E000F9FE6421B0FBF1F04FEA001A0220616897
:1033F000A0FB01510B461920A9FB00712A46384653
:10340000FCF7E8FE074602206168A0FB01510B466D
:103410001920A9FB00B12A465846FCF7DBFE6421BF
:10342000B0FBF1F000EBC00101EB0010A7EB800056
:10343000322101EBC0006421B0FBF1F000F0F80094
:103440000AEB400A02206168A0FB01510B461920DB
:10345000A9FB00712A463846FCF7BCFE074602204D
:103460006168A0FB015003461920A9FB00B12A4660
:103470005846FCF7AFFE6421B0FBF1F000EBC00151
:1034800001EB0010A7EB8000322101EBC0006421AA
:10349000B0FBF1F000F00700504421688860DFE0E5
:1034A00070492068884203D06F49206888426BD1F8
:1034B000FEF716F9814604206168A0FB01510B4616
:1034C0001920A9FB00712A463846FCF783FE824684
:1034D00004206168A0FB01510B461920A9FB007173
:1034E0002A463846FCF776FE6421B0FBF1F000EB8B
:1034F000C00101EB0010AAEB8000322101EB0010AB
:103500006421B0FBF1F000F0F00A04206168A0FB38
:10351000015003461920A9FB00712A463846FCF7E2
:1035200059FE6421B0FBF1F00AEB001A0420616837
:10353000A0FB01510B461920A9FB00712A46384611
:10354000FCF748FE074604206168A0FB01500346D3
:103550001920A9FB00B12A465846FCF73BFE64211E
:10356000B0FBF1F000EBC00101EB0010A7EB800015
:10357000322101EB00106421B0FBF1F000F00F00EC
:103580005044216888606BE0FEF79AF88146042079
:103590006168A0FB015003461920A9FB00712A466F
:1035A0003846FCF717FE824604206168A0FB0150F4
:1035B00003461920A9FB00712A463846FCF70AFE8B
:1035C0006421B0FBF1F000EBC00101EB0010AAEBAD
:1035D0008000322101EB00106421B0FBF1F000F01B
:1035E000F00A04206168A0FB015003461920A9FBE2
:1035F00000712A463846FCF7EDFD6421B0FBF1F07E
:103600000AEB001A04206168A0FB01700346192030
:10361000A9FB005001463A462846FCF7DBFD074669
:1036200004206168A0FB015003461920A9FB00B1EA
:103630002A465846FCF7CEFD6421B0FBF1F000EBC2
:10364000C00101EB0010A7EB8000322101EB00105C
:103650006421B0FBF1F000F00F0050442168886055
:10366000BDE8F88F0010014000140140014691F8B8
:10367000390021282CD18868B0F5805F0FD10A6A03
:103680001088C0F308000B685860086918B9086A08
:10369000801C086209E0086A401C086205E00B6AA9
:1036A000581C086218780B685860C88C401E80B29D
:1036B000C88458B90868C06820F080000B68D860DA
:1036C0000868C06840F040000B68D8600020704770
:1036D0000220FCE72DE9F04104460D4617469846C6
:1036E000069E21E0701CF8B12EB1FDF745FEA0EB5F
:1036F0000800B04218D92068C06820F4D070216852
:10370000C8602068406920F00100216848612020DD
:1037100084F8390084F83A0000BF002084F83800AB
:1037200000BF0320BDE8F081206800682840A8425F
:1037300001D1012000E00020B842D3D00020F1E701
:1037400010B50248FEF7E2FD10BD000000020020A7
:1037500010B50124012205490548FEF7A9FF10B163
:103760000024204610BD2046FCE700008400002015
:103770000002002010B50248FEF7C8FD10BD000091
:103780004002002010B50248FEF7C0FD10BD000049
:103790008002002070B504460D46012664232A46A7
:1037A00021460448FEF7D0FF10B10026304670BD18
:1037B0003046FCE78002002010B5012401220549B3
:1037C0000548FEF775FF10B10024204610BD2046C5
:1037D000FCE700007D0000208002002000BFFEE723
:1037E000014A024900F02FB869380008880000201B
:1037F00002480068C0F30220704700000CED00E0B2
:1038000010B5002804DB0A07130E054A135406E01E
:103810000A07140E034A00F00F031B1FD45410BDF7
:1038200000E400E018ED00E002E008C8121F08C143
:10383000002AFAD170477047002001E001C1121F31
:10384000002AFBD170472DE9F04116460F46044689
:10385000002503E03946B047641C6D1C2078002821
:10386000F8D12846BDE8F081074A126802F080725C
:1038700042B100BF4FF060421268002AFAD04FF008
:103880006043187070470000FCED00E0FDF786FD16
:10389000FFF750FBFFF7B4F9FFF796F9FFF72CF9A4
:1038A000FFF778FAFFF792FAFFF7ACFAFFF704FA9E
:1038B000FFF738FAFEF7C0FF07490870084600789E
:1038C00020B906A0FFF78CFFFCF72CFF0EA0FFF736
:1038D00087FF00BFFEE70000000000204661696C22
:1038E000656420746F20696E697469616C697A65BA
:1038F0002048617264776172652050726F636564FD
:103900007572650D0A00000073756363657373203B
:10391000746F20696E697469616C697A65204861A9
:103920007264776172652050726F63656475726549
:103930000D0A00000006101600061016FFAA52FF1E
:10394000AA67FFAA60FFAA61FFAA62000000000048
:10395000000000010203040607080900000000013E
:10396000020304008439000800000020D800000091
:10397000283800085C3A0008D80000200007000042
:1039800038380008010000000000000000000000BE
:103990000000000000000000000000000000000027
:1039A0000000000000000000000000000000000017
:1039B0000000000000000000000000000000000007
:1039C00000000000000000000000000000000000F7
:1039D000060000000000000084030000F401000065
:1039E00000000000100000000100000000000000C6
:1039F00000000000000000000000000000000000C7
:103A000000000000020000000001000000000000B3
:103A100000000000000000000000000000000000A6
:103A20000000000000000000000000000000000096
:103A30000000000000000000000000000000000086
:103A40000000000000000000000000000000000076
:0C3A500000000000000000000024F40052
:040000050800019955
:00000001FF
